:020000040800F2
:10000000881C0020E1520008713E0008EB520008F5
:10001000733E0008773E00087B3E000800000000A9
:100020000000000000000000000000007F3E00080B
:10003000813E000800000000F7520008513F000810
:10004000FB520008FB520008FB520008FB5200085C
:10005000FB520008FB520008FB520008FB5200084C
:10006000FB520008FB520008FB520008FB5200083C
:10007000FB520008FB520008FB520008FB5200082C
:10008000FB520008FB520008FB520008FB5200081C
:10009000FB520008FB520008FB520008833E000898
:1000A000FB520008FB520008FB520008FB520008FC
:1000B000FB520008953E00089D3E0008FB520008D8
:1000C000FB520008FB520008FB520008FB520008DC
:1000D000FB520008B93E0008C13E0008C93E0008B6
:1000E000FB520008FB520008FB520008FB520008BC
:1000F000FB520008FB520008FB520008FB520008AC
:10010000FB520008FB520008FB520008FB5200089B
:10011000D13E0008D93E0008FB5200089F3E00086F
:10012000FB520008FB520008FB520008FB5200087B
:10013000FB520008FB520008FB520008FB5200086B
:10014000FB520008FB520008FB520008FB5200085B
:10015000FB520008FB520008FB520008E13E000879
:10016000FB520008FB520008FB520008FB5200083B
:10017000FB520008FB520008FB520008FB5200082B
:10018000FB520008FB520008DFF80CD00DF0F4FA27
:1001900000480047A1010008881C002000BFFEE7BE
:1001A00002F022FA00F09EF801E000F0C1F8FCE74E
:1001B000704770477148007804280BD06F4800786A
:1001C000292807D06D4800782D2803D06B48007887
:1001D00033280ED16A48B0F900006A4908806A489D
:1001E000B0F90000694908806948D0F80E006949F3
:1001F00008607047704710B52DED088B00F01AFAB3
:100200006048B0F900000DF074F941EC1B0B9FED54
:10021000620B53EC102B0DF0FAF841EC190B584817
:10022000B0F900000DF065F941EC1A0B53EC192BF5
:100230000DF0E7F841EC180B0DF06CF900B25849DD
:1002400008805248B0F900000DF053F941EC1B0B47
:100250009FED540B53EC102B0DF0D9F841EC190B1A
:100260004948B0F900000DF044F941EC1A0B53EC89
:10027000192B0DF0C6F841EC180B0DF04BF900B23C
:100280004A4908803E4800883E490988401A00B221
:10029000474908803C4800883C490988401A00B218
:1002A00044490880F2214448006800F050FC43496A
:1002B0000878F42100F00DFCF5214148007800F0A9
:1002C00008FCF6213F48007800F003FCF7212B489A
:1002D000007800F0FEFB00F08BFCBDEC088B10BD3D
:1002E00070477047002000BF1FE000EB4001364A16
:1002F00002EB810189884FF47A7292FBF1F100EBF5
:100300004002314B03EB8202D18000EB40011A46E0
:1003100002EB8101C988012905DA012100EB4002C5
:1003200003EB8202D180411CC8B20728DDD370479D
:1003300070B5002400BF1EE003F014FE054604EB78
:100340004400214901EB80008068281A04EB440135
:100350001D4A02EB8101C98888420AD304EB44009C
:10036000114601EB8000856004EB440152F8210046
:100370008047601CC4B2072CDED370BD080000208B
:100380000E000020120000201000002014000020A9
:10039000320A002000000020333333333333EB3F85
:1003A0006C000020CDCCCCCCCCCCEC3F6E0000203F
:1003B00070000020720000208C0000203C02002011
:1003C0003D0200203E02002018000020F1B52DED76
:1003D000020B9AB00646002400250027AA222146D7
:1003E000641C01A84254FF222146641C4254214649
:1003F000641C465404222146641C42549DF8682023
:100400002146641C42549DF869202146641C4254D4
:100410009DF86A202146641C42549DF86B202046BA
:10042000611CCCB201A90A54002007E001A9095CB3
:100430002944CDB27919CFB2411CC8B29DF807103A
:10044000091D8142F2DC2046611CCCB201A90D5489
:100450002046611CCCB201A90F54214601A804F02A
:10046000A6FE1DB0F0BDF3B599B00E4600240025E0
:100470000027AA222146641C0DF80120FF222146F4
:10048000641C0DF801202146641C0DF80160022255
:100490002146641C0DF801209DF864202146641C4F
:1004A0000DF801209DF865202146641C0DF80120FF
:1004B000002007E01DF800102944CDB27919CFB211
:1004C000411CC8B29DF80310091D8142F2DC204690
:1004D000611CCCB20DF800502046611CCCB20DF866
:1004E00000702146684604F062FE1BB0F0BD2DE9A5
:1004F000F04706460F4690469946A8EB060005B21F
:10050000A9EB070004B215FB05F014FB040000EE94
:10051000900AF8EEE00AB0EE600A02F0B5FBBCEE1D
:10052000C00A10EE100AFE490870002D1DDD002CD7
:100530001BDD002D01DD284600E0684201EE100AB7
:10054000F8EEC10A002C01DD204600E0604201EE19
:10055000100AB8EEC10A02F0B6FADFEDF20A30EE88
:10056000C00AF14880ED000A62E0002D21DA002C7B
:100570001FDD002D01DD284600E0684201EE100A73
:10058000F8EEC10A002C01DD204600E0604201EED9
:10059000100AB8EEC10A02F096FADFEDE40A30EE76
:1005A000C00ADFEDE00A30EEC00ADF4880ED000A45
:1005B0003EE0002D21DA002C1FDA002D01DD284657
:1005C00000E0684201EE100AF8EEC10A002C01DDDD
:1005D000204600E0604201EE100AB8EEC10A02F0C7
:1005E00072FADFEDD20A30EE200ADFEDCE0A30EEED
:1005F000C00ACD4880ED000A1AE0002D18DD002C5D
:1006000016DA002D01DD284600E0684201EE100AEE
:10061000F8EEC10A002C01DD204600E0604201EE48
:10062000100AB8EEC10A02F04EFABF4880ED000A87
:10063000BDE8F08710B52DED028BBD4890F838006D
:10064000002874D1BA48B0F94200B0F5487F0DDDFA
:10065000B748B0F94200B0F5966F07DAB5480078B0
:1006600038B901F0BDFDB349087002E00020B1497E
:100670000870AF48B0F9420040F2A461884210DD32
:10068000AB48B0F9420040F69801884209DAAA481E
:10069000007848B90120A84908700020A7490870CF
:1006A00002E00020A4490870A3480078012872D114
:1006B000A248007814286FD2DFE800F00A131C2447
:1006C0003A435878A2FE6E6E6E6E6E6E6E6EFDFCD4
:1006D00000209B49088099480078401C9749087081
:1006E000F0E196480078401C944908700020954934
:1006F0000870E7E101F00EFC9049097808448F4941
:100700000870DFE18E48008841F28831884205DABE
:100710008B48008814308A49088007E00020884907
:10072000088086480078401C84490870CAE1CDE101
:10073000642001F034FD8149097808447F4908703C
:10074000C0E17F48008841F28831884205DA7C4860
:10075000008814307A49088007E000207849088032
:1007600076480078401C75490870ABE174480088F1
:10077000B0F5FA6F11DA72480088143070490880B9
:1007800008460088A0F5FA7078B900220F210846C3
:1007900001F03FFD09E096E193E168480078401CD4
:1007A000664908700020664908808BE1664890F829
:1007B000E40002280AD0644890F8E400FF281ED123
:1007C000002207210A2001F024FD18E00022052163
:1007D0000A2001F01EFD5B480078642805DA5948BC
:1007E0000078401C5749087009E054480078401CC4
:1007F000524908700020524908805249087061E14E
:100800004F48008814304E4908804F4890F8E40063
:1008100002287DD14D4800689B2808DA4B480068C3
:10082000912804DDB0EE008ADFED498A2AE04748CE
:1008300000689B2808DA45480068AA2804DD9FED77
:10084000458ADFED458A1DE040480068822808DDC2
:100850003E480068912804DA9FED408AF7EE088A46
:1008600010E03A4800685A2808DD384800688228B5
:1008700004DA9FED3B8AF7EE008A03E0B6EE008AC9
:10088000DFED388A3848B0F9000000EE100AB8EE03
:10089000C00A20EE480ABDEEC00A10EE100A03B2EC
:1008A0003248B0F9000000EE100AB8EEC00A20EE9F
:1008B000680A02E002E1EDE0C1E0BDEEC00A10EE20
:1008C000100A02B200210846FFF711FE2748B0F9CE
:1008D000000000EE100AB8EEC00A20EE280ABCEEB6
:1008E000C00A10EE100A224908701F48B0F9000033
:1008F00000EE100AB8EEC00A20EE080ABCEEC00AEC
:1009000010EE100A1B490870F8210548007800E035
:1009100088E0FFF7A8FDF920034991ED000A2BE0DC
:100920007B0000200000B44304000020000034439A
:10093000920A002047010020480100200800002002
:100940004A01002079000020E00B00208C000020EC
:10095000E17AD43F9A991940C3F5E83F295CCF3F2B
:100960009A99993FCDCCCC3E9A0000209C00002063
:100970003D0200203E020020FFF728FDFB48B0F9B1
:10098000000010F1060F0FDBF848B0F90000062850
:100990000ADCF748B0F9000010F1060F04DBF44858
:1009A000B0F90000062816DDF24800884FF47A718D
:1009B00090FBF1F201FB120098BBEF4890ED000AAA
:1009C000BCEEC00A10EE100A82B20A21EB48007891
:1009D00001F01FFC25E0E548B0F9000010F1060F1A
:1009E0001FDDE248B0F9000006281ADAE048B0F945
:1009F000000010F1060F14DDDD48B0F900000628F4
:100A00000FDADF4890F8E40001280AD10920DD4917
:100A1000087000221146104601F0FBFB0020D5496A
:100A2000088000BFD348008843F69821884205DD3E
:100A30000920D44908700020CE49088042E0CD4802
:100A4000008841F65831884218DACA4800881430C4
:100A5000C849088008460088B0F5FA7F19D1C8480F
:100A600090F8E5005A2804DA0F215A2001F0DBFA49
:100A70000FE00F215A2001F0ADFA0AE000221146E2
:100A8000104601F0C6FB0020BA4908801220BD497B
:100A9000087017E0B7480088B0F57A6F05DAB548F6
:100AA00000881430B349088007E00020B14908806D
:100AB000B4480078401CB349087003E001F090FB93
:100AC00000E000BF02E00020AE490870BDEC028BE0
:100AD00010BD2DE9F0419AB006460F4600240025CE
:100AE000A046AA222146641C01A84254FF222146A6
:100AF000641C42542146641C475401222146641C54
:100B000042542146641C4654002009E001A9095CB6
:100B10002944CDB208EB050101F0FF08411CC8B221
:100B20009DF80710091D8142F0DC2046611CCCB203
:100B300001A90D542046611CCCB201A901F8008026
:100B4000214601A804F033FB1AB0BDE8F081F3B5EB
:100B500099B00E46002400250027AA222146641CD5
:100B60000DF80120FF222146641C0DF801202146CA
:100B7000641C0DF8016004222146641C0DF801205C
:100B80009DF864202146641C0DF801209DF8652025
:100B90002146641C0DF801209DF866202146641C46
:100BA0000DF801209DF867202046611CCCB20DF89D
:100BB0000020002007E01DF800102944CDB279196B
:100BC000CFB2411CC8B29DF80310091D8142F2DC6E
:100BD0002046611CCCB20DF800502046611CCCB2FE
:100BE0000DF800702146684604F0E1FA1BB0F0BD34
:100BF00070B50024AA222146641C63484254FF2297
:100C00002146641C42545E4890F8D80001284BD01D
:100C10005B4890F8D800022847D1F3222046611C97
:100C2000CCB259490A5400222046611CCCB2564924
:100C30000A54534890F8E4202046611CCCB2524933
:100C40000A544F4890F8E5202046611CCCB24E492A
:100C50000A544B4890F8E6202046611CCCB24A4921
:100C60000A54474890F8E7202046611CCCB2464918
:100C70000A54434890F8E8202046611CCCB242490F
:100C80000A54201FC8703E4890F8E40002284FD153
:100C90003B4890F8E700233834490880384890F8FA
:100CA000E80023383249088042E0354890F8D800FF
:100CB00003283DD1F4222046611CCCB232490A54AB
:100CC00000222046611CCCB22F490A542C4890F8CF
:100CD000CE202046611CCCB22B490A54284890F8FB
:100CE000CA202046611CCCB227490A54244890F8F7
:100CF000CB202046611CCCB223490A54204890F8EE
:100D0000D0202046611CCCB21F490A541C4890F8E0
:100D1000D4202046611CCCB21B490A54184890F8D4
:100D2000D5202046611CCCB217490A54201FC87038
:100D300000250026002007E01349095C2944CDB2B4
:100D40007119CEB2411CC8B2A042F5DB2046611C2D
:100D5000CCB20D490D542046611CCCB20A490E5448
:100D60002146094804F023FA70BD00009A000020D3
:100D70009C0000204A010020040000207B0000208D
:100D8000E00B002008000020B002002030B5034630
:100D9000002B01DD1C4600E05C4264256C43002909
:100DA00001DD0D4600E04D4294FBF5F400EE104AE3
:100DB000B8EEC00AB24C84ED000A94ED000ADFEDF3
:100DC000B10AB4EE600AF1EE10FA13D1012A06D08E
:100DD000022A06D0032A07D0042A09D106E04820B7
:100DE00007E04FF4907004E0FC2002E06C2000E08B
:100DF00000BF7EE0A24C94ED000ADFEDA30AB4EE42
:100E0000600AF1EE10FA13D1012A06D0022A06D0A8
:100E1000032A07D0042A09D106E03F2007E040F268
:100E2000291004E0F32002E0752000E000BF60E03C
:100E3000934C94ED000ADFED950AB4EE600AF1EEF2
:100E400010FA13D1012A06D0022A06D0032A07D0AD
:100E5000042A09D106E02D2007E040F23B1004E00F
:100E6000E12002E0872000E000BF42E0844C94EDE6
:100E7000000ADFED870AB4EE600AF1EE10FA13D132
:100E8000012A06D0022A06D0032A07D0042A09D153
:100E900006E01B2007E040F24D1004E0CF2002E006
:100EA000992000E000BF24E0754C94ED000ADFEDCE
:100EB000790AB4EEE00AF1EE10FA1AD294ED000AC3
:100EC000B5EEC00AF1EE10FA13DD012A06D0022AAF
:100ED00006D0032A07D0042A09D106E0122007E031
:100EE0004FF4AB7004E0C12002E0A22000E000BF9C
:100EF00000BF30BD2DE9F04780468946664830F88E
:100F00001900654931F81810401A06B2634830F8E4
:100F10001900624931F81810401A05B2002E0ADD96
:100F2000002D08DD01273A4629463046FFF72EFFFF
:100F30005B49088046E0002E0ADA002D08DD022712
:100F40003A4629463046FFF721FF5549088039E0E7
:100F5000002E0ADA002D08DA03273A4629463046E1
:100F6000FFF714FF4E4908802CE0002E0ADD002D0B
:100F700008DA04273A4629463046FFF707FF484972
:100F800008801FE0002E05DD25B905275A204449B9
:100F9000088017E036B9002D04DD062700204049FF
:100FA00008800FE0002E06DA2DB907274FF487706E
:100FB0003B49088006E02EB9002D03DA0827B4204B
:100FC0003749088006FB06F005FB050000EE900A95
:100FD000F8EEE00AB0EE600A01F056FEBDEEC00A7F
:100FE00010EE100A04B2742C05DA602C03DD6A20BE
:100FF0002C49088042E0A02C05DA8C2C03DD9620D9
:10100000284908803AE0DE2C05DACA2C03DDD4201A
:101010002449088032E0F72C05DAD22C03DDC32006
:10102000204908802AE0B4F59B7F07DAB4F5917F68
:1010300004DD4FF496701B4908801FE0B4F5A47FCF
:1010400007DAB4F59A7F04DD4FF49F7015490880E4
:1010500014E0B4F5AC7F07DCB4F5A37F04DB40F209
:101060004F101049088009E0B4F5D97F06DAB4F5CD
:10107000CF7F03DD4FF4D4700A490880BDE8F087C4
:10108000A400002000009643000048430000C8422E
:101090000000484200002042AA000020C4000020B6
:1010A000800000207E000020FF20F84981F84E00DB
:1010B0006421F648A0F850100121A0F85210FF203A
:1010C000F24981F880011421F048A0F88211002132
:1010D000A0F88411FF20ED4981F820010021EB48A0
:1010E000A0F82211A0F82411FF20E84981F832016C
:1010F0000021E648A0F83411A0F83611FF20E3499A
:1011000081F838010021E148A0F83A11A0F83C111B
:10111000FF20DE4981F886010021DC48A0F8881113
:10112000A0F88A11FF20D94981F840050021D7484D
:10113000A0F84215A0F84415FF20D44981F84C05C9
:101140000021D248A0F84E15A0F85015704770B590
:1011500004460D462946204604F029F870BDCB4AC6
:1011600010700122C94B5A707047C84A82F84C056A
:10117000012382F84D3570472DE9F04104460D46B4
:1011800000260027E178A81F814201D0BDE8F08148
:10119000002006E0215C3144CEB2B919CFB2411C27
:1011A000C8B2A91E8142F5DC601910F8020CB042E9
:1011B00004D1601910F8010CB84200D0E6E720789D
:1011C000AA2805D16078612803D06078FF2800D074
:1011D000DCE7A078202811D1A088AD490880E088FC
:1011E0004880208988806089C880A0890881E0893A
:1011F0004881208A8881608AC8810EE1A0780F2802
:101200000DD1207940B2A3490870607940B248708E
:10121000A07940B28870E07940B2C870FDE0A07853
:1012200006280CD120799C4948706079C870A07953
:101230000871E17998484171217A8171EDE0A078D7
:101240000728DAD0A07803286AD1002005E0211D04
:10125000095C924A1154411CC8B20728F7DB8F4839
:1012600000788E49497800EB012000EE100AF8EE74
:10127000C00A9FED8B1A80EE810A10EE100A874992
:10128000C1F8060008468078C97800EB012000EE1E
:10129000100AF8EEC00A9FED821A80EE810A10EE65
:1012A000100A7E49C1F80A0008460079497900EB26
:1012B000012000EE100AF8EEC00A9FED791A80EEC8
:1012C000810A10EE100A7549C1F80E000846D0F8E0
:1012D0000E0000EE100ADFED730AB4EEE00AF1EE44
:1012E00010FA0CDD0846D0F80E0000EE100ADFED13
:1012F0006E0A30EE600A10EE100AC1F80E00674860
:10130000D0F80E0000EE100ADFED680A30EE200A79
:10131000BDEEC00A10EE100A00B2654908807CE0FC
:10132000A078082818D1E0790106A07901EB0041E6
:10133000607901EB0020217908445E490860E07A79
:101340000106A07A01EB0041607A01EB0021207ACE
:1013500008445949086060E0A078E0281ED120794F
:10136000012806D0022805D0102804D0112804D165
:1013700002E003E002E001E000E000BF00BF2079EE
:10138000424981F80C06084680F80D6680F80E7612
:1013900000F20C61AF20FFF7E2FE3EE0A078B0B9AA
:1013A0003A4890F80F062179884236D1374890F8AC
:1013B00010066179884230D1344890F81106A1793D
:1013C00088422AD10020314981F8000625E0A07822
:1013D000E12811D12179607901EB00201FFA80F812
:1013E0002A48A0F814860021C0F8181600F21461EB
:1013F000FF20FFF7BAFE10E0A078E2280DD1207997
:10140000224981F80C06084680F80D6680F80E76B1
:1014100000F20C61FF20FFF7A2FE00BFB6E610B598
:1014200004462648007838B9AA2C05D10120234962
:1014300008702348047093E020480078012809D1FF
:10144000612C01D0FF2C05D102201C4908701C48DA
:10145000447085E019480078022805D10320174917
:101460000870174884707BE01448007803282DD159
:10147000FA2C2BDA0420114908701148C470114865
:1014800004700020104908706AE00000F802002093
:10149000220A002050020020860A0020320A002082
:1014A0000000C8420000964300C0234400003443BB
:1014B0008A000020900000209400002050010020AD
:1014C000140900204E0100204F010020FE48007842
:1014D000042819D1FD480078002815DDFB48007864
:1014E000401EFA490870FA480078F9490978491C01
:1014F000F74A1170001DF7490C54F448007858BBA6
:101500000520F14908702BE0EF48007805280DD13F
:101510000620ED490870EE480078ED490978491C2D
:10152000EB4A1170001DEB490C5419E0E6480078B5
:10153000062812D10020E4490870E5480078001D13
:10154000E4490C54E2480078401DE349087008461D
:101550000178E048FFF710FE02E00020DA49087049
:1015600010BD7CB50346342B4FD007DC7BB10D2B6F
:1015700023D0302B2ED0332B6FD138E0402B52D0DC
:10158000412B5DD0E02B6AD0E22BF5D17BE0D34834
:1015900090F80C460D78681C08705455CF4890F8A8
:1015A0000D460D78681C08705455CC4890F80E46CE
:1015B0000D78681C0870545594E0002007E0C84C72
:1015C000255C0E78741C0C709555441CE0B2042800
:1015D000F5DB87E0002007E0C24C255C0E78741C28
:1015E0000C709555441CE0B21728F5DB7AE000201A
:1015F00008E0BC4C193C255C0E78741C0C709555A9
:10160000441CE0B20628F4DB6CE0002008E0B54C96
:10161000E41F255C0E78741C0C709555441CE0B2D8
:101620000728F4DB5EE0002007E0AF4C255C0E7875
:10163000741C0C709555441CE0B21428F5DB51E085
:10164000002007E0A94C255C0E78741C0C709555A1
:10165000441CE0B20E28F5DB44E042E0FFE79F487F
:1016600090F801460D78681C08705455002007E07A
:101670009F4C255C0E78741C0C709555441CE0B290
:101680000A28F5DB2EE09548B0F8140600B2019068
:101690009DF804400D78681C087054559DF805406D
:1016A0000D78681C087054558C48D0F818060090C6
:1016B0009DF800400D78681C087054559DF8014055
:1016C0000D78681C087054559DF802400D78681C10
:1016D000087054559DF803400D78681C08705455E7
:1016E00000E000BF00BF7CBDF8B504460F460020F7
:1016F0000090AA219DF80020501CC0B200907D48A7
:10170000815439789DF80020501CC0B2009079486F
:1017100081549DF80010481CC0B200907548445494
:1017200000219DF80020501CC0B2009071488154E7
:10173000024669462046FFF714FF9DF80000001F8F
:101740006C49C87000250026002007E06949095C43
:101750002944CDB27119CEB2411CC8B29DF8001017
:101760008842F3DB9DF80010481CC0B2009061482D
:1017700045549DF80010481CC0B200905D48465486
:10178000564890F8000640B1E02C06D1534880F846
:101790000F4680F8105680F811669DF800105548E5
:1017A000FFF7D5FCF8BD10B5044604EB44004B49E7
:1017B00001EB4000408828B304EB440001EB4000FB
:1017C000808804EB4401454A02EB41014988884284
:1017D0000CDA04EB4400114601EB40008088401C09
:1017E00004EB440102EB410188800BE0012004EB93
:1017F00044013A4A02EB4101888004EB440102EBC8
:101800004101487004EB4400344901EB400040784A
:1018100068B1002004EB4401304A02EB41014870FA
:1018200004EB440002EB40012046FFF75DFF10BDD2
:101830002A4A82F84005012382F841350122274BCC
:1018400083F80026704710B52DED028BB0EE408A6C
:1018500000F01BF83020FFF7A6FF3320FFF7A3FFAF
:101860003420FFF7A0FF4020FFF79DFF4120FFF746
:101870009AFFE020FFF797FFE220FFF794FF0D208B
:10188000FFF791FFBDEC028B10BD144890F80006E5
:1018900001283FD118480078322805DA1648007828
:1018A000401C154908703AE000201349087013489D
:1018B0000078401C1149087008460078052822DA93
:1018C000012106481CE00000500100204E010020CC
:1018D0004F010020140900204C010020F8020020D4
:1018E000520100206F0A0020CC0A0020140A0020B8
:1018F000FA080020C4020020510100204D01002000
:1019000080F841150BE0002005490870054981F871
:10191000000604E00020044908700149087070477F
:101920004D010020F80200205101002000B52DEDEE
:10193000028B85B0B0EE408AFD4890F83800002850
:101940007CD1FB4890F839000028F9D1F848B0F96B
:101950004200B0F5966F06DA012000F013FB01207B
:10196000F449087013E0F248B0F9420040F2A46173
:10197000884206DA022000F005FB0220ED490870DB
:1019800005E0032000F0FEFA0320EA490870E94868
:101990004078E849097888420BD0E6480078E54964
:1019A000487008460078032803D108468078401C18
:1019B0008870E048807810B3DF480088B0F5FA6F8F
:1019C00010DADD48008800EE100AB8EE400ADFEDBC
:1019D000DB0A00EE880ABCEEC00A10EE100AD649F7
:1019E00008800CE0D3498978032901DB00F0BEFBB5
:1019F00020B10021D04A1180CE4A917000BFCC485E
:101A0000B0F93A00A0F2DC5000EE900AF8EEE00ADD
:101A1000B0EE600A9FEDCA1ADFEDCA0A01F04AFA79
:101A20008DED010AC248B0F93C00A0F2DC5000EE96
:101A3000900AF8EEE00AB0EE600A00E090E09FED58
:101A4000C01ADFEDC00A01F035FA8DED020AB84880
:101A5000B0F93E00A0F2DC5000EE900AF8EEE00A89
:101A6000B0EE600A9FEDB81ADFEDB60A01F022FA77
:101A70008DED030AAE48B0F94000A0F2DC5000EE54
:101A8000900AF8EEE00AB0EE600A9FEDAF1ADFEDC3
:101A9000AD0A01F00FFA8DED040AAC48007858B198
:101AA0009FEDA80A8DED010A9FEDA60A8DED020AB1
:101AB0009FEDA40A8DED040A9DED010ADFEDA40A55
:101AC00020EE200ADFEDA30A20EE200ABDEEC00AB8
:101AD00010EE100A00B2A04908809DED020AB1EE96
:101AE000400ADFED9B0A20EE200ADFED9A0A20EE85
:101AF000200ABDEEC00A10EE100A00B248808C48E1
:101B0000C08FA0F57A7000B288809DED040AB1EE16
:101B1000400ADFED920A20EE200ADFED910A20EE66
:101B2000200ABDEEC00A10EE100A00B2C8808D482F
:101B3000007858B18C480088C8808B48408808815C
:101B40008948808848818848C088888101218748E1
:101B500080F88711002086490870864908701EE0C9
:101B60008548C07878B18248007828B9032000F011
:101B700009FA7F49087006E07E48007818B900F03D
:101B8000F5FA7C49087000207349088048804FF4BA
:101B9000AF7088800020C88088814881088105B0A6
:101BA000BDEC028B00BD10B504467448008800EE01
:101BB000100AB8EE400ADFED720A20EE200ABDEEF0
:101BC000C00A10EE100A00B26E4908806B484088C7
:101BD00000EE100AB8EE400ADFED690A20EE200A96
:101BE000BDEEC00A10EE100A00B24880634880883B
:101BF00000EE100AB8EE400ADFED610A20EE200A7E
:101C0000BDEEC00A10EE100A00B288805B48C088A2
:101C100000EE100AB8EE400ADFED590A20EE200A65
:101C2000BDEEC00A10EE100A00B2C8805348008909
:101C300000EE100AB8EE400ADFED510A20EE200A4D
:101C4000BDEEC00A10EE100A00B208814B48408970
:101C500000EE100AB8EE400ADFED490A20EE200A35
:101C6000BDEEC00A10EE100A00B2488143488089D8
:101C700000EE100AB8EE400ADFED410A20EE200A1D
:101C8000BDEEC00A10EE100A00B288813B48C08940
:101C900000EE100AB8EE400ADFED390A20EE200A05
:101CA000BDEEC00A10EE100A00B2C88136480078B6
:101CB00018B901203449087027E0E4B1002017E08A
:101CC000304931F91010002901DC00210BE02D49C9
:101CD00031F91010B1F57A7F02DD4FF47A7102E02C
:101CE000284931F91010274A22F81010411CC8B2B7
:101CF0000828E5DB09E0002005E00021214A22F860
:101D00001010411CC8B20828F7DB1E4802F03DFC49
:101D100010BD10B502F0F8F9DFED1C0A20EE200A24
:101D2000BCEEC00A10EE100A1949088010BD000070
:101D3000920A0020580100205C01002000007A4433
:101D400000002042000000000000A0426A010020C4
:101D50008F360E3B00C05A45140A0020C6F91B3BC3
:101D6000000048437C00002082000020F802002090
:101D70005601002057010020860A0020220A002078
:101D8000CDCCCC3D460A00205E0100200000C842B8
:101D90005201002010B523480088401C21490880CA
:101DA000084600880A2190FBF1F201FB12001D4950
:101DB00008800846008810BB9FED1B0A00F0DEFD7E
:101DC0009FED190AFFF7B2FD9FED170A00F0E6FB41
:101DD0009FED150A01F0A8FA12484088401C1149ED
:101DE0004880084640880A2190FBF1F201FB12006E
:101DF0000C4948800846408808B9FFF78AFF03F07D
:101E000055FA012001F04EFC9FED080A00F010F891
:101E10009FED060AFFF717FD0120FFF7C4FE02F051
:101E200014FA10BD600100200AD7233C6F12833AD8
:101E300010B52DED028BB0EE408A00F020F800BF07
:101E40002D4840782D490978884214D02A48407896
:101E50002A49087000202A4988744FF4877128485D
:101E6000A0F813102448C1692548C0F815100121B5
:101E7000244880F8391100BFBDEC028B10BD224808
:101E80000078FF2804D020480078401C1E490870C4
:101E9000194800781D490978884216D016480078FC
:101EA0001A4908701448007A50B11348C07838B104
:101EB00011484089124908800F488089488004E011
:101EC0004FF400400E49088048800B484078104984
:101ED000097888420ED0084840780D4908704FF4C0
:101EE0000040074988800121064880F8331100200E
:101EF0000549087070470000000B002067010020B2
:101F0000560A0020F802002066010020640100202B
:101F10006501002010B50120FB498870FB4890F84E
:101F2000000688B91020F94981F801060021F74818
:101F300080F80216012180F8031600F20161FF20EB
:101F4000FFF776FC012010BD0020FCE710B5002053
:101F5000ED498870ED4890F8000688B91020EB49EB
:101F600081F801060021E94880F80216022180F874
:101F7000031600F20161FF20FFF75AFC012010BD9B
:101F80000020FCE710B50446E1480078A0421FD0CD
:101F9000DE4890F80006C8B9DB480470DC480470DD
:101FA0000120DA4981F801060121D84880F802169B
:101FB00080F80316D4480178D44880F8041600F25B
:101FC0000161FF20FFF734FC012010BD0020FCE779
:101FD0000120FAE713B5CD4890F8000608BB1020A1
:101FE000CA4981F801060221C84880F80216072173
:101FF00080F803169DF8001080F804169DF8011073
:1020000080F805169DF8041080F806169DF8051056
:1020100080F8071600F20161FF20FFF709FC01209C
:102020001CBD0020FCE713B5B84890F8000608BBBB
:102030001020B64981F801060221B44880F8021642
:10204000082180F803169DF8001080F804169DF80A
:10205000011080F805169DF8041080F806169DF80A
:10206000051080F8071600F20161FF20FFF7E0FB82
:1020700001201CBD0020FCE770B504460D46002C75
:1020800004DBA0B22946FFF7CEFF04E0614288B22C
:102090002946FFF79FFF70BD13B59C4890F80006D6
:1020A00008BB1020994981F801060221974880F861
:1020B0000216012180F803169DF8001080F804161E
:1020C0009DF8011080F805169DF8041080F806169A
:1020D0009DF8051080F8071600F20161FF20FFF758
:1020E000A7FB01201CBD0020FCE713B5874890F832
:1020F000000600BB1020854981F8010602218348B3
:1021000080F8021680F803169DF8001080F8041677
:102110009DF8011080F805169DF8041080F8061649
:102120009DF8051080F8071600F20161FF20FFF707
:102130007FFB01201CBD0020FCE710B5734890F820
:10214000000688B91020714981F8010600216F4806
:1021500080F80216042180F8031600F20161FF20C6
:10216000FFF766FB012010BD0020FCE710B56748B3
:1021700090F8000688B91020644981F80106002112
:10218000624880F80216072180F8031600F2016108
:10219000FF20FFF74DFB012010BD0020FCE701B53B
:1021A0005A4890F80006C8B91020584981F801062D
:1021B0000021564880F80216052180F803169DF884
:1021C000001080F804169DF8011080F8051600F242
:1021D0000161FF20FFF72CFB012008BD0020FCE778
:1021E00010B54A4890F8000688B91020474981F890
:1021F00001060021454880F80216062180F80316E2
:1022000000F20161FF20FFF713FB012010BD002049
:10221000FCE707B53D4890F8000648BB10203B4955
:1022200081F801060221394880F80216032180F85E
:1022300003169DF8001080F804169DF8011080F830
:1022400005169DF8041080F806169DF8051080F814
:1022500007169DF8081080F808169DF8091080F8F8
:10226000091600F20161FF20FFF7E2FA01200EBD1E
:102270000020FCE710B5254890F8000688B9012039
:10228000224981F801060021204880F80216032126
:1022900080F8031600F20161FF20FFF7C9FA012060
:1022A00010BD0020FCE710B5184890F8000688B96A
:1022B0000120164981F801060021144880F8021611
:1022C000042180F8031600F20161FF20FFF7B0FA45
:1022D000012010BD0020FCE710B50C4890F8000666
:1022E000C0B90120094981F801060021074880F89A
:1022F0000216052180F8031600F20161FF20FFF7A6
:1023000097FA012010BD0000860A0020F802002084
:10231000680100200020F5E710B50C4890F8000691
:1023200088B90120094981F801060021074880F891
:102330000216022180F8031600F20161FF20FFF768
:1023400077FA012010BD0020FCE70000F802002011
:1023500010B504469848B0F94000B0F5AF6F0BDDFA
:102360009548B0F94000B0F5C86F05DA01209349EF
:1023700048709349087002E00020904948708E48E8
:10238000B0F93E00B0F5966F06DA8C48407818B97F
:1023900001208A49087002E00020884908708848B6
:1023A000007801284AD18748C078002853D1824854
:1023B000B0F93A0040F26C71884210DD7E48B0F905
:1023C0003C0040F24C41884209DA7B48B0F93E00BB
:1023D000884204DA7848B0F94000884217DB764832
:1023E000B0F9400040F26C71884230DD7248B0F9BB
:1023F0003C0040F24C41884229DA6F48B0F93E0077
:10240000884224DA6C48B0F93A0088421FDA6E48F4
:102410000088B0F57A7F12DAD4ED000A6A480088A5
:1024200000EE100AB8EE400A9FED681A00EE810A2D
:10243000BCEEC00A10EE100A6349088062E0FFF7A4
:1024400069FD0020604908805D4908705AE000205D
:102450005D49088056E05B48C078012852D1564853
:10246000B0F93A0040F26C71884210DD5248B0F980
:102470003C0040F24C41884209DA4F48B0F93E0036
:10248000884204DA4C48B0F94000884217DB4A48D9
:10249000B0F9400040F26C71884230DD4648B0F936
:1024A0003C0040F24C41884229DA4348B0F93E00F2
:1024B000884224DA4048B0F93A0088421FDA42489C
:1024C0000088B0F5967F12DAD4ED000A3E48008805
:1024D00000EE100AB8EE400A9FED3C1A00EE810AA9
:1024E000BCEEC00A10EE100A374908800AE0FFF778
:1024F0002DFD0020344908803149087002E0002099
:102500003149088010BD10B52E48C078002844D14C
:102510002948B0F9400040F24C41884217DA264879
:10252000B0F93C00884212DA2348B0F93E008842F4
:102530000DDA2148B0F93A00884208DA24480078D8
:1025400038BBFFF797FE01202149087025E01A48A3
:10255000B0F9400040F26C7188421BDD1648B0F9BA
:102560003C0040F24C41884214DA1348B0F93E0076
:1025700088420FDA1048B0F93A0040F26C71884294
:1025800008DD1348007820B9FFF78DFE01201049BF
:10259000087002E000200E49087010BD10B52DED46
:1025A000020B054890F8390020B96846FFF7D0FEC5
:1025B000FFF7A9FF1CBD0000920A00206A0100205D
:1025C0006E010020860A00206C01002000007A4481
:1025D0006F01002010B502F023F80120F94981F8BD
:1025E000380081F8390010BD10B501F0F5FC642009
:1025F00001F0E6FC01F0C8FD01F054FE642001F09A
:10260000DFFC4FF4165002F03EFAEF4802F035FBC3
:10261000ED4802F053FCEC4802F039FD642001F073
:10262000CFFCFFF7D7FF01F01BFD642001F0C8FCD1
:10263000FEF73AFD4FF4487001F0C2FC01F0D7F804
:1026400002F018F9012010BD40F6C411884203DDE4
:10265000DE490978032903DCDC4909780A290DD110
:102660000021DA4A1170D749B1F84E10491CD54AF9
:10267000A2F84E10012182F8501012E0B0F5967FBA
:102680000FDD40F6B83188420BDA02B2CD49891C21
:10269000CE4B1B7821F81320CC490978491CCB4A32
:1026A0001170704738B50446C9A000680090C94849
:1026B0004068C849086001F058FCC64948600846AF
:1026C00040680968401A40F6C411884202D90020C7
:1026D000C1490870C04801780078401CBE4A10709B
:1026E000BE4844541046007819287CD11820114661
:1026F0000870BA4800780F2876D1B848007E38B103
:10270000B648007EB64A12781DF802108842F3D10E
:102710000020B1490870B1484078B049897801F08B
:10272000070140EA0120A7498882AC48C0788006AA
:10273000400DAA49897840EAE100A249C882A74829
:102740004079C007400DA549097940EA8100A349B5
:10275000C97840EAA1109B490883A0488079000706
:10276000400D9E49497940EA6100964948839B485B
:10277000C0794006400D9949897940EA2110914974
:1027800088839648407A8007400D9449097A40EA48
:1027900041009249C97940EAE1108A49C8838F48CB
:1027A000807AC006400D8D49497A40EAA1008549EA
:1027B00008848A48C07AC0008849897A40EA611151
:1027C000804841848548007B8449497B01F00701AA
:1027D00040EA01207B4988848048807B8006400D48
:1027E0007E49497B01E074E069E040EAE100754917
:1027F000C8847A48007CC007400D7849C97B40EA0C
:1028000081007649897B40EAA1106E4908857348AA
:10281000407C0007400D7149097C40EA610069492C
:1028200048856E48807C4006400D6C49497C40EAF2
:102830002110644988856948007D8007400D6749FB
:10284000C97C40EA41006549897C40EAE1105D4964
:10285000C8856248407DC006400D6049097D40EA58
:10286000A100584908865D48807DC0005B49497DCC
:1028700040EA6111534841865848C07D514981F86A
:102880003400084690F8340000F0080040B90846CB
:10289000B0F84E00401CA1F84E00022081F8500014
:1028A0004F480078401C4E4908700878C11700EB6B
:1028B00091718910A0EB8101494A117009E0002053
:1028C00005E0464A411C515C1154411CC8B218280D
:1028D000F7DB38BD10B50446D4ED000A4148008846
:1028E00000EE100AB8EE400A9FED3F1A00EE810A92
:1028F000BCEEC00A10EE100A3A490880084600886B
:10290000B0F57A7F39DD002008802E48B0F84E00FF
:102910002C49C8860846C08E052803DA012081F8B4
:10292000380003E00020274981F83800254890F856
:102930003800C8B123480078D8B92C480078401C2A
:102940002A490870087800EBD0714910A0EB4101CA
:10295000264A117010460078012802D101F0E1FEEC
:1029600007E001F05DFE04E0164890F850001549BC
:10297000087000201349A1F84E0010BD10B52DEDD0
:10298000020B6846FFF7A6FF0E4890F838000028B3
:102990006ED10C48007801280DD1002008E00949CB
:1029A000891C31F81020383121F81020411CC8B2A0
:1029B0000A28F4DB38E003480078022834D10020EC
:1029C00030E00000920A002020A1070070010020E2
:1029D00004142434740100207C010020E40A002047
:1029E0007D0100208001002000007A447E0100204B
:1029F0002A4931F91010A1F5806100EE101AF8EEA5
:102A0000C00A9FED270A9FED271A01EE200ABDEEAE
:102A1000C00A10EE101A0AB22049263121F81020FF
:102A2000411CC8B20A28E3DB1C481438B0F9420044
:102A3000B0F5966F06DD19481438B0F94200B0F5CC
:102A4000AF6F0DDB15481438B0F94200B0F5C86F10
:102A50000ADD12481438B0F94200B0F5E16F03DA2C
:102A600001201149087011E000200F4908700DE0A5
:102A700001200D490870002006E000220749263198
:102A800021F81020411CC8B20A28F6DB064800785D
:102A90000249143981F839001CBD0000A60A002043
:102AA0000080BB442FDD243F82010020F0EE400A6D
:102AB000F5EEC00AF1EE10FA02DBB0EE600A7047E4
:102AC000B1EE600AFBE700B5B0EE403AB0EE602A26
:102AD000B5EEC03AF1EE10FA07D1B5EEC02AF1EE2C
:102AE00010FA02D19FEDFC1A99E0B0EE430AFFF70D
:102AF000DDFFF0EE403AB0EE420AFFF7D7FFF0EE0E
:102B0000402AF4EEE23AF1EE10FA02D283EEA24A43
:102B100001E082EEA34A9FEDF10AB4EEC04AF1EE65
:102B200010FA02D2F0EE441A2DE0DFEDED0AB6EE17
:102B3000000A14EE200AF0EE404ABDEEE40A10EE60
:102B4000100A00EE100AB8EEC00A34EEC00AF0EE29
:102B5000404AE44901EB800191ED000AF0EE401A91
:102B6000E04A411C02EB810191ED000A114601EBA4
:102B70008001D1ED000A70EE600AB0EE610A00EE4D
:102B8000A40AF0EE401AF4EEE32AF1EE10FA20DD8A
:102B9000B5EEC02AF1EE10FA0ADBB5EEC03AF1EE5E
:102BA00010FA02DBB0EE611A39E0B1EE611A36E0DC
:102BB0009FEDCD1AB5EEC03AF1EE10FA04DB31EE1E
:102BC000610AB0EE401A2AE031EEC10AB0EE401AB6
:102BD00025E0B5EEC03AF1EE10FA10DB9FEDC31A16
:102BE000B5EEC02AF1EE10FA04DB31EE610AB0EE68
:102BF000401A14E031EE210AB0EE401A0FE09FEDCA
:102C0000BC1AB5EEC02AF1EE10FA04DB31EE210A4F
:102C1000B0EE401A03E031EE610AB0EE401AB0EEB9
:102C2000410A00BD00B5B0EE405AF0EE605AF0EE39
:102C3000450AB0EE650AFFF746FF00BDF0EE400A18
:102C4000F6EE001A60EEA11AB0EE611AB0EE600A5C
:102C500010EE100AA749A1EB600000EE100A21EE69
:102C6000002AF7EE081A42EE401A61EE801AB0EE22
:102C7000610A21EE002AF7EE081A42EE401A61EED0
:102C8000801AB0EE610A704700B5F0EE402AB0EE4F
:102C9000620AFFF7D3FF20EE220A00BD10B52DED2A
:102CA0000A8BB0EE409AF0EE609A9FED930B53ECD6
:102CB000102B51EC190B0AF04DFC18D29FED900B24
:102CC00053EC102B51EC190B0AF0A1FB41EC1B0B40
:102CD0009FED8D0B53EC102B0AF0F2FA41EC1A0B1E
:102CE00053EC192B0AF093FB41EC180B17E09FED06
:102CF000840B53EC102B51EC190B0AF088FB41ECC0
:102D00001B0B9FED810B53EC102B0AF07DFB41EC6C
:102D10001A0B53EC192B0AF07AFB41EC180B9FEDC0
:102D2000760B53EC102B51EC180B0AF013FC20D24D
:102D30009FED770B53EC102B51EC180B0AF0C0FAF7
:102D400041EC1C0B9FED740B53EC102B0AF05FFB56
:102D500041EC1B0B9FED6E0B53EC102B0AF0B0FAFD
:102D600041EC1A0B53EC182B0AF051FB41EC180BF9
:102D70001FE09FED670B53EC102B51EC180B0AF082
:102D800040FB41EC1C0B9FED660B53EC102B0AF043
:102D90003EFB41EC1B0B9FED5E0B53EC102B0AF03E
:102DA0008FFA41EC1A0B53EC182B0AF030FB41EC74
:102DB000180BB0EE480AF0EE680ABDEC0A8B10BDA5
:102DC00010B52DED068BB0EE408AF0EE608A01243E
:102DD0009FED550B53EC102B51EC180B0AF0D2FB66
:102DE0000AD89FED510B53EC102B51EC180B0AF045
:102DF00008FB41EC180BA41E20460AF07AFB41ECBC
:102E0000190BB0EE480AF0EE680AFFF747FFB0EE84
:102E100040AAF0EE60AA53EC192B51EC1A0B0AF001
:102E2000F6FA41EC100BBDEC068B10BD10B52DED84
:102E3000088BB0EE408AF0EE608A01249FED3C0BD7
:102E400053EC102B51EC180B0AF03AFA41EC180B2A
:102E50009FED350B53EC102B51EC180B0AF092FB45
:102E60000AD8A41E9FED300B53EC102B51EC180B1D
:102E70000AF0C7FA41EC180B20460AF03AFB41EC85
:102E80001A0BB0EE480AF0EE680AFFF799FFB0EEB1
:102E900040BAF0EE60BA53EC1A2B51EC1B0B0AF05F
:102EA000B6FA41EC190B0AF085FB00EE100ABDECF6
:102EB000088B10BDF0EE401AF4EEE01AF1EE10FAB5
:102EC0003ADD31EEC10AB4EEE00AF1EE10FA3CD27E
:102ED000B0EE600A39E00000000000008180803B15
:102EE0000000804310D80008DB0F4940DB0FC93FCA
:102EF000DB0FC9BFDF59375F000000000000000092
:102F0000000000602FF0D93F00000060305FF43F08
:102F1000000000000000F03F000000C0CCCCCCBF9F
:102F2000000000C0CCCCCC3FF1D4C853FB210940F9
:102F3000F1D4C853FB21F93F31EE810AB4EEE00A27
:102F4000F1EE10FA01DDB0EE600A7047F0EE401AC3
:102F5000B1EE412A32EE202AB4EEE12AF1EE10FA67
:102F600009D231EE202AB4EEE12AF1EE10FA02DDA8
:102F7000B0EE600A01E0B0EE610A7047F0EE402A60
:102F8000B5EEC01AF1EE10FA02DDB0EE410A01E032
:102F9000B1EE410AB6EE003A22EE033A23EE213AB0
:102FA000B4EEC30AF1EE10FA06D29FEDD40A20EE79
:102FB000800AF0EE400A4DE0B5EEC01AF1EE10FACC
:102FC00002DDB0EE410A01E0B1EE410A22EE213A03
:102FD000B4EEC30AF1EE10FA06D29FEDC90A20EE54
:102FE000800AF0EE400A35E0B5EEC01AF1EE10FAB4
:102FF00002DDB0EE410A01E0B1EE410AB4EEE10AB1
:10300000F1EE10FA06D2B6EE000A20EE800AF0EEDB
:10301000400A1FE0B5EEC01AF1EE10FA02DDB0EE84
:10302000410A01E0B1EE410AB0EE003A21EE833AE6
:10303000B4EEC30AF1EE10FA06D29FEDB20A20EE0A
:10304000800AF0EE400A05E09FEDAF0A20EE800A0C
:10305000F0EE400A9FEDAD0A20EE800A20EE223A03
:10306000F7EE003A83EE830AB7EE003A30EE030A39
:10307000F7EE003A83EE803A90ED000A71EE403AA6
:1030800090ED000A03EE230A80ED000A90ED000A9D
:10309000B1EE423A23EE213AB4EEC30AF1EE10FA51
:1030A00004D8B1EE420A20EE210A0DE090ED000AAC
:1030B00022EE213AB4EEC30AF1EE10FA02DD22EE5E
:1030C000210A01E090ED000A80ED000A90ED000A6F
:1030D00031EE400A704710B52DED028BB0EE408AFC
:1030E000F0EE608A9FED8A0B53EC102B51EC180B1D
:1030F0000AF048FA0CD29FED880B53EC102B51ECE0
:10310000180B0AF07EF941EC100BBDEC028B10BDE0
:103110009FED830B53EC102B51EC180B0AF01AFAAD
:103120000AD29FED7D0B53EC102B51EC180B0AF0DB
:10313000C7F841EC100BE8E7B0EE480AF0EE680A79
:10314000E3E730B505460C46F0EE403AD5ED000A0F
:1031500060EEA00A94ED001AD4ED001A41EE210AA7
:10316000B0EE600AFFF790FDB0EE403AB5EEC03A1F
:10317000F1EE10FA02D81FEDA80A09E0B4EEE33A26
:10318000F1EE10FA02DDB0EE630A01E0B0EE430AA0
:10319000B0EE404AB5EEC03AF1EE10FA06D11FED9E
:1031A000B20A83ED000A82ED000A0FE084EE030A02
:1031B000D5ED000A20EE200A82ED000A84EE030A13
:1031C000D4ED000A20EE200A83ED000A30BDF0EEB7
:1031D000400A0B7802EB8303C3ED000A0B785B1CFB
:1031E0000B700B78834201DB00230B700B7802EB32
:1031F000830393ED000A704700B50246B0EE403AF3
:103200000B46F7EE000A43EE430AB0EE600AFFF702
:103210003BFDD2ED000A20EE200AD2ED010A00EEBD
:10322000C30A83ED000AF7EE000A43EE430AB0EE4C
:10323000600AFFF729FDD2ED010A20EE200AD2ED47
:10324000000A00EE830A83ED010A00BD90ED000A3A
:10325000D1ED010A20EE200AD0ED010A91ED001A0D
:1032600000EEC10A704790ED000AD1ED000A20EE91
:10327000200AD0ED010A91ED011A00EE810A704793
:1032800090ED010AD1ED020A20EE200AD0ED020AEB
:1032900091ED011A00EEC10A82ED000A90ED020ADA
:1032A000D1ED000A20EE200AD0ED000A91ED021ABD
:1032B00000EEC10A82ED010A90ED000AD1ED010A8B
:1032C00020EE200AD0ED010A91ED001A00EEC10AAD
:1032D00082ED020A704790ED000AD1ED000A20EE5F
:1032E000200AD0ED010A91ED011A00EE810AD0ED1D
:1032F000020A91ED021A00EE810A70479A99993FED
:10330000CDCC4C3FCDCC4C3ECDCCCC3DC3F5C84014
:103310000000000000806640000000000080764051
:1033200000000000008066C008B5D048D0ED000A5B
:103330009FEDCF1AF4EEC10AF1EE10FA0BD2D0EDE8
:10334000000AB7EE001A70EE810AC0ED000A0120F3
:10335000C849887002E00020C6498870C348D0ED93
:10336000010A9FEDC31AF4EEC10AF1EE10FA0BD276
:10337000D0ED010AB7EE001A70EE810AC0ED010A25
:1033800001208DF8000002E000208DF80000B74811
:10339000D0ED020A9FEDB61AF4EEC10AF1EE10FA72
:1033A0000BD2D0ED020AB7EE001A70EE810AC0ED22
:1033B000020A01208DF8010002E000208DF80100D2
:1033C0009DF8000030B19DF8010018B10120A94915
:1033D000C87002E00020A749C87008BD30B50022BF
:1033E0000024C5788B1F9D4200D030BD002306E02D
:1033F000C55C1544EAB2A518ECB25D1CEBB28D1E9B
:103400009D42F5DC431813F8023C934204D1431863
:1034100013F8013CA34200D0E7E78378512B48D151
:1034200003795BB94379934D6B7183795BB2AB716F
:10343000C3795BB2EB71037A2B7196E00379012BB0
:1034400012D143798B4D2B72C3886B810389AB8179
:10345000837A2B719FED880A844B83ED010A2B46FA
:103460001B785B1C2B7080E00379022B7DD14379A4
:10347000804DAB73C3882B8203896B824389AB82F7
:103480008389EB82C3892B83038A6B83837C2B71B3
:103490002B469B8A794D2B80764BDB8A784D2B808F
:1034A000744B1B8B774D2B80724B5B8B764D2B8037
:1034B0005BE08378342B10D1D0F807306D4DEB6191
:1034C000724D2B609FED6C0A684B83ED020A694BCD
:1034D0005B785B1C674D6B7047E08378012B0DD1E7
:1034E0008388644D2B86C3886B860389AB864389AA
:1034F000EB8683892B87C3896B8736E08378042B1F
:1035000033D1B0F9043000EE103AB8EEC00ADFED66
:10351000600A20EE200A574B83ED080AB0F9063006
:1035200000EE103AB8EEC00ADFED590A20EE200A8C
:10353000504B83ED090AB0F9083000EE103AB8EEAE
:10354000C00ADFED530A20EE200A4A4B83ED0A0A37
:10355000B0F90A3000EE103AB8EEC00ADFED4C0ABE
:1035600020EE200A434B83ED0B0A00BF3DE710B568
:1035700004464848007838B9AA2C05D101204549AD
:103580000870454804706FE042480078012809D16E
:10359000612C01D0FF2C05D102203E4908703E4825
:1035A000447061E03B480078022805D10320394986
:1035B00008703948847057E03648007803280CD1E9
:1035C000FA2C0ADA0420334908703348C4703348AF
:1035D000047000203249087046E02E480078042824
:1035E00019D12E480078002815DD2C480078401E9F
:1035F0002A4908702A48007829490978491C284A2C
:103600001170001D24490C542448007840BB05204B
:103610002049087028E01F48007805280DD10620B1
:103620001C4908701E4800781D490978491C1C4A2D
:103630001170001D18490C5416E016480078062831
:103640000FD100201349087015480078001D124959
:103650000C5413480078401DC1B20F48FFF7BEFE5E
:1036600002E000200B49087010BD0000700B002024
:103670000000FA43000B0020000000000A000020B8
:103680000C0000200E000020100000208C00002004
:1036900017B7D138850100203C0B002083010020A2
:1036A000840100200146D548007800287ED0002201
:1036B000D24B1A70D24A1288C832D14B1A80D14AE2
:1036C000127DD14B5A76CF4AD37DCF4A9376CD4ADD
:1036D0009369CD4AC2F81B30CA4AD369CA4AC2F8B4
:1036E0001F30C84A526A0A2392FBF3F3C64AC2F853
:1036F0002330C44A126B0A2392FBF3F213B2C24A7C
:10370000A2F82730BF4A526B0A2392FBF3F213B29E
:10371000BD4AA2F82930BB4A926B0A2392FBF3F20E
:1037200013B2B94AA2F82B30B64AB2F84C2000EED8
:10373000102AB8EE400ADFEDB50A20EE200ABCEEF2
:10374000C00A10EE100A08B9002204E0C82801D906
:10375000C82200E002461046AB4A82F82D00A94A72
:10376000526C00EE102AB8EE400ADFEDA80A20EEF7
:10377000200ABCEEC00A10EE100A08B9002204E0CC
:10378000C82801D9C82200E0024610469E4A82F8A5
:103790002E009C4AD26A00EE102AB8EE400ADFEDF5
:1037A0009B0A20EE200ABCEEC00A00E012E010EEF8
:1037B000100A08B9002204E0C82801D9C82200E094
:1037C00002461046904A82F82F000123904A82F860
:1037D000213100BF704710B50E218E4801F0D4F89A
:1037E00010BD10B50E218C4801F0CEF810BD10B5FB
:1037F000642000F0E5FB4FF4165001F04AF8322047
:1038000000F0DEFB1C21854801F0BEF8642000F0CA
:10381000D7FB4FF4964001F03CF8322000F0D0FB8B
:103820001C217E4801F0B0F8642000F0C9FB4FF481
:10383000164001F02EF8322000F0C2FB1C21774820
:1038400001F0A2F8642000F0BBFB4FF4E13001F07E
:1038500020F8142000F0B4FB0B21714801F094F81B
:10386000142000F0ADFB0B216E4801F08DF8142000
:1038700000F0A6FB0B216C4801F086F8142000F044
:103880009FFB0B21694801F07FF8142000F098FBA2
:103890000B21674801F078F8142000F091FB0B2110
:1038A000644801F071F8142000F08AFBFFF793FFE1
:1038B00010BD10B50146002000225F4B1B782BB9CC
:1038C000B52903D101235C4C237095E05A4B1B783A
:1038D000012B05D1622903D10223574C23708BE0C1
:1038E000554B1B78022B05D10323534C2370534BAC
:1038F000197081E0504B1B78032B05D104234E4CEB
:1039000023704F4B197077E04B4B1B78042B05D17C
:103910000523494C23704B4B19706DE0464B1B78C7
:10392000052B10D10623444C2370464B1B7803EB28
:103930000123454C238023461B88622B5CDB00233C
:103940003D4C237058E03C4B1B78062B54DB3A4B24
:103950001B789B1F3C4C2488A41CA3420ADA364BDC
:103960001B789B1F274CE154334B1B785B1C324C5C
:10397000237041E0314B1B780344D8B21318DAB2FC
:103980002F4B1B780344D8B21318DAB22E4B1B7896
:103990000344D8B21318DAB22B4B1B8800EB132365
:1039A000D8B21318DAB2002307E0164CE45C0444E2
:1039B000E0B21418E2B25C1CE3B2234C2488A342A8
:1039C000F3DB104B204C24881B5D834211D10D4C3E
:1039D0001D4B1B885B1CE35C93420AD1174B1B7881
:1039E000012B06D1164B1B78072B02D10123034C68
:1039F00023700023104C237010BD000086010020AE
:103A0000880100207C0B0020560A00200AD7233CA6
:103A1000F80200208A01002098010020C201002045
:103A2000F3010020FE010020090200201402002002
:103A30001F0200202A0200203B0200203502002045
:103A400036020020370200203802002030B5002264
:103A50000024C5788B1F9D4200D030BD002306E0B6
:103A6000C55C1544EAB2A518ECB25D1CEBB28D1E24
:103A70009D42F5DC431813F8023C934204D14318ED
:103A800013F8013CA34200D0E7E78378AA2B1FD1AB
:103A90000379684D85F8DC304579664B83F8DD5055
:103AA000C379857943EA05231DB2624BA3F8DE5042
:103AB000437A057A43EA05231DB25E4BA3F8E05032
:103AC000857A83F8E25001235A4D85F8D83032E0E8
:103AD0008378BB2B1CD10379564D85F8E4304579AA
:103AE000544B83F8E55083795DB2524B83F8E6502E
:103AF000C57983F8E750504B1D70057A4D4B83F81C
:103B0000E8504E4B1D7002234A4D85F8D83012E024
:103B10008378CC2B0FD10379464D85F8CE3043798D
:103B200085F8CA30837985F8CB30C37985F8D030F1
:103B3000032385F8D83000BF8FE710B5044640480E
:103B4000007838B9AA2C05D101203D4908703D48BC
:103B500004706DE03A480078012807D1FF2C05D1A8
:103B60000220374908703748447061E034480078D3
:103B7000022805D10320324908703248847057E08A
:103B80002F48007803280CD1FA2C0ADA04202C499B
:103B900008702C48C4702C48047000202B49087011
:103BA00046E027480078042819D1274800780028E3
:103BB00015DD25480078401E234908702348007809
:103BC00022490978491C214A1170001D1D490C54D5
:103BD0001D48007840BB05201949087028E01848A6
:103BE000007805280DD1062015490870174800787F
:103BF00016490978491C154A1170001D11490C54C9
:103C000016E00F48007806280FD100200C490870F4
:103C10000E480078001D0B490C540C480078401DDC
:103C2000C1B20848FFF712FF02E000200449087003
:103C300010BD0000E00B00203D0200203E020020ED
:103C400041020020CC0C00203F0200204002002056
:103C5000F3B52DED020B99B0064600240025002790
:103C6000BB222146641C0DF80120FF222146641C62
:103C70000DF8012007222146641C0DF80120214681
:103C8000641C0DF801609DF870202146641C0DF83D
:103C900001209DF871202146641C0DF801209DF83B
:103CA00064202146641C0DF801209DF86520204603
:103CB000611CCCB20DF800209DF866202046611CE6
:103CC000CCB20DF800209DF867202046611CCCB2D4
:103CD0000DF80020002007E01DF800102944CDB2A7
:103CE0007919CFB2411CC8B29DF80210C91C81429B
:103CF000F2DC2046611CCCB20DF800502046611C5D
:103D0000CCB20DF800702146684600F031FF1DB0BE
:103D1000F0BDF0B50022002487784B1F9F4200D0F1
:103D2000F0BD002306E0C75C1744FAB2A718FCB246
:103D30005F1CFBB28F1E9F42F5DC431813F8023C58
:103D4000934204D1431813F8013CA34200D0E7E7A3
:103D5000C578437907790837BB401EB2437A1F06FE
:103D6000037A07EB0347C37907EB032387793B44C7
:103D700000EE903AB8EEE00A00BFD1E710B5044675
:103D80003748007838B9BB2C05D101203449087078
:103D90003448047063E032480078012807D1FF2CD2
:103DA00005D102202E4908702E48447057E02C4857
:103DB000007802280CD1FA2C0ADA0320284908706E
:103DC000284884702848047000202849087046E07C
:103DD00023480078032819D123480078002815DDEE
:103DE00021480078401E20490870204800781F496B
:103DF0000978491C1D4A1170C01C1A490C541A48F4
:103E0000007840BB04201649087028E01448007868
:103E100004280DD105201249087014480078134970
:103E20000978491C114A1170C01C0E490C5416E047
:103E30000B48007805280FD10020094908700B486D
:103E40000078C01C07490C5408480078001DC1B216
:103E50000448FFF75EFF02E000200149087010BD32
:103E600044020020FE0C00204202002043020020F9
:103E7000704700BFFEE700BFFEE700BFFEE77047E8
:103E8000704710B5802003F0C4FE10B1802003F00D
:103E900016FF10BD10B500F01BFC10BD704710B52B
:103EA0000121114807F0ABFD28B101210E4807F0B0
:103EB00003FEFDF76FFF10BD10B500F0ADFD10BDA6
:103EC00010B500F09EFE10BD10B500F0BBFF10BD98
:103ED00010B501F0A0F810BD10B501F0B0F910BD9B
:103EE00010B500F071FC10BD001400407FB56846AD
:103EF00004F0C1FD4FF47A710198B0FBF1F4E408CD
:103F00002146B1F1807F00D31DE021F07F40401EAB
:103F10004FF0E022506150170F22002807DA1307F4
:103F20001E0E314B00F00F052D1F5E5503E01307E9
:103F30001D0E2E4B1D5400BF00204FF0E02290615B
:103F40000720106100BF6FF0040001F095FB7FBDFA
:103F50002748D0E900305A1C40F100002449C1E94B
:103F60000020704722480068704710B500BF204A03
:103F700011684FF0E02252694FF0E0239B69D21A9A
:103F80004FF47A735A434FF0E0235B69B2FBF3F2CC
:103F900001EB4103C3EBC11302EBC300144C18CC7B
:103FA0004B402343E3D110BD30B50446FFF7DDFF9E
:103FB000054600BFFFF7D9FF401BA042FAD330BD32
:103FC00010B5044603E04FF47A70FFF7EDFF201EB2
:103FD000A4F10104F7D110BD10B54FF4806001F0D9
:103FE00099FAFFF783FF10BD18ED00E000E400E050
:103FF0004802002000B58FB0684602F096FD01210E
:10400000880504F050FE00BF564803F0ABF80028C6
:10401000FAD1009054480190544802900020039037
:1040200032200490002005904FF4806006904000FC
:1040300007908000089000010A904012099000202B
:104040000B9001200C9000200D900E906946454881
:1040500002F015FC0121434802F078FD0FB000BDCD
:1040600000B58DB001A801F009FC0121042004F085
:104070001AFE0121080204F0FCFEFFF7BBFF03203B
:104080008DF8300020200B9000208DF833000BA914
:10409000374803F0B9FE0020099007904FF48030B4
:1040A000089000200A9007A801F0F2FB0020019080
:1040B0008DF8080001208DF809000020039005907C
:1040C00001208DF8180001A927484C3801F00DFB9C
:1040D000072301220F2124484C3801F09EFD0121C5
:1040E00021484C3801F077FF01211F484C3801F07E
:1040F00080FC01211C484C3801F047FF1A484C381D
:1041000001F057FE0DB000BD9FED1A0AF0EE400A17
:10411000002010E0154931F8101000EE101AB8EE2A
:10412000401ADFED151AB0EE600A01EE210AF0EE3A
:10413000400A411CC8B23228ECDB9FED101A80EE19
:10414000810A9FED0F1A20EE010AB2EE061A20EE48
:10415000010AF7EE001A80EE211A9FED0A0A21EEFD
:10416000000A7047106402404C200140300D0020CE
:1041700000080240000000000AD7A33C0000804570
:1041800000404E456F12833A1CB5684603F0E7FEC7
:104190000121102004F087FD01208DF804008DF826
:1041A000070000208DF8060002208DF8050007208A
:1041B00000906946384803F027FE01208DF804007E
:1041C0008DF8060002208DF80500802000906946D9
:1041D000314803F019FE02212F4804F04BF8012169
:1041E0002D4804F047F804212B4804F043F88021BF
:1041F000294804F03FF81CBD00F0010119B102216B
:10420000254A118302E00221234A518300F0020172
:1042100019B10121204A118302E001211E4A518374
:1042200000F0040119B104211B4A118302E00421AA
:10423000194A518300F0080119B18021164A5183AF
:1042400002E08021144A1183704700B500201DE070
:10425000124931F81010124A1256914204DA012123
:10426000814019438BB202E0012181408B430B490D
:1042700031F81010491C89B2084A22F8101014298C
:1042800002DB002122F81010411CC8B20428DFDB39
:104290001846FFF7B1FF00BD001002405402002095
:1042A0005002002030B58BB00025D44C01A803F09B
:1042B00056FE08A805F063F903A805F09CFF012C41
:1042C00001D8012004E0CE48844200D900E0204615
:1042D00004460121082004F0A9FD0121022004F078
:1042E000C8FD0121084604F0C4FD0121152004F099
:1042F000DAFC0C20019002208DF8080003208DF8D4
:10430000090000208DF80A0001208DF80B0001A99A
:10431000BC4803F079FD02221146BA4804F088F83F
:1043200002220321B74804F083F8B7480068400828
:10433000B0FBF4F0401E85B242F210700990ADF867
:1043400020500020ADF82800ADF8220008A9AF48A1
:1043500005F08AF86020ADF80C000020ADF81800D8
:104360000120ADF80E004FF47A60059003A9A7482C
:1043700005F0E8FD0821A54806F0B1F90120ADF8E7
:104380000E004FF47A60059003A9A04805F0A2FE44
:1043900008219E4806F0CFF901219C4805F0E9FA72
:1043A00001219A4805F0D1FB4FF4D440019002203E
:1043B0008DF8080003208DF8090000208DF80A0010
:1043C00001208DF80B0001A9914803F01DFD012289
:1043D00009218F4804F02CF801220B218C4804F0AD
:1043E00027F801220D218A4804F022F801220E212B
:1043F000874804F01DF884480068B0FBF4F0401EC4
:1044000085B242F210700990ADF820500020ADF84E
:104410002800ADF822008DF82A0008A97D4805F093
:1044200023F86020ADF80C000020ADF81000ADF8C6
:1044300018000820ADF81A004001ADF81C0000205B
:10444000ADF81E000120ADF80E004FF47A60059023
:1044500003A9704805F0C1FB08216E4806F0CBF8AF
:104460004FF47A60059003A96A4805F07EFC0821A4
:10447000684806F0FEF84FF47A60059003A9654895
:1044800005F060FD0821634806F029F94FF47A60D1
:10449000059003A95F4805F01DFE08215D4806F060
:1044A0004AF901215B4807F0FCF80121594805F061
:1044B00060FA0121574805F048FB4FF44070019025
:1044C00002208DF8080003208DF8090000208DF8E7
:1044D0000A0001208DF80B0001A94F4803F094FC5D
:1044E000032208214C4803F0A3FF032209214A4874
:1044F00003F09EFF44480068B0FBF4F0401E85B214
:1045000042F210700990ADF820500020ADF828005C
:10451000ADF822008DF82A0008A9404804F0A4FF55
:104520006020ADF80C000020ADF81000ADF81800C8
:104530000820ADF81A004001ADF81C000020ADF8CD
:104540001E004FF47A60059003A9344805F0FAFC88
:104550000821304806F0C3F84FF47A60059003A9AB
:104560002E4805F0B7FD08212A4806F0E4F801219D
:104570002A4807F096F80121284805F0FAF90121A8
:10458000264805F0E2FA0BB030BDB0F90010890002
:1045900001F57A611F4A1164B0F90210890001F532
:1045A0007A61D163B0F90410890001F57A619163F1
:1045B000B0F90610890001F57A615163B0F908106D
:1045C000890001F57A61114A40321160B0F90A1090
:1045D000890001F57A61121F1160B0F90C10890091
:1045E00001F57A610D4A40321160B0F90E10890070
:1045F00001F57A61121F11607047000000093D004B
:1046000000BD01050000024074020020000C0040C3
:104610000010024000000140000802400004014078
:1046200000B587B005A803F09AFC02A806F0BBFE0F
:104630000121022004F0FAFB0121042004F033FBE5
:104640001D208DF8040002208DF8050001208DF852
:1046500006008DF8070001A800F077FF8020059084
:1046600002208DF8180003208DF8190000208DF825
:104670001A0002208DF81B0005A95D4803F0C4FB59
:10468000022207215A4803F0D3FE532059490880DB
:104690000420ADF808000A20ADF80A000120ADF8AA
:1046A0000C000020ADF80E00ADF8100002A9514832
:1046B000283806F092FD01214E48283805F045FAC9
:1046C000012204214B48283807F05AF807B000BDF2
:1046D00010B548481838008800F0040000B34FF6C1
:1046E000FB704449183908804FF6FF300880404875
:1046F0001030006800F0800090B93E48283806F07D
:10470000FEFE3D490880084600884988401A84B268
:104710002046FDF799FF384800883749488000BF98
:1047200010BD00B587B0684603F019FC01212020B8
:1047300004F09FFB0121042004F0B5FA47208DF816
:10474000080004208DF8090001208DF80A008DF87A
:104750000B0002A800F0F9FE08220721244803F00C
:1047600067FE8020009002208DF804008DF805007F
:1047700001208DF8060000208DF8070069461C48CE
:1047800003F042FB1D4803900020ADF810004FF4E9
:104790000050ADF81200C010ADF814000020ADF8C4
:1047A00018000420ADF8160003A9154807F0DBFE39
:1047B000012240F22551124808F071FB01211048F6
:1047C00008F01AF807B000BD10B540F225510C48AA
:1047D00008F08BFC58B140F22551094808F010FD53
:1047E0000748001D0088C4B22046FDF75BFF10BDDE
:1047F00000080240280400405C020020A08601005E
:10480000001401403EB504460121202004F00EFBB7
:104810001E4804F04DFD01945320ADF80000002027
:10482000ADF80800ADF802006946184804F01CFE17
:104830000121164807F0ADF801221146134806F091
:104840009FFF0121114805F080F90021202004F08C
:10485000EDFA3EBD08B537208DF8000007208DF831
:10486000010001208DF802008DF80300684600F079
:104870006CFE08BD10B54FF47A70FFF7C3FFFFF769
:10488000E9FF0121202004F0D1FA10BD00140040FE
:10489000704710B58AB0044606A807F048FF01210A
:1048A000102004F0E6FA0121084604F0FCF9252066
:1048B0008DF80C0003208DF80D0000208DF80E00FF
:1048C00001208DF80F0003A800F03FFE0722092108
:1048D000FE4803F0ADFD07220A21FC4803F0A8FDC5
:1048E0004FF40070019002208DF808008DF8090047
:1048F00000208DF80A0001208DF80B0001A9F34873
:1049000003F082FA4FF48060019002208DF80800D5
:104910008DF8090001208DF80A0000208DF80B00A9
:1049200001A9EA4803F070FAE94807F0B7FD0694D8
:104930000020ADF81C00ADF81E00ADF82000ADF869
:1049400024000C20ADF822000020ADF81000ADF8D6
:1049500012004FF40070ADF814000020ADF81600FE
:1049600006A9DB4807F0FFFD04A9D94807F0EBFED4
:10497000012240F22551D64808F091FA0121D4488D
:1049800007F03AFF0AB010BD70B505460E46002488
:104990000AE0295DCF4802780078401CCD4B1870A2
:1049A000CD488154601CC4B2B442F2DBC84880894F
:1049B00000F0800028B9012240F22771C44808F0B5
:1049C0006EFA70BDC5490A780978491CC34B197045
:1049D000C349885419460978642902DB00211A4624
:1049E0001170704710B510E0BE490A780978491C6B
:1049F000BC4B1970BA49885CFEF75BFFB948007878
:104A0000642802DB0020B7490870B4480078B54933
:104A100009788842E8D110BD10B5AD48008800F093
:104A2000080010B1AA488088C4B240F22551A848B5
:104A300008F05BFB50B140F22551A54808F0E0FBBF
:104A4000A3488088C4B22046FFF7BCFF40F227711C
:104A50009F4808F04AFBA8B1A34801780078401CA1
:104A6000A14A10709C48405C9949888010460078A3
:104A700098490978884205D19548808920F08000BE
:104A80009349888110BD10B58AB0044606A807F086
:104A90004EFE0121480404F0C9F90121082004F068
:104AA00002F926208DF80C0004208DF80D0001205D
:104AB0008DF80E008DF80F0003A800F046FD0722C8
:104AC00005218A4803F0B4FC07220621874803F039
:104AD000AFFC2020019002208DF808008DF809001D
:104AE00000208DF80A0001208DF80B0001A97F48F5
:104AF00003F08AF94020019002208DF808008DF81B
:104B0000090001208DF80A0000208DF80B0001A992
:104B1000764803F079F906940020ADF81C00ADF852
:104B20001E00ADF82000ADF824000C20ADF82200E6
:104B30000020ADF81000ADF812004FF40070ADF891
:104B400014000020ADF8160006A9694807F00BFD17
:104B500004A9674807F0F7FD012240F22551644897
:104B600008F09DF90121624807F046FE0AB010BD29
:104B700070B505460E4600240AE0295D5D480278BE
:104B80000078401C5B4B18705B488154601CC4B2B9
:104B9000B442F2DB56480C30008800F0800028B99F
:104BA000012240F22771524808F079F970BD53494B
:104BB0000A780978491C514B197051498854194693
:104BC0000978642902DB00211A461170704710B57C
:104BD00010E04C490A780978491C4A4B1970484939
:104BE000885CFFF7CBF847480078642802DB002098
:104BF0004449087041480078424909788842E8D120
:104C000010BD10B53A48008800F0080018B13848C7
:104C1000001D0088C4B240F22551354808F065FAFD
:104C200058B140F22551324808F0EAFA3048001DE8
:104C30000088C4B22046FFF7BAFF40F227712C4823
:104C400008F053FAC0B1304801780078401C2E4A71
:104C500010702948405C2649091D088010460078DC
:104C600024490978884207D121480C30008820F077
:104C700080001F490C31088010BD10B58AB0044671
:104C800006A807F054FD0121880404F0CFF80121A3
:104C9000022004F008F827208DF80C0002208DF87F
:104CA0000D0000208DF80E0001208DF80F0003A8E4
:104CB00000F04BFC07220A21144803F0B9FB07223D
:104CC0000B21124803F0B4FB22E000000000024078
:104CD0000010014061020020940D002062020020BB
:104CE000940E00206302002060020020000C0240AD
:104CF0000044004065020020F80E002066020020FB
:104D0000F80F002067020020640200200004024027
:104D10004FF48060019002208DF808008DF80900A2
:104D200000208DF80A0001208DF80B0001A9FE4833
:104D300003F06AF84FF40060019002208DF808003B
:104D40008DF8090001208DF80A0000208DF80B0075
:104D500001A9F54803F058F806940020ADF81C00AE
:104D6000ADF81E00ADF82000ADF824000C20ADF821
:104D700022000020ADF81000ADF812004FF40070D2
:104D8000ADF814000020ADF8160006A9E74807F0BA
:104D9000EAFB04A9E54807F0D6FC012240F22551C0
:104DA000E24808F07CF80121E04807F025FD0AB050
:104DB00010BD70B505460E4600240AE0295DDC48AA
:104DC00002780078401CDA4B1870DA488154601C75
:104DD000C4B2B442F2DBD5480C30008800F0800049
:104DE00028B9012240F22771D04808F058F870BD68
:104DF000D1490A780978491CCF4B1970CF4988549A
:104E000019460978642902DB00211A46117070479F
:104E100010B510E0CA490A780978491CC84B1970C6
:104E2000C649885CFEF789FEC5480078642802DB25
:104E30000020C3490870C0480078C14909788842F9
:104E4000E8D110BD10B5B948008800F0080018B1CD
:104E5000B648001D0088C4B240F22551B34808F09E
:104E600044F958B140F22551B04808F0C9F9AF48AB
:104E7000001D0088C4B22046FFF7BAFF40F2277138
:104E8000AA4808F032F9C0B1AE4801780078401C59
:104E9000AC4A1070A748405CA449091D0880104620
:104EA0000078A3490978884207D1A0480C300088CF
:104EB00020F080009D490C31088010BD10B588B0ED
:104EC000044604A807F033FC0121C80403F0AEFF38
:104ED0000121084603F0E7FE34208DF80C00032082
:104EE0008DF80D0001208DF80E008DF80F0003A83D
:104EF00000F02BFB08220021934803F099FA0822C6
:104F00000121914803F094FA0120019002208DF8CC
:104F100008008DF8090000208DF80A0001208DF8A6
:104F20000B0001A9884802F06FFF022001908DF864
:104F300008008DF8090001208DF80A0000208DF886
:104F40000B0001A9804802F05FFF04940020ADF837
:104F50001400ADF81600ADF81800ADF81C000C20D8
:104F6000ADF81A0004A9794807F0FDFA012240F2D1
:104F70002551764807F093FF0121744807F03CFC67
:104F800008B010BD70B505460E4600240AE0295D44
:104F90006F4802780078401C6D4B18706D48815442
:104FA000601CC4B2B442F2DB68480C30008800F0E8
:104FB000800028B9012240F22771644807F06FFF92
:104FC00070BD65490A780978491C634B19706349BB
:104FD000885419460978642902DB00211A461170A9
:104FE000704710B510E05E490A780978491C5C4B9F
:104FF00019705A49885CFEF7BAFA59480078642853
:1050000002DB00205649087053480078544909785B
:105010008842E8D110BD10B54C48008800F0080067
:1050200018B14A48001D0088C4B240F225514748D3
:1050300008F05BF858B140F22551444808F0E0F818
:105040004248001D0088C4B22046FFF7BAFF40F274
:1050500027713E4808F049F8C0B14248017800780D
:10506000401C404A10703B48405C3849091D08808C
:105070001046007836490978884207D133480C3009
:10508000008820F0800031490C31088010BD10B537
:1050900088B0044604A807F04AFB0121080503F084
:1050A000C5FE0121042003F0FEFD0121082003F0CC
:1050B000FAFD35208DF80C0001208DF80D00002040
:1050C0008DF80E0001208DF80F0003A800F03DFAC6
:1050D00008220C21244803F0ABF9082202212348BE
:1050E00003F0A6F94FF48050019002208DF80800DB
:1050F0008DF8090000208DF80A0001208DF80B00C2
:1051000001A9194802F080FE0420019002208DF8C8
:1051100008008DF8090001208DF80A0000208DF8A4
:105120000B0001A9114823E00004024000480040A0
:10513000690200205C1000206A0200205C1100203F
:105140006B0200206802002000000240004C00407A
:105150006D020020C01100206E020020C01200204D
:105160006F0200206C02002000080240000C024088
:1051700002F04AFE04940020ADF81400ADF81600C9
:10518000ADF81800ADF81C000C20ADF81A0004A909
:105190004C4807F0E8F9012240F22551494807F050
:1051A0007EFE0121474807F027FB08B010BD70B50F
:1051B00005460E4600240AE0295D4348027800783F
:1051C000401C414B187041488154601CC4B2B44229
:1051D000F2DB3C48808900F0800028B9012240F2CF
:1051E0002771384807F05BFE70BD39490A780978A5
:1051F000491C374B19703749885419460978642976
:1052000002DB00211A461170704710B510E03249D8
:105210000A780978491C304B19702E49885CFCF7D4
:10522000FEF82D480078642802DB00202A49087027
:1052300027480078284909788842E8D110BD10B580
:105240002048008800F0080010B11E488088C4B2D1
:1052500040F225511B4807F048FF50B140F225515C
:10526000184807F0CDFF17488088C4B22046FFF7E2
:10527000BCFF40F22771134807F037FFA8B1174869
:1052800001780078401C154A10701048405C0D49A8
:105290008880104600780C490978884205D1094871
:1052A000808920F080000749888110BD10B5FFF784
:1052B00099FBFFF78CFCFFF7ABFDFFF792FEFFF7C2
:1052C000A4FF10BD005000407102002024130020F4
:1052D00072020020241400207302002070020020BB
:1052E0000648804706480047FEE7FEE7FEE7FEE780
:1052F000FEE7FEE7FEE7FEE7FEE7FEE7E153000814
:10530000890100080CB500200190009076480068E3
:1053100040F480307449086000BF7348006800F4AE
:10532000003000900198401C0190009818B9019835
:10533000B0F5A06FF1D16C48006800F4003010B1F6
:105340000120009001E0002000900098012846D143
:1053500065484030006840F0805063494031086043
:105360006248006840F48040604908605E48083048
:1053700000685D49083108600846006840F4004054
:1053800008600846006840F4A05008605848091FAB
:105390000860081F006840F08070091F086000BFA7
:1053A0005148006800F000700028F9D040F2056014
:1053B000504908604C480830006820F003004A4912
:1053C000083108600846006840F00200086000BF2D
:1053D00045480830006800F00C000828F8D10CBDE2
:1053E00010B54548006840F47000434908603E48E5
:1053F000006840F001003C49086000203A4908314B
:105400000860394800683D490840374908603C4811
:10541000091D0860081F006820F48020091F08602B
:10542000002031490C310860FFF76CFF4FF000603D
:1054300031498039086010BD70B500200022022378
:1054400000240221284D08352D6805F00C0020B1FC
:10545000042806D0082834D107E02A4D2A4E3560AA
:1054600033E02A4D284E35602FE01F4D2D1D2D684D
:10547000C5F380541C4D2D1D2D6805F03F0154B11E
:10548000224DB5FBF1F5184E361D3668C6F3881669
:1054900005FB06F209E01B4DB5FBF1F5124E361D7A
:1054A0003668C6F3881605FB06F20F4D2D1D2D68D4
:1054B000C5F301456D1C6B00B2FBF3F5124E356070
:1054C00003E0104D104E356000BF00BF064D08359B
:1054D0002D68C5F303150E4E705D0B4D2D68C5404C
:1054E000094E356070BD0000003802400070004079
:1054F00008544007003C024088ED00E0FFFFF6FE44
:10550000103000240024F4007402002000127A00FD
:105510007802002010B50446B4F5E06F0BD0B4F566
:10552000C06F08D0B4F5A06F05D0B4F5806F02D07D
:10553000B4F5407F00D103E073215F48FAF72EFEF7
:105540005E4820435E49086010BD2DE9F0410446E5
:10555000002500270F26E07810B1E078012800D15F
:1055600003E087215448FAF719FE6078102800DA22
:1055700003E088215048FAF711FEA078102800DADD
:1055800003E089214C48FAF709FEE07818B34C484B
:10559000006800F4E060C0F5E060C0F30725C5F1E5
:1055A0000400C7B22E416078B840C5B2A078304040
:1055B00005432807050E434821784554207800F01C
:1055C0001F010120884021784911890001F1E02163
:1055D000C1F8000109E0207800F01F010120884097
:1055E00039492278521141F82200BDE8F08170B5A6
:1055F00004460D46B4F1005F02D0B4F1006F00D153
:1056000003E0B1212C48FAF7C9FD3048854200D2A9
:1056100003E0B2212848FAF7C1FD2D4905EA01004F
:1056200020432749091F086070BD70B504460D4628
:10563000102C03D0042C01D0022C00D103E0C42193
:105640001D48FAF7ABFD0DB1012D00D103E0C521D6
:105650001948FAF7A3FD3DB11948001D0068204321
:105660001749091D086006E01548001D0068A043A1
:105670001349091D086070BD10B50446042C01D003
:10568000601D00B903E0DC210B48FAF787FD042C0C
:1056900008D14FF0E020006940F004004FF0E02115
:1056A000086107E04FF0E020006920F004004FF0AF
:1056B000E021086110BD000014DC00080000FA05BC
:1056C0000CED00E000E400E080E100E0FFFF0F00EF
:1056D00080FFFF1F10B50121080203F08DFC00219F
:1056E0004FF4807003F088FC10BD2DE9F0410546B1
:1056F0000C4600260027F748854205D0F64885422B
:1057000002D0F648854200D103E0E921F448FAF7D7
:1057100045FD206858B12068B0F1807F07D020682F
:10572000B0F1007F03D02068B0F1407F00D103E0EA
:10573000EA21EB48FAF732FD207910B120790128EF
:1057400000D103E0EB21E648FAF728FD607910B1BB
:105750006079012800D103E0EC21E148FAF71EFD51
:10576000A06858B1A068B0F1805F07D0A068B0F120
:10577000005F03D0A068B0F1405F00D103E0ED21ED
:10578000D748FAF70BFDE068D8B3E068B0F1807F46
:1057900037D0E068B0F1007F33D0E068B0F1407FEF
:1057A0002FD0E068B0F1806F2BD0E068B0F1A06F2F
:1057B00027D0E068B0F1C06F23D0E068B0F1E06FAF
:1057C0001FD0E068B0F1006F1BD0E068B0F1106F3F
:1057D00017D0E068B0F1206F13D0E068B0F1306FFF
:1057E0000FD0E068B0F1406F0BD0E068B0F1506FBF
:1057F00007D0E068B0F1606F03D0E068B0F1706F7F
:1058000000D103E0EE21B648FAF7C8FC206918B1D0
:105810002069B0F5006F00D103E0EF21B048FAF73E
:10582000BDFC207D012803DB207D102800DC03E087
:10583000F021AB48FAF7B2FC6E68AA48064021791D
:10584000206840EA012006436E60AE68A648064024
:10585000D4E903100843A1680843617940EA410094
:105860000643AE60EE6A26F47006207D401EC0B28C
:10587000074346EA0756EE62BDE8F0810021016069
:10588000017141718160C160016101210175704741
:1058900070B504460025206818B32068012820D080
:1058A000206802281DD0206805281AD02068062804
:1058B00017D02068072814D02068092811D0206844
:1058C00011280ED0206812280BD02068152808D087
:1058D0002068162805D02068172802D020681928CB
:1058E00000D104E04FF4A9717D48FAF757FC6068D5
:1058F00058B16068B0F5803F07D06068B0F5003FF0
:1059000003D06068B0F5403F00D104E040F253118D
:105910007348FAF743FCA06858B1A068B0F5804F0F
:1059200007D0A068B0F5004F03D0A068B0F5404F95
:1059300000D104E04FF4AA716948FAF72FFCE0683F
:10594000D8B3E068B0F5807F37D0E068B0F5007F6D
:1059500033D0E068B0F5407F2FD0E068B0F5806FBD
:105960002BD0E068B0F5A06F27D0E068B0F5C06F2D
:1059700023D0E068B0F5E06F1FD0E068B0F5006FAD
:105980001BD0E068B0F5106F17D0E068B0F5206F5D
:1059900013D0E068B0F5306F0FD0E068B0F5406F1D
:1059A0000BD0E068B0F5506F07D0E068B0F5606FDD
:1059B00003D0E068B0F5706F00D104E040F25511FB
:1059C0004748FAF7EBFB4948056849480540D4E9E0
:1059D00000010843A1680843E168084305433D48C6
:1059E000C0F8045370BD0021016041608160C16056
:1059F000704770B504460D463648844205D0364897
:105A0000844202D03548844200D104E040F28B1138
:105A10003348FAF7C3FB0DB1012D00D104E04FF478
:105A2000C6712F48FAF7BAFB25B1A06840F0010013
:105A3000A06003E0A06820F00100A06070BD70B518
:105A400005460C4600262348854205D0224885425B
:105A500002D02248854200D104E04FF4E37120488F
:105A6000FAF79CFB234884420FD0234884420CD091
:105A70002248844209D0B4F5000F06D0B4F5800F57
:105A800003D0B4F5400F00D004B904E040F2C711D0
:105A90001348FAF783FB6E681848C0430640264354
:105AA0006E6070BD70B504460E46154609488442C6
:105AB00005D00948844202D00848844200D104E05D
:105AC00040F2E3110648FAF769FBB6F5805F17DA92
:105AD0001BE00000002001400021014000220140A5
:105AE0005CDC0008FFFEFFFCFDF7FFC00423014063
:105AF000E030FCFF00028000000240000002C00015
:105B00004FF4F271FD48FAF749FBB5F5805F00DA12
:105B100004E040F2E511F948FAF740FB6662A5623D
:105B200070BD70B505460C460026F548854205D087
:105B3000F448854202D0F448854200D104E04FF495
:105B40000371EE48FAF72AFB1CB3012C21D0022C7A
:105B50001FD0032C1DD0042C1BD0052C19D0062CD3
:105B600017D0072C15D0082C13D0092C11D00A2CD3
:105B70000FD00B2C0DD00C2C0BD00D2C09D00E2CD3
:105B800007D00F2C05D0102C03D0112C01D0122CD3
:105B900000D104E040F20D21D848FAF7FFFA6E6810
:105BA00026F01F0626436E6070BD10B504460CB18A
:105BB000012C00D104E04FF41371D048FAF7EEFA4B
:105BC0003CB1D248006840F40000CD49C1F804035C
:105BD00006E0CE48006820F40000C949C1F804037B
:105BE00010BD10B504460CB1012C00D104E040F208
:105BF0006221C248FAF7D2FA3CB1C448006840F4C6
:105C00008000BF49C1F8040306E0C048006820F4E2
:105C10008000BB49C1F8040310BD2DE9F0470646DA
:105C20000C46174698460025A946B548864205D039
:105C3000B448864202D0B448864200D104E04FF412
:105C40003271AE48FAF7AAFA1CB3012C21D0022C0B
:105C50001FD0032C1DD0042C1BD0052C19D0062CD2
:105C600017D0072C15D0082C13D0092C11D00A2CD2
:105C70000FD00B2C0DD00C2C0BD00D2C09D00E2CD2
:105C800007D00F2C05D0102C03D0112C01D0122CD2
:105C900000D104E040F2C9219848FAF77FFA012FB9
:105CA00002DB102F00DC04E040F2CA219348FAF72F
:105CB00075FAB8F1000F14D0B8F1010F11D0B8F196
:105CC000020F0ED0B8F1030F0BD0B8F1040F08D0BB
:105CD000B8F1050F05D0B8F1060F02D0B8F1070FE3
:105CE00000D104E040F2CB218448FAF757FA092C9E
:105CF00013DDF568A4F10A0000EB4001072000FA6B
:105D000001F925EA0905A4F10A0000EB400008FAB0
:105D100000F945EA0905F5600EE0356904EB440138
:105D2000072000FA01F925EA090504EB440008FA06
:105D300000F945EA09053561072F11DA756B781E00
:105D400000EB80011F2000FA01F925EA0905781E01
:105D500000EB800004FA00F945EA0905756326E0C6
:105D60000D2F11DA356BF81F00EB80011F2000FAB0
:105D700001F925EA0905F81F00EB800004FA00F993
:105D800045EA0905356312E0F56AA7F10D0000EB5D
:105D900080011F2000FA01F925EA0905A7F10D008D
:105DA00000EB800004FA00F945EA0905F562BDE858
:105DB000F08710B504465248844205D051488442C9
:105DC00002D05148844200D104E040F23F314B48B8
:105DD000FAF7E4F9A06840F08040A06010BD70B50B
:105DE000044600254648844205D04648844202D0F5
:105DF0004548844200D104E040F24E313F48FAF772
:105E0000CDF9A06800F4800008B1012500E000256C
:105E1000284670BD70B504460D463948844205D009
:105E20003848844202D03848844200D104E040F22D
:105E30006B313248FAF7B2F90DB1012D00D104E00F
:105E40004FF45B712D48FAF7A9F925B1A06840F429
:105E50008060A06003E0A06820F48060A06070BD56
:105E600070B504460D462648844205D02548844234
:105E700002D02548844200D104E04FF461711F48EC
:105E8000FAF78CF90DB1012D00D104E040F2853113
:105E90001A48FAF783F925B1A06840F00200A06023
:105EA00003E0A06820F00200A06070BD2DE9F04181
:105EB00004460D46002600271148844205D01148AB
:105EC000844202D01048844200D104E040F2A13163
:105ED0000A48FAF763F9012D02DB082D00DC04E023
:105EE00040F2A2310548FAF759F9666826F460468F
:105EF0006F1E46EA47366660BDE8F0815CDC00084C
:105F00000020014000210140002201400423014003
:105F100070B504460D46F948844205D0F8488442DD
:105F200002D0F848844200D104E040F2BE31F64885
:105F3000FAF734F90DB1012D00D104E040F2BF3180
:105F4000F148FAF72BF925B1606840F40060606011
:105F500003E0606820F40060606070BD10B5044626
:105F6000E648844205D0E648844202D0E5488442AF
:105F700000D104E040F2D531E348FAF70FF9E06CC4
:105F800080B210BDE1480068704770B504460D4608
:105F9000DA48844205D0DA48844202D0D9488442A3
:105FA00000D104E040F21B41D748FAF7F7F80DB1F1
:105FB000012D00D104E040F21C41D348FAF7EEF87D
:105FC00025B1A06840F48070A06003E0A06820F4D0
:105FD0008070A06070BD70B504460D46C74884420D
:105FE00005D0C748844202D0C648844200D104E0AC
:105FF00040F23341C448FAF7D1F80DB1012D00D178
:1060000004E040F23441C048FAF7C8F825B1A0686E
:1060100040F40070A06003E0A06820F40070A0606D
:1060200070BD10B504460CB1012C00D104E040F263
:106030004E41B548FAF7B2F844B1B448001F0068C1
:1060400040F40050AD49C1F8040307E0AF48001F19
:10605000006820F40050A949C1F8040310BD2DE9DF
:10606000F04706460C4691461D460027B846BA46FC
:10607000A248864205D0A248864202D0A148864264
:1060800000D104E040F2A6419F48FAF787F81CB31C
:10609000012C21D0022C1FD0032C1DD0042C1BD08E
:1060A000052C19D0062C17D0072C15D0082C13D08E
:1060B000092C11D00A2C0FD00B2C0DD00C2C0BD08E
:1060C0000D2C09D00E2C07D00F2C05D0102C03D08E
:1060D000112C01D0122C00D104E040F2A7418A48D3
:1060E000FAF75CF8B9F1010F03DBB9F1040F00DC3A
:1060F00004E04FF495618448FAF750F86DB1012D32
:106100000BD0022D09D0032D07D0042D05D0052D6D
:1061100003D0062D01D0072D00D104E040F2A941A3
:106120007948FAF73BF8092C13DDF768A4F10A0067
:1061300000EB4001072000FA01F827EA0807A4F164
:106140000A0000EB400005FA00F847EA0807F7608C
:106150000EE0376904EB4401072000FA01F827EA52
:10616000080704EB440005FA00F847EA080737611E
:10617000B76BC7F3015A09F103000AF10101401A94
:1061800000EB80011F2000FA01F827EA080709F157
:1061900003000AF10101401A00EB800004FA00F844
:1061A00047EA0807B763BDE8F0872DE9F0410446E8
:1061B0000D46002600275148844205D050488442AD
:1061C00002D05048844200D104E040F2E6414E48FB
:1061D000F9F7E4FF012D02DB042D00DC04E040F2BE
:1061E000E7414948F9F7DAFFA66B26F440166F1E1F
:1061F00046EA0756A663BDE8F081F8B505460C46A9
:106200001646002000903D48854205D03C48854216
:1062100002D03C48854200D104E04FF4A1613A48E5
:10622000F9F7BCFF142C05D0182C03D01C2C01D07E
:10623000202C00D104E040F209513348F9F7AEFFB9
:10624000B6F5805F00DA04E040F20A512E48F9F713
:10625000A5FF009500982044009000980660F8BDC6
:1062600070B505460C4600262448854205D02448D2
:10627000854202D02348854200D104E040F22E51ED
:106280002148F9F78BFF64B3B4F5803F29D0B4F50A
:10629000003F26D0B4F5403F23D0B4F5802F20D066
:1062A000B4F5A02F1DD0B4F5C02F1AD0B4F5E02F4F
:1062B00017D0B4F5002F14D0B4F5102F11D0B4F5C9
:1062C000202F0ED0B4F5302F0BD0B4F5402F08D0CE
:1062D000B4F5502F05D0B4F5602F02D0B4F5702F6F
:1062E00000D104E040F22F510748F9F757FFAE689C
:1062F00026F470262643AE6070BD000000200140E9
:1063000000210140002201405CDC0008082301401C
:1063100070B504460D460026E148844205D0E148A8
:10632000844202D0E048844200D104E04FF4AA61E4
:10633000DE48F9F733FF45B1B5F5801F05D0B5F557
:10634000001F02D0B5F5401F00D104E040F25151CA
:10635000D648F9F723FFA66826F440162E43A66018
:1063600070BD10B50446CE48844205D0CD48844265
:1063700002D0CD48844200D104E040F26451CB48C1
:10638000F9F70CFFA06840F48000A06010BD70B564
:1063900004460025C248844205D0C248844202D047
:1063A000C148844200D104E040F27251BF48F9F77D
:1063B000F5FEA06800F4800008B1012500E000258A
:1063C000284670BD70B504460D46B548844205D0D8
:1063D000B448844202D0B448844200D104E040F280
:1063E0008E51B248F9F7DAFE0DB1012D00D104E06B
:1063F00040F28F51AD48F9F7D1FE25B1606840F405
:106400008060606003E0606820F48060606070BD60
:1064100070B504460D46A248844205D0A148844286
:1064200002D0A148844200D104E04FF4B5619F48F6
:10643000F9F7B4FE0DB1012D00D104E040F2A951ED
:106440009A48F9F7ABFE25B1606840F4805060606F
:1064500003E0606820F48050606070BD38B5054688
:106460000C46002000908E48854205D08D4885421C
:1064700002D08D48854200D104E040F2C6518B48DD
:10648000F9F78CFE142C05D0182C03D01C2C01D04D
:10649000202C00D104E040F2C7518448F9F77EFE79
:1064A000009504F1280000990844009000980068C5
:1064B00080B238BD2DE9F04104460D46164600274E
:1064C0007748844205D07748844202D07648844297
:1064D00000D104E040F231617448F9F75FFE0EB17B
:1064E000012E00D104E040F232617048F9F756FE07
:1064F00040F2052085420AD0B5F5837F07D040F2EF
:106500000740854203D042F21A00854200D104E0E0
:1065100040F233616548F9F741FEEFB2012000FA1D
:1065200007F71EB160683843606002E06068B843F6
:106530006060BDE8F08170B505460C4600265848FD
:10654000854205D05748854202D05748854200D140
:1065500004E040F256615548F9F720FE012C09D0BD
:10656000022C07D0042C05D0082C03D0102C01D00D
:10657000202C00D104E040F257614C48F9F70EFEA0
:106580002868204008B1012600E00026304670BD92
:1065900070B504460D464248844205D041488442C5
:1065A00002D04148844200D104E04FF4CF613F481B
:1065B000F9F7F4FD05F0C00008B905B104E040F2B8
:1065C00079613A48F9F7EAFDE843206070BD2DE9AA
:1065D000F04105460C4600260027B046304885426B
:1065E00005D03048854202D02F48854200D104E0D2
:1065F0004FF4D2612D48F9F7D1FD40F205208442D5
:106600000AD0B4F5837F07D040F20740844203D01C
:1066100042F21A00844200D104E040F29161234822
:10662000F9F7BCFD271268680121A14000EA0108C2
:106630002868384020B1B8F1000F01D0012600E0F1
:1066400000263046BDE8F08170B505460C460026B0
:106650001348854205D01348854202D0124885422E
:1066600000D104E040F2B7611048F9F797FD40F21D
:10667000052084420AD0B4F5837F07D040F207405A
:10668000844203D042F21A00844200D104E04FF465
:10669000D7610648F9F782FD2612F043286070BDE5
:1066A0000020014000210140002201405CDC000884
:1066B00010B50446FE4884423AD0FD481830844262
:1066C00036D0FB483030844232D0F94848308442DA
:1066D0002ED0F748603084422AD0F5487830844282
:1066E00026D0F3489030844222D0F148A83084422A
:1066F0001ED0F04884421BD0EE481830844217D098
:10670000EC483030844213D0EA48483084420FD0FD
:10671000E848603084420BD0E6487830844207D0A5
:10672000E4489030844203D0E248A830844200D14B
:1067300003E0BF21E048F9F731FD206820F00100B7
:106740002060002020606060A060E0602061212067
:106750006061D748844204D13D20D5491039886012
:106760008CE0D3481830844205D14FF47460D0498E
:106770001039886082E0CE483030844205D14FF431
:106780007410CB491039886078E0C9484830844299
:1067900005D14FF07460C649103988606EE0C44876
:1067A0006030844204D1C548C1491039C86065E0F1
:1067B000BF487830844204D1C148BD491039C8600F
:1067C0005CE0BB489030844204D1BE48B8491039DF
:1067D000C86053E0B648A830844205D14FF03D5020
:1067E000B3491039C86049E0B248844204D13D2021
:1067F000B0490839086041E0AE481830844205D1FC
:106800004FF47460AB490839086037E0A94830306C
:10681000844205D14FF47410A649083908602DE070
:10682000A4484830844205D14FF07460A14908392A
:10683000086023E09F486030844204D19F489D490E
:10684000091F08601AE09B487830844204D19C48B4
:106850009849091F086011E096489030844204D19D
:1068600098489449091F086008E09248A83084427B
:1068700004D14FF03D508F49091F086010BD70B51D
:1068800005460C4600268A4885423AD0884818308A
:10689000854236D086483030854232D084484830F0
:1068A00085422ED08248603085422AD08048783098
:1068B000854226D07E489030854222D07C48A83040
:1068C00085421ED07B4885421BD07A4818308542CD
:1068D00017D078483030854213D07648483085420A
:1068E0000FD07448603085420BD0724878308542B2
:1068F00007D070489030854203D06E48A83085425A
:1069000000D104E04FF49E716B48F9F747FC206812
:10691000D8B12068B0F1007F17D02068B0F1806F47
:1069200013D02068B0F1C06F0FD02068B0F1006FB5
:106930000BD02068B0F1206F07D02068B0F1406F15
:1069400003D02068B0F1606F00D104E040F23D1147
:106950005948F9F723FCE06828B1E068402802D0E4
:10696000E068802800D104E04FF49F715248F9F7A5
:1069700015FC206920B12069B0F5803F00D204E009
:1069800040F23F114C48F9F709FC6069B0F5007F0F
:1069900001D0606900B904E04FF4A0714648F9F7EE
:1069A000FDFBA069B0F5806F01D0A06900B904E0DB
:1069B00040F241114048F9F7F1FBE06938B1E06974
:1069C000B0F5006F03D0E069B0F5805F00D104E05E
:1069D0004FF4A1713848F9F7E1FB206A38B1206A19
:1069E000B0F5005F03D0206AB0F5804F00D104E01D
:1069F00040F243113048F9F7D1FB606A18B1606A80
:106A0000B0F5807F00D104E04FF4A2712A48F9F775
:106A1000C5FBA06A58B1A06AB0F5803F07D0A06A54
:106A2000B0F5003F03D0A06AB0F5403F00D104E0CC
:106A300040F245112048F9F7B1FBE06A10B1E06A75
:106A4000042800D104E04FF4A3711B48F9F7A6FB1A
:106A5000206B40B1206B012805D0206B022802D0AA
:106A6000206B032800D104E040F247111248F9F7E7
:106A700095FB606B58B1606BB0F5000F07D0606B91
:106A8000B0F1807F03D0606BB0F1C07F00D104E033
:106A90004FF4A4710848F9F781FBA06BC0B1A06B5B
:106AA000B0F5001F14D0A06BB0F5800F10D00BE034
:106AB0001060024010640240B0DC00083D0000207D
:106AC000400F002000003D20A06BB0F5C00F00D1AA
:106AD00004E040F24911FE48F9F760FB2E68FD48DA
:106AE0000640E1682068084361690843A1690843DA
:106AF000E1690843216A0843616A0843A16A0843BF
:106B0000616B0843A16B084306432E606E6926F053
:106B10000706D4E90B01084306436E6120696860EB
:106B20006068A860A068E86070BD002101604160F5
:106B30008160C160016141618161C1610162416245
:106B40008162C162016341638163704770B504462D
:106B50000D46E14884423AD0DF481830844236D0AE
:106B6000DD483030844232D0DB48483084422ED079
:106B7000D948603084422AD0D7487830844226D021
:106B8000D5489030844222D0D348A83084421ED0C9
:106B9000D24884421BD0D1481830844217D0CF4805
:106BA0003030844213D0CD48483084420FD0CB4897
:106BB000603084420BD0C9487830844207D0C7483F
:106BC0009030844203D0C548A830844200D104E00C
:106BD00040F2D911BE48F9F7E1FA0DB1012D00D10B
:106BE00004E04FF4ED71BA48F9F7D8FA25B12068FE
:106BF00040F00100206003E0206820F001002060E8
:106C000070BD70B504460D46B34884423AD0B248D0
:106C10001830844236D0B0483030844232D0AE484A
:106C2000483084422ED0AC48603084422AD0AA48F2
:106C30007830844226D0A8489030844222D0A6489A
:106C4000A83084421ED0A54884421BD0A3481830E7
:106C5000844217D0A1483030844213D09F48483036
:106C600084420FD09D48603084420BD09B487830DE
:106C7000844207D099489030844203D09748A83086
:106C8000844200D104E040F2FD119148F9F786FA00
:106C900015B1B5F5004F00D104E04FF4FF718C48F9
:106CA000F9F77CFA25B1206840F40040206003E049
:106CB000206820F40040206070BD70B504460D4689
:106CC000854884423AD084481830844236D082487D
:106CD0003030844232D08048483084422ED07E48C2
:106CE000603084422AD07C487830844226D07A486A
:106CF0009030844222D07848A83084421ED0774811
:106D000084421BD075481830844217D07348303005
:106D1000844213D07148483084420FD06F486030AD
:106D200084420BD06D487830844207D06B48903055
:106D3000844203D06948A830844200D104E040F284
:106D400021216348F9F72AFA0DB1202D00D104E082
:106D500040F222215E48F9F721FA25B1206840F07F
:106D60002000206003E0206820F02000206070BD3B
:106D700070B504460D46584884423AD056481830FB
:106D8000844236D054483030844232D05248483061
:106D900084422ED05048603084422AD04E48783009
:106DA000844226D04C489030844222D04A48A830B1
:106DB00084421ED0494884421BD04848183084423F
:106DC00017D046483030844213D04448483084427B
:106DD0000FD04248603084420BD040487830844223
:106DE00007D03E489030844203D03C48A8308442CB
:106DF00000D104E040F275213548F9F7CFF965601C
:106E000070BD10B50446344884423AD03248183038
:106E1000844236D030483030844232D02E48483018
:106E200084422ED02C48603084422AD02A487830C0
:106E3000844226D028489030844222D02648A83068
:106E400084421ED0254884421BD0244818308442F6
:106E500017D022483030844213D020484830844232
:106E60000FD01E48603084420BD01C4878308442DA
:106E700007D01A489030844203D01848A830844282
:106E800000D104E04FF421711148F9F787F96068E7
:106E900080B210BD70B504460E4615460E488442B9
:106EA00042D00D48183084423ED00B4830308442E6
:106EB0003AD009484830844236D00748603084428E
:106EC00032D00548783084422ED00348903007E015
:106ED000B0DC00083F801CF01060024010640240EB
:106EE000844221D0FE4884421ED0FE4884421BD0FA
:106EF000FC481830844217D0FA483030844213D00E
:106F0000F848483084420FD0F648603084420BD0B5
:106F1000F4487830844207D0F2489030844203D05D
:106F2000F048A830844200D104E040F2D221EE487B
:106F3000F9F734F915B1B5F5002F00D104E040F2AE
:106F4000D321E948F9F72AF925B1206840F4002057
:106F5000206003E0206820F400202060266170BDDE
:106F600070B504460D46DE48A838844239D0DC4866
:106F70009038844235D0DA487838844231D0D848C5
:106F8000603884422DD0D6484838844229D0D4482D
:106F90003038844225D0D2481838844221D0D04895
:106FA00084421ED0CF4884421BD0CE481830844241
:106FB00017D0CC483030844213D0CA48483084427D
:106FC0000FD0C848603084420BD0C6487830844225
:106FD00007D0C4489030844203D0C248A8308442CD
:106FE00000D104E04FF43C71BF48F9F7D7F80DB178
:106FF000012D00D104E040F2F121BB48F9F7CEF8B1
:1070000025B1206840F48020206003E0206820F44F
:107010008020206070BD70B504460E461546B0480D
:10702000A838844239D0AE489038844235D0AC4834
:107030007838844231D0AA48603884422DD0A8489C
:107040004838844229D0A6483038844225D0A44804
:107050001838844221D0A24884421ED0A1488442DC
:107060001BD0A0481830844217D09E48303084424C
:1070700013D09C48483084420FD09A4860308442F4
:107080000BD098487830844207D09648903084429C
:1070900003D09448A830844200D104E040F21A3171
:1070A0009148F9F77BF815B1B5F5002F00D104E050
:1070B00040F21B318C48F9F771F80DB1266100E000
:1070C000E66070BD70B5044600258548A838844246
:1070D00039D083489038844235D08148783884420A
:1070E00031D07F48603884422DD07D484838844272
:1070F00029D07B483038844225D0794818388442DA
:1071000021D0774884421ED0764884421BD07548EF
:107110001830844217D073483030844213D07148FD
:10712000483084420FD06F48603084420BD06D48A5
:107130007830844207D06B489030844203D069484D
:10714000A830844200D104E040F235316648F9F7B6
:1071500025F8206800F4002008B1012500E0002592
:10716000284670BD70B5044600255D48A8388442A5
:1071700039D05B489038844235D0594878388442B9
:1071800031D05748603884422DD055484838844221
:1071900029D053483038844225D051481838844289
:1071A00021D04F4884421ED04E4884421BD04D48C7
:1071B0001830844217D04B483030844213D04948AD
:1071C000483084420FD04748603084420BD0454855
:1071D0007830844207D043489030844203D04148FD
:1071E000A830844200D104E040F2A2313E48F8F7D2
:1071F000D5FF206800F0010008B1012500E000255E
:10720000284670BD70B5044600253548A83884422C
:1072100039D033489038844235D031487838844268
:1072200031D02F48603884422DD02D4848388442D0
:1072300029D02B483038844225D029481838844238
:1072400021D0274884421ED0264884421BD025489E
:107250001830844217D023483030844213D021485C
:10726000483084420FD01F48603084420BD01D4804
:107270007830844207D01B489030844203D01948AC
:10728000A830844200D104E04FF471711648F8F739
:1072900085FF606900F03805284670BD2DE9F04192
:1072A00005460C464FF0000800270D48A8388542D7
:1072B00040D00B48903885423CD009487838854208
:1072C00038D007486038854234D005484838854270
:1072D00030D00348303885422CD00148183805E0BA
:1072E000B860024010640240B0DC0008854221D042
:1072F000F94885421ED0F94885421BD0F74818301E
:10730000854217D0F5483030854213D0F3484830D5
:1073100085420FD0F148603085420BD0EF4878307D
:10732000854207D0ED489030854203D0EB48A83025
:10733000854200D104E040F2E131E948F8F72EFF40
:10734000E84884427CD0E7481038844278D0E54849
:107350001838844274D0E448844271D0C01E8442FC
:107360006ED0E24884426BD0E148844268D0E14864
:10737000844265D0DB48E030844261D0D948203077
:1073800084425DD0B4F1815F5AD0DB48844257D04B
:10739000DA48844254D0DA48844251D0D9488442F1
:1073A0004ED0B4F1C05F4BD0B4F1A05F48D0B4F17F
:1073B000905F45D0B4F1885F42D0B4F1825F3FD096
:1073C000D14884423CD0D0481038844238D0CE488E
:1073D0001838844234D0001F844231D0C01E844209
:1073E0002ED0CA4884422BD0C948844228D0C948EC
:1073F000844225D0C448E030844221D0C2482030A5
:1074000084421DD0C44884421AD0C448844217D054
:10741000C348844214D0C348844211D0C248844235
:107420000ED0B4F1205F0BD0B4F1105F08D0B4F1EE
:10743000085F05D0B4F1045F02D0B4F1015F00D160
:1074400004E040F2E231A648F8F7A8FEA3488542DE
:1074500002D2A14EB83E01E0A04E103E04F0005012
:1074600008B1776800E03768B048074007EA0400D1
:1074700010B14FF0010801E04FF000084046BDE8B0
:10748000F08170B504460D469348A838844239D03F
:1074900091489038844235D08F487838844231D032
:1074A0008D48603884422DD08B484838844229D09A
:1074B00089483038844225D087481838844221D002
:1074C000854884421ED0854884421BD083481830AA
:1074D000844217D081483030844213D07F484830EE
:1074E00084420FD07D48603084420BD07B48783096
:1074F000844207D079489030844203D07748A8303E
:10750000844200D104E040F222417548F8F746FE7B
:1075100005F04050B0F1405F07D005F0405020B179
:107520008348284008B905B104E040F223416C4883
:10753000F8F734FE6948844202D2674EB83E01E053
:10754000664E103E05F0005018B178482840F060B3
:1075500002E076482840B06070BD70B504460D4624
:1075600016465D48A838844239D05B48903884423A
:1075700035D059487838844231D0574860388442F1
:107580002DD055484838844229D053483038844259
:1075900025D051481838844221D04F4884421ED00B
:1075A0004E4884421BD04D481830844217D04B4877
:1075B0003030844213D04948483084420FD0474885
:1075C000603084420BD045487830844207D043482D
:1075D0009030844203D04148A830844200D104E076
:1075E00040F24F413E48F8F7D9FD25F09E0008B91A
:1075F00005B104E04FF48A613948F8F7CFFD0EB1C8
:10760000012E00D104E040F251413548F8F7C6FDA3
:1076100005F0800048B126B1606940F080006061EB
:1076200003E0606920F080006061802D0BD02EB1F6
:10763000206805F01E010843206004E0206805F082
:107640001E018843206070BD2DE9F04705460C46B9
:107650004FF000080027B9461F48A838854239D0A6
:107660001D489038854235D01B487838854231D046
:107670001948603885422DD017484838854229D0AE
:1076800015483038854225D013481838854221D016
:10769000114885421ED0114885421BD00F48183032
:1076A000854217D00D483030854213D00B48483002
:1076B00085420FD00948603085420BD007487830AA
:1076C000854207D005489030854203D00348A83052
:1076D00085422FD133E00000B860024010640240C0
:1076E000B0DC00082000001004008010000800102A
:1076F000000400100002001000001010000008102C
:1077000000000410000001102000002000080020EC
:1077100000040020000200200000202000001020B3
:107720000000082000000420000001207D0F7D0FD4
:1077300082F082C040F287418D48F8F72FFD8D48D6
:10774000844278D08C48844275D08C48844272D070
:107750008B4884426FD08B4884426CD08A488442E4
:1077600069D08A48844266D08948844263D084487C
:10777000FC3084425FD083483F3084425BD08548F0
:10778000844258D08448844255D08448844252D0A0
:10779000834884424FD0834884424CD082488442FC
:1077A00049D08248844246D08148844243D08148AF
:1077B000844240D0804884423DD0804884423AD0C0
:1077C0007F48844237D07F48844234D07E48844208
:1077D00031D07E4884422ED07D4884422BD07D48D3
:1077E000844228D07C48844225D07748FC308442AB
:1077F00021D076483F3084421DD0784884421AD048
:107800007748844217D07748844214D0764884421F
:1078100011D0764884420ED0754884420BD075480A
:10782000844208D07448844205D07448844202D00F
:107830007348844200D104E04FF491614C48F8F75A
:10784000ADFC7048854201D26F4E01E06D4E103E96
:107850006E48204030B11E2000EAD427286800EA94
:10786000070902E0686900F0800904F0005008B1DF
:10787000776800E037686648074007EA040028B1E7
:10788000B9F1000F02D04FF0010801E04FF00008FD
:107890004046BDE8F08770B504460D465A481030A2
:1078A00084423AD058482830844236D05648403036
:1078B000844232D05448583084422ED052487030DE
:1078C00084422AD050488830844226D04E48A03086
:1078D000844222D04C48B83084421ED04948844269
:1078E0001BD048481830844217D046483030844274
:1078F00013D04448483084420FD04248603084421C
:107900000BD040487830844207D03E4890308442C3
:1079100003D03C48A830844200D104E040F2D74173
:107920001348F8F73BFC05F04050B0F1405F07D03A
:1079300005F0405020B11DB13648284000B904E0A0
:107940004FF49B610A48F8F729FC2E48844201D283
:107950002D4E01E02B4E103E05F0005018B12C4882
:107960002840F06002E02A482840B06070BD000066
:10797000B0DC00082080001010400010082000102B
:107980000410001001000090008800100044001056
:10799000002200100080201000401010002008106D
:1079A0000010041000000190008000180040001436
:1079B00000200012001000110000409020800020E4
:1079C000104000200820002004100020010000A02A
:1079D0000088002000440020002200200080202099
:1079E000004010200020082000100420000001A00A
:1079F0000080002800400024002000220010002108
:107A0000000040A010640240006002403C0F3C0FA8
:107A10007D0F7D0F820082400020B1490860091D62
:107A20000860091D0860091D0860AE48AC491431A2
:107A30000860704770B504460025207910B12079A0
:107A4000042800D103E07C21A748F8F7A7FB607960
:107A5000082805D060790C2802D06079102800D160
:107A600003E07D21A048F8F799FB20686FF316002A
:107A700010B9206800B103E07E219B48F8F78EFB27
:107A8000A07910B1A079012800D103E07F219648A8
:107A9000F8F784FB924DA07990B3284600682168DE
:107AA000884329460860081D006821688843291D0D
:107AB00008602079054428682168084328608848C0
:107AC0000830006821688843854908310860081D2E
:107AD00000682168884382490C3108606079102869
:107AE0000FD1081F0068216808437D4908310860EC
:107AF000081D00682168084379490C3108600EE0D0
:107B000007E0774D607905442868216808432860BC
:107B100005E020790544286821688843286070BD05
:107B20000021016001710C214171002181717047B8
:107B300010B50446E00DC00508B904B103E0C12149
:107B40006948F8F72BFB6648103000682043644909
:107B50001031086010BD70B504460025012C3AD0E4
:107B6000022C38D0042C36D0082C34D0102C32D033
:107B7000202C30D0402C2ED0802C2CD0B4F5807FFF
:107B800029D0B4F5007F26D0B4F5806F23D0B4F5AA
:107B9000006F20D0B4F5805F1DD0B4F5005F1AD01F
:107BA000B4F5804F17D0B4F5004F14D0B4F5803F32
:107BB00011D0B4F5003F0ED0B4F5802F0BD0B4F542
:107BC000002F08D0B4F5801F05D0B4F5001F02D0F7
:107BD000B4F5800F00D103E0E0214348F8F7DEFA66
:107BE0003F4814300068204008B1012500E000251E
:107BF000284670BD10B50446E00DC00508B904B1B3
:107C000003E0F6213848F8F7C9FA35481430046023
:107C100010BD70B5044600250026012C3AD0022C78
:107C200038D0042C36D0082C34D0102C32D0202C54
:107C300030D0402C2ED0802C2CD0B4F5807F29D091
:107C4000B4F5007F26D0B4F5806F23D0B4F5006F73
:107C500020D0B4F5805F1DD0B4F5005F1AD0B4F524
:107C6000804F17D0B4F5004F14D0B4F5803F11D039
:107C7000B4F5003F0ED0B4F5802F0BD0B4F5002F33
:107C800008D0B4F5801F05D0B4F5001F02D0B4F5BC
:107C9000800F00D104E04FF483711348F8F77EFAA7
:107CA0000F48006800EA04060D48143000682040C0
:107CB00010B10EB1012500E00025284670BD10B5B9
:107CC0000446E00DC00508B904B104E040F21D11FE
:107CD0000548F8F763FA02481430046010BD00004C
:107CE000003C0140FFFF7F0004DD000810B50446A2
:107CF000FA48844217D0FA48844214D0F9488442A2
:107D000011D0F94884420ED0F84884420BD0F8488C
:107D1000844208D0F748844205D0F748844202D014
:107D2000F648844200D103E07B21F548F8F736FAA3
:107D3000EA48844208D10121084601F0C1F8002137
:107D4000012001F0BDF85EE0E548844208D1012140
:107D5000022001F0B5F80021022001F0B1F852E054
:107D6000E048844208D10121042001F0A9F8002153
:107D7000042001F0A5F846E0DB48844208D1012147
:107D8000082001F09DF80021082001F099F83AE060
:107D9000D648844208D10121102001F091F8002139
:107DA000102001F08DF82EE0D148844208D1012145
:107DB000202001F085F80021202001F081F822E048
:107DC000CC48844208D10121402001F079F80021FB
:107DD000402001F075F816E0C748844208D101211F
:107DE000802001F06DF80021802001F069F80AE0A0
:107DF000C248844207D10121801501F061F80021B9
:107E0000A01501F05DF810BD2DE9F04104460D46C6
:107E100000260027B046B148844217D0B0488442BB
:107E200014D0B048844211D0AF4884420ED0AF483D
:107E300084420BD0AE48844208D0AE48844205D07C
:107E4000AD48844202D0AD48844200D103E0BB215A
:107E5000AB48F8F7A3F9002010B9286800B103E097
:107E6000BC21A748F8F79AF9287940B12879012868
:107E700005D02879022802D02879032800D103E010
:107E8000BD219F48F8F78AF9E87928B1E8790128F7
:107E900002D0E879022800D103E0BE219848F8F723
:107EA0007DF9002657E0012000FA06F7286800EA6D
:107EB0000708B8454ED120687200032191408843DD
:107EC0002060287971008840216808432060287963
:107ED000012802D02879022830D1687940B1687928
:107EE000012805D06879022802D06879032800D1DA
:107EF00003E0D0218248F8F751F9A068720003210D
:107F000091408843A060687971008840A168084367
:107F1000A060A87910B1A879012800D103E0D72189
:107F20007748F8F73BF961680120B0408143616010
:107F30006068A979B14089B208436060E068720066
:107F4000032191408843E060E87971008840E1684E
:107F50000843E060761C102EA5D3BDE8F0814FF6F3
:107F6000FF7101600021017141718171C171704720
:107F700038B504460D464FF480300090574884428F
:107F800017D05748844214D05648844211D05648DE
:107F900084420ED0554884420BD05548844208D0C4
:107FA0005448844205D05448844202D05348844205
:107FB00000D104E04FF482715148F8F7EFF8002047
:107FC00008B905B104E040F205114D48F8F7E6F8AC
:107FD0000098284300900098E061E5610098E06116
:107FE000E0690090E069009038BD70B505460C4628
:107FF00000263A48854217D03948854214D039487E
:10800000854211D0384885420ED0384885420BD081
:108010003748854208D03748854205D036488542E2
:1080200002D03648854200D104E04FF498713448BC
:10803000F8F7B4F8012C25D0022C23D0042C21D041
:10804000082C1FD0102C1DD0202C1BD0402C19D058
:10805000802C17D0B4F5807F14D0B4F5007F11D0F8
:10806000B4F5806F0ED0B4F5006F0BD0B4F5805F1F
:1080700008D0B4F5005F05D0B4F5804F02D0B4F558
:10808000004F00D104E040F231111D48F8F786F8A6
:108090002869204008B1012600E00026304670BD66
:1080A00010B504460D48844217D00D48844214D0C0
:1080B0000C48844211D00C4884420ED00B488442B4
:1080C0000BD00B48844208D00A48844205D00A48A5
:1080D000844202D00948844214D118E000000240D2
:1080E0000004024000080240000C02400010024060
:1080F0000014024000180240001C02400020024010
:1081000058DD00084FF4A371FE48F8F747F82069DE
:1081100080B210BD70B505460C460026FA4885426F
:1081200017D0FA48854214D0F948854211D0F94851
:1081300085420ED0F84885420BD0F848854208D0D9
:10814000F748854205D0F748854202D0F648854277
:1081500000D104E040F25711EA48F8F71FF8012C6B
:1081600025D0022C23D0042C21D0082C1FD0102C79
:108170001DD0202C1BD0402C19D0802C17D0B4F54A
:10818000807F14D0B4F5007F11D0B4F5806F0ED08D
:10819000B4F5006F0BD0B4F5805F08D0B4F5005F84
:1081A00005D0B4F5804F02D0B4F5004F00D104E003
:1081B0004FF4AC71D348F7F7F1FF6869204008B17C
:1081C000012600E00026304670BD10B50446CE48BA
:1081D000844217D0CD48844214D0CD48844211D077
:1081E000CC4884420ED0CC4884420BD0CB48844249
:1081F00008D0CB48844205D0CA48844202D0CA483D
:10820000844200D104E040F26D11BE48F7F7C6FF8A
:10821000606980B210BD70B504460D46BA4884420C
:1082200017D0BA48844214D0B948844211D0B94812
:1082300084420ED0B84884420BD0B848844208D05B
:10824000B748844205D0B748844202D0B648844239
:1082500000D104E040F27F11AA48F7F79FFF002009
:1082600008B905B104E04FF4C071A648F7F796FFCE
:10827000258370BD70B504460D46A348844217D0CF
:10828000A248844214D0A248844211D0A14884421A
:108290000ED0A14884420BD0A048844208D0A04808
:1082A000844205D09F48844202D09F48844200D136
:1082B00004E04FF4C9719348F7F770FF002008B944
:1082C00005B104E040F293118E48F7F767FF65832C
:1082D00070BD70B505460C4616468B48854217D0D2
:1082E0008A48854214D08A48854211D089488542FF
:1082F0000ED0894885420BD08848854208D08848EE
:10830000854205D08748854202D08748854200D102
:1083100004E04FF4D3717B48F7F740FF012C25D0E0
:10832000022C23D0042C21D0082C1FD0102C1DD0BF
:10833000202C1BD0402C19D0802C17D0B4F5807F76
:1083400014D0B4F5007F11D0B4F5806F0ED0B4F521
:10835000006F0BD0B4F5805F08D0B4F5005F05D096
:10836000B4F5804F02D0B4F5004F00D104E040F2E4
:10837000A7116448F7F712FF0EB1012E00D104E0F7
:108380004FF4D4715F48F7F709FF0EB12C8300E07A
:108390006C8370BD70B504460D465B48844217D0AF
:1083A0005A48844214D05A48844211D059488442D1
:1083B0000ED0594884420BD05848844208D05848BF
:1083C000844205D05748844202D05748844200D1A5
:1083D00004E040F2BD114B48F7F7E0FE656170BD67
:1083E00070B504460D464848844217D04748844239
:1083F00014D04748844211D0464884420ED04648A3
:1084000084420BD04548844208D04548844205D078
:108410004448844202D04448844200D104E040F2FF
:10842000CB113848F7F7BAFE60696840606170BDEB
:108430002DE9F04106460D4614460027B84632485D
:10844000864217D03148864214D03148864211D036
:10845000304886420ED0304886420BD02F488642A4
:1084600008D02F48864205D02E48864202D02E489A
:10847000864200D104E040F217212248F7F78EFE31
:10848000EDB1012D1BD0022D19D0032D17D0042DD5
:1084900015D0052D13D0062D11D0072D0FD0082D86
:1084A0000DD0092D0BD00A2D09D00B2D07D00C2D86
:1084B00005D00D2D03D00E2D01D00F2D00D104E0DD
:1084C0004FF406710F48F7F769FE7CB3092C47D0CB
:1084D00064B35CB354B34CB3012C41D040D0022CF4
:1084E0003ED03DD03CD0032C3AD0042C38D037D0ED
:1084F00036D0052C34D033D0092C31D0062C2FD0D7
:10850000092C14E058DD000800000240000402407D
:1085100000080240000C024000100240001402401B
:1085200000180240001C02400020024018E017D052
:10853000072C15D014D013D0082C11D010D00FD088
:10854000092C0DD00CD00A2C0AD009D00B2C07D046
:108550000C2C05D004D003D00D2C01D00F2C00D151
:1085600004E040F219211248F7F718FE6807C00E20
:1085700004FA00F7E91006F1200050F8210069071D
:10858000CA0E0F2191408843EA1006F1200141F8FC
:108590002200E91006F1200050F8210040EA070807
:1085A000E91006F1200040F82180BDE8F0810000CC
:1085B00058DD0008F948006840F00100F7490860FC
:1085C0000020F64908310860F4480068F449084082
:1085D000F2490860F348091D0860081F006820F48C
:1085E0008020091F08600020EC490C3108607047AA
:1085F00010B504461CB1012C01D0052C00D103E0BC
:10860000F021E948F7F7CAFD0020E449891C087009
:108610000846047010BD2DE9F041044600250026EF
:108620000027212C17D0312C15D0392C13D0412CF8
:1086300011D0612C0FD0792C0DD07A2C0BD07B2C43
:1086400009D07C2C07D07D2C05D07E2C03D07F2C2C
:1086500001D03B2C00D104E040F29C61D248F7F7F6
:108660009DFD6511012D02D1CC48066808E0022D60
:1086700003D1CA487030066802E0C8487430066802
:1086800004F01F050120A840304008B1012700E098
:1086900000273846BDE8F08138B50020009000245E
:1086A000002500BF3120FFF7B6FF05460098401CAB
:1086B00000900098B0F5A06F01D0002DF2D03120CD
:1086C000FFF7A9FF08B1012400E00024204638BDCF
:1086D00070B5044600251F2C00DC04E04FF49471B3
:1086E000B148F7F75BFDAD48056825F0F80545EAA8
:1086F000C405056070BD10B504460CB1012C00D155
:1087000004E040F24B11A848F7F748FDA748046081
:1087100010BD10B504461CB1012C01D0042C00D1B1
:1087200004E04FF4B271A048F7F738FD00209B49F0
:10873000703108700870012C02D0042C0AD104E0BA
:10874000012096497031087005E005209349703189
:10875000087000E000BF00BF10BD10B504460CB1AA
:10876000012C00D104E04FF4C6718F48F7F716FDD5
:108770008F48046010BD2DE9F04105460F461646AE
:108780001C46DDF8188015B1B5F5800F00D104E066
:1087900040F2B7118448F7F701FD3F2F00D804E0FD
:1087A0004FF4DC718048F7F7F9FCC02E03D3B6F51F
:1087B000D87F00D804E040F2B9117B48F7F7EEFC0F
:1087C000022C05D0042C03D0062C01D0082C00D19B
:1087D00004E04FF4DD717448F7F7E0FCB8F1040FE2
:1087E00003D3B8F10F0F00D804E040F2BB116E487C
:1087F000F7F7D4FC47EA86100121C1EB540140EAA7
:108800000140284340EA08606449091D0860BDE84A
:10881000F08110B504460CB1012C00D104E04FF4F6
:10882000E7716148F7F7BAFC6048046610BD70B59F
:1088300005460C46C02D03D3B5F5D87F00D804E01B
:108840004FF4F4715848F7F7A9FC022C02D3072C17
:1088500000D804E040F2E9115348F7F79FFCA80163
:1088600040EA04704D498431086070BD10B504467B
:108870000CB1012C00D104E040F2F7114A48F7F79F
:108880008DFC4A48846610BD10B504460CB1012C1D
:1088900000D104E040F209214348F7F77FFC434848
:1088A000C46410BD70B505460C46002645B1B5F54B
:1088B000001F05D0B5F5800F02D0B5F5C00F00D16F
:1088C00004E04FF409713848F7F768FC5CB1B4F183
:1088D000806F08D0B4F1A06F05D0B4F1C06F02D0A2
:1088E000B4F1E06F00D104E040F225212E48F7F703
:1088F00055FC2A480830066826F0EC6645EA040074
:10890000064326480830066070BD70B505460C4623
:10891000002645B1B5F1804F05D0B5F1004F02D02A
:10892000B5F1404F00D104E040F24A211E48F7F76C
:1089300035FC5CB1B4F1005F08D0B4F1205F05D024
:10894000B4F1405F02D0B4F1605F00D104E040F2C6
:108950004B211548F7F722FC10480830066826F02E
:10896000784645EA040006430C480830066070BDAE
:1089700070B5044600251CB1012C01D0022C00D199
:1089800004E04FF42D710848F7F708FC034808305D
:10899000056825F003052543056070BD00380240D9
:1089A000FFFFF6FE10300024ACDD00080000474257
:1089B000800E4742F648006800F00C00704770B522
:1089C000044600257CB1802C0DD0902C0BD0A02C1F
:1089D00009D0B02C07D0C02C05D0D02C03D0E02C6F
:1089E00001D0F02C00D104E040F2E921E948F7F78A
:1089F000D5FBE748056825F0F0052543056070BD07
:108A000070B5044600255CB1B4F5805F08D0B4F5BC
:108A1000A05F05D0B4F5C05F02D0B4F5E05F00D12F
:108A200004E040F20931DB48F7F7B8FBD8480568A5
:108A300025F4E0552543056070BD70B5044600255A
:108A40005CB1B4F5805F08D0B4F5A05F05D0B4F593
:108A5000C05F02D0B4F5E05F00D104E04FF44A718A
:108A6000CC48F7F79BFBCA48056825F4604545EA02
:108A7000C405056070BDF0B5002100220024022568
:108A800000260223C24F3F6807F00C0121B10429E0
:108A900005D0082937D105E0BF4F076036E0BF4F4A
:108AA000076033E0BA4F3F1F3F68C7F38056B84FA7
:108AB0003F1F3F6807F03F036EB1B84FB7FBF3F7B6
:108AC000DFF8CCC2ACF1040CDCF800C0CCF3881C9D
:108AD00007FB0CF40CE0B04FB7FBF3F7DFF8B0C2C4
:108AE000ACF1040CDCF800C0CCF3881C07FB0CF4E0
:108AF000A74F3F1F3F68C7F301477F1C7D00B4FBB2
:108B0000F5F7076002E0A44F076000BF00BFA04F69
:108B10003F6807F0F0010909A14F7A5C0768D74068
:108B200047609B4F3F6807F4E051890A9C4F7A5C8D
:108B30004768D7408760964F3F6807F46041490B0C
:108B4000974F7A5C4768D740C760F0BD70B5044660
:108B50000025B4F5807F5CD0B4F5007F59D09148F2
:108B6000844256D09048844253D09048844250D09A
:108B70008F4884424DD08F4884424AD08E488442E8
:108B800047D08E48844244D08D48844241D08D489D
:108B900084423ED08C4884423BD08C48844238D0BA
:108BA0008B48844235D08B48844232D08A488442F4
:108BB0002FD08A4884422CD08948844229D08948C1
:108BC000844226D08848844223D08848844220D0DA
:108BD000874884421DD0874884421AD08648844200
:108BE00017D08648844214D08548844211D08548E5
:108BF00084420ED0844884420BD08448844208D0FA
:108C00008348844205D08348844202D0824884420B
:108C100000D104E040F2D9315E48F7F7BFFA04F41E
:108C20004070B0F5407F09D15948056825F4F81522
:108C30007A4904EA01000543554805605448683004
:108C40000068C4F30B01084351496831086070BDE6
:108C500010B504460CB1012C00D104E040F2F7310C
:108C60004C48F7F79BFA6E48046010BD10B50446F7
:108C70000CB1012C00D104E04FF481614548F7F7B5
:108C80008DFA6748001D046010BD10B504460CB194
:108C9000012C00D104E040F219413E48F7F77EFA7A
:108CA0006048046010BD70B504460D465E48204023
:108CB00008B904B104E04FF488613648F7F76EFA5A
:108CC0000DB1012D00D104E040F242413148F7F7E7
:108CD00065FA3DB12E482830006820432C492831E0
:108CE000086006E02A4828300068A0432849283157
:108CF000086070BD70B504460D4624F0F10008B957
:108D000004B104E04FF48C612248F7F747FA0DB143
:108D1000012D00D104E040F261411E48F7F73EFA10
:108D20003DB11B482C300068204319492C310860A4
:108D300006E017482C300068A04315492C31086024
:108D400070BD70B504460D4624F0010008B904B1A9
:108D500004E040F27B410F48F7F720FA0DB1012DF6
:108D600000D104E040F27C410A48F7F717FA3DB120
:108D7000074830300068204305493031086006E07C
:108D8000034830300068A04301493031086070BDAD
:108D900008380240ACDD00080024F40000127A001C
:108DA0008802002000030200000303000003040007
:108DB000000305000003060000030700000308008D
:108DC0000003090000030A0000030B0000030C006D
:108DD00000030D0000030E0000030F00000310004D
:108DE000000311000003120000031300000314002D
:108DF000000315000003160000031700000318000D
:108E00000003190000031A0000031B0000031C00EC
:108E100000031D0000031E0000031F00FFFCFF0FE6
:108E20003C0E47425C01474200EE8B8170B5044620
:108E30000D46FA48204008B904B104E040F2AD41C3
:108E4000F748F7F7ABF90DB1012D00D104E040F27E
:108E5000AE41F348F7F7A2F92DB1F248006820437C
:108E6000F049086004E0EF480068A043ED4908605D
:108E700070BD70B504460D46EB48204008B904B1FA
:108E800004E040F2D541E648F7F788F90DB1012D2D
:108E900000D104E040F2D641E148F7F77FF93DB157
:108EA000E048001D00682043DE49091D086006E017
:108EB000DC48001D0068A043DA49091D086070BD48
:108EC00070B504460D46D948204008B904B104E005
:108ED00040F2FC41D248F7F761F90DB1012D00D104
:108EE00004E040F2FD41CE48F7F758F93DB1CD48D6
:108EF000303800682043CB493039086006E0C94863
:108F000030380068A043C7493039086070BD70B57B
:108F100004460D4624F0F10008B904B104E040F223
:108F20001951BF48F7F73AF90DB1012D00D104E00E
:108F300040F21A51BA48F7F731F93DB1B9482C3827
:108F400000682043B7492C39086006E0B5482C3842
:108F50000068A043B3492C39086070BD70B5044661
:108F60000D4624F0010008B904B104E040F231518B
:108F7000AB48F7F713F90DB1012D00D104E040F231
:108F80003251A748F7F70AF93DB1A64828380068DA
:108F90002043A4492839086006E0A2482838006820
:108FA000A043A0492839086070BD70B504460D463D
:108FB0009A48204008B904B104E04FF4AC619848E5
:108FC000F7F7ECF80DB1012D00D104E040F261514A
:108FD0009348F7F7E3F83DB1924820380068204302
:108FE00090492039086006E08E4820380068A04388
:108FF0008C492039086070BD70B504460D468C4818
:10900000204008B904B104E040F284518448F7F7E5
:10901000C5F80DB1012D00D104E040F28551804822
:10902000F7F7BCF83DB17F481C38006820437D4904
:109030001C39086006E07B481C380068A043794969
:109040001C39086070BD70B504460D467948204053
:1090500008B904B104E040F2B2517148F7F79EF844
:109060000DB1012D00D104E040F2B3516C48F7F787
:1090700095F83DB16B4810300068204369491031C4
:10908000086006E0674810300068A0436549103169
:10909000086070BD70B504460D4624F0F10008B9B3
:1090A00004B104E040F2D2515D48F7F777F80DB112
:1090B000012D00D104E040F2D3515948F7F76EF882
:1090C0003DB15848143000682043564914310860B7
:1090D00006E0544814300068A04352491431086037
:1090E00070BD70B504460D4624F0010008B904B106
:1090F00004E040F2ED514A48F7F750F80DB1012D68
:1091000000D104E040F2EE514548F7F747F83DB191
:10911000444818300068204342491831086006E08E
:10912000404818300068A0433E491831086070BDBF
:1091300070B504460D463948204008B904B104E032
:1091400040F21F613648F7F729F80DB1012D00D123
:1091500004E04FF4C4613248F7F720F83DB13148DC
:109160002030006820432F492031086006E02D4858
:1091700020300068A0432B492031086070BD70B5D5
:1091800004460D462848204008B904B104E040F2E6
:1091900047612348F7F702F80DB1012D00D104E033
:1091A0004FF4C9611E48F6F7F9FF3DB11D48243060
:1091B000006820431B492431086006E01948243028
:1091C0000068A04317492431086070BD70B504469B
:1091D0000D4604F0C00008B904B104E040F2746127
:1091E0000F48F6F7DBFF0DB1012D00D104E040F28E
:1091F00075610B48F6F7D2FF3DB10A483338007865
:10920000204308493339087006E0064833380078AF
:10921000A04304493339087070BD0000003601C90D
:10922000ACDD000840380240CCA0F8FF00EE9FDD26
:10923000CCA6F8FF006E98811B48006840F0807053
:1092400019490860704770B504460025012C0BD001
:10925000022C09D0042C07D0082C05D0102C03D0E8
:10926000802C01D0202C00D104E040F2DA610F48BC
:10927000F6F794FF0C4868380068204008B10125D3
:1092800000E00025284670BD10B5044604F04000FB
:1092900008B904B104E040F2F9610448F6F77EFF32
:1092A00001486638047010BD74380240ACDD000817
:1092B00010B50446FE48844226D0B4F1804F23D036
:1092C000FC48844220D0FC4884421DD0FB488442A4
:1092D0001AD0FB48844217D0FA48844214D0FA4886
:1092E000844211D0F94884420ED0F94884420BD010
:1092F000F848844208D0F848844205D0F7488442B0
:1093000002D0F748844200D103E0C521F548F6F7C2
:1093100045FFE748844208D101210846FFF76CFE6B
:1093200000210120FFF768FE9DE0B4F1804F08D1D5
:1093300001210846FFF739FE00210120FFF735FE25
:1093400091E0DC48844208D101210220FFF72DFE84
:1093500000210220FFF729FE85E0D748844208D18A
:1093600001210420FFF721FE00210420FFF71DFE4C
:1093700079E0D248844208D101210820FFF715FE88
:1093800000210820FFF711FE6DE0CD48844208D18E
:1093900001211020FFF709FE00211020FFF705FE34
:1093A00061E0C848844208D101212020FFF7FDFD7B
:1093B00000212020FFF7F9FD55E0C348844208D181
:1093C00001210220FFF718FE00210220FFF714FE02
:1093D00049E0BE48844209D101210804FFF70CFE90
:1093E00000214FF48030FFF707FE3CE0B84884428C
:1093F00009D101214804FFF7FFFD00214FF400309F
:10940000FFF7FAFD2FE0B348844209D10121880417
:10941000FFF7F2FD00214FF48020FFF7EDFD22E081
:10942000AD48844208D101214020FFF7BEFD002154
:109430004020FFF7BAFD16E0A848844208D1012178
:109440008020FFF7B2FD00218020FFF7AEFD0AE08B
:10945000A348844207D101218015FFF7A6FD002112
:10946000A015FFF7A2FD10BD70B504460D460026FD
:109470008F48844226D0B4F1804F23D08D48844257
:1094800020D08D4884421DD08C4884421AD08C480C
:10949000844217D08B48844214D08B48844211D028
:1094A0008A4884420ED08A4884420BD0894884423C
:1094B00008D08948844205D08848844202D0884830
:1094C000844200D104E040F21F118648F6F766FEA0
:1094D000688858B16888102808D06888202805D086
:1094E0006888402802D06888602800D104E04FF4E2
:1094F00090717C48F6F752FE288938B12889B0F57A
:10950000807F03D02889B0F5007F00D104E040F2CD
:1095100021117448F6F742FE2688654884420ED031
:10952000694884420BD0B4F1804F08D0614884422E
:1095300005D06148844202D06048844204D14FF68D
:109540008F700640688806435D48844207D05D48B6
:10955000844204D04FF6FF40064028890643268007
:109560006868E062288820855148844202D05648C5
:10957000844201D1A87A20860120A08270BD4FF0DC
:10958000FF3141600021018001814180817270477B
:1095900070B504460E4615464548844226D0B4F1BF
:1095A000804F23D04348844220D0434884421DD07A
:1095B000424884421AD04248844217D041488442EB
:1095C00014D04148844211D0404884420ED04048D3
:1095D00084420BD03F48844208D03F48844205D0A3
:1095E0003E48844202D03E48844200D104E040F22A
:1095F00065113C48F6F7D2FD0DB1012D00D104E014
:109600004FF4B3713748F6F7C9FD2685A58270BDC2
:1096100070B504460D460026254884420ED0B4F1AC
:10962000804F0BD02348844208D02348844205D081
:109630002248844202D02448844200D104E04FF4FE
:10964000BF712848F6F7AAFD3DB1102D05D0202D99
:1096500003D0402D01D0602D00D104E040F27F11F5
:109660002048F6F79BFD26884FF68F7006402E4364
:10967000268070BD70B504460D460D48844243D027
:10968000B4F1804F40D00B4884423DD00A48844218
:109690003AD00A48844237D00948844234D0094835
:1096A000844231D0084884422ED0084884421BE0CE
:1096B000000001400004004000080040000C004091
:1096C0000010004000140040000401400040014030
:1096D000004401400048014000180040001C0040C8
:1096E0000020004000DE00080ED0FC4884420BD071
:1096F000FB48844208D0FB48844205D0FA488442A3
:1097000002D0FA48844200D104E04FF4CB71F8480B
:10971000F6F744FD656270BD70B504460D46F54828
:10972000844226D0B4F1804F23D0F348844220D025
:10973000F24884421DD0F24884421AD0F148844253
:1097400017D0F148844214D0F048844211D0F04838
:1097500084420ED0E14884420BD0E148844208D0D4
:10976000E048844205D0E048844202D0DF48844289
:1097700000D104E040F2A511DD48F6F70FFDE562E7
:1097800070BD10B50446DB48844226D0B4F1804F4A
:1097900023D0D948844220D0D84884421DD0D8480C
:1097A00084421AD0D748844217D0D748844214D074
:1097B000D648844211D0D64884420ED0C74884424D
:1097C0000BD0C748844208D0C648844205D0C6485A
:1097D000844202D0C548844200D104E040F2B31173
:1097E000C348F6F7DBFC606A10BD10B50446C148FB
:1097F000844226D0B4F1804F23D0BF48844220D089
:10980000BE4884421DD0BE4884421AD0BD4884421E
:1098100017D0BD48844214D0BC48844211D0BC4803
:1098200084420ED0AD4884420BD0AD48844208D06B
:10983000AC48844205D0AC48844202D0AB48844254
:1098400000D104E040F2C111A948F6F7A7FC208D31
:1098500010BD70B504460D46A648844226D0B4F12A
:10986000804F23D0A448844220D0A44884421DD0F5
:10987000A34884421AD0A348844217D0A248844205
:1098800014D0A248844211D0A14884420ED09348FB
:1098900084420BD09248844208D09248844205D03A
:1098A0009148844202D09148844200D104E040F2C1
:1098B000D1118F48F6F772FC0DB1012D00D104E0F3
:1098C0004FF4E9718A48F6F769FC25B1208840F029
:1098D0000200208004E020884FF6FD7108402080BF
:1098E00070BD70B504460D468248844226D0B4F15E
:1098F000804F23D08048844220D0804884421DD0AD
:109900007F4884421AD07F48844217D07E488442E0
:1099100014D07E48844211D07D4884420ED06F48D6
:1099200084420BD06E48844208D06E48844205D0F1
:109930006D48844202D06D48844200D104E04FF467
:10994000F7716B48F6F72AFC0DB1012D00D104E048
:1099500040F2EF116648F6F721FC25B1208840F06F
:109960000400208004E020884FF6FB71084020802E
:1099700070BD70B504460D465E48844226D0B4F1F1
:10998000804F23D05C48844220D05C4884421DD064
:109990005B4884421AD05B48844217D05A488442BC
:1099A00014D05A48844211D0594884420ED04B48B2
:1099B00084420BD04A48844208D04A48844205D0A9
:1099C0004948844202D04948844200D104E040F230
:1099D00007214748F6F7E2FB0DB1012D00D104E065
:1099E0004FF402714248F6F7D9FB25B1208840F0C8
:1099F0008000208004E020884FF67F71084020809E
:109A000070BD70B504460D463A48844226D0B4F184
:109A1000804F23D03848844220D0384884421DD01B
:109A2000374884421AD03748844217D03648844297
:109A300014D03648844211D0354884420ED027488D
:109A400084420BD02648844208D02648844205D060
:109A50002548844202D02548844200D104E040F2E7
:109A600022212348F6F79AFB082D00D005B904E01F
:109A700040F223211E48F6F791FB20884FF6F7713C
:109A80000840208020882843208070BD70B504469F
:109A90000D461848844220D0B4F1804F1DD016489E
:109AA00084421AD01548844217D01548844214D0F5
:109AB0001648844211D0164884420ED0074884428A
:109AC0000BD00748844208D00648844205D0064897
:109AD000844202D0054884421CD120E00044014069
:109AE0000048014000180040001C004000200040D9
:109AF00000DE0008000001400004004000080040B3
:109B0000000C004000100040001400400004014020
:109B10000040014040F23921FC48F6F73FFB2DB1EF
:109B2000B5F5807F02D0B5F5007F00D104E040F2AA
:109B30003A21F648F6F732FB20884FF6FF410840FD
:109B4000208020882843208070BD70B504460D46D3
:109B5000EF48844226D0B4F1804F23D0ED488442B0
:109B600020D0ED4884421DD0EC4884421AD0EC4805
:109B7000844217D0EB48844214D0EB48844211D081
:109B8000EA4884420ED0EA4884420BD0E948844235
:109B900008D0E948844205D0E848844202D0E84829
:109BA000844200D104E040F24D21D848F6F7F6FA9D
:109BB0000DB1012D00D104E040F24E21D348F6F75B
:109BC000EDFA25B1208840F00100208004E02088D3
:109BD0004FF6FE710840208070BD2DE9F04105462A
:109BE0000C464FF0000800260027C948854220D0C7
:109BF000B5F1804F1DD0C74885421AD0C64885426E
:109C000017D0C648854214D0C748854211D0C748EE
:109C100085420ED0C64885420BD0C648854208D042
:109C2000C548854205D0C548854202D0C448854212
:109C300000D104E040F29E21B448F6F7AFFA208844
:109C400070B1208810280BD02088202808D02088C8
:109C5000302805D02088602802D02088702800D1C4
:109C600004E040F29F21A948F6F798FA608810B105
:109C70006088012800D104E04FF42871A348F6F76A
:109C80008DFAA08910B1A089022800D104E040F229
:109C9000A1219E48F6F782FA288C4FF6FE71084003
:109CA00028842E8CAF88B5F818804FF68F7008EA9C
:109CB0000008881E08EA0008208840EA0808481EB4
:109CC0000640A0890643608806439148854202D039
:109CD0009548854241D1A08810B1A088042800D1C0
:109CE00004E040F2BE218948F6F758FAE08910B145
:109CF000E089082800D104E040F2BF218348F6F74C
:109D00004DFA608AB0F5007F01D0608A00B904E0A6
:109D10004FF430717D48F6F741FA208AB0F5807F24
:109D200001D0208A00B904E040F2C1217748F6F75B
:109D300035FA4FF6F7700640E08906434FF6FB70A0
:109D40000640A08806434FF6FF6007404FF6FF50DD
:109D50000740208A0743608A0743AF80A5F8188030
:109D6000A06868632E84BDE8F0812DE9F0410546C6
:109D70000C464FF00008002600276548854214D0A5
:109D8000B5F1804F11D0634885420ED062488542BC
:109D90000BD06248854208D06348854205D06348AD
:109DA000854202D06448854200D104E040F2EF21B0
:109DB0005648F6F7F3F9208870B1208810280BD0A8
:109DC0002088202808D02088302805D020886028C6
:109DD00002D02088702800D104E04FF43C714B4839
:109DE000F6F7DCF9608810B16088012800D104E042
:109DF00040F2F1214548F6F7D1F9A08910B1A089C8
:109E0000022800D104E040F2F2214048F6F7C6F9FA
:109E1000288C4FF6EF71084028842E8CAF88B5F857
:109E2000188048F6FF7008EA00084FF6FF4008EA7D
:109E3000000820884FF6FF7101EA002040EA080878
:109E40004FF6DF700640A08901EA001006436088E3
:109E500001EA001006432E48854202D0324885426E
:109E60004BD1A08810B1A088042800D104E04FF4A1
:109E700044712648F6F792F9E08910B1E089082884
:109E800000D104E040F211312048F6F787F9608AEA
:109E9000B0F5007F01D0608A00B904E040F21231D1
:109EA0001A48F6F77BF9208AB0F5807F01D0208A26
:109EB00000B904E040F213311448F6F76FF94FF699
:109EC0007F700640E0894FF6FF7101EA00100643FB
:109ED0004FF6BF700640A08801EA001006434FF617
:109EE000FF3007404FF2FF700740208A01EA8000F0
:109EF0000743608A01EA80000743AF80A5F8188015
:109F0000A068A8632E84BDE8F081000000DE000890
:109F1000000001400004004000080040000C004028
:109F200000100040001400400004014000400140C7
:109F3000004401400048014000180040001C00405F
:109F4000002000402DE9F04105460C464FF0000886
:109F500000260027FE4885420ED0B5F1804F0BD079
:109F6000FC48854208D0FC48854205D0FB48854224
:109F700002D0FB48854200D104E04FF45071F9480B
:109F8000F6F70CF9208870B1208810280BD02088B3
:109F9000202808D02088302805D02088602802D0CA
:109FA0002088702800D104E040F24131ED48F6F7F6
:109FB000F5F8608810B16088012800D104E040F213
:109FC0004231E848F6F7EAF8A08910B1A0890228E2
:109FD00000D104E040F24331E248F6F7DFF8288C84
:109FE0004FF6FF61084028842E8CAF88B5F81C809E
:109FF0004FF68F7008EA00084FF6FC7008EA000878
:10A00000208840EA08084FF6FF500640A0894FF626
:10A01000FF7101EA00200643608801EA0020064340
:10A02000CB48854202D0CE4885424BD1A08810B1A2
:10A03000A088042800D104E04FF45871C948F6F70D
:10A04000ADF8E08910B1E089082800D104E040F2C1
:10A050006131C448F6F7A2F8608AB0F5007F01D0FC
:10A06000608A00B904E040F26231BE48F6F796F823
:10A07000208AB0F5807F01D0208A00B904E040F248
:10A080006331B848F6F78AF84FF2FF700640E0896E
:10A090004FF6FF7101EA002006434FF6FF300640FD
:10A0A000A08801EA002006434EF6FF7007404DF6F7
:10A0B000FF700740208A01EA00100743608A01EA26
:10A0C00000100743AF80A5F81C80A068E8632E84C9
:10A0D000BDE8F0812DE9F04104460D460027002639
:10A0E000B0469B4884420ED0B4F1804F0BD09948C3
:10A0F000844208D09848844205D09848844202D0CF
:10A100009748844200D104E04FF464719548F6F713
:10A1100045F8288870B1288810280BD02888202876
:10A1200008D02888302805D02888602802D02888C0
:10A13000702800D104E040F291318A48F6F72EF8F9
:10A14000688810B16888012800D104E040F292319B
:10A150008448F6F723F8A88910B1A889022800D10D
:10A1600004E040F293317F48F6F718F8208C4EF661
:10A17000FF7108402084268CB4F80480A78B48F631
:10A18000FF7007404FF6FF40074028884FF6FF71E9
:10A1900001EA002007434DF6FF700640A88901EA56
:10A1A00000300643688801EA00300643684884426C
:10A1B00002D06B48844216D1288AB0F5807F01D046
:10A1C000288A00B904E040F2B1316648F5F7E6FFAD
:10A1D0004BF6FF7008EA0008288A4FF6FF7101EA83
:10A1E000801040EA0808A4F80480A783A8682064C7
:10A1F0002684BDE8F081002101804180818081605A
:10A200008181C1810182418270472DE9F04104467C
:10A210000F4615460026B0464D48844220D0B4F182
:10A22000804F1DD04B4884421AD04B48844217D0EF
:10A230004A48844214D04A48844211D04A48844251
:10A240000ED04A4884420BD04948844208D049483D
:10A25000844205D04848844202D04848844200D114
:10A2600004E04FF47D713F48F5F798FF2FB1042FBC
:10A2700003D0082F01D00C2F00D104E040F2F531BB
:10A280003848F5F78BFF6DB1102D0BD0202D09D07C
:10A29000302D07D0602D05D0702D03D0502D01D06A
:10A2A000402D00D104E040F2F6312E48F5F776FF5C
:10A2B000264618360120B8401FFA80F8208C20EA84
:10A2C000080020840FB1082F0AD106EB670630681A
:10A2D0004FF68F71084030603068284330600FE0DF
:10A2E000381FC0F34E000644306848F6FF7108403E
:10A2F000306030684FF6FF7101EA05210843306095
:10A30000BDE8F08170B504460D461148844239D04D
:10A31000B4F1804F36D00F48844233D00E48844287
:10A3200030D00E4884422DD00D4884422AD00E48A9
:10A33000844227D00D48844224D00D48844221D045
:10A340000C4884421ED00C4884421BD00B4817E0B6
:10A35000000001400004004000080040000C0040E4
:10A360000004014000DE00080040014000440140BC
:10A370000048014000180040001C00400020004040
:10A38000844200D104E040F21F41FB48F5F706FF8C
:10A39000656370BD70B504460D46F848844214D01C
:10A3A000B4F1804F11D0F64884420ED0F548844273
:10A3B0000BD0F548844208D0F448844205D0F448D4
:10A3C000844202D0F348844200D104E040F22F419D
:10A3D000E948F5F7E3FEA56370BD70B504460D4688
:10A3E000E64884420ED0B4F1804F0BD0E44884425A
:10A3F00008D0E448844205D0E348844202D0E348D0
:10A40000844200D104E040F23E41DB48F5F7C6FE4D
:10A41000E56370BD70B504460D46D84884420ED041
:10A42000B4F1804F0BD0D648844208D0D54884423E
:10A4300005D0D548844202D0D448844200D104E0FB
:10A4400040F24D41CC48F5F7A9FE256470BD70B5CA
:10A4500004460D460026C948844220D0B4F1804FFE
:10A460001DD0C74884421AD0C648844217D0C64877
:10A47000844214D0C548844211D0C54884420ED0CD
:10A48000C54884420BD0C548844208D0C1488442A4
:10A4900005D0C348844202D0C248844200D104E0BF
:10A4A00040F26141B448F5F779FE502D01D0402DBE
:10A4B00000D104E040F26241AF48F5F76FFE268B11
:10A4C0004FF68F7006402E43268370BD70B504464C
:10A4D0000D460026A948844214D0B4F1804F11D013
:10A4E000A74884420ED0A74884420BD0A648844295
:10A4F00008D0A648844205D0A548844202D0A54889
:10A50000844200D104E040F27E419B48F5F746FECC
:10A51000502D01D0402D00D104E040F27F419648FB
:10A52000F5F73CFE268B48F6FF7006404FF6FF70AD
:10A5300000EA05200643268370BD70B504460D462B
:10A5400000268E4884420ED0B4F1804F0BD08C4848
:10A55000844208D08B48844205D08B48844202D084
:10A560008A48844200D104E040F29A418248F5F7DB
:10A5700015FE502D01D0402D00D104E040F29B414A
:10A580007D48F5F70BFEA68B4FF68F7006402E43E5
:10A59000A68370BD70B504460D46002677488442F8
:10A5A0000ED0B4F1804F0BD07548844208D0754866
:10A5B000844205D07448844202D07448844200D159
:10A5C00004E040F2B7416C48F5F7E8FD502D01D0AA
:10A5D000402D00D104E04FF497616748F5F7DEFDA8
:10A5E000A68B48F6FF7006404FF6FF7000EA052084
:10A5F0000643A68370BD70B504460D4600265F482D
:10A60000844220D0B4F1804F1DD05D4884421AD0DE
:10A610005C48844217D05C48844214D05B48844232
:10A6200011D05B4884420ED05B4884420BD05B481B
:10A63000844208D05748844205D05948844202D009
:10A640005848844200D104E040F2D3414A48F5F72B
:10A65000A5FD082D00D005B904E040F2D4414648DC
:10A66000F5F79CFD268B4FF6F77006402E432683A8
:10A6700070BD70B504460D4600264048844214D093
:10A68000B4F1804F11D03E4884420ED03D48844200
:10A690000BD03D48844208D03C48844205D03C4819
:10A6A000844202D03B48844200D104E040F2F141B0
:10A6B0003148F5F773FD082D00D005B904E040F2EC
:10A6C000F2412D48F5F76AFD268B4FF2FF700640E8
:10A6D0004FF6FF7000EA05200643268370BD70B573
:10A6E00004460D460026254884420ED0B4F1804F22
:10A6F0000BD02348844208D02248844205D0224807
:10A70000844202D02148844200D104E040F20E513C
:10A710001948F5F743FD082D00D005B904E040F2D3
:10A720000F511548F5F73AFDA68B4FF6F770064026
:10A730002E43A68370BD70B504460D4600260F4813
:10A7400084420ED0B4F1804F0BD00D48844208D023
:10A750000C48844205D00C48844202D00B48844205
:10A7600000D104E040F22B510348F5F717FD082D06
:10A7700000D0CDB91DE0000000DE0008000001405F
:10A780000004004000080040000C004000040140AC
:10A7900000400140001800400044014000480140D2
:10A7A000001C00400020004040F22C51FA48F5F710
:10A7B000F5FCA68B4FF2FF7006404FF6FF7000EAE3
:10A7C00005200643A68370BD70B504460D460026DD
:10A7D000F248844220D0B4F1804F1DD0F04884422A
:10A7E0001AD0F048844217D0EF48844214D0EF4882
:10A7F000844211D0EE4884420ED0EE4884420BD001
:10A80000ED48844208D0ED48844205D0EC488442AB
:10A8100002D0EC48844200D104E04FF4A961DE4844
:10A82000F5F7BCFC042D00D005B904E040F2495115
:10A83000D948F5F7B3FC268B4FF6FB7006402E4344
:10A84000268370BD70B504460D460026D348844269
:10A8500014D0B4F1804F11D0D14884420ED0D148E9
:10A8600084420BD0D048844208D0D048844205D0DE
:10A87000CF48844202D0D148844200D104E040F263
:10A880006751C548F5F78AFC042D00D005B904E0EE
:10A890004FF4AD61C048F5F781FC268B4FF6FF30D1
:10A8A00006404FF6FF7000EA05200643268370BD80
:10A8B00070B504460D460026B84884420ED0B4F167
:10A8C000804F0BD0B648844208D0B648844205D0A9
:10A8D000B548844202D0B548844200D104E040F239
:10A8E0008551AD48F5F75AFC042D00D005B904E0B8
:10A8F00040F28651A848F5F751FCA68B4FF6FB7045
:10A9000006402E43A68370BD70B504460D46002652
:10A91000A24884420ED0B4F1804F0BD0A0488442AC
:10A9200008D0A048844205D09F48844202D09F4866
:10A93000844200D104E040F2A3519748F5F72EFC81
:10A94000042D00D005B904E040F2A4519248F5F777
:10A9500025FCA68B4FF6FF3006404FF6FF7000EA4D
:10A9600005200643A68370BD70B504460D4600263B
:10A970008A48844220D0B4F1804F1DD08848844258
:10A980001AD08848844217D08748844214D0874818
:10A99000844211D0864884420ED0864884420BD02F
:10A9A0008548844208D08548844205D08448844242
:10A9B00002D08448844200D104E040F2C15176487C
:10A9C000F5F7ECFB802D00D005B904E040F2C25150
:10A9D0007148F5F7E3FB268B4FF67F7006402E4358
:10A9E000268370BD70B504460D4600266B48844230
:10A9F00014D0B4F1804F11D0694884420ED0694818
:10AA000084420BD06848844208D06848844205D00C
:10AA10006748844202D06948844200D104E040F291
:10AA2000DF515D48F5F7BAFB802D00D005B904E091
:10AA30004FF4BC615848F5F7B1FB268BC6F30E0600
:10AA40004FF6FF7000EA05200643268370BD70B5FF
:10AA500004460D460026514884420ED0B4F1804F82
:10AA60000BD04F48844208D04E48844205D04E480F
:10AA7000844202D04D48844200D104E040F2FC51AF
:10AA80004548F5F78BFB802D00D005B904E040F276
:10AA9000FD514148F5F782FBA68B4FF67F700640CB
:10AAA0002E43A68370BD70B504460D4600263B4874
:10AAB00084420ED0B4F1804F0BD03948844208D084
:10AAC0003848844205D03848844202D0374884420E
:10AAD00000D104E040F219612F48F5F75FFB802DAB
:10AAE00000D005B904E040F21A612B48F5F756FB97
:10AAF000A68BC6F30E064FF6FF7000EA052006434C
:10AB0000A68370BD70B504460D46002623488442D6
:10AB100020D0B4F1804F1DD0214884421AD0214862
:10AB2000844217D02048844214D02048844211D057
:10AB30001F4884420ED01F4884420BD01E488442D6
:10AB400008D01E48844205D01D48844202D01D48CA
:10AB5000844200D104E040F236610F48F5F71EFB55
:10AB60000DB1022D00D104E040F237610A48F5F73B
:10AB700015FB268C4FF6FD7006402E43268470BDD3
:10AB800070B504460D4600260448844202D00748AA
:10AB9000844219D11DE0000000DE000800000140E1
:10ABA0000004004000080040000C00400004014088
:10ABB00000400140004401400048014000180040AE
:10ABC000001C0040002000404FF4CA61FC48F5F72B
:10ABD000E5FA0DB1082D00D104E040F25161F848CA
:10ABE000F5F7DCFA268C4FF6F77006402E432684E4
:10ABF00070BD70B504460D460026F248844214D05C
:10AC0000B4F1804F11D0F04884420ED0EF48844216
:10AC10000BD0EF48844208D0EE48844205D0EE487D
:10AC2000844202D0ED48844200D104E040F26C61DD
:10AC3000E348F5F7B3FA0DB1022D00D104E040F27C
:10AC40006D61DF48F5F7AAFA268C4FF6DF700640F3
:10AC50004FF6FF7000EA05100643268470BD70B5FC
:10AC600004460D460026D748844202D0D948844283
:10AC700000D104E040F28761D148F5F78FFA0DB1B9
:10AC8000082D00D104E04FF4D161CD48F5F786FAE4
:10AC9000268C4FF67F7006404FF6FF7000EA0510D5
:10ACA0000643268470BD70B504460D460026C5488F
:10ACB00084420ED0B4F1804F0BD0C348844208D0F8
:10ACC000C248844205D0C248844202D0C14884426E
:10ACD00000D104E040F2A261B948F5F75FFA0DB186
:10ACE000022D00D104E040F2A361B548F5F756FA11
:10ACF000268C4FF6FF5006404FF6FF7000EA052005
:10AD00000643268470BD70B504460D460026AD4846
:10AD1000844202D0AF48844200D104E040F2BD61D9
:10AD2000A748F5F73BFA0DB1082D00D104E040F239
:10AD3000BE61A348F5F732FA268C4FF2FF70064049
:10AD40004FF6FF7000EA05200643268470BD70B5FB
:10AD500004460D4600269B4884420ED0B4F1804F35
:10AD60000BD09948844208D09848844205D098482E
:10AD7000844202D09748844200D104E04FF4DB6162
:10AD80008F48F5F70BFA0DB1022D00D104E040F227
:10AD9000D9618B48F5F702FA268C4DF6FF70064014
:10ADA0004FF6FF7000EA05300643268470BD2DE99A
:10ADB000F04104460D46164600278248844220D0C2
:10ADC000B4F1804F1DD0804884421AD07F4884421D
:10ADD00017D07F48844214D07E48844211D07E48E8
:10ADE00084420ED07E4884420BD07E48844208D0F4
:10ADF0007A48844205D07C48844202D07B48844211
:10AE000000D104E040F2F7616D48F5F7C7F92DB1C4
:10AE1000042D03D0082D01D00C2D00D104E04FF4F7
:10AE2000DF616748F5F7BAF9012E00D006B904E0F2
:10AE300040F2F9616248F5F7B1F90120A84087B204
:10AE4000208CB8432084208C06FA05F189B208438F
:10AE50002084BDE8F0812DE9F04104460D461646F8
:10AE600000275848844202D05A48844200D104E066
:10AE700040F215715248F5F791F91DB1042D01D03A
:10AE8000082D00D104E040F216714D48F5F786F91F
:10AE9000042E00D006B904E040F217714848F5F7D7
:10AEA0007DF90420A84087B2208CB8432084208CF0
:10AEB00006FA05F189B208432084BDE8F08170B537
:10AEC00004460D463F4884420ED0B4F1804F0BD06B
:10AED0003D48844208D03D48844205D03C488442E5
:10AEE00002D03C48844200D104E040F6710134486D
:10AEF000F5F754F92DB1042D03D0082D01D00C2DF8
:10AF000000D104E040F672012D48F5F747F9A08B17
:10AF10004FF2FF310840A083A08B4FF6FF7101EA8A
:10AF200005210843A08370BDF0B50C4615460021ED
:10AF300000220026078C4EF6FF7C07EA0C070784E8
:10AF4000818B028C4FF6FF7707EA043640F6FF4705
:10AF500039404FF6FF7707EA052739434FF6FF7769
:10AF600007EA0337394345F6FF773A4046F48057FE
:10AF70003A4381830284F0BD70B504460D46114802
:10AF800084420ED0B4F1804F0BD00F48844208D0D9
:10AF90000E48844205D00E48844202D00D488442B7
:10AFA00000D104E040F659010548F5F7F7F82DB156
:10AFB000042D03D0082D01D00C2D19D11DE0000067
:10AFC00000DE0008000001400004004000080040CE
:10AFD000000C004000040140004001400018004007
:10AFE0000044014000480140001C00400020004097
:10AFF00040F65A01FE48F5F7D1F8A08B4FF6F371F1
:10B000000840A083A08B2843A08370BDF0B50C46F8
:10B010001546002100220026078C4FF6FF6C07EA38
:10B020000C070784818B028C4FF6FF7707EA042612
:10B030004FF60C7739404FF6FF7707EA03172F4397
:10B0400039434FF2FF573A4046F480773A438183C1
:10B050000284F0BD70B504460D46E648844214D023
:10B06000B4F1804F11D0E44884420ED0E3488442CA
:10B070000BD0E348844208D0E248844205D0E2483D
:10B08000844202D0E148844200D104E040F641010C
:10B09000D748F5F783F82DB1042D03D0082D01D042
:10B0A0000C2D00D104E040F64201D148F5F776F8C6
:10B0B000208B4FF2FF3108402083208B4FF6FF7129
:10B0C00001EA05210843208370BDF0B50C46154602
:10B0D000002100220026078C4FF6EF7C07EA0C07C0
:10B0E0000784018B028C4FF6FF7707EA041640F6BF
:10B0F000FF4739404FF6FF7707EA033739434FF6EA
:10B10000FF7707EA052739434FF65F773A4046F065
:10B1100010073A4301830284F0BD70B504460D4622
:10B12000B448844220D0B4F1804F1DD0B24884424C
:10B130001AD0B248844217D0B148844214D0B148E2
:10B14000844211D0B04884420ED0B14884420BD022
:10B15000B048844208D0AD48844205D0AE4884420D
:10B1600002D0AE48844200D104E040F62801A04855
:10B17000F5F714F82DB1042D03D0082D01D00C2DB6
:10B1800000D104E040F629019948F5F707F8208B33
:10B190004FF6F37108402083208B2843208370BD35
:10B1A000F0B50C46154600210022068C4FF6FE77BE
:10B1B0003E400684018B028C4FF60C7631407E1C9B
:10B1C00006EA03162E4331434FF6F576324044F03B
:10B1D0000106324301830284F0BD70B504460D467A
:10B1E0008448844220D0B4F1804F1DD082488442EC
:10B1F0001AD08248844217D08148844214D08148B2
:10B20000844211D0804884420ED0814884420BD0C1
:10B210008048844208D07D48844205D07E488442DC
:10B2200002D07E48844200D104E040F2657170484B
:10B23000F4F7B4FF688828B16888022802D06888CB
:10B240000A2800D104E040F266716948F4F7A6FFCD
:10B25000A888012805D0A888022802D0A888032839
:10B2600000D104E040F267716148F4F797FFE88885
:10B2700040B1E888042805D0E888082802D0E8888A
:10B280000C2800D104E04FF4ED615948F4F786FF33
:10B2900028890F2800DC04E040F269715448F4F773
:10B2A0007DFF288850B92B89AA8869882046FFF736
:10B2B00077FFE9882046FFF730FF73E028880428ED
:10B2C00028D14C48844214D0B4F1804F11D04A4860
:10B2D00084420ED0494884420BD04948844208D069
:10B2E0004848844205D04848844202D047488442B6
:10B2F00000D104E040F277713D48F4F74FFF2B890D
:10B30000AA8869882046FFF7E0FEE9882046FFF713
:10B31000A1FE47E02888082822D1364884420ED072
:10B32000B4F1804F0BD03448844208D03348844273
:10B3300005D03348844202D03248844200D104E030
:10B3400040F281712A48F4F729FF2B89AA8869887D
:10B350002046FFF75BFEE9882046FFF70DFE21E05F
:10B36000244884420ED0B4F1804F0BD0224884424E
:10B3700008D02248844205D02148844202D0214886
:10B38000844200D104E040F28B711948F4F706FFC3
:10B390002B89AA8869882046FFF7C6FDE9882046E0
:10B3A000FFF78DFD70BD002101804180012181806A
:10B3B0000021C180018170472DE9F04105460C460E
:10B3C000002601270B4885422DD0B5F1804F2AD0A9
:10B3D0000948854227D00948854224D0084885423B
:10B3E00021D0084885421ED0074885421BD017E06F
:10B3F00000DE00080000014000040040000800409A
:10B40000000C0040000401400040014000180040D2
:10B410000044014000480140001C00400020004062
:10B42000F848854200D104E040F2B371F648F4F7E1
:10B43000B5FE608808B9022600E00026A088012831
:10B4400001D1022700E001272088A0B92389A28822
:10B4500061882846FFF7A4FEE1882846FFF75DFED5
:10B4600023893A4631462846FFF72FFEE1882846D1
:10B47000FFF7F0FD13E02389A28861882846FFF7D3
:10B4800024FEE1882846FFF7E5FD23893A46314648
:10B490002846FFF785FEE1882846FFF73EFEBDE817
:10B4A000F08110B50446D948844220D0B4F1804FD1
:10B4B0001DD0D74884421AD0D648844217D0D648E7
:10B4C000844214D0D548844211D0D54884420ED04D
:10B4D000D44884420BD0D448844208D0C94884421E
:10B4E00005D0D248844202D0D148844200D104E041
:10B4F00040F2E971C448F4F751FE606B10BD10B51D
:10B500000446C248844214D0B4F1804F11D0C048E0
:10B5100084420ED0BF4884420BD0BF48844208D03A
:10B52000BE48844205D0BE48844202D0B548844219
:10B5300000D104E04FF4FF61B348F4F72FFEA06B95
:10B5400010BD10B50446B14884420ED0B4F1804F0E
:10B550000BD0AF48844208D0AE48844205D0AE48F4
:10B56000844202D0AD48844200D104E040F6060196
:10B57000A548F4F713FEE06B10BD10B50446A348D0
:10B5800084420ED0B4F1804F0BD0A148844208D041
:10B59000A048844205D0A048844202D09F488442FB
:10B5A00000D104E040F614019748F4F7F7FD206C51
:10B5B00010BD70B505460C469448854202D09748A8
:10B5C000854200D104E040F6A6018F48F4F7E6FD7D
:10B5D0002088B0F5006F01D0208800B904E040F663
:10B5E000A7018948F4F7DAFD6088B0F5806F01D0D3
:10B5F000608800B904E040F6A8018348F4F7CEFD66
:10B60000A08858B1A088B0F5807F07D0A088B0F599
:10B61000007F03D0A088B0F5407F00D104E040F661
:10B62000A9017948F4F7BAFD2089B0F5805F01D00F
:10B63000208900B904E040F6AA017348F4F7AEFD92
:10B64000608918B16089B0F5005F00D104E040F670
:10B65000AB016D48F4F7A2FDA089B0F5804F01D091
:10B66000A08900B904E040F6AC016748F4F796FD04
:10B67000208861880843A1880843E188084321891C
:10B68000084361890843A1890843A5F8440070BDB7
:10B690000021018041808180C180018141818181BF
:10B6A000704770B504460D465848844202D05B4846
:10B6B000844200D104E040F6D2015348F4F76EFD15
:10B6C0000DB1012D00D104E040F6D3014E48F4F74E
:10B6D00065FD35B1B4F8440040F40040A4F84400DE
:10B6E00005E0B4F84400C0F30E00A4F8440070BDB7
:10B6F00070B504460D464548844202D0474884420E
:10B7000000D104E040F6EB013F48F4F747FD0DB1EE
:10B71000012D00D104E040F6EC013B48F4F73EFD7A
:10B7200025B1A08840F00400A08004E0A0884FF676
:10B73000FB710840A08070BD70B504460D463348CB
:10B74000844202D03548844200D104E040F604111E
:10B750002D48F4F723FD0DB1012D00D104E040F692
:10B7600005112948F4F71AFD25B1A08840F0010021
:10B77000A08004E0A0884FF6FE710840A08070BD54
:10B7800070B504460D4616462048844226D0B4F1D2
:10B79000804F23D01E48844220D01E4884421DD0B2
:10B7A0001D4884421AD02348844217D0224884423C
:10B7B00014D01A48844211D0194884420ED0194836
:10B7C00084420BD01848844208D00E48844205D0E9
:10B7D0001648844202D01648844200D104E040F664
:10B7E0003D110948F4F7DAFC05F47F4008B905B1CA
:10B7F00004E040F63E110448F4F7D0FC0EB1012EEF
:10B800001CD120E00018004000DE000800000140CC
:10B810000004004000080040000C0040000401400B
:10B82000004001400044014000480140001C00402D
:10B8300000200040001000400014004040F63F117E
:10B84000F748F4F7ABFC1EB1A0892843A08102E0C1
:10B85000A089A843A08170BD70B504460D46F1488B
:10B86000844226D0B4F1804F23D0EF48844220D0C8
:10B87000EE4884421DD0EE4884421AD0ED488442FE
:10B8800017D0ED48844214D0EC48844211D0EC48E3
:10B8900084420ED0EB4884420BD0EB48844208D05F
:10B8A000EA48844205D0EA48844202D0E94884420A
:10B8B00000D104E040F66311D948F4F76FFC05F4B9
:10B8C0007F4008B905B104E040F66411D448F4F7AC
:10B8D00065FCA58270BD70B504460D460026D148B2
:10B8E000844226D0B4F1804F23D0CF48844220D068
:10B8F000CE4884421DD0CE4884421AD0CD488442DE
:10B9000017D0CD48844214D0CC48844211D0CC48C2
:10B9100084420ED0CB4884420BD0CB48844208D01E
:10B92000CA48844205D0CA48844202D0C9488442E9
:10B9300000D104E040F68511B948F4F72FFC012D41
:10B9400019D0022D17D0042D15D0082D13D0102D8D
:10B9500011D0202D0FD0402D0DD0802D0BD0B5F55E
:10B96000007F08D0B5F5806F05D0B5F5006F02D027
:10B97000B5F5805F00D104E040F68611A848F4F7E1
:10B980000DFC208A284008B1012600E00026304640
:10B9900070BD70B504460D46A248844226D0B4F16D
:10B9A000804F23D0A048844220D0A04884421DD09C
:10B9B0009F4884421AD09F48844217D09E488442B0
:10B9C00014D09E48844211D09D4884420ED09D4898
:10B9D00084420BD09C48844208D09C48844205D0C5
:10B9E0009B48844202D09B48844200D104E040F648
:10B9F000AE118B48F4F7D2FBE843208270BD2DE9ED
:10BA0000F04104460D4600260027B0468548844292
:10BA100026D0B4F1804F23D08348844220D083487D
:10BA200084421DD0824884421AD08248844217D072
:10BA30008148844214D08148844211D08048844295
:10BA40000ED0804884420BD07F48844208D07F4883
:10BA5000844205D07E48844202D07E48844200D190
:10BA600004E040F6CC116E48F4F798FB012D0DD0A0
:10BA7000022D0BD0042D09D0082D07D0102D05D094
:10BA8000202D03D0402D01D0802D00D104E040F6C0
:10BA9000CD116348F4F782FB208A00EA0507A089EC
:10BAA00000EA050827B1B8F1000F01D0012600E037
:10BAB00000263046BDE8F08170B504460D46594871
:10BAC000844226D0B4F1804F23D05748844220D0FE
:10BAD000564884421DD0564884421AD05548844264
:10BAE00017D05548844214D05448844211D0544849
:10BAF00084420ED0534884420BD05348844208D02D
:10BB00005248844205D05248844202D0514884426F
:10BB100000D104E040F6F3114148F4F73FFBE8435D
:10BB2000208270BD70B506460C4615463D488642DB
:10BB30000ED0B6F1804F0BD03B48864208D03B4830
:10BB4000864205D03A48864202D03C48864200D11F
:10BB500004E040F618213248F4F720FB2CB3012C06
:10BB600023D0022C21D0032C1FD0042C1DD0052C57
:10BB70001BD0062C19D0072C17D0082C15D0092C57
:10BB800013D00A2C11D00B2C0FD00C2C0DD00D2C57
:10BB90000BD00E2C09D00F2C07D0102C05D0112C57
:10BBA00003D0122C01D0132C00D104E040F619214F
:10BBB0001B48F4F7F3FA95B3B5F5807F2FD0B5F5B0
:10BBC000007F2CD0B5F5407F29D0B5F5806F26D009
:10BBD000B5F5A06F23D0B5F5C06F20D0B5F5E06FF7
:10BBE0001DD0B5F5006F1AD0B5F5106F17D0B5F5AB
:10BBF000206F14D0B5F5306F11D0B5F5406F0ED071
:10BC0000B5F5506F0BD0B5F5606F08D0B5F5706F16
:10BC100005D0B5F5805F02D0B5F5885F1CD120E076
:10BC200000DE000800000140000400400008004061
:10BC3000000C0040001000400014004000040140CF
:10BC4000004001400044014000480140001800400D
:10BC5000001C00400020004040F61A21FA48F4F78A
:10BC60009DFA44EA0500A6F8480070BD70B5044688
:10BC70000D461646F548844214D0B4F1804F11D0D9
:10BC8000F34884420ED0F34884420BD0F2488442F9
:10BC900008D0F248844205D0F148844202D0F148ED
:10BCA000844200D104E040F63321E748F4F776FA05
:10BCB00048F2FF00284008B905B104E040F63421FD
:10BCC000E148F4F76BFA0EB1012E00D104E040F622
:10BCD0003521DD48F4F762FA1EB1A0892843A0811E
:10BCE00002E0A089A843A08170BD70B504460D464E
:10BCF000D64884420ED0B4F1804F0BD0D448844251
:10BD000008D0D448844205D0D348844202D0D548D4
:10BD1000844200D104E040F64D21CB48F4F73EFACE
:10BD20000DB1012D00D104E040F64E21C648F4F7D4
:10BD300035FA25B1A08840F00800A08004E0A08872
:10BD40004FF6F7710840A08070BD10B50446BF489B
:10BD5000844214D0B4F1804F11D0BD4884420ED03B
:10BD6000BC4884420BD0BC48844208D0BD488442C1
:10BD700005D0BD48844202D0BC48844200D104E0D2
:10BD800040F67421B048F4F709FA20894FF6F871AB
:10BD90000840208110BD70B504460D460026AB4812
:10BDA000844220D0B4F1804F1DD0A94884421AD0DB
:10BDB000A848844217D0A848844214D0A948844295
:10BDC00011D0A94884420ED0A94884420BD0A9487A
:10BDD000844208D0A548844205D0A748844202D0B6
:10BDE000A648844200D104E040F644319648F4F776
:10BDF000D5F96DB1102D0BD0202D09D0302D07D0E5
:10BE0000402D05D0502D03D0602D01D0702D00D1D4
:10BE100004E040F645318C48F4F7C0F926894FF626
:10BE20008F7006402E43268170BD70B504460D46C6
:10BE30008648844214D0B4F1804F11D084488442A3
:10BE40000ED0844884420BD08348844208D0854871
:10BE5000844205D08448844202D08448844200D180
:10BE600004E040F689217848F4F798F92DB1102DB7
:10BE700003D0202D01D0302D00D104E040F68A21DE
:10BE80007148F4F78BF929462046FFF784FF208993
:10BE900040F00700208170BD2DE9F04104460E46B8
:10BEA00015461F466948844220D0B4F1804F1DD00A
:10BEB000674884421AD06748844217D06648844253
:10BEC00014D06848844211D0674884420ED0684834
:10BED00084420BD06748844208D06448844205D02D
:10BEE0006548844202D06548844200D104E040F6AF
:10BEF000A8215548F4F752F91DB1022D01D00A2DA1
:10BF000000D104E040F6A9214F48F4F747F90F2F7C
:10BF100000DC04E040F6AA214B48F4F73FF9602E1C
:10BF200006D13B46012229462046FFF7CEF805E020
:10BF30003B46012229462046FFF732F9314620468A
:10BF4000FFF729FF208940F007002081BDE8F0813C
:10BF50002DE9F04104460D4616461F464FF00008F5
:10BF60003A4884420ED0B4F1804F0BD03848844216
:10BF700008D03848844205D03748844202D0394836
:10BF8000844200D104E040F6BD312F48F4F706F9B1
:10BF900045B1B5F5805F05D0B5F5005F02D0B5F5C8
:10BFA000405F00D104E040F6BE312748F4F7F6F8D0
:10BFB000B6F5004F00D006B904E040F6BF31224884
:10BFC000F4F7ECF80F2F00DC04E04FF43C611E485E
:10BFD000F4F7E4F8B4F8088008F0FF084FF6FF70B3
:10BFE00000EA07203043284340EA0808A4F8088004
:10BFF000BDE8F0812DE9F04104460D46174698460C
:10C000000026124884420ED0B4F1804F0BD0104865
:10C01000844208D00F48844205D00F48844202D0A1
:10C020001048844200D104E040F6D2210648F4F7DB
:10C03000B5F845B1B5F5805F05D0B5F5005F02D024
:10C04000B5F5405F1CD120E000DE00080000014093
:10C050000004004000080040000C004000100040B8
:10C06000001400400004014000400140001800405E
:10C070000044014000480140001C004000200040F6
:10C0800040F6D321FA48F4F789F8B7F5004F00D00D
:10C0900007B904E040F6D421F548F4F77FF8B8F189
:10C0A0000F0F00DC04E040F6D521F148F4F776F8F4
:10C0B00043463A4629462046FFF74AFF26894FF66F
:10C0C000F870064046F007064FF68F70064046F0BF
:10C0D00070062681BDE8F0812DE9F04104460D4649
:10C0E00016461F46E34884420ED0B4F1804F0BD071
:10C0F000E148844208D0E148844205D0E0488442C7
:10C1000002D0E048844200D104E040F6FF21D84844
:10C11000F4F744F845B1B5F5805F05D0B5F5005F9B
:10C1200002D0B5F5405F00D104E04FF43061D04853
:10C13000F4F734F8B6F5004F00D006B904E040F645
:10C140000131CB48F4F72AF80F2F00DC04E040F669
:10C150000231C748F4F722F83B46324629462046CA
:10C16000FFF7F6FE208940F480402081BDE8F08191
:10C1700070B504460D46BF48844214D0B4F1804FD8
:10C1800011D0BD4884420ED0BC4884420BD0BC487C
:10C19000844208D0BC48844205D0BC48844202D0C6
:10C1A000B848844200D104E040F66D31B048F3F75E
:10C1B000F5FF6DB1102D0BD0202D09D0302D07D0FB
:10C1C000402D05D0502D03D0602D01D0702D00D111
:10C1D00004E040F66E31A648F3F7E0FFA0884FF682
:10C1E0008F710840A080A0882843A08070BD70B5E2
:10C1F00004460D469F48844214D0B4F1804F11D0BC
:10C200009D4884420ED09D4884420BD09C48844275
:10C2100008D09C48844205D09D48844202D09D4865
:10C22000844200D104E040F685319148F3F7B6FF2F
:10C23000042D05D0052D03D0062D01D0072D00D1EA
:10C2400004E040F686318A48F3F7A8FF20894FF6CC
:10C25000F8710840208120892843208170BD70B585
:10C2600004460D468348844214D0B4F1804F11D067
:10C27000814884420ED0814884420BD08048844259
:10C2800008D08048844205D08148844202D0814849
:10C29000844200D104E040F69C317548F3F77EFFFC
:10C2A000802D00D005B904E040F69D317048F3F7C9
:10C2B00075FF20894FF67F7108402081208928432F
:10C2C000208170BD2DE9F04704460D4616461F46F5
:10C2D0004FF00008C146C2466648844214D0B4F10B
:10C2E000804F11D0644884420ED0644884420BD001
:10C2F0006348844208D06348844205D0644884423D
:10C3000002D06448844200D104E040F6F931584834
:10C31000F3F744FF012D03D0022D01D0032D00D1EE
:10C3200004E040F6FA315248F3F738FF1EB1022E0E
:10C3300001D00A2E00D104E040F6FB314C48F3F75F
:10C340002DFF1FB1022F01D00A2F00D104E040F6CB
:10C35000FC314748F3F722FFB4F80880B4F818908E
:10C36000B4F820A04FF6F87008EA000848EA05087B
:10C370004FF6FC4009EA000940F2011049EA0009C1
:10C380004FF6DD700AEA000A4FF6FF7000EA071068
:10C39000304340EA0A0AA4F80880A4F81890A4F8E8
:10C3A00020A0BDE8F08770B504460D4631488442B0
:10C3B00014D0B4F1804F11D02F4884420ED02F48B2
:10C3C00084420BD02E48844208D02E48844205D0A7
:10C3D0002F48844202D02F48844200D104E040F626
:10C3E00028412348F3F7DAFE0DB1012D00D104E016
:10C3F00040F629411E48F3F7D1FE25B1A08840F050
:10C400008000A08004E0A0884FF67F710840A080E3
:10C4100070BD70B505460C46B5F1804F05D0184883
:10C42000854202D01C48854200D104E040F65B41C1
:10C430000F48F3F7B3FE94B1B4F5806F0FD0B4F5A5
:10C44000006F0CD0B4F5406F09D044B1402C06D039
:10C45000802C04D0C02C02D00CB1022C00D104E0FE
:10C4600040F65C410248F3F799FEA5F8504070BDD4
:10C4700000DE000800000140000400400008004009
:10C48000000C004000040140001000400014004077
:10C4900000400140001800400048014010B504462B
:10C4A000F84884420ED0F84884420BD0F7488442C2
:10C4B00008D0F748844205D0F648844202D0F648B6
:10C4C000844200D103E0B521F448F3F767FEED485C
:10C4D000844208D101211020FCF78EFD002110209C
:10C4E000FCF78AFD3EE0E848844209D10121480476
:10C4F000FCF75BFD00214FF40030FCF756FD31E006
:10C50000E248844209D101218804FCF74EFD002154
:10C510004FF48020FCF749FD24E0DD48844209D136
:10C520000121C804FCF741FD00214FF40020FCF775
:10C530003CFD17E0D748844209D101210805FCF7EA
:10C5400034FD00214FF48010FCF72FFD0AE0D248A3
:10C55000844207D101212020FCF74EFD002120203C
:10C56000FCF74AFD10BD2DE9FF4705460C460026A5
:10C57000B14600BFB046C34885420ED0C24885428E
:10C580000BD0C248854208D0C148854205D0C14879
:10C59000854202D0C048854200D103E0EB21BF486C
:10C5A000F3F7FCFD206820B1BD492068884200D225
:10C5B00003E0EC21B948F3F7F1FDA08818B1A08899
:10C5C000B0F5805F00D103E0ED21B448F3F7E6FD5C
:10C5D000E08858B1E088B0F5805F07D0E088B0F51A
:10C5E000005F03D0E088B0F5405F00D103E0EE21AA
:10C5F000AA48F3F7D3FD208938B12089B0F5806FC0
:10C6000003D02089B0F5C06F00D103E0EF21A3482B
:10C61000F3F7C4FD60894FF6F371084010B96089E3
:10C6200000B103E0F0219D48F3F7B8FDA08958B1AF
:10C63000A089B0F5807F07D0A089B0F5007F03D036
:10C64000A089B0F5407F00D103E0F1219348F3F7D2
:10C65000A5FDA08980B18B48854208D08A488542D3
:10C6600005D08A48854202D08B48854200D103E03C
:10C67000F6218A48F3F792FD2E8A26F44056E08888
:10C6800006432E82AE8941F20C608643A088218940
:10C690000843618908430643AE81AE8A26F440769A
:10C6A000A0890643AE826846FCF7E5F975488542E5
:10C6B00002D07948854202D1DDF80C9001E0DDF826
:10C6C0000890A88900F4004040B109EBC90000EBD4
:10C6D000091021684900B0FBF1F707E009EBC90038
:10C6E00000EB091021688900B0FBF1F76420B7FB6B
:10C6F000F0F006013009642101FB1078A88900F4EC
:10C70000004040B1322000EBC800B0FBF1F000F077
:10C710000700064308E0322000EB08106421B0FB5C
:10C72000F1F000F00F0006432E81BDE8FF874FF4C3
:10C730001651016000218180C18001810C2141815D
:10C7400000218181704770B505460C4600264D4892
:10C75000854208D04C48854205D04C48854202D0DD
:10C760004D48854200D104E04FF4B6714B48F3F7D1
:10C7700015FD208818B12088B0F5006F00D104E0C5
:10C7800040F26D114548F3F709FD608818B16088E3
:10C79000B0F5806F00D104E04FF4B7713F48F3F774
:10C7A000FDFCA08818B1A088B0F5007F00D104E09E
:10C7B00040F26F113948F3F7F1FCE08818B1E088D6
:10C7C000B0F5807F00D104E04FF4B8713348F3F73F
:10C7D000E5FC2E8A26F47066208861880843A188CB
:10C7E0000843E188084306432E8270BD0021018082
:10C7F00041808180C180704770B504460D46214854
:10C8000084420ED0204884420BD02048844208D075
:10C810001F48844205D01F48844202D01E488442EB
:10C8200000D104E040F29B111C48F3F7B7FC0DB1B6
:10C83000012D00D104E04FF4CE711848F3F7AEFC9F
:10C8400025B1A08940F40050A08104E0A0894DF6F4
:10C85000FF710840A08170BD70B504460D460948BF
:10C8600084420ED0084884420BD00848844208D045
:10C870000748844205D00748844202D006488442D3
:10C8800010D114E000100140004400400048004076
:10C89000004C0040005000400014014054DE0008ED
:10C8A000E170720040F2B511FA48F3F777FC208B83
:10C8B00000F47F402083208B2843208370BD70B517
:10C8C00004460D46F44884420ED0F44884420BD00E
:10C8D000F348844208D0F348844205D0F2488442A9
:10C8E00002D0F248844200D104E04FF4E571E948F7
:10C8F000F3F754FC0DB1012D00D104E040F2CB114F
:10C90000E448F3F74BFC25B1A08940F40040A08136
:10C9100003E0A089C0F30E00A08170BD70B504468D
:10C920000D46DD4884420ED0DC4884420BD0DC4802
:10C93000844208D0DB48844205D0DB48844202D0E0
:10C94000DA48844200D104E04FF4F271D148F3F7A1
:10C9500025FC0DB1012D00D104E040F2E511CD48D8
:10C96000F3F71CFC25B1A08A40F40060A08204E02B
:10C97000A08A4FF2FF710840A08270BD70B50446D6
:10C980000D46C54884420ED0C44884420BD0C448EA
:10C99000844208D0C348844205D0C348844202D0B0
:10C9A000C248844200D104E040F21D21B948F3F7A7
:10C9B000F5FBB5F5007F00DA04E040F21E21B54832
:10C9C000F3F7ECFBC5F30800A08070BD10B504467A
:10C9D000B14884420ED0B14884420BD0B048844262
:10C9E00008D0B048844205D0AF48844202D0AF4856
:10C9F000844200D104E040F22D21A648F3F7CEFB9B
:10CA0000A088C0F3080010BD70B504460D46A248CA
:10CA100084420ED0A14884420BD0A148844208D061
:10CA2000A048844205D0A048844202D09F48844256
:10CA300000D104E04FF418719648F3F7AFFB0F2DC7
:10CA400000DC04E040F261219248F3F7A7FB208A62
:10CA50004FF6F07108402082208A2843208270BD62
:10CA600070B504460D468C4884420ED08B488442F3
:10CA70000BD08B48844208D08A48844205D08A482B
:10CA8000844202D08948844200D104E04FF41D71F1
:10CA90008048F3F783FB0DB1012D00D104E040F293
:10CAA00075217C48F3F77AFB25B1A08940F002009C
:10CAB000A08104E0A0894FF6FD710840A08170BDFF
:10CAC00070B504460D46744884420ED073488442C3
:10CAD0000BD07348844208D07248844205D0724813
:10CAE000844202D07148844200D104E040F28F2198
:10CAF0006848F3F753FB15B1B5F5006F00D104E0BA
:10CB00004FF424716348F3F749FBA0894FF2FF719A
:10CB10000840A081A0892843A08170BD70B504465B
:10CB20000D465D4884420ED05C4884420BD05C4880
:10CB3000844208D05B48844205D05B48844202D0DE
:10CB40005A48844200D104E04FF435715148F3F75C
:10CB500025FB0DB1202D00D104E040F2D5214D4838
:10CB6000F3F71CFB208A4FF6DF7108402082208AF1
:10CB70002843208270BD70B504460D464648844265
:10CB80000ED0464884420BD04548844208D04548E0
:10CB9000844205D04448844202D04448844200D1B3
:10CBA00004E040F2E6213B48F3F7F8FA0DB1012D1D
:10CBB00000D104E040F2E7213648F3F7EFFA25B15F
:10CBC000208A40F48040208204E0208A4BF6FF71E6
:10CBD0000840208270BD10B504462F4884420ED014
:10CBE0002E4884420BD02E48844208D02D488442DF
:10CBF00005D02D48844202D02C48844200D104E064
:10CC000040F2FE212348F3F7C9FAA08940F0010061
:10CC1000A08110BD70B504460D461F4884420ED059
:10CC20001E4884420BD01E48844208D01D488442CE
:10CC300005D01D48844202D01C48844200D104E043
:10CC400040F233311348F3F7A9FA0DB1012D00D1A9
:10CC500004E04FF44D710F48F3F7A0FA25B1A08A14
:10CC600040F00800A08204E0A08A4FF6F771084067
:10CC7000A08270BD70B504460D460748844208D0B6
:10CC80000648844205D00648844202D007488442C0
:10CC90000ED112E054DE00080010014000440040B4
:10CCA00000480040004C004000500040001401408B
:10CCB0004FF46271FE48F3F771FA208BC0B2208303
:10CCC000208B40EA0520208370BD70B504460D46D8
:10CCD000F848844208D0F848844205D0F748844296
:10CCE00002D0F748844200D104E040F29B31F04882
:10CCF000F3F754FA0DB1012D00D104E04FF4677140
:10CD0000EB48F3F74BFA25B1A08A40F02000A0824F
:10CD100004E0A08A4FF6DF710840A08270BD70B5B4
:10CD200004460D46E348844208D0E348844205D0D7
:10CD3000E248844202D0E248844200D104E04FF449
:10CD40006D71DB48F3F72AFA0DB1012D00D104E033
:10CD500040F2B531D648F3F721FA25B1A08A40F068
:10CD60001000A08204E0A08A4FF6EF710840A08274
:10CD700070BD70B504460D46CE4884420ED0CE48F4
:10CD800084420BD0CD48844208D0CE48844205D09E
:10CD9000CD48844202D0CA48844200D104E040F227
:10CDA000FB31C348F3F7FAF9042D00D005B904E0CC
:10CDB0004FF47F71BE48F3F7F1F9A08A4FF6FB718B
:10CDC0000840A082A08A2843A08270BD70B50446A6
:10CDD0000D46B84884420ED0B74884420BD0B748BD
:10CDE000844208D0B748844205D0B748844202D074
:10CDF000B348844200D104E040F20D41AC48F3F75F
:10CE0000CDF90DB1012D00D104E040F20E41A8484A
:10CE1000F3F7C4F925B1A08A40F00200A08204E033
:10CE2000A08A4FF6FD710840A08270BD70B504461F
:10CE30000D4616469F4884420ED09F4884420BD030
:10CE40009E48844208D09F48844205D09E48844230
:10CE500002D09B48844200D104E040F23B41944818
:10CE6000F3F79CF94FF63F70284008B905B104E08C
:10CE700040F23C418E48F3F791F90EB1012E00D1FA
:10CE800004E040F23D418A48F3F788F91EB1A08AD8
:10CE90002843A08202E0A08AA843A08270BD2DE9A9
:10CEA000F04704460D4617464FF00008C246C146FB
:10CEB0000026804884420ED07F4884420BD07F48B1
:10CEC000844208D07F48844205D07F48844202D003
:10CED0007B48844200D104E040F2BD417448F3F73E
:10CEE0005DF9282D19D040F22770854215D040F207
:10CEF0002660854211D040F2255085420DD040F287
:10CF00002440854209D040F64600854205D040F6CF
:10CF10006A10854201D0602D00D104E040F2BE418C
:10CF20006348F3F73BF90FB1012F00D104E040F261
:10CF3000BF415F48F3F732F940F66A10854211D1DC
:10CF40005C48844208D05C48844205D05B488442F7
:10CF500002D05B48844200D104E040F2C44154480E
:10CF6000F3F71CF92646C5F3421805F01F0A012005
:10CF700000FA0AF9B8F1010F01D10C3605E0B8F159
:10CF8000020F01D1103600E0143627B1306840EAB4
:10CF90000900306003E0306820EA09003060BDE835
:10CFA000F08770B505460C460026424885420ED0F3
:10CFB000414885420BD04148854208D041488542CE
:10CFC00005D04148854202D03D48854200D104E069
:10CFD00040F2FC413648F3F7E1F8012C13D0802CE5
:10CFE00011D0402C0FD0202C0DD0102C0BD0B4F52C
:10CFF000807F08D0B4F5007F05D0082C03D0042C26
:10D0000001D0022C00D104E040F2FD412848F3F7A2
:10D01000C5F8B4F5007F11D12648854208D02648CE
:10D02000854205D02548854202D02548854200D159
:10D0300004E040F202511E48F3F7B0F8288820407F
:10D0400008B1012600E00026304670BD70B50446E8
:10D050000D46184884420ED0174884420BD017481A
:10D06000844208D01748844205D01748844202D031
:10D070001348844200D104E040F22C510C48F3F7ED
:10D080008DF84FF69F40284008B905B104E040F202
:10D090002D510748F3F782F805F40070B0F5007FD2
:10D0A00020D10448844217D00348844214D00DE0B4
:10D0B00054DE0008001001400044004000480040D9
:10D0C00000140140004C004000500040754884426C
:10D0D00002D07548844200D104E040F232517348D6
:10D0E000F3F75CF8E843208070BD2DE9F047054672
:10D0F0000C4600270026B046B1466D4885420ED04A
:10D100006C4885420BD06748854208D06A48854202
:10D1100005D06A48854202D06348854200D104E0C8
:10D120004FF4AA616148F3F739F8282C27D040F270
:10D130002770844223D040F2266084421FD040F200
:10D14000255084421BD040F22440844217D040F640
:10D150004600844213D040F66A1084420FD0B4F5E2
:10D16000587F0CD040F22530844208D0B4F5587F67
:10D1700005D0B4F5187F02D0B4F5B07F00D104E03B
:10D1800040F251514948F3F709F840F66A108442D9
:10D1900011D14748854208D04648854205D04148CC
:10D1A000854202D04048854200D104E040F2565109
:10D1B0003E48F2F7F3FFC4F3421804F01F060120C3
:10D1C00000FA06F6B8F1010F02D1A889064007E07F
:10D1D000B8F1020F02D1288A064001E0A88A064071
:10D1E0002712012000FA07F7288807401EB117B15F
:10D1F0004FF0010901E04FF000094846BDE8F08713
:10D200002DE9F04104460D460026002728488442B7
:10D210000ED0284884420BD02248844208D02648A9
:10D22000844205D02548844202D01F48844200D160
:10D2300004E040F299511D48F2F7B0FF40F2266039
:10D2400085420BD040F22550854207D040F646007B
:10D25000854203D040F66A10854200D104E040F2D6
:10D260009A511248F2F79AFF40F66A10854211D19E
:10D270000F48844208D00F48844205D009488442B0
:10D2800002D00948844200D104E040F29F5107488F
:10D29000F2F784FF2E120120B04087B2F8432080BD
:10D2A000BDE8F081004800400014014054DE000851
:10D2B0000010014000440040004C0040005000407D
:10D2C0002DE9FE4F804681EA0300C00F0C46009016
:10D2D00021F0004123F00045B8EB0200A94105D23E
:10D2E0004046214690461C460B46024623F000402D
:10D2F000104347D0270DC7F30A00C3F30A51029029
:10D30000401A019040286BDAC3F3130040F4801BED
:10D310000098924620B10023D2EB030A63EB0B0B7B
:10D3200001985946C0F14002504600F05FF90646A8
:10D330000D4650465946019A00F077F910EB080067
:10D340006141002487EA115284EAE7731A4340D00E
:10D35000009A62B3019A012A4FEA075215DC001BBA
:10D3600061EB02014FF0004202EA0752CDE90042B0
:10D37000001C41F5801132462B4600F0AEF903B097
:10D38000BDE8F08F40462146F9E7001B61EB020142
:10D39000001C41F5801300185B412018A2F500170E
:10D3A00047EB030140EAD570B6196D4111E06D08F5
:10D3B0004FEA360645EAC0754FEA0752001B61EB9B
:10D3C0000201001C41F5801149084FEA30000019A4
:10D3D000514132462B4603B0BDE8F04F00F06EB924
:10D3E0000098012240000023D0EB020263EBE073BF
:10D3F000009821464FEAE074B8EB000061EB0401AD
:10D40000E9E783F000435BE781F0004158E72DE94D
:10D41000FE4F81EA030404F0004421F0004100942F
:10D420004FF0000B23F0004350EA01045ED052EAB3
:10D4300003045BD0C3F30A54C1F30A552C44A4F28D
:10D44000F3340194A0FB0254C1F3130141F48011A1
:10D45000C3F3130343F4801301FB024400FB034EA8
:10D46000840A970A44EA815447EA8357A4FB076871
:10D4700002958D0A05FB07854FEA932C04FB0C549B
:10D480002705029D4FEA065847EA1637B5EB08050F
:10D490006EEB070C870E920E47EA811742EA831261
:10D4A000A7FB0201B6EB0B0164EB00042B0D43EA72
:10D4B0000C335E1844EB1C50DA465146E7FB020180
:10D4C000C5F313044FEA0B3343EA14534FEA043213
:10D4D000019C43EA0603A4F10C040294009CCDE9EC
:10D4E00000B400F0FAF803B0BDE8F08F0020014668
:10D4F000F9E70EB5C10F80EAE0700844CA070021C1
:10D5000040F233438DE80E000A460B4600F0E5F882
:10D5100003B000BD70B5C1F30A5201F0004500240C
:10D52000C1F3130140F2FF3341F480119A4201DA52
:10D53000002070BD40F233439A42A2F2334203DC32
:10D54000524200F062F800E090402C43F1D040429B
:10D5500070BD000030B5041E71F1000404DB4FF013
:10D560000044404264EB0101141E73F1000405DB2A
:10D570001C464FF00043524263EB04038B4208BF4A
:10D58000824230BD30B5041E71F1000404DB4FF05F
:10D590000044404264EB0101141E73F1000405DBFA
:10D5A0001C464FF00043524263EB0403994208BF0C
:10D5B000904230BD01F0004330B421F0004150EA08
:10D5C000010206D00A0DA2F56072C1F31301002A10
:10D5D00002DC30BC00207047440F44EAC104C100A3
:10D5E000E01830BC00EBC25000F031B8202A04DB58
:10D5F000203A00FA02F1002070479140C2F1200366
:10D6000020FA03F3194390407047202A04DB203AA4
:10D6100021FA02F00021704721FA02F3D040C2F152
:10D6200020029140084319467047202A06DBCB1799
:10D63000203A41FA02F043EAE07306E041FA02F3CD
:10D64000D040C2F12002914008431946704700299A
:10D65000A8BF7047401C490008BF20F00100704778
:10D6600010B4B0FA80FC00FA0CF050EA010404BFD8
:10D6700010BC704749B1CCF1200421FA04F411FA2E
:10D680000CF118BF012121430843A3EB0C01CB1D72
:10D690004FEA00614FEA102042BF002010BC7047E3
:10D6A00000EBC35010440029A4BF10BC7047401CBD
:10D6B000490008BF20F0010010BC704710B5141ECF
:10D6C00073F1000408DA401C41F1000192185B413B
:10D6D0001A4301D120F0010010BD2DE9F04D924612
:10D6E0009B4611B1B1FA81F202E0B0FA80F2203229
:10D6F0009046FFF77BFF04460F4640EA0A0041EAE6
:10D700000B0153465A46084313D0114653EA010011
:10D7100019D0C8F140025046FFF777FF05460E4684
:10D72000504659464246FFF761FF084305D00120A5
:10D7300004E020463946BDE8F08D0020054346EA66
:10D74000E0762C4337430A986305E40AA0EB08000F
:10D750000022FD0A44EA47540A3002D5002001465F
:10D76000E9E7010510196941DDE90845001969413A
:10D77000BDE8F04DA2E70000064C074D06E0E0686A
:10D7800040F0010394E8070098471034AC42F6D308
:10D79000F2F7FEFCA8DE0008C8DE000870B58C18A1
:10D7A00010F8015B15F0070301D110F8013B2A11B5
:10D7B00006D110F8012B03E010F8016B01F8016BA2
:10D7C0005B1EF9D12B0705D40023521E0DD401F89E
:10D7D000013BFAE710F8013BCB1A921C03E013F867
:10D7E000015B01F8015B521EF9D5A142D8D300209C
:10D7F00070BD02E008C8121F08C1002AFAD17047A4
:10D800007047002001E001C1121F002AFBD17047C0
:10D81000000000005680803BD37F003C77BE403C38
:10D82000CF7D803C5B9BA03CA6B7C03C6ED2E03C69
:10D83000B775003D3581103D918B203DAB94303D57
:10D84000609C403D92A2503D25A7603DF1A9703DEE
:10D850006F55803DE354883D4753903D8C50983D33
:10D860009F4CA03D7247A83DF740B03D1B39B83DE5
:10D87000D22FC03D0C25C83DB218D03DC60AD83DB8
:10D880002DFBDF3DD9E9E73DB0D6EF3DBEC1F73D09
:10D89000DBAAFF3D04C9033E95BB073E20AD0B3E0E
:10D8A000979D0F3EF58C133E397B173E56681B3E05
:10D8B0003E541F3EF83E233E7728273EB4102B3EB1
:10D8C000A1F72E3E45DD323E93C1363E7DA43A3E61
:10D8D0000A863E3E2766423ED844463E12224A3ED3
:10D8E000C7FD4D3EFED7513EAFB0553EC687593EAF
:10D8F0004B5D5D3E3731613E7C03653E1AD4683E28
:10D900000AA36C3E4770703EC83B743E8805783E63
:10D9100086CD7B3EB5937F3E0EAC813E538D833EDC
:10D92000AE6D853E164D873E8D2B893E0F098B3E91
:10D9300099E58C3E2BC18E3EC19B903E5475923E24
:10D94000E94D943E7B25963E07FC973E8BD1993E50
:10D9500002A69B3E6F799D3ECD4B9F3E1C1DA13E76
:10D9600057EDA23E7FBCA43E8D8AA63E8457A83EBA
:10D970006223AA3E23EEAB3EC2B7AD3E4580AF3E2A
:10D98000A447B13EE20DB33EF9D2B43EE996B63EAD
:10D99000B159B83E4F1BBA3EC2DBBB3E079BBD3EF2
:10D9A0001E59BF3E0416C13EBCD1C23E3F8CC43E90
:10D9B0008E45C63EA4FDC73E89B4C93E336ACB3E00
:10D9C000A41ECD3EDAD1CE3ED583D03E9434D23E95
:10D9D00018E4D33E5A92D53E603FD73E21EBD83E65
:10D9E000A395DA3EE33EDC3EE1E6DD3E9A8DDF3E86
:10D9F0000D33E13E3AD7E23E227AE43EC51BE63ED5
:10DA00001BBCE73E2F5BE93EF7F8EA3E7695EC3E1D
:10DA1000A930EE3E93CAEF3E3563F13E86FAF23E00
:10DA20008F90F43E4925F63EB9B8F73EDA4AF93E02
:10DA3000AFDBFA3E386BFC3E71F9FD3E5A86FF3E85
:10DA4000FC88003F234E013FA212023F7BD6023FDB
:10DA5000AC99033F365C043F171E053F51DF053F7D
:10DA6000E39F063FCE5F073F121F083FADDD083F33
:10DA7000A29B093FEF580A3F94150B3F93D10B3FF0
:10DA8000E98C0C3F9A470D3FA2010E3F03BB0E3FAE
:10DA9000BF730F3FD32B103F41E3103F089A113F54
:10DAA0002A50123FA405133F79BA133FA86E143FC2
:10DAB0003322153F18D5153F5787163FF138173FCA
:10DAC000E7E9173F389A183FE749193FEFF8193F40
:10DAD00055A71A3F18551B3F37021C3FB3AE1C3FDA
:10DAE0008E5A1D3FC4051E3F5AB01E3F4E5A1F3F5F
:10DAF000A103203F52AC203F6354213FD3FB213F81
:10DB0000A4A2223FD548233F67EE233F5A93243FE8
:10DB1000AD37253F63DB253F7A7E263FF420273F44
:10DB2000D2C2273F1364283FB704293FBFA4293F2F
:10DB30002C442A3FFEE22A3F33812B3FD11E2C3F4B
:10DB4000D2BB2C3F3C582D3F0CF42D3F438F2E3F32
:10DB5000E1292F3FE9C32F3F595D303F33F6303F76
:10DB6000758E313F2126323F39BD323FBB53333FA3
:10DB7000A9E9333F027F343FC713353FF9A7353F4B
:10DB8000993B363FA6CE363F2161373F0BF3373FF7
:10DB90006484383F2E15393F65A5393F0F353A3F2C
:10DBA0002AC43A3FB4523B3FB3E03B3F226E3C3F76
:10DBB00006FB3C3F5D873D3F26133E3F679E3E3F51
:10DBC0001A293F3F44B33F3FE43C403FF9C5403F43
:10DBD000864E413F89D6413F065E423FFAE4423FCE
:10DBE000676B433F4FF1433FB076443F8CFB443F6C
:10DBF000E27F453FB403463F0187463FCB09473F9D
:10DC0000138C473FD70D483F198F483FDD0F493FE1
:10DC1000DD0F493F2E2E5C447269766572734D6349
:10DC2000755C53544D3332463430375C4C69627204
:10DC300061726965735C53544D3332463478785F52
:10DC40005374645065726970685F44726976657276
:10DC50005C7372635C6D6973632E63002E2E5C448B
:10DC60007269766572734D63755C53544D333246F9
:10DC70003430375C4C69627261726965735C53540D
:10DC80004D3332463478785F5374645065726970EE
:10DC9000685F4472697665725C7372635C73746DFD
:10DCA0003332663478785F6164632E63000000006D
:10DCB0002E2E5C447269766572734D63755C5354A5
:10DCC0004D3332463430375C4C696272617269653B
:10DCD000735C53544D3332463478785F53746450D8
:10DCE00065726970685F4472697665725C737263AD
:10DCF0005C73746D3332663478785F646D612E6363
:10DD0000000000002E2E5C447269766572734D63CC
:10DD1000755C53544D3332463430375C4C69627213
:10DD200061726965735C53544D3332463478785F61
:10DD30005374645065726970685F44726976657285
:10DD40005C7372635C73746D3332663478785F65CC
:10DD50007874692E630000002E2E5C44726976652B
:10DD600072734D63755C53544D3332463430375CB7
:10DD70004C69627261726965735C53544D3332460B
:10DD80003478785F5374645065726970685F447268
:10DD9000697665725C7372635C73746D333266347A
:10DDA00078785F6770696F2E630000002E2E5C44E8
:10DDB0007269766572734D63755C53544D333246A8
:10DDC0003430375C4C69627261726965735C5354BC
:10DDD0004D3332463478785F53746450657269709D
:10DDE000685F4472697665725C7372635C73746DAC
:10DDF0003332663478785F7263632E63000000000C
:10DE00002E2E5C447269766572734D63755C535453
:10DE10004D3332463430375C4C69627261726965E9
:10DE2000735C53544D3332463478785F5374645086
:10DE300065726970685F4472697665725C7372635B
:10DE40005C73746D3332663478785F74696D2E63F9
:10DE5000000000002E2E5C447269766572734D637B
:10DE6000755C53544D3332463430375C4C696272C2
:10DE700061726965735C53544D3332463478785F10
:10DE80005374645065726970685F44726976657234
:10DE90005C7372635C73746D3332663478785F756B
:10DEA000736172742E630000C8DE00080000002059
:10DEB000980200009CD70008ECDF000898020020C0
:10DEC000F019000002D80008011813B1016408E835
:10DED000031AB30C63F4011AB50C72C81AF50C726C
:10DEE000641AF70C723213E1027308141AE30C027D
:10DEF000430223030A123212C81C13015E021413D8
:10DF0000017D3A7D1012C81A5E9A291012C83EE7A8
:10DF1000FF130132163A7D0C327D141801EC12FA0F
:10DF200010085F01BD011701871AEC1A12CA1C54B0
:10DF3000017334120A123A1240125E123412501255
:10DF40004412201216126112240A1346345AC8349D
:10DF50001ABE0E12F4141201E8140401F81AD44C7B
:10DF60001C0F01D82C1A011C014016B562060806C8
:10DF700012641A01024B7A120E3AC80E1BDE6A0EA8
:10DF800013071414400D031BA08612196E6334038B
:10DF90001BD1CA1C111A14262133D0082AC23249B7
:10DFA0008F1BB8421C53090D63FFFF1C031DAB15EB
:10DFB0001301031301025B0D460B12065B114E0B9E
:10DFC00012125B1D660B12215B2C840B12045B0F7B
:10DFD0004A0B054007011351847A030A68090102BC
:0CDFE0000304060708090C69100000008B
:040000050800018965
:00000001FF
