Component: ARM Compiler 5.06 update 6 (build 750) Tool: armlink [4d35ed]

==============================================================================

Section Cross References

    main.o(.text) refers to drv_bsp.o(.text) for All_Init
    main.o(.text) refers to ano_scheduler.o(.text) for Scheduler_Setup
    ano_scheduler.o(.text) refers to user_task.o(.text) for UserTask_OneKeyCmd
    ano_scheduler.o(.text) refers to dflti.o(.text) for __aeabi_i2d
    ano_scheduler.o(.text) refers to dmul.o(.text) for __aeabi_dmul
    ano_scheduler.o(.text) refers to dadd.o(.text) for __aeabi_dsub
    ano_scheduler.o(.text) refers to dfixi.o(.text) for __aeabi_d2iz
    ano_scheduler.o(.text) refers to drv_sys.o(.text) for GetSysRunTimeMs
    ano_scheduler.o(.text) refers to ano_scheduler.o(.data) for mission_step
    ano_scheduler.o(.text) refers to ano_lx.o(.bss) for fc_att
    ano_scheduler.o(.text) refers to user_task.o(.data) for cal_X
    ano_scheduler.o(.data) refers to ano_scheduler.o(.text) for Loop_1000Hz
    user_task.o(.text) refers to drv_uart.o(.text) for DrvUart5SendBuf
    user_task.o(.text) refers to ano_math.o(.text) for my_sqrt
    user_task.o(.text) refers to user_task.o(.data) for offset_Distance
    user_task.o(.text) refers to ano_scheduler.o(.data) for offset_Angle
    user_task.o(.text) refers to lx_fc_fun.o(.text) for OneKey_Land
    user_task.o(.text) refers to drv_bsp.o(.bss) for rc_in
==============================================================================

Removing Unused input sections from the image.

    Removing main.o(.emb_text), (8 bytes).
    Removing ano_scheduler.o(.emb_text), (8 bytes).
    Removing user_task.o(.emb_text), (8 bytes).
    Removing ano_dt_lx.o(.emb_text), (8 bytes).
    Removing ano_lx.o(.emb_text), (8 bytes).
    Removing lx_fc_ext_sensor.o(.emb_text), (8 bytes).
    Removing lx_fc_fun.o(.emb_text), (8 bytes).
    Removing lx_fc_state.o(.emb_text), (8 bytes).
    Removing drv_bsp.o(.emb_text), (8 bytes).
    Removing ano_math.o(.emb_text), (8 bytes).
    Removing drv_anoof.o(.emb_text), (8 bytes).
    Removing drv_ubloxgps.o(.emb_text), (8 bytes).
    Removing drv_my_openmv.o(.emb_text), (8 bytes).
    Removing drv_my_openmv.o(.text), (544 bytes).
    Removing drv_my_openmv.o(.data), (3 bytes).
    Removing stm32f4xx_it.o(.emb_text), (8 bytes).
    Removing drv_sys.o(.emb_text), (8 bytes).
    Removing drv_adc.o(.emb_text), (8 bytes).
==============================================================================

Image Symbol Table

    Local Symbols

    Symbol Name                              Value     Ov Type        Size  Object(Section)

    ../clib/../cmprslib/zerorunl2.c          0x00000000   Number         0  __dczerorl2.o ABSOLUTE
    ../clib/microlib/init/entry.s            0x00000000   Number         0  entry.o ABSOLUTE
    ../clib/microlib/init/entry.s            0x00000000   Number         0  entry11a.o ABSOLUTE
    ../clib/microlib/init/entry.s            0x00000000   Number         0  entry10b.o ABSOLUTE
    ../clib/microlib/init/entry.s            0x00000000   Number         0  entry5.o ABSOLUTE
    ../clib/microlib/init/entry.s            0x00000000   Number         0  entry7b.o ABSOLUTE
    ../clib/microlib/init/entry.s            0x00000000   Number         0  entry11b.o ABSOLUTE
    ../clib/microlib/init/entry.s            0x00000000   Number         0  entry2.o ABSOLUTE
    ../clib/microlib/init/entry.s            0x00000000   Number         0  entry8b.o ABSOLUTE
    ../clib/microlib/init/entry.s            0x00000000   Number         0  entry9a.o ABSOLUTE
    ../clib/microlib/init/entry.s            0x00000000   Number         0  entry8a.o ABSOLUTE
    ../clib/microlib/init/entry.s            0x00000000   Number         0  entry9b.o ABSOLUTE
    ../clib/microlib/init/entry.s            0x00000000   Number         0  entry10a.o ABSOLUTE
    ../clib/microlib/init/entry.s            0x00000000   Number         0  entry7a.o ABSOLUTE
    ../clib/microlib/longlong.c              0x00000000   Number         0  llshl.o ABSOLUTE
    ../clib/microlib/longlong.c              0x00000000   Number         0  llushr.o ABSOLUTE
    ../clib/microlib/longlong.c              0x00000000   Number         0  llsshr.o ABSOLUTE
    ../clib/microlib/stubs.s                 0x00000000   Number         0  iusefp.o ABSOLUTE
    ../fplib/microlib/d2f.c                  0x00000000   Number         0  d2f.o ABSOLUTE
    ../fplib/microlib/fpadd.c                0x00000000   Number         0  dadd.o ABSOLUTE
    ../fplib/microlib/fpepilogue.c           0x00000000   Number         0  fepilogue.o ABSOLUTE
    ../fplib/microlib/fpepilogue.c           0x00000000   Number         0  depilogue.o ABSOLUTE
    ../fplib/microlib/fpfix.c                0x00000000   Number         0  dfixi.o ABSOLUTE
    ../fplib/microlib/fpflt.c                0x00000000   Number         0  dflti.o ABSOLUTE
    ../fplib/microlib/fpmul.c                0x00000000   Number         0  dmul.o ABSOLUTE
    ..\DriversBsp\Ano_Math.c                 0x00000000   Number         0  ano_math.o ABSOLUTE
    ..\DriversBsp\Drv_AnoOf.c                0x00000000   Number         0  drv_anoof.o ABSOLUTE
    ..\DriversBsp\Drv_BSP.c                  0x00000000   Number         0  drv_bsp.o ABSOLUTE
    ..\DriversBsp\Drv_MY_OpenMv.c            0x00000000   Number         0  drv_my_openmv.o ABSOLUTE
    ..\DriversBsp\Drv_UbloxGPS.c             0x00000000   Number         0  drv_ubloxgps.o ABSOLUTE
    ..\DriversMcu\STM32F407\Drivers\Drv_PwmOut.c 0x00000000   Number         0  drv_pwmout.o ABSOLUTE
    ..\DriversMcu\STM32F407\Drivers\Drv_RcIn.c 0x00000000   Number         0  drv_rcin.o ABSOLUTE
    ..\DriversMcu\STM32F407\Drivers\Drv_Sys.c 0x00000000   Number         0  drv_sys.o ABSOLUTE
    ..\DriversMcu\STM32F407\Drivers\Drv_Timer.c 0x00000000   Number         0  drv_timer.o ABSOLUTE
    ..\DriversMcu\STM32F407\Drivers\Drv_Uart.c 0x00000000   Number         0  drv_uart.o ABSOLUTE
    ..\DriversMcu\STM32F407\Drivers\Drv_adc.c 0x00000000   Number         0  drv_adc.o ABSOLUTE
    ..\DriversMcu\STM32F407\Drivers\Drv_led.c 0x00000000   Number         0  drv_led.o ABSOLUTE
    ..\DriversMcu\STM32F407\Drivers\stm32f4xx_it.c 0x00000000   Number         0  stm32f4xx_it.o ABSOLUTE
    ..\DriversMcu\STM32F407\Libraries\CMSIS\ST\STM32F4xx\Source\Templates\arm\startup_stm32f4xx.s 0x00000000   Number         0  startup_stm32f4xx.o ABSOLUTE
    ..\DriversMcu\STM32F407\Libraries\CMSIS\ST\STM32F4xx\Source\Templates\system_stm32f4xx.c 0x00000000   Number         0  system_stm32f4xx.o ABSOLUTE
    ..\DriversMcu\STM32F407\Libraries\STM32F4xx_StdPeriph_Driver\src\misc.c 0x00000000   Number         0  misc.o ABSOLUTE
    ..\DriversMcu\STM32F407\Libraries\STM32F4xx_StdPeriph_Driver\src\stm32f4xx_adc.c 0x00000000   Number         0  stm32f4xx_adc.o ABSOLUTE
    ..\DriversMcu\STM32F407\Libraries\STM32F4xx_StdPeriph_Driver\src\stm32f4xx_dma.c 0x00000000   Number         0  stm32f4xx_dma.o ABSOLUTE
    ..\DriversMcu\STM32F407\Libraries\STM32F4xx_StdPeriph_Driver\src\stm32f4xx_exti.c 0x00000000   Number         0  stm32f4xx_exti.o ABSOLUTE
    ..\DriversMcu\STM32F407\Libraries\STM32F4xx_StdPeriph_Driver\src\stm32f4xx_flash.c 0x00000000   Number         0  stm32f4xx_flash.o ABSOLUTE
    ..\DriversMcu\STM32F407\Libraries\STM32F4xx_StdPeriph_Driver\src\stm32f4xx_gpio.c 0x00000000   Number         0  stm32f4xx_gpio.o ABSOLUTE
    ..\DriversMcu\STM32F407\Libraries\STM32F4xx_StdPeriph_Driver\src\stm32f4xx_rcc.c 0x00000000   Number         0  stm32f4xx_rcc.o ABSOLUTE
    ..\DriversMcu\STM32F407\Libraries\STM32F4xx_StdPeriph_Driver\src\stm32f4xx_spi.c 0x00000000   Number         0  stm32f4xx_spi.o ABSOLUTE
    ..\DriversMcu\STM32F407\Libraries\STM32F4xx_StdPeriph_Driver\src\stm32f4xx_tim.c 0x00000000   Number         0  stm32f4xx_tim.o ABSOLUTE
    ..\DriversMcu\STM32F407\Libraries\STM32F4xx_StdPeriph_Driver\src\stm32f4xx_usart.c 0x00000000   Number         0  stm32f4xx_usart.o ABSOLUTE
    ..\FcSrc\ANO_DT_LX.c                     0x00000000   Number         0  ano_dt_lx.o ABSOLUTE
    ..\FcSrc\ANO_LX.c                        0x00000000   Number         0  ano_lx.o ABSOLUTE
    ..\FcSrc\Ano_Scheduler.c                 0x00000000   Number         0  ano_scheduler.o ABSOLUTE
    ..\FcSrc\LX_FC_EXT_Sensor.c              0x00000000   Number         0  lx_fc_ext_sensor.o ABSOLUTE
    ..\FcSrc\LX_FC_Fun.c                     0x00000000   Number         0  lx_fc_fun.o ABSOLUTE
    ..\FcSrc\LX_FC_State.c                   0x00000000   Number         0  lx_fc_state.o ABSOLUTE
    ..\FcSrc\User_Task.c                     0x00000000   Number         0  user_task.o ABSOLUTE
    ..\FcSrc\main.c                          0x00000000   Number         0  main.o ABSOLUTE
    ..\\DriversBsp\\Ano_Math.c               0x00000000   Number         0  ano_math.o ABSOLUTE
    ..\\DriversBsp\\Drv_AnoOf.c              0x00000000   Number         0  drv_anoof.o ABSOLUTE
    ..\\DriversBsp\\Drv_BSP.c                0x00000000   Number         0  drv_bsp.o ABSOLUTE
    ..\\DriversBsp\\Drv_MY_OpenMv.c          0x00000000   Number         0  drv_my_openmv.o ABSOLUTE
    ..\\DriversBsp\\Drv_UbloxGPS.c           0x00000000   Number         0  drv_ubloxgps.o ABSOLUTE
    ..\\DriversMcu\\STM32F407\\Drivers\\Drv_PwmOut.c 0x00000000   Number         0  drv_pwmout.o ABSOLUTE
    ..\\DriversMcu\\STM32F407\\Drivers\\Drv_RcIn.c 0x00000000   Number         0  drv_rcin.o ABSOLUTE
    ..\\DriversMcu\\STM32F407\\Drivers\\Drv_Sys.c 0x00000000   Number         0  drv_sys.o ABSOLUTE
    ..\\DriversMcu\\STM32F407\\Drivers\\Drv_Timer.c 0x00000000   Number         0  drv_timer.o ABSOLUTE
    ..\\DriversMcu\\STM32F407\\Drivers\\Drv_Uart.c 0x00000000   Number         0  drv_uart.o ABSOLUTE
    ..\\DriversMcu\\STM32F407\\Drivers\\Drv_adc.c 0x00000000   Number         0  drv_adc.o ABSOLUTE
    ..\\DriversMcu\\STM32F407\\Drivers\\Drv_led.c 0x00000000   Number         0  drv_led.o ABSOLUTE
    ..\\DriversMcu\\STM32F407\\Drivers\\stm32f4xx_it.c 0x00000000   Number         0  stm32f4xx_it.o ABSOLUTE
    ..\\DriversMcu\\STM32F407\\Libraries\\CMSIS\\ST\\STM32F4xx\\Source\\Templates\\system_stm32f4xx.c 0x00000000   Number         0  system_stm32f4xx.o ABSOLUTE
    ..\\DriversMcu\\STM32F407\\Libraries\\STM32F4xx_StdPeriph_Driver\\src\\misc.c 0x00000000   Number         0  misc.o ABSOLUTE
    ..\\DriversMcu\\STM32F407\\Libraries\\STM32F4xx_StdPeriph_Driver\\src\\stm32f4xx_adc.c 0x00000000   Number         0  stm32f4xx_adc.o ABSOLUTE
    ..\\DriversMcu\\STM32F407\\Libraries\\STM32F4xx_StdPeriph_Driver\\src\\stm32f4xx_dma.c 0x00000000   Number         0  stm32f4xx_dma.o ABSOLUTE
    ..\\DriversMcu\\STM32F407\\Libraries\\STM32F4xx_StdPeriph_Driver\\src\\stm32f4xx_exti.c 0x00000000   Number         0  stm32f4xx_exti.o ABSOLUTE
    ..\\DriversMcu\\STM32F407\\Libraries\\STM32F4xx_StdPeriph_Driver\\src\\stm32f4xx_flash.c 0x00000000   Number         0  stm32f4xx_flash.o ABSOLUTE
    ..\\DriversMcu\\STM32F407\\Libraries\\STM32F4xx_StdPeriph_Driver\\src\\stm32f4xx_gpio.c 0x00000000   Number         0  stm32f4xx_gpio.o ABSOLUTE
    ..\\DriversMcu\\STM32F407\\Libraries\\STM32F4xx_StdPeriph_Driver\\src\\stm32f4xx_rcc.c 0x00000000   Number         0  stm32f4xx_rcc.o ABSOLUTE
    ..\\DriversMcu\\STM32F407\\Libraries\\STM32F4xx_StdPeriph_Driver\\src\\stm32f4xx_spi.c 0x00000000   Number         0  stm32f4xx_spi.o ABSOLUTE
    ..\\DriversMcu\\STM32F407\\Libraries\\STM32F4xx_StdPeriph_Driver\\src\\stm32f4xx_tim.c 0x00000000   Number         0  stm32f4xx_tim.o ABSOLUTE
    ..\\DriversMcu\\STM32F407\\Libraries\\STM32F4xx_StdPeriph_Driver\\src\\stm32f4xx_usart.c 0x00000000   Number         0  stm32f4xx_usart.o ABSOLUTE
    ..\\FcSrc\\ANO_DT_LX.c                   0x00000000   Number         0  ano_dt_lx.o ABSOLUTE
    ..\\FcSrc\\ANO_LX.c                      0x00000000   Number         0  ano_lx.o ABSOLUTE
    ..\\FcSrc\\Ano_Scheduler.c               0x00000000   Number         0  ano_scheduler.o ABSOLUTE
    ..\\FcSrc\\LX_FC_EXT_Sensor.c            0x00000000   Number         0  lx_fc_ext_sensor.o ABSOLUTE
    ..\\FcSrc\\LX_FC_Fun.c                   0x00000000   Number         0  lx_fc_fun.o ABSOLUTE
    ..\\FcSrc\\LX_FC_State.c                 0x00000000   Number         0  lx_fc_state.o ABSOLUTE
    ..\\FcSrc\\User_Task.c                   0x00000000   Number         0  user_task.o ABSOLUTE
    ..\\FcSrc\\main.c                        0x00000000   Number         0  main.o ABSOLUTE
    cdcmple.s                                0x00000000   Number         0  cdcmple.o ABSOLUTE
    cdrcmple.s                               0x00000000   Number         0  cdrcmple.o ABSOLUTE
    dc.s                                     0x00000000   Number         0  dc.o ABSOLUTE
    handlers.s                               0x00000000   Number         0  handlers.o ABSOLUTE
    init.s                                   0x00000000   Number         0  init.o ABSOLUTE
    RESET                                    0x08000000   Section      392  startup_stm32f4xx.o(RESET)
    .ARM.Collect$$$$00000000                 0x08000188   Section        0  entry.o(.ARM.Collect$$$$00000000)
    .ARM.Collect$$$$00000001                 0x08000188   Section        4  entry2.o(.ARM.Collect$$$$00000001)
    .ARM.Collect$$$$00000004                 0x0800018c   Section        4  entry5.o(.ARM.Collect$$$$00000004)
    .ARM.Collect$$$$00000008                 0x08000190   Section        0  entry7b.o(.ARM.Collect$$$$00000008)
    .ARM.Collect$$$$0000000A                 0x08000190   Section        0  entry8b.o(.ARM.Collect$$$$0000000A)
    .ARM.Collect$$$$0000000B                 0x08000190   Section        8  entry9a.o(.ARM.Collect$$$$0000000B)
    .ARM.Collect$$$$0000000D                 0x08000198   Section        0  entry10a.o(.ARM.Collect$$$$0000000D)
    .ARM.Collect$$$$0000000F                 0x08000198   Section        0  entry11a.o(.ARM.Collect$$$$0000000F)
    .ARM.Collect$$$$00002712                 0x08000198   Section        4  entry2.o(.ARM.Collect$$$$00002712)
    __lit__00000000                          0x08000198   Data           4  entry2.o(.ARM.Collect$$$$00002712)
    .text                                    0x0800019c   Section        0  main.o(.text)
    .text                                    0x080001b0   Section        0  ano_scheduler.o(.text)
    Loop_1000Hz                              0x080001b1   Thumb Code     2  ano_scheduler.o(.text)
    Loop_500Hz                               0x080001b3   Thumb Code     2  ano_scheduler.o(.text)
    Loop_200Hz                               0x080001b5   Thumb Code    64  ano_scheduler.o(.text)
    Loop_100Hz                               0x080001f5   Thumb Code     2  ano_scheduler.o(.text)
    Loop_50Hz                                0x080001f7   Thumb Code   228  ano_scheduler.o(.text)
    Loop_20Hz                                0x080002db   Thumb Code     2  ano_scheduler.o(.text)
    Loop_2Hz                                 0x080002dd   Thumb Code     2  ano_scheduler.o(.text)
    .text                                    0x080003bc   Section        0  user_task.o(.text)
    .text                                    0x08001a98   Section        0  ano_dt_lx.o(.text)
    ANO_DT_LX_Send_Data                      0x08001b3f   Thumb Code    16  ano_dt_lx.o(.text)
    ANO_DT_LX_Data_Receive_Anl               0x08001b69   Thumb Code   678  ano_dt_lx.o(.text)
    Add_Send_Data                            0x08001f53   Thumb Code   390  ano_dt_lx.o(.text)
    Frame_Send                               0x080020d9   Thumb Code   190  ano_dt_lx.o(.text)
    Check_To_Send                            0x08002197   Thumb Code   138  ano_dt_lx.o(.text)
    CK_Back_Check                            0x0800227b   Thumb Code   150  ano_dt_lx.o(.text)
    .text                                    0x0800231c   Section        0  ano_lx.o(.text)
    RC_Data_Task                             0x0800231d   Thumb Code   604  ano_lx.o(.text)
    ESC_Output                               0x08002579   Thumb Code   364  ano_lx.o(.text)
    Bat_Voltage_Data_Handle                  0x080026e5   Thumb Code    28  ano_lx.o(.text)
    .text                                    0x08002800   Section        0  lx_fc_ext_sensor.o(.text)
    General_Velocity_Data_Handle             0x0800284f   Thumb Code   120  lx_fc_ext_sensor.o(.text)
    .text                                    0x080028e4   Section        0  lx_fc_fun.o(.text)
    .text                                    0x08002d20   Section        0  lx_fc_state.o(.text)
    LX_Unlock_Lock_Check                     0x08002d21   Thumb Code   438  lx_fc_state.o(.text)
    .text                                    0x08002fa4   Section        0  drv_bsp.o(.text)
    rcSignalCheck                            0x080032a3   Thumb Code   168  drv_bsp.o(.text)
    .text                                    0x08003478   Section        0  ano_math.o(.text)
    .text                                    0x08003cf4   Section        0  drv_anoof.o(.text)
    AnoOF_DataAnl                            0x08003da9   Thumb Code   402  drv_anoof.o(.text)
    .text                                    0x08004070   Section        0  drv_ubloxgps.o(.text)
    .text                                    0x08004418   Section        0  stm32f4xx_it.o(.text)
    .text                                    0x08004494   Section        0  drv_sys.o(.text)
    .text                                    0x0800459c   Section        0  drv_adc.o(.text)
    initAdcDMA                               0x0800459d   Thumb Code   108  drv_adc.o(.text)
    .text                                    0x08004730   Section        0  drv_led.o(.text)
    .text                                    0x0800484c   Section        0  drv_pwmout.o(.text)
    .text                                    0x08004bc8   Section        0  drv_rcin.o(.text)
    .text                                    0x08004dac   Section        0  drv_timer.o(.text)
    .text                                    0x08004e38   Section        0  drv_uart.o(.text)
    .text                                    0x08005888   Section       36  startup_stm32f4xx.o(.text)
    $v0                                      0x08005888   Number         0  startup_stm32f4xx.o(.text)
    .text                                    0x080058ac   Section        0  system_stm32f4xx.o(.text)
    SetSysClock                              0x080058ad   Thumb Code   220  system_stm32f4xx.o(.text)
    .text                                    0x08005abc   Section        0  misc.o(.text)
    .text                                    0x08005c7c   Section        0  stm32f4xx_adc.o(.text)
    .text                                    0x08006c58   Section        0  stm32f4xx_dma.o(.text)
    .text                                    0x08007fc0   Section        0  stm32f4xx_exti.o(.text)
    .text                                    0x08008294   Section        0  stm32f4xx_gpio.o(.text)
    .text                                    0x08008b5c   Section        0  stm32f4xx_rcc.o(.text)
    .text                                    0x08009858   Section        0  stm32f4xx_tim.o(.text)
    TI4_Config                               0x0800b4d1   Thumb Code    80  stm32f4xx_tim.o(.text)
    TI3_Config                               0x0800b5b5   Thumb Code    72  stm32f4xx_tim.o(.text)
    TI2_Config                               0x0800b673   Thumb Code    80  stm32f4xx_tim.o(.text)
    TI1_Config                               0x0800b749   Thumb Code    58  stm32f4xx_tim.o(.text)
    .text                                    0x0800ca44   Section        0  stm32f4xx_usart.o(.text)
    .text                                    0x0800d868   Section        0  dadd.o(.text)
    .text                                    0x0800d9b6   Section        0  dmul.o(.text)
    .text                                    0x0800da9a   Section        0  dflti.o(.text)
    .text                                    0x0800dabc   Section        0  dfixi.o(.text)
    .text                                    0x0800dafc   Section       48  cdcmple.o(.text)
    .text                                    0x0800db2c   Section       48  cdrcmple.o(.text)
    .text                                    0x0800db5c   Section        0  d2f.o(.text)
    .text                                    0x0800db94   Section        0  llshl.o(.text)
    .text                                    0x0800dbb2   Section        0  llushr.o(.text)
    .text                                    0x0800dbd2   Section        0  llsshr.o(.text)
    .text                                    0x0800dbf6   Section        0  iusefp.o(.text)
    .text                                    0x0800dbf6   Section        0  fepilogue.o(.text)
    .text                                    0x0800dc64   Section        0  depilogue.o(.text)
    .text                                    0x0800dd20   Section       36  init.o(.text)
    .text                                    0x0800dd44   Section        0  __dczerorl2.o(.text)
    i.__scatterload_copy                     0x0800dd9a   Section       14  handlers.o(i.__scatterload_copy)
    i.__scatterload_null                     0x0800dda8   Section        2  handlers.o(i.__scatterload_null)
    i.__scatterload_zeroinit                 0x0800ddaa   Section       14  handlers.o(i.__scatterload_zeroinit)
    .constdata                               0x0800ddb8   Section     1028  ano_math.o(.constdata)
    .conststring                             0x0800e1bc   Section       72  misc.o(.conststring)
    .conststring                             0x0800e204   Section       81  stm32f4xx_adc.o(.conststring)
    .conststring                             0x0800e258   Section       81  stm32f4xx_dma.o(.conststring)
    .conststring                             0x0800e2ac   Section       82  stm32f4xx_exti.o(.conststring)
    .conststring                             0x0800e300   Section       82  stm32f4xx_gpio.o(.conststring)
    .conststring                             0x0800e354   Section       81  stm32f4xx_rcc.o(.conststring)
    .conststring                             0x0800e3a8   Section       81  stm32f4xx_tim.o(.conststring)
    .conststring                             0x0800e3fc   Section       83  stm32f4xx_usart.o(.conststring)
    .data                                    0x20000000   Section      108  ano_scheduler.o(.data)
    start_error_X                            0x20000014   Data           2  ano_scheduler.o(.data)
    start_error_Y                            0x20000016   Data           2  ano_scheduler.o(.data)
    sched_tasks                              0x20000018   Data          84  ano_scheduler.o(.data)
    .data                                    0x2000006c   Section      212  user_task.o(.data)
    one_key_takeoff_f                        0x2000013a   Data           1  user_task.o(.data)
    one_key_land_f                           0x2000013b   Data           1  user_task.o(.data)
    one_key_mission_f                        0x2000013c   Data           1  user_task.o(.data)
    time_dly_cnt_ms                          0x2000013e   Data           2  user_task.o(.data)
    .data                                    0x20000140   Section        6  ano_dt_lx.o(.data)
    DT_data_cnt                              0x20000140   Data           1  ano_dt_lx.o(.data)
    repeat_cnt                               0x20000141   Data           1  ano_dt_lx.o(.data)
    _data_len                                0x20000142   Data           1  ano_dt_lx.o(.data)
    _data_cnt                                0x20000143   Data           1  ano_dt_lx.o(.data)
    rxstate                                  0x20000144   Data           1  ano_dt_lx.o(.data)
    time_dly                                 0x20000145   Data           1  ano_dt_lx.o(.data)
    .data                                    0x20000146   Section       18  ano_lx.o(.data)
    fail_safe_change_mod                     0x2000014a   Data           1  ano_lx.o(.data)
    fail_safe_return_home                    0x2000014b   Data           1  ano_lx.o(.data)
    mod_f                                    0x2000014c   Data           3  ano_lx.o(.data)
    mod_f_time_cnt                           0x20000150   Data           2  ano_lx.o(.data)
    esc_calibrated                           0x20000152   Data           1  ano_lx.o(.data)
    tmp_cnt                                  0x20000154   Data           4  ano_lx.o(.data)
    .data                                    0x20000158   Section        4  lx_fc_ext_sensor.o(.data)
    of_update_cnt                            0x20000158   Data           1  lx_fc_ext_sensor.o(.data)
    of_alt_update_cnt                        0x20000159   Data           1  lx_fc_ext_sensor.o(.data)
    dT_ms                                    0x2000015a   Data           1  lx_fc_ext_sensor.o(.data)
    of_alt_update_cnt                        0x2000015b   Data           1  lx_fc_ext_sensor.o(.data)
    .data                                    0x2000015c   Section        1  lx_fc_fun.o(.data)
    old_mode                                 0x2000015c   Data           1  lx_fc_fun.o(.data)
    .data                                    0x2000015e   Section        6  lx_fc_state.o(.data)
    time_dly_cnt_ms                          0x20000160   Data           2  lx_fc_state.o(.data)
    unlock_lock_flag                         0x20000162   Data           1  lx_fc_state.o(.data)
    cali_f                                   0x20000163   Data           1  lx_fc_state.o(.data)
    .data                                    0x20000164   Section       19  drv_bsp.o(.data)
    ch_sta                                   0x20000164   Data           1  drv_bsp.o(.data)
    sbus_time                                0x20000168   Data           8  drv_bsp.o(.data)
    cnt                                      0x20000170   Data           1  drv_bsp.o(.data)
    frame_cnt                                0x20000171   Data           1  drv_bsp.o(.data)
    cnt_tmp                                  0x20000172   Data           1  drv_bsp.o(.data)
    time_dly                                 0x20000174   Data           2  drv_bsp.o(.data)
    failsafe                                 0x20000176   Data           1  drv_bsp.o(.data)
    .data                                    0x20000177   Section        3  drv_anoof.o(.data)
    _data_len                                0x20000177   Data           1  drv_anoof.o(.data)
    _data_cnt                                0x20000178   Data           1  drv_anoof.o(.data)
    rxstate                                  0x20000179   Data           1  drv_anoof.o(.data)
    .data                                    0x2000017a   Section      182  drv_ubloxgps.o(.data)
    protocol_class                           0x20000229   Data           1  drv_ubloxgps.o(.data)
    protocol_id                              0x2000022a   Data           1  drv_ubloxgps.o(.data)
    protocol_length_t                        0x2000022b   Data           1  drv_ubloxgps.o(.data)
    protocol_length                          0x2000022c   Data           2  drv_ubloxgps.o(.data)
    state                                    0x2000022f   Data           1  drv_ubloxgps.o(.data)
    .data                                    0x20000230   Section        8  drv_sys.o(.data)
    SysRunTimeMs                             0x20000230   Data           8  drv_sys.o(.data)
    .data                                    0x20000238   Section       12  drv_led.o(.data)
    led_cnt                                  0x2000023c   Data           8  drv_led.o(.data)
    .data                                    0x20000244   Section        4  drv_rcin.o(.data)
    temp_cnt                                 0x20000244   Data           4  drv_rcin.o(.data)
    .data                                    0x20000248   Section       20  drv_uart.o(.data)
    .data                                    0x2000025c   Section       20  system_stm32f4xx.o(.data)
    .data                                    0x20000270   Section       16  stm32f4xx_rcc.o(.data)
    APBAHBPrescTable                         0x20000270   Data          16  stm32f4xx_rcc.o(.data)
    .bss                                     0x20000280   Section       20  user_task.o(.bss)
    User_send_buffer                         0x20000280   Data          20  user_task.o(.bss)
    .bss                                     0x20000294   Section     1872  ano_dt_lx.o(.bss)
    DT_RxBuffer                              0x200008e4   Data         256  ano_dt_lx.o(.bss)
    .bss                                     0x200009e4   Section       66  ano_lx.o(.bss)
    pwm                                      0x20000a16   Data          16  ano_lx.o(.bss)
    .bss                                     0x20000a26   Section       48  lx_fc_ext_sensor.o(.bss)
    .bss                                     0x20000a56   Section       11  lx_fc_state.o(.bss)
    .bss                                     0x20000a62   Section      107  drv_bsp.o(.bss)
    datatmp                                  0x20000ab4   Data          25  drv_bsp.o(.bss)
    .bss                                     0x20000ad0   Section      124  drv_anoof.o(.bss)
    _datatemp                                0x20000b0c   Data          50  drv_anoof.o(.bss)
    check_time_ms                            0x20000b40   Data          12  drv_anoof.o(.bss)
    .bss                                     0x20000b4c   Section      100  drv_ubloxgps.o(.bss)
    .bss                                     0x20000bb0   Section      298  drv_my_openmv.o(.bss)
    _datatemp                                0x20000ca8   Data          50  drv_my_openmv.o(.bss)
    .bss                                     0x20000cda   Section      100  drv_adc.o(.bss)
    .bss                                     0x20000d3e   Section     1780  drv_uart.o(.bss)
    STACK                                    0x20001438   Section     2048  startup_stm32f4xx.o(STACK)

    Global Symbols

    Symbol Name                              Value     Ov Type        Size  Object(Section)

    BuildAttributes$$THM_ISAv4$E$P$D$K$B$S$7EM$VFPi3$EXTD16$VFPS$VFMA$PE$A:L22UL41UL21$X:L11$S22US41US21$IEEE1$IW$USESV6$~STKCKD$USESV7$~SHL$OTIME$ROPI$EBA8$MICROLIB$REQ8$PRES8$EABIv2 0x00000000   Number         0  anon$$obj.o ABSOLUTE
    __ARM_use_no_argv                        0x00000000   Number         0  main.o ABSOLUTE
    __cpp_initialize__aeabi_                  - Undefined Weak Reference
    __cxa_finalize                            - Undefined Weak Reference
    _clock_init                               - Undefined Weak Reference
    _microlib_exit                            - Undefined Weak Reference
    __Vectors_Size                           0x00000188   Number         0  startup_stm32f4xx.o ABSOLUTE
    __Vectors                                0x08000000   Data           4  startup_stm32f4xx.o(RESET)
    __Vectors_End                            0x08000188   Data           0  startup_stm32f4xx.o(RESET)
    __main                                   0x08000189   Thumb Code     0  entry.o(.ARM.Collect$$$$00000000)
    _main_stk                                0x08000189   Thumb Code     0  entry2.o(.ARM.Collect$$$$00000001)
    _main_scatterload                        0x0800018d   Thumb Code     0  entry5.o(.ARM.Collect$$$$00000004)
    __main_after_scatterload                 0x08000191   Thumb Code     0  entry5.o(.ARM.Collect$$$$00000004)
    _main_clock                              0x08000191   Thumb Code     0  entry7b.o(.ARM.Collect$$$$00000008)
    _main_cpp_init                           0x08000191   Thumb Code     0  entry8b.o(.ARM.Collect$$$$0000000A)
    _main_init                               0x08000191   Thumb Code     0  entry9a.o(.ARM.Collect$$$$0000000B)
    __rt_final_cpp                           0x08000199   Thumb Code     0  entry10a.o(.ARM.Collect$$$$0000000D)
    __rt_final_exit                          0x08000199   Thumb Code     0  entry11a.o(.ARM.Collect$$$$0000000F)
    assert_failed                            0x0800019d   Thumb Code     4  main.o(.text)
    main                                     0x080001a1   Thumb Code    16  main.o(.text)
    Scheduler_Setup                          0x080002df   Thumb Code    76  ano_scheduler.o(.text)
    Scheduler_Run                            0x0800032b   Thumb Code    76  ano_scheduler.o(.text)
    frame_send_float                         0x080003bd   Thumb Code   154  user_task.o(.text)
    frame_send_16                            0x08000457   Thumb Code   136  user_task.o(.text)
    offset_error_xy                          0x080004df   Thumb Code   326  user_task.o(.text)
    frame_send_8                             0x08000625   Thumb Code   124  user_task.o(.text)
    Angle_cal                                0x080006a1   Thumb Code   360  user_task.o(.text)
    Quadrant_anl                             0x08000809   Thumb Code   466  user_task.o(.text)
    UserTask_OneKeyCmd                       0x080009db   Thumb Code  3266  user_task.o(.text)
    frame_send_32                            0x0800169d   Thumb Code   162  user_task.o(.text)
    Userdata_send_OPENMV                     0x0800173f   Thumb Code   852  user_task.o(.text)
    ANO_DT_Init                              0x08001a99   Thumb Code   166  ano_dt_lx.o(.text)
    CK_Back                                  0x08001b4f   Thumb Code    12  ano_dt_lx.o(.text)
    PAR_Back                                 0x08001b5b   Thumb Code    14  ano_dt_lx.o(.text)
    ANO_DT_LX_Data_Receive_Prepare           0x08001e0f   Thumb Code   324  ano_dt_lx.o(.text)
    CMD_Send                                 0x08002221   Thumb Code    22  ano_dt_lx.o(.text)
    ANO_LX_Data_Exchange_Task                0x08002237   Thumb Code    68  ano_dt_lx.o(.text)
    ANO_LX_Task                              0x08002701   Thumb Code   242  ano_lx.o(.text)
    LX_FC_EXT_Sensor_Task                    0x08002801   Thumb Code    78  lx_fc_ext_sensor.o(.text)
    FC_Unlock                                0x080028e5   Thumb Code    56  lx_fc_fun.o(.text)
    FC_Lock                                  0x0800291d   Thumb Code    56  lx_fc_fun.o(.text)
    LX_Change_Mode                           0x08002955   Thumb Code    80  lx_fc_fun.o(.text)
    LEFT_                                    0x080029a5   Thumb Code    82  lx_fc_fun.o(.text)
    RIGHT_                                   0x080029f7   Thumb Code    82  lx_fc_fun.o(.text)
    Rotate                                   0x08002a49   Thumb Code    32  lx_fc_fun.o(.text)
    UP_                                      0x08002a69   Thumb Code    82  lx_fc_fun.o(.text)
    DOWN_                                    0x08002abb   Thumb Code    80  lx_fc_fun.o(.text)
    FC_stand                                 0x08002b0b   Thumb Code    50  lx_fc_fun.o(.text)
    OneKey_Return_Home                       0x08002b3d   Thumb Code    50  lx_fc_fun.o(.text)
    OneKey_Takeoff                           0x08002b6f   Thumb Code    66  lx_fc_fun.o(.text)
    OneKey_Land                              0x08002bb1   Thumb Code    50  lx_fc_fun.o(.text)
    Horizontal_Move                          0x08002be3   Thumb Code    98  lx_fc_fun.o(.text)
    Horizontal_Calibrate                     0x08002c45   Thumb Code    50  lx_fc_fun.o(.text)
    Mag_Calibrate                            0x08002c77   Thumb Code    50  lx_fc_fun.o(.text)
    ACC_Calibrate                            0x08002ca9   Thumb Code    64  lx_fc_fun.o(.text)
    GYR_Calibrate                            0x08002ce9   Thumb Code    50  lx_fc_fun.o(.text)
    LX_Cali_Trig_Check                       0x08002ed7   Thumb Code   150  lx_fc_state.o(.text)
    LX_FC_State_Task                         0x08002f6d   Thumb Code    26  lx_fc_state.o(.text)
    DrvRcInputInit                           0x08002fa5   Thumb Code    20  drv_bsp.o(.text)
    All_Init                                 0x08002fb9   Thumb Code    94  drv_bsp.o(.text)
    DrvPpmGetOneCh                           0x08003017   Thumb Code    92  drv_bsp.o(.text)
    DrvSbusGetOneByte                        0x08003073   Thumb Code   560  drv_bsp.o(.text)
    DrvRcInputTask                           0x0800334b   Thumb Code   284  drv_bsp.o(.text)
    my_abs                                   0x08003479   Thumb Code    26  ano_math.o(.text)
    fast_atan2                               0x08003493   Thumb Code   350  ano_math.o(.text)
    my_atan                                  0x080035f1   Thumb Code    24  ano_math.o(.text)
    my_sqrt_reciprocal                       0x08003609   Thumb Code    76  ano_math.o(.text)
    my_sqrt                                  0x08003655   Thumb Code    20  ano_math.o(.text)
    mx_sin                                   0x08003669   Thumb Code   292  ano_math.o(.text)
    my_sin                                   0x0800378d   Thumb Code   108  ano_math.o(.text)
    my_cos                                   0x080037f9   Thumb Code   136  ano_math.o(.text)
    my_deadzone                              0x08003881   Thumb Code   152  ano_math.o(.text)
    my_deadzone_2                            0x08003919   Thumb Code    48  ano_math.o(.text)
    my_HPF                                   0x08003949   Thumb Code   346  ano_math.o(.text)
    To_180_degrees_db                        0x08003aa3   Thumb Code   108  ano_math.o(.text)
    length_limit                             0x08003b0f   Thumb Code   140  ano_math.o(.text)
    fifo                                     0x08003b9b   Thumb Code    42  ano_math.o(.text)
    rot_vec_2                                0x08003bc5   Thumb Code    84  ano_math.o(.text)
    vec_2_cross_product                      0x08003c19   Thumb Code    26  ano_math.o(.text)
    vec_2_dot_product                        0x08003c33   Thumb Code    26  ano_math.o(.text)
    vec_3_cross_product_err_sinx             0x08003c4d   Thumb Code    86  ano_math.o(.text)
    vec_3_dot_product                        0x08003ca3   Thumb Code    38  ano_math.o(.text)
    AnoOF_Check_State                        0x08003cf5   Thumb Code   180  drv_anoof.o(.text)
    AnoOF_GetOneByte                         0x08003f3b   Thumb Code   252  drv_anoof.o(.text)
    GPS_Data_Prepare_Task                    0x08004071   Thumb Code   306  drv_ubloxgps.o(.text)
    GPS_Rate_H                               0x080041a3   Thumb Code    12  drv_ubloxgps.o(.text)
    GPS_Rate_L                               0x080041af   Thumb Code    12  drv_ubloxgps.o(.text)
    Init_GPS                                 0x080041bb   Thumb Code   196  drv_ubloxgps.o(.text)
    UBLOX_M8_GPS_Data_Receive                0x0800427f   Thumb Code   328  drv_ubloxgps.o(.text)
    NMI_Handler                              0x08004419   Thumb Code     2  stm32f4xx_it.o(.text)
    MemManage_Handler                        0x0800441b   Thumb Code     4  stm32f4xx_it.o(.text)
    BusFault_Handler                         0x0800441f   Thumb Code     4  stm32f4xx_it.o(.text)
    UsageFault_Handler                       0x08004423   Thumb Code     4  stm32f4xx_it.o(.text)
    SVC_Handler                              0x08004427   Thumb Code     2  stm32f4xx_it.o(.text)
    DebugMon_Handler                         0x08004429   Thumb Code     2  stm32f4xx_it.o(.text)
    EXTI9_5_IRQHandler                       0x0800442b   Thumb Code    18  stm32f4xx_it.o(.text)
    TIM3_IRQHandler                          0x0800443d   Thumb Code     8  stm32f4xx_it.o(.text)
    TIM4_IRQHandler                          0x08004445   Thumb Code     2  stm32f4xx_it.o(.text)
    TIM7_IRQHandler                          0x08004447   Thumb Code    26  stm32f4xx_it.o(.text)
    USART1_IRQHandler                        0x08004461   Thumb Code     8  stm32f4xx_it.o(.text)
    USART2_IRQHandler                        0x08004469   Thumb Code     8  stm32f4xx_it.o(.text)
    USART3_IRQHandler                        0x08004471   Thumb Code     8  stm32f4xx_it.o(.text)
    UART4_IRQHandler                         0x08004479   Thumb Code     8  stm32f4xx_it.o(.text)
    UART5_IRQHandler                         0x08004481   Thumb Code     8  stm32f4xx_it.o(.text)
    USART6_IRQHandler                        0x08004489   Thumb Code     8  stm32f4xx_it.o(.text)
    SysTick_Init                             0x08004495   Thumb Code   100  drv_sys.o(.text)
    SysTick_Handler                          0x080044f9   Thumb Code    20  drv_sys.o(.text)
    GetSysRunTimeMs                          0x0800450d   Thumb Code     6  drv_sys.o(.text)
    GetSysRunTimeUs                          0x08004513   Thumb Code    62  drv_sys.o(.text)
    MyDelayUs                                0x08004551   Thumb Code    24  drv_sys.o(.text)
    MyDelayMs                                0x08004569   Thumb Code    24  drv_sys.o(.text)
    DrvSysInit                               0x08004581   Thumb Code    16  drv_sys.o(.text)
    DrvAdcInit                               0x08004609   Thumb Code   168  drv_adc.o(.text)
    Drv_AdcGetBatVot                         0x080046b1   Thumb Code    92  drv_adc.o(.text)
    DvrLedInit                               0x08004731   Thumb Code   112  drv_led.o(.text)
    LED_On_Off                               0x080047a1   Thumb Code    82  drv_led.o(.text)
    LED_1ms_DRV                              0x080047f3   Thumb Code    78  drv_led.o(.text)
    DrvPwmOutInit                            0x0800484d   Thumb Code   742  drv_pwmout.o(.text)
    DrvMotorPWMSet                           0x08004b33   Thumb Code   112  drv_pwmout.o(.text)
    DrvRcPpmInit                             0x08004bc9   Thumb Code   176  drv_rcin.o(.text)
    PPM_IRQH                                 0x08004c79   Thumb Code    82  drv_rcin.o(.text)
    DrvRcSbusInit                            0x08004ccb   Thumb Code   166  drv_rcin.o(.text)
    Sbus_IRQH                                0x08004d71   Thumb Code    40  drv_rcin.o(.text)
    TIM_CONF                                 0x08004dad   Thumb Code    80  drv_timer.o(.text)
    TIM_NVIC                                 0x08004dfd   Thumb Code    32  drv_timer.o(.text)
    DrvTimerFcInit                           0x08004e1d   Thumb Code    24  drv_timer.o(.text)
    NoUse                                    0x08004e39   Thumb Code     2  drv_uart.o(.text)
    DrvUart1Init                             0x08004e3b   Thumb Code   246  drv_uart.o(.text)
    DrvUart1SendBuf                          0x08004f31   Thumb Code    60  drv_uart.o(.text)
    drvU1GetByte                             0x08004f6d   Thumb Code    32  drv_uart.o(.text)
    drvU1DataCheck                           0x08004f8d   Thumb Code    52  drv_uart.o(.text)
    Usart1_IRQ                               0x08004fc1   Thumb Code   110  drv_uart.o(.text)
    DrvUart2Init                             0x0800502f   Thumb Code   234  drv_uart.o(.text)
    DrvUart2SendBuf                          0x08005119   Thumb Code    62  drv_uart.o(.text)
    drvU2GetByte                             0x08005157   Thumb Code    32  drv_uart.o(.text)
    drvU2DataCheck                           0x08005177   Thumb Code    52  drv_uart.o(.text)
    Usart2_IRQ                               0x080051ab   Thumb Code   120  drv_uart.o(.text)
    DrvUart3Init                             0x08005223   Thumb Code   312  drv_uart.o(.text)
    DrvUart3SendBuf                          0x0800535b   Thumb Code    62  drv_uart.o(.text)
    drvU3GetByte                             0x08005399   Thumb Code    32  drv_uart.o(.text)
    drvU3DataCheck                           0x080053b9   Thumb Code    52  drv_uart.o(.text)
    Usart3_IRQ                               0x080053ed   Thumb Code   120  drv_uart.o(.text)
    DrvUart4Init                             0x08005465   Thumb Code   200  drv_uart.o(.text)
    DrvUart4SendBuf                          0x0800552d   Thumb Code    62  drv_uart.o(.text)
    drvU4GetByte                             0x0800556b   Thumb Code    32  drv_uart.o(.text)
    drvU4DataCheck                           0x0800558b   Thumb Code    52  drv_uart.o(.text)
    Uart4_IRQ                                0x080055bf   Thumb Code   120  drv_uart.o(.text)
    DrvUart5Init                             0x08005637   Thumb Code   288  drv_uart.o(.text)
    DrvUart5SendBuf                          0x08005757   Thumb Code    60  drv_uart.o(.text)
    drvU5GetByte                             0x08005793   Thumb Code    32  drv_uart.o(.text)
    drvU5DataCheck                           0x080057b3   Thumb Code    52  drv_uart.o(.text)
    Uart5_IRQ                                0x080057e7   Thumb Code   110  drv_uart.o(.text)
    DrvUartDataCheck                         0x08005855   Thumb Code    24  drv_uart.o(.text)
    Reset_Handler                            0x08005889   Thumb Code     8  startup_stm32f4xx.o(.text)
    HardFault_Handler                        0x08005893   Thumb Code     2  startup_stm32f4xx.o(.text)
    PendSV_Handler                           0x0800589f   Thumb Code     2  startup_stm32f4xx.o(.text)
    ADC_IRQHandler                           0x080058a3   Thumb Code     0  startup_stm32f4xx.o(.text)
    CAN1_RX0_IRQHandler                      0x080058a3   Thumb Code     0  startup_stm32f4xx.o(.text)
    CAN1_RX1_IRQHandler                      0x080058a3   Thumb Code     0  startup_stm32f4xx.o(.text)
    CAN1_SCE_IRQHandler                      0x080058a3   Thumb Code     0  startup_stm32f4xx.o(.text)
    CAN1_TX_IRQHandler                       0x080058a3   Thumb Code     0  startup_stm32f4xx.o(.text)
    CAN2_RX0_IRQHandler                      0x080058a3   Thumb Code     0  startup_stm32f4xx.o(.text)
    CAN2_RX1_IRQHandler                      0x080058a3   Thumb Code     0  startup_stm32f4xx.o(.text)
    CAN2_SCE_IRQHandler                      0x080058a3   Thumb Code     0  startup_stm32f4xx.o(.text)
    CAN2_TX_IRQHandler                       0x080058a3   Thumb Code     0  startup_stm32f4xx.o(.text)
    CRYP_IRQHandler                          0x080058a3   Thumb Code     0  startup_stm32f4xx.o(.text)
    DCMI_IRQHandler                          0x080058a3   Thumb Code     0  startup_stm32f4xx.o(.text)
    DMA1_Stream0_IRQHandler                  0x080058a3   Thumb Code     0  startup_stm32f4xx.o(.text)
    DMA1_Stream1_IRQHandler                  0x080058a3   Thumb Code     0  startup_stm32f4xx.o(.text)
    DMA1_Stream2_IRQHandler                  0x080058a3   Thumb Code     0  startup_stm32f4xx.o(.text)
    DMA1_Stream3_IRQHandler                  0x080058a3   Thumb Code     0  startup_stm32f4xx.o(.text)
    DMA1_Stream4_IRQHandler                  0x080058a3   Thumb Code     0  startup_stm32f4xx.o(.text)
    DMA1_Stream5_IRQHandler                  0x080058a3   Thumb Code     0  startup_stm32f4xx.o(.text)
    DMA1_Stream6_IRQHandler                  0x080058a3   Thumb Code     0  startup_stm32f4xx.o(.text)
    DMA1_Stream7_IRQHandler                  0x080058a3   Thumb Code     0  startup_stm32f4xx.o(.text)
    DMA2_Stream0_IRQHandler                  0x080058a3   Thumb Code     0  startup_stm32f4xx.o(.text)
    DMA2_Stream1_IRQHandler                  0x080058a3   Thumb Code     0  startup_stm32f4xx.o(.text)
    DMA2_Stream2_IRQHandler                  0x080058a3   Thumb Code     0  startup_stm32f4xx.o(.text)
    DMA2_Stream3_IRQHandler                  0x080058a3   Thumb Code     0  startup_stm32f4xx.o(.text)
    DMA2_Stream4_IRQHandler                  0x080058a3   Thumb Code     0  startup_stm32f4xx.o(.text)
    DMA2_Stream5_IRQHandler                  0x080058a3   Thumb Code     0  startup_stm32f4xx.o(.text)
    DMA2_Stream6_IRQHandler                  0x080058a3   Thumb Code     0  startup_stm32f4xx.o(.text)
    DMA2_Stream7_IRQHandler                  0x080058a3   Thumb Code     0  startup_stm32f4xx.o(.text)
    ETH_IRQHandler                           0x080058a3   Thumb Code     0  startup_stm32f4xx.o(.text)
    ETH_WKUP_IRQHandler                      0x080058a3   Thumb Code     0  startup_stm32f4xx.o(.text)
    EXTI0_IRQHandler                         0x080058a3   Thumb Code     0  startup_stm32f4xx.o(.text)
    EXTI15_10_IRQHandler                     0x080058a3   Thumb Code     0  startup_stm32f4xx.o(.text)
    EXTI1_IRQHandler                         0x080058a3   Thumb Code     0  startup_stm32f4xx.o(.text)
    EXTI2_IRQHandler                         0x080058a3   Thumb Code     0  startup_stm32f4xx.o(.text)
    EXTI3_IRQHandler                         0x080058a3   Thumb Code     0  startup_stm32f4xx.o(.text)
    EXTI4_IRQHandler                         0x080058a3   Thumb Code     0  startup_stm32f4xx.o(.text)
    FLASH_IRQHandler                         0x080058a3   Thumb Code     0  startup_stm32f4xx.o(.text)
    FPU_IRQHandler                           0x080058a3   Thumb Code     0  startup_stm32f4xx.o(.text)
    FSMC_IRQHandler                          0x080058a3   Thumb Code     0  startup_stm32f4xx.o(.text)
    HASH_RNG_IRQHandler                      0x080058a3   Thumb Code     0  startup_stm32f4xx.o(.text)
    I2C1_ER_IRQHandler                       0x080058a3   Thumb Code     0  startup_stm32f4xx.o(.text)
    I2C1_EV_IRQHandler                       0x080058a3   Thumb Code     0  startup_stm32f4xx.o(.text)
    I2C2_ER_IRQHandler                       0x080058a3   Thumb Code     0  startup_stm32f4xx.o(.text)
    I2C2_EV_IRQHandler                       0x080058a3   Thumb Code     0  startup_stm32f4xx.o(.text)
    I2C3_ER_IRQHandler                       0x080058a3   Thumb Code     0  startup_stm32f4xx.o(.text)
    I2C3_EV_IRQHandler                       0x080058a3   Thumb Code     0  startup_stm32f4xx.o(.text)
    OTG_FS_IRQHandler                        0x080058a3   Thumb Code     0  startup_stm32f4xx.o(.text)
    OTG_FS_WKUP_IRQHandler                   0x080058a3   Thumb Code     0  startup_stm32f4xx.o(.text)
    OTG_HS_EP1_IN_IRQHandler                 0x080058a3   Thumb Code     0  startup_stm32f4xx.o(.text)
    OTG_HS_EP1_OUT_IRQHandler                0x080058a3   Thumb Code     0  startup_stm32f4xx.o(.text)
    OTG_HS_IRQHandler                        0x080058a3   Thumb Code     0  startup_stm32f4xx.o(.text)
    OTG_HS_WKUP_IRQHandler                   0x080058a3   Thumb Code     0  startup_stm32f4xx.o(.text)
    PVD_IRQHandler                           0x080058a3   Thumb Code     0  startup_stm32f4xx.o(.text)
    RCC_IRQHandler                           0x080058a3   Thumb Code     0  startup_stm32f4xx.o(.text)
    RTC_Alarm_IRQHandler                     0x080058a3   Thumb Code     0  startup_stm32f4xx.o(.text)
    RTC_WKUP_IRQHandler                      0x080058a3   Thumb Code     0  startup_stm32f4xx.o(.text)
    SDIO_IRQHandler                          0x080058a3   Thumb Code     0  startup_stm32f4xx.o(.text)
    SPI1_IRQHandler                          0x080058a3   Thumb Code     0  startup_stm32f4xx.o(.text)
    SPI2_IRQHandler                          0x080058a3   Thumb Code     0  startup_stm32f4xx.o(.text)
    SPI3_IRQHandler                          0x080058a3   Thumb Code     0  startup_stm32f4xx.o(.text)
    TAMP_STAMP_IRQHandler                    0x080058a3   Thumb Code     0  startup_stm32f4xx.o(.text)
    TIM1_BRK_TIM9_IRQHandler                 0x080058a3   Thumb Code     0  startup_stm32f4xx.o(.text)
    TIM1_CC_IRQHandler                       0x080058a3   Thumb Code     0  startup_stm32f4xx.o(.text)
    TIM1_TRG_COM_TIM11_IRQHandler            0x080058a3   Thumb Code     0  startup_stm32f4xx.o(.text)
    TIM1_UP_TIM10_IRQHandler                 0x080058a3   Thumb Code     0  startup_stm32f4xx.o(.text)
    TIM2_IRQHandler                          0x080058a3   Thumb Code     0  startup_stm32f4xx.o(.text)
    TIM5_IRQHandler                          0x080058a3   Thumb Code     0  startup_stm32f4xx.o(.text)
    TIM6_DAC_IRQHandler                      0x080058a3   Thumb Code     0  startup_stm32f4xx.o(.text)
    TIM8_BRK_TIM12_IRQHandler                0x080058a3   Thumb Code     0  startup_stm32f4xx.o(.text)
    TIM8_CC_IRQHandler                       0x080058a3   Thumb Code     0  startup_stm32f4xx.o(.text)
    TIM8_TRG_COM_TIM14_IRQHandler            0x080058a3   Thumb Code     0  startup_stm32f4xx.o(.text)
    TIM8_UP_TIM13_IRQHandler                 0x080058a3   Thumb Code     0  startup_stm32f4xx.o(.text)
    WWDG_IRQHandler                          0x080058a3   Thumb Code     0  startup_stm32f4xx.o(.text)
    SystemInit                               0x08005989   Thumb Code    88  system_stm32f4xx.o(.text)
    SystemCoreClockUpdate                    0x080059e1   Thumb Code   174  system_stm32f4xx.o(.text)
    NVIC_PriorityGroupConfig                 0x08005abd   Thumb Code    54  misc.o(.text)
    NVIC_Init                                0x08005af3   Thumb Code   164  misc.o(.text)
    NVIC_SetVectorTable                      0x08005b97   Thumb Code    60  misc.o(.text)
    NVIC_SystemLPConfig                      0x08005bd3   Thumb Code    78  misc.o(.text)
    SysTick_CLKSourceConfig                  0x08005c21   Thumb Code    62  misc.o(.text)
    ADC_DeInit                               0x08005c7d   Thumb Code    22  stm32f4xx_adc.o(.text)
    ADC_Init                                 0x08005c93   Thumb Code   402  stm32f4xx_adc.o(.text)
    ADC_StructInit                           0x08005e25   Thumb Code    20  stm32f4xx_adc.o(.text)
    ADC_CommonInit                           0x08005e39   Thumb Code   342  stm32f4xx_adc.o(.text)
    ADC_CommonStructInit                     0x08005f8f   Thumb Code    12  stm32f4xx_adc.o(.text)
    ADC_Cmd                                  0x08005f9b   Thumb Code    76  stm32f4xx_adc.o(.text)
    ADC_AnalogWatchdogCmd                    0x08005fe7   Thumb Code   102  stm32f4xx_adc.o(.text)
    ADC_AnalogWatchdogThresholdsConfig       0x0800604d   Thumb Code   126  stm32f4xx_adc.o(.text)
    ADC_AnalogWatchdogSingleChannelConfig    0x080060cb   Thumb Code   136  stm32f4xx_adc.o(.text)
    ADC_TempSensorVrefintCmd                 0x08006153   Thumb Code    56  stm32f4xx_adc.o(.text)
    ADC_VBATCmd                              0x0800618b   Thumb Code    56  stm32f4xx_adc.o(.text)
    ADC_RegularChannelConfig                 0x080061c3   Thumb Code   408  stm32f4xx_adc.o(.text)
    ADC_SoftwareStartConv                    0x0800635b   Thumb Code    44  stm32f4xx_adc.o(.text)
    ADC_GetSoftwareStartConvStatus           0x08006387   Thumb Code    54  stm32f4xx_adc.o(.text)
    ADC_EOCOnEachRegularChannelCmd           0x080063bd   Thumb Code    76  stm32f4xx_adc.o(.text)
    ADC_ContinuousModeCmd                    0x08006409   Thumb Code    76  stm32f4xx_adc.o(.text)
    ADC_DiscModeChannelCountConfig           0x08006455   Thumb Code   100  stm32f4xx_adc.o(.text)
    ADC_DiscModeCmd                          0x080064b9   Thumb Code    76  stm32f4xx_adc.o(.text)
    ADC_GetConversionValue                   0x08006505   Thumb Code    40  stm32f4xx_adc.o(.text)
    ADC_GetMultiModeConversionValue          0x0800652d   Thumb Code     6  stm32f4xx_adc.o(.text)
    ADC_DMACmd                               0x08006533   Thumb Code    76  stm32f4xx_adc.o(.text)
    ADC_DMARequestAfterLastTransferCmd       0x0800657f   Thumb Code    76  stm32f4xx_adc.o(.text)
    ADC_MultiModeDMARequestAfterLastTransferCmd 0x080065cb   Thumb Code    60  stm32f4xx_adc.o(.text)
    ADC_InjectedChannelConfig                0x08006607   Thumb Code   332  stm32f4xx_adc.o(.text)
    ADC_InjectedSequencerLengthConfig        0x08006753   Thumb Code    80  stm32f4xx_adc.o(.text)
    ADC_SetInjectedOffset                    0x080067a3   Thumb Code   102  stm32f4xx_adc.o(.text)
    ADC_ExternalTrigInjectedConvConfig       0x08006809   Thumb Code   176  stm32f4xx_adc.o(.text)
    ADC_ExternalTrigInjectedConvEdgeConfig   0x080068b9   Thumb Code    82  stm32f4xx_adc.o(.text)
    ADC_SoftwareStartInjectedConv            0x0800690b   Thumb Code    44  stm32f4xx_adc.o(.text)
    ADC_GetSoftwareStartInjectedConvCmdStatus 0x08006937   Thumb Code    54  stm32f4xx_adc.o(.text)
    ADC_AutoInjectedConvCmd                  0x0800696d   Thumb Code    76  stm32f4xx_adc.o(.text)
    ADC_InjectedDiscModeCmd                  0x080069b9   Thumb Code    76  stm32f4xx_adc.o(.text)
    ADC_GetInjectedConversionValue           0x08006a05   Thumb Code    88  stm32f4xx_adc.o(.text)
    ADC_ITConfig                             0x08006a5d   Thumb Code   130  stm32f4xx_adc.o(.text)
    ADC_GetFlagStatus                        0x08006adf   Thumb Code    90  stm32f4xx_adc.o(.text)
    ADC_ClearFlag                            0x08006b39   Thumb Code    62  stm32f4xx_adc.o(.text)
    ADC_GetITStatus                          0x08006b77   Thumb Code   122  stm32f4xx_adc.o(.text)
    ADC_ClearITPendingBit                    0x08006bf1   Thumb Code    88  stm32f4xx_adc.o(.text)
    DMA_DeInit                               0x08006c59   Thumb Code   462  stm32f4xx_dma.o(.text)
    DMA_Init                                 0x08006e27   Thumb Code   684  stm32f4xx_dma.o(.text)
    DMA_StructInit                           0x080070d3   Thumb Code    34  stm32f4xx_dma.o(.text)
    DMA_Cmd                                  0x080070f5   Thumb Code   182  stm32f4xx_dma.o(.text)
    DMA_PeriphIncOffsetSizeConfig            0x080071ab   Thumb Code   184  stm32f4xx_dma.o(.text)
    DMA_FlowControllerConfig                 0x08007263   Thumb Code   182  stm32f4xx_dma.o(.text)
    DMA_SetCurrDataCounter                   0x08007319   Thumb Code   146  stm32f4xx_dma.o(.text)
    DMA_GetCurrDataCounter                   0x080073ab   Thumb Code   146  stm32f4xx_dma.o(.text)
    DMA_DoubleBufferModeConfig               0x0800743d   Thumb Code   204  stm32f4xx_dma.o(.text)
    DMA_DoubleBufferModeCmd                  0x08007509   Thumb Code   182  stm32f4xx_dma.o(.text)
    DMA_MemoryTargetConfig                   0x080075bf   Thumb Code   174  stm32f4xx_dma.o(.text)
    DMA_GetCurrentMemoryTarget               0x0800766d   Thumb Code   160  stm32f4xx_dma.o(.text)
    DMA_GetCmdStatus                         0x0800770d   Thumb Code   160  stm32f4xx_dma.o(.text)
    DMA_GetFIFOStatus                        0x080077ad   Thumb Code   152  stm32f4xx_dma.o(.text)
    DMA_GetFlagStatus                        0x08007845   Thumb Code   486  stm32f4xx_dma.o(.text)
    DMA_ClearFlag                            0x08007a2b   Thumb Code   216  stm32f4xx_dma.o(.text)
    DMA_ITConfig                             0x08007b03   Thumb Code   238  stm32f4xx_dma.o(.text)
    DMA_GetITStatus                          0x08007bf1   Thumb Code   590  stm32f4xx_dma.o(.text)
    DMA_ClearITPendingBit                    0x08007e3f   Thumb Code   216  stm32f4xx_dma.o(.text)
    EXTI_DeInit                              0x08007fc1   Thumb Code    28  stm32f4xx_exti.o(.text)
    EXTI_Init                                0x08007fdd   Thumb Code   236  stm32f4xx_exti.o(.text)
    EXTI_StructInit                          0x080080c9   Thumb Code    16  stm32f4xx_exti.o(.text)
    EXTI_GenerateSWInterrupt                 0x080080d9   Thumb Code    38  stm32f4xx_exti.o(.text)
    EXTI_GetFlagStatus                       0x080080ff   Thumb Code   158  stm32f4xx_exti.o(.text)
    EXTI_ClearFlag                           0x0800819d   Thumb Code    30  stm32f4xx_exti.o(.text)
    EXTI_GetITStatus                         0x080081bb   Thumb Code   172  stm32f4xx_exti.o(.text)
    EXTI_ClearITPendingBit                   0x08008267   Thumb Code    32  stm32f4xx_exti.o(.text)
    GPIO_DeInit                              0x08008295   Thumb Code   284  stm32f4xx_gpio.o(.text)
    GPIO_Init                                0x080083b1   Thumb Code   342  stm32f4xx_gpio.o(.text)
    GPIO_StructInit                          0x08008507   Thumb Code    18  stm32f4xx_gpio.o(.text)
    GPIO_PinLockConfig                       0x08008519   Thumb Code   122  stm32f4xx_gpio.o(.text)
    GPIO_ReadInputDataBit                    0x08008593   Thumb Code   182  stm32f4xx_gpio.o(.text)
    GPIO_ReadInputData                       0x08008649   Thumb Code   116  stm32f4xx_gpio.o(.text)
    GPIO_ReadOutputDataBit                   0x080086bd   Thumb Code   182  stm32f4xx_gpio.o(.text)
    GPIO_ReadOutputData                      0x08008773   Thumb Code    76  stm32f4xx_gpio.o(.text)
    GPIO_SetBits                             0x080087bf   Thumb Code    94  stm32f4xx_gpio.o(.text)
    GPIO_ResetBits                           0x0800881d   Thumb Code    94  stm32f4xx_gpio.o(.text)
    GPIO_WriteBit                            0x0800887b   Thumb Code   194  stm32f4xx_gpio.o(.text)
    GPIO_Write                               0x0800893d   Thumb Code    76  stm32f4xx_gpio.o(.text)
    GPIO_ToggleBits                          0x08008989   Thumb Code    80  stm32f4xx_gpio.o(.text)
    GPIO_PinAFConfig                         0x080089d9   Thumb Code   382  stm32f4xx_gpio.o(.text)
    RCC_DeInit                               0x08008b5d   Thumb Code    60  stm32f4xx_rcc.o(.text)
    RCC_HSEConfig                            0x08008b99   Thumb Code    38  stm32f4xx_rcc.o(.text)
    RCC_GetFlagStatus                        0x08008bbf   Thumb Code   130  stm32f4xx_rcc.o(.text)
    RCC_WaitForHSEStartUp                    0x08008c41   Thumb Code    56  stm32f4xx_rcc.o(.text)
    RCC_AdjustHSICalibrationValue            0x08008c79   Thumb Code    38  stm32f4xx_rcc.o(.text)
    RCC_HSICmd                               0x08008c9f   Thumb Code    28  stm32f4xx_rcc.o(.text)
    RCC_LSEConfig                            0x08008cbb   Thumb Code    72  stm32f4xx_rcc.o(.text)
    RCC_LSICmd                               0x08008d03   Thumb Code    28  stm32f4xx_rcc.o(.text)
    RCC_PLLConfig                            0x08008d1f   Thumb Code   156  stm32f4xx_rcc.o(.text)
    RCC_PLLCmd                               0x08008dbb   Thumb Code    28  stm32f4xx_rcc.o(.text)
    RCC_PLLI2SConfig                         0x08008dd7   Thumb Code    62  stm32f4xx_rcc.o(.text)
    RCC_PLLI2SCmd                            0x08008e15   Thumb Code    28  stm32f4xx_rcc.o(.text)
    RCC_ClockSecuritySystemCmd               0x08008e31   Thumb Code    28  stm32f4xx_rcc.o(.text)
    RCC_MCO1Config                           0x08008e4d   Thumb Code   102  stm32f4xx_rcc.o(.text)
    RCC_MCO2Config                           0x08008eb3   Thumb Code   102  stm32f4xx_rcc.o(.text)
    RCC_SYSCLKConfig                         0x08008f19   Thumb Code    68  stm32f4xx_rcc.o(.text)
    RCC_GetSYSCLKSource                      0x08008f5d   Thumb Code    10  stm32f4xx_rcc.o(.text)
    RCC_HCLKConfig                           0x08008f67   Thumb Code    66  stm32f4xx_rcc.o(.text)
    RCC_PCLK1Config                          0x08008fa9   Thumb Code    58  stm32f4xx_rcc.o(.text)
    RCC_PCLK2Config                          0x08008fe3   Thumb Code    60  stm32f4xx_rcc.o(.text)
    RCC_GetClocksFreq                        0x0800901f   Thumb Code   214  stm32f4xx_rcc.o(.text)
    RCC_RTCCLKConfig                         0x080090f5   Thumb Code   260  stm32f4xx_rcc.o(.text)
    RCC_RTCCLKCmd                            0x080091f9   Thumb Code    28  stm32f4xx_rcc.o(.text)
    RCC_BackupResetCmd                       0x08009215   Thumb Code    30  stm32f4xx_rcc.o(.text)
    RCC_I2SCLKConfig                         0x08009233   Thumb Code    28  stm32f4xx_rcc.o(.text)
    RCC_AHB1PeriphClockCmd                   0x0800924f   Thumb Code    78  stm32f4xx_rcc.o(.text)
    RCC_AHB2PeriphClockCmd                   0x0800929d   Thumb Code    78  stm32f4xx_rcc.o(.text)
    RCC_AHB3PeriphClockCmd                   0x080092eb   Thumb Code   234  stm32f4xx_rcc.o(.text)
    RCC_APB1PeriphClockCmd                   0x080093d5   Thumb Code    70  stm32f4xx_rcc.o(.text)
    RCC_APB2PeriphClockCmd                   0x0800941b   Thumb Code    78  stm32f4xx_rcc.o(.text)
    RCC_AHB1PeriphResetCmd                   0x08009469   Thumb Code    78  stm32f4xx_rcc.o(.text)
    RCC_AHB2PeriphResetCmd                   0x080094b7   Thumb Code    78  stm32f4xx_rcc.o(.text)
    RCC_AHB3PeriphResetCmd                   0x08009505   Thumb Code    78  stm32f4xx_rcc.o(.text)
    RCC_APB1PeriphResetCmd                   0x08009553   Thumb Code    78  stm32f4xx_rcc.o(.text)
    RCC_APB2PeriphResetCmd                   0x080095a1   Thumb Code    78  stm32f4xx_rcc.o(.text)
    RCC_AHB1PeriphClockLPModeCmd             0x080095ef   Thumb Code    78  stm32f4xx_rcc.o(.text)
    RCC_AHB2PeriphClockLPModeCmd             0x0800963d   Thumb Code    78  stm32f4xx_rcc.o(.text)
    RCC_AHB3PeriphClockLPModeCmd             0x0800968b   Thumb Code    78  stm32f4xx_rcc.o(.text)
    RCC_APB1PeriphClockLPModeCmd             0x080096d9   Thumb Code    78  stm32f4xx_rcc.o(.text)
    RCC_APB2PeriphClockLPModeCmd             0x08009727   Thumb Code    78  stm32f4xx_rcc.o(.text)
    RCC_ITConfig                             0x08009775   Thumb Code   108  stm32f4xx_rcc.o(.text)
    RCC_ClearFlag                            0x080097e1   Thumb Code    14  stm32f4xx_rcc.o(.text)
    RCC_GetITStatus                          0x080097ef   Thumb Code    66  stm32f4xx_rcc.o(.text)
    RCC_ClearITPendingBit                    0x08009831   Thumb Code    32  stm32f4xx_rcc.o(.text)
    TIM_DeInit                               0x08009859   Thumb Code   440  stm32f4xx_tim.o(.text)
    TIM_TimeBaseInit                         0x08009a11   Thumb Code   278  stm32f4xx_tim.o(.text)
    TIM_TimeBaseStructInit                   0x08009b27   Thumb Code    18  stm32f4xx_tim.o(.text)
    TIM_PrescalerConfig                      0x08009b39   Thumb Code   128  stm32f4xx_tim.o(.text)
    TIM_CounterModeConfig                    0x08009bb9   Thumb Code   100  stm32f4xx_tim.o(.text)
    TIM_SetCounter                           0x08009c1d   Thumb Code   164  stm32f4xx_tim.o(.text)
    TIM_SetAutoreload                        0x08009cc1   Thumb Code   106  stm32f4xx_tim.o(.text)
    TIM_GetCounter                           0x08009d2b   Thumb Code   104  stm32f4xx_tim.o(.text)
    TIM_GetPrescaler                         0x08009d93   Thumb Code   104  stm32f4xx_tim.o(.text)
    TIM_UpdateDisableConfig                  0x08009dfb   Thumb Code   144  stm32f4xx_tim.o(.text)
    TIM_UpdateRequestConfig                  0x08009e8b   Thumb Code   144  stm32f4xx_tim.o(.text)
    TIM_ARRPreloadConfig                     0x08009f1b   Thumb Code   144  stm32f4xx_tim.o(.text)
    TIM_SelectOnePulseMode                   0x08009fab   Thumb Code   138  stm32f4xx_tim.o(.text)
    TIM_SetClockDivision                     0x0800a035   Thumb Code   190  stm32f4xx_tim.o(.text)
    TIM_Cmd                                  0x0800a0f3   Thumb Code   144  stm32f4xx_tim.o(.text)
    TIM_OC1Init                              0x0800a183   Thumb Code   400  stm32f4xx_tim.o(.text)
    TIM_OC2Init                              0x0800a313   Thumb Code   474  stm32f4xx_tim.o(.text)
    TIM_OC3Init                              0x0800a4ed   Thumb Code   400  stm32f4xx_tim.o(.text)
    TIM_OC4Init                              0x0800a67d   Thumb Code   290  stm32f4xx_tim.o(.text)
    TIM_OCStructInit                         0x0800a79f   Thumb Code    20  stm32f4xx_tim.o(.text)
    TIM_SelectOCxM                           0x0800a7b3   Thumb Code   250  stm32f4xx_tim.o(.text)
    TIM_SetCompare1                          0x0800a8ad   Thumb Code   144  stm32f4xx_tim.o(.text)
    TIM_SetCompare2                          0x0800a93d   Thumb Code    70  stm32f4xx_tim.o(.text)
    TIM_SetCompare3                          0x0800a983   Thumb Code    58  stm32f4xx_tim.o(.text)
    TIM_SetCompare4                          0x0800a9bd   Thumb Code    58  stm32f4xx_tim.o(.text)
    TIM_ForcedOC1Config                      0x0800a9f7   Thumb Code   126  stm32f4xx_tim.o(.text)
    TIM_ForcedOC2Config                      0x0800aa75   Thumb Code   110  stm32f4xx_tim.o(.text)
    TIM_ForcedOC3Config                      0x0800aae3   Thumb Code    90  stm32f4xx_tim.o(.text)
    TIM_ForcedOC4Config                      0x0800ab3d   Thumb Code    98  stm32f4xx_tim.o(.text)
    TIM_OC1PreloadConfig                     0x0800ab9f   Thumb Code   124  stm32f4xx_tim.o(.text)
    TIM_OC2PreloadConfig                     0x0800ac1b   Thumb Code   108  stm32f4xx_tim.o(.text)
    TIM_OC3PreloadConfig                     0x0800ac87   Thumb Code    88  stm32f4xx_tim.o(.text)
    TIM_OC4PreloadConfig                     0x0800acdf   Thumb Code   146  stm32f4xx_tim.o(.text)
    TIM_OC1FastConfig                        0x0800ad71   Thumb Code   124  stm32f4xx_tim.o(.text)
    TIM_OC2FastConfig                        0x0800aded   Thumb Code   108  stm32f4xx_tim.o(.text)
    TIM_OC3FastConfig                        0x0800ae59   Thumb Code    88  stm32f4xx_tim.o(.text)
    TIM_OC4FastConfig                        0x0800aeb1   Thumb Code    96  stm32f4xx_tim.o(.text)
    TIM_ClearOC1Ref                          0x0800af11   Thumb Code   124  stm32f4xx_tim.o(.text)
    TIM_ClearOC2Ref                          0x0800af8d   Thumb Code   106  stm32f4xx_tim.o(.text)
    TIM_ClearOC3Ref                          0x0800aff7   Thumb Code    88  stm32f4xx_tim.o(.text)
    TIM_ClearOC4Ref                          0x0800b04f   Thumb Code    94  stm32f4xx_tim.o(.text)
    TIM_OC1PolarityConfig                    0x0800b0ad   Thumb Code   124  stm32f4xx_tim.o(.text)
    TIM_OC1NPolarityConfig                   0x0800b129   Thumb Code   114  stm32f4xx_tim.o(.text)
    TIM_OC2PolarityConfig                    0x0800b19b   Thumb Code   108  stm32f4xx_tim.o(.text)
    TIM_OC2NPolarityConfig                   0x0800b207   Thumb Code    72  stm32f4xx_tim.o(.text)
    TIM_OC3PolarityConfig                    0x0800b24f   Thumb Code    96  stm32f4xx_tim.o(.text)
    TIM_OC3NPolarityConfig                   0x0800b2af   Thumb Code    72  stm32f4xx_tim.o(.text)
    TIM_OC4PolarityConfig                    0x0800b2f7   Thumb Code    96  stm32f4xx_tim.o(.text)
    TIM_CCxCmd                               0x0800b357   Thumb Code   168  stm32f4xx_tim.o(.text)
    TIM_CCxNCmd                              0x0800b3ff   Thumb Code   104  stm32f4xx_tim.o(.text)
    TIM_SetIC4Prescaler                      0x0800b467   Thumb Code   106  stm32f4xx_tim.o(.text)
    TIM_SetIC3Prescaler                      0x0800b521   Thumb Code   148  stm32f4xx_tim.o(.text)
    TIM_SetIC2Prescaler                      0x0800b5fd   Thumb Code   118  stm32f4xx_tim.o(.text)
    TIM_SetIC1Prescaler                      0x0800b6c3   Thumb Code   134  stm32f4xx_tim.o(.text)
    TIM_ICInit                               0x0800b783   Thumb Code   460  stm32f4xx_tim.o(.text)
    TIM_ICStructInit                         0x0800b94f   Thumb Code    18  stm32f4xx_tim.o(.text)
    TIM_PWMIConfig                           0x0800b961   Thumb Code   234  stm32f4xx_tim.o(.text)
    TIM_GetCapture1                          0x0800ba4b   Thumb Code    92  stm32f4xx_tim.o(.text)
    TIM_GetCapture2                          0x0800baa7   Thumb Code    68  stm32f4xx_tim.o(.text)
    TIM_GetCapture3                          0x0800baeb   Thumb Code    56  stm32f4xx_tim.o(.text)
    TIM_GetCapture4                          0x0800bb23   Thumb Code    56  stm32f4xx_tim.o(.text)
    TIM_BDTRConfig                           0x0800bb5b   Thumb Code   222  stm32f4xx_tim.o(.text)
    TIM_BDTRStructInit                       0x0800bc39   Thumb Code    18  stm32f4xx_tim.o(.text)
    TIM_CtrlPWMOutputs                       0x0800bc4b   Thumb Code    78  stm32f4xx_tim.o(.text)
    TIM_SelectCOM                            0x0800bc99   Thumb Code    72  stm32f4xx_tim.o(.text)
    TIM_CCPreloadControl                     0x0800bce1   Thumb Code    72  stm32f4xx_tim.o(.text)
    TIM_ITConfig                             0x0800bd29   Thumb Code   216  stm32f4xx_tim.o(.text)
    TIM_GenerateEvent                        0x0800be01   Thumb Code   126  stm32f4xx_tim.o(.text)
    TIM_GetFlagStatus                        0x0800be7f   Thumb Code   188  stm32f4xx_tim.o(.text)
    TIM_ClearFlag                            0x0800bf3b   Thumb Code   108  stm32f4xx_tim.o(.text)
    TIM_GetITStatus                          0x0800bfa7   Thumb Code   186  stm32f4xx_tim.o(.text)
    TIM_ClearITPendingBit                    0x0800c061   Thumb Code   108  stm32f4xx_tim.o(.text)
    TIM_DMAConfig                            0x0800c0cd   Thumb Code   328  stm32f4xx_tim.o(.text)
    TIM_DMACmd                               0x0800c215   Thumb Code   126  stm32f4xx_tim.o(.text)
    TIM_SelectCCDMA                          0x0800c293   Thumb Code    96  stm32f4xx_tim.o(.text)
    TIM_InternalClockConfig                  0x0800c2f3   Thumb Code    76  stm32f4xx_tim.o(.text)
    TIM_SelectInputTrigger                   0x0800c33f   Thumb Code   148  stm32f4xx_tim.o(.text)
    TIM_ITRxExternalClockConfig              0x0800c3d3   Thumb Code   110  stm32f4xx_tim.o(.text)
    TIM_TIxExternalClockConfig               0x0800c441   Thumb Code   184  stm32f4xx_tim.o(.text)
    TIM_ETRConfig                            0x0800c4f9   Thumb Code   164  stm32f4xx_tim.o(.text)
    TIM_ETRClockMode1Config                  0x0800c59d   Thumb Code   228  stm32f4xx_tim.o(.text)
    TIM_ETRClockMode2Config                  0x0800c681   Thumb Code   152  stm32f4xx_tim.o(.text)
    TIM_SelectOutputTrigger                  0x0800c719   Thumb Code   126  stm32f4xx_tim.o(.text)
    TIM_SelectSlaveMode                      0x0800c797   Thumb Code   112  stm32f4xx_tim.o(.text)
    TIM_SelectMasterSlaveMode                0x0800c807   Thumb Code   102  stm32f4xx_tim.o(.text)
    TIM_EncoderInterfaceConfig               0x0800c86d   Thumb Code   226  stm32f4xx_tim.o(.text)
    TIM_SelectHallSensor                     0x0800c94f   Thumb Code   108  stm32f4xx_tim.o(.text)
    TIM_RemapConfig                          0x0800c9bb   Thumb Code   138  stm32f4xx_tim.o(.text)
    USART_DeInit                             0x0800ca45   Thumb Code   202  stm32f4xx_usart.o(.text)
    USART_Init                               0x0800cb0f   Thumb Code   456  stm32f4xx_usart.o(.text)
    USART_StructInit                         0x0800ccd7   Thumb Code    24  stm32f4xx_usart.o(.text)
    USART_ClockInit                          0x0800ccef   Thumb Code   166  stm32f4xx_usart.o(.text)
    USART_ClockStructInit                    0x0800cd95   Thumb Code    12  stm32f4xx_usart.o(.text)
    USART_Cmd                                0x0800cda1   Thumb Code    96  stm32f4xx_usart.o(.text)
    USART_SetPrescaler                       0x0800ce01   Thumb Code   102  stm32f4xx_usart.o(.text)
    USART_OverSampling8Cmd                   0x0800ce67   Thumb Code    94  stm32f4xx_usart.o(.text)
    USART_OneBitMethodCmd                    0x0800cec5   Thumb Code    96  stm32f4xx_usart.o(.text)
    USART_SendData                           0x0800cf25   Thumb Code    80  stm32f4xx_usart.o(.text)
    USART_ReceiveData                        0x0800cf75   Thumb Code    60  stm32f4xx_usart.o(.text)
    USART_SetAddress                         0x0800cfb1   Thumb Code    88  stm32f4xx_usart.o(.text)
    USART_ReceiverWakeUpCmd                  0x0800d009   Thumb Code    96  stm32f4xx_usart.o(.text)
    USART_WakeUpConfig                       0x0800d069   Thumb Code    92  stm32f4xx_usart.o(.text)
    USART_LINBreakDetectLengthConfig         0x0800d0c5   Thumb Code    90  stm32f4xx_usart.o(.text)
    USART_LINCmd                             0x0800d11f   Thumb Code    96  stm32f4xx_usart.o(.text)
    USART_SendBreak                          0x0800d17f   Thumb Code    62  stm32f4xx_usart.o(.text)
    USART_HalfDuplexCmd                      0x0800d1bd   Thumb Code    96  stm32f4xx_usart.o(.text)
    USART_SetGuardTime                       0x0800d21d   Thumb Code    86  stm32f4xx_usart.o(.text)
    USART_SmartCardCmd                       0x0800d273   Thumb Code    84  stm32f4xx_usart.o(.text)
    USART_SmartCardNACKCmd                   0x0800d2c7   Thumb Code    84  stm32f4xx_usart.o(.text)
    USART_IrDAConfig                         0x0800d31b   Thumb Code    90  stm32f4xx_usart.o(.text)
    USART_IrDACmd                            0x0800d375   Thumb Code    96  stm32f4xx_usart.o(.text)
    USART_DMACmd                             0x0800d3d5   Thumb Code   114  stm32f4xx_usart.o(.text)
    USART_ITConfig                           0x0800d447   Thumb Code   260  stm32f4xx_usart.o(.text)
    USART_GetFlagStatus                      0x0800d54b   Thumb Code   170  stm32f4xx_usart.o(.text)
    USART_ClearFlag                          0x0800d5f5   Thumb Code   158  stm32f4xx_usart.o(.text)
    USART_GetITStatus                        0x0800d693   Thumb Code   278  stm32f4xx_usart.o(.text)
    USART_ClearITPendingBit                  0x0800d7a9   Thumb Code   164  stm32f4xx_usart.o(.text)
    __aeabi_dadd                             0x0800d869   Thumb Code   322  dadd.o(.text)
    __aeabi_dsub                             0x0800d9ab   Thumb Code     6  dadd.o(.text)
    __aeabi_drsub                            0x0800d9b1   Thumb Code     6  dadd.o(.text)
    __aeabi_dmul                             0x0800d9b7   Thumb Code   228  dmul.o(.text)
    __aeabi_i2d                              0x0800da9b   Thumb Code    34  dflti.o(.text)
    __aeabi_d2iz                             0x0800dabd   Thumb Code    62  dfixi.o(.text)
    __aeabi_cdcmpeq                          0x0800dafd   Thumb Code     0  cdcmple.o(.text)
    __aeabi_cdcmple                          0x0800dafd   Thumb Code    48  cdcmple.o(.text)
    __aeabi_cdrcmple                         0x0800db2d   Thumb Code    48  cdrcmple.o(.text)
    __aeabi_d2f                              0x0800db5d   Thumb Code    56  d2f.o(.text)
    __aeabi_llsl                             0x0800db95   Thumb Code    30  llshl.o(.text)
    _ll_shift_l                              0x0800db95   Thumb Code     0  llshl.o(.text)
    __aeabi_llsr                             0x0800dbb3   Thumb Code    32  llushr.o(.text)
    _ll_ushift_r                             0x0800dbb3   Thumb Code     0  llushr.o(.text)
    __aeabi_lasr                             0x0800dbd3   Thumb Code    36  llsshr.o(.text)
    _ll_sshift_r                             0x0800dbd3   Thumb Code     0  llsshr.o(.text)
    __I$use$fp                               0x0800dbf7   Thumb Code     0  iusefp.o(.text)
    _float_round                             0x0800dbf7   Thumb Code    18  fepilogue.o(.text)
    _float_epilogue                          0x0800dc09   Thumb Code    92  fepilogue.o(.text)
    _double_round                            0x0800dc65   Thumb Code    30  depilogue.o(.text)
    _double_epilogue                         0x0800dc83   Thumb Code   156  depilogue.o(.text)
    __scatterload                            0x0800dd21   Thumb Code    28  init.o(.text)
    __scatterload_rt2                        0x0800dd21   Thumb Code     0  init.o(.text)
    __decompress                             0x0800dd45   Thumb Code     0  __dczerorl2.o(.text)
    __decompress1                            0x0800dd45   Thumb Code    86  __dczerorl2.o(.text)
    __scatterload_copy                       0x0800dd9b   Thumb Code    14  handlers.o(i.__scatterload_copy)
    __scatterload_null                       0x0800dda9   Thumb Code     2  handlers.o(i.__scatterload_null)
    __scatterload_zeroinit                   0x0800ddab   Thumb Code    14  handlers.o(i.__scatterload_zeroinit)
    fast_atan_table                          0x0800ddb8   Data        1028  ano_math.o(.constdata)
    Region$$Table$$Base                      0x0800e450   Number         0  anon$$obj.o(Region$$Table)
    Region$$Table$$Limit                     0x0800e470   Number         0  anon$$obj.o(Region$$Table)
    mission_step                             0x20000000   Data           1  ano_scheduler.o(.data)
    start_yaw                                0x20000004   Data           4  ano_scheduler.o(.data)
    offset_Angle                             0x20000008   Data           4  ano_scheduler.o(.data)
    Of2_Fix_X                                0x2000000c   Data           2  ano_scheduler.o(.data)
    Of2_Fix_Y                                0x2000000e   Data           2  ano_scheduler.o(.data)
    JF_X                                     0x20000010   Data           2  ano_scheduler.o(.data)
    JF_Y                                     0x20000012   Data           2  ano_scheduler.o(.data)
    cal_X                                    0x2000006c   Data           2  user_task.o(.data)
    cal_Y                                    0x2000006e   Data           2  user_task.o(.data)
    cal_X_2                                  0x20000070   Data           2  user_task.o(.data)
    cal_Y_2                                  0x20000072   Data           2  user_task.o(.data)
    cal_X_3                                  0x20000074   Data           2  user_task.o(.data)
    cal_Y_3                                  0x20000076   Data           2  user_task.o(.data)
    offset_Distance                          0x20000078   Data           1  user_task.o(.data)
    Second_Distance                          0x2000007a   Data           2  user_task.o(.data)
    Second_angle                             0x2000007c   Data           2  user_task.o(.data)
    PLANE_YAW                                0x2000007e   Data           2  user_task.o(.data)
    Ano_Alt                                  0x20000080   Data           4  user_task.o(.data)
    POS_X                                    0x20000084   Data           4  user_task.o(.data)
    POS_Y                                    0x20000088   Data           4  user_task.o(.data)
    angle_bis                                0x2000008c   Data           2  user_task.o(.data)
    Dcx                                      0x2000008e   Data           2  user_task.o(.data)
    Dcy                                      0x20000090   Data           2  user_task.o(.data)
    Dcx_A                                    0x20000092   Data           2  user_task.o(.data)
    Dcy_A                                    0x20000094   Data           2  user_task.o(.data)
    rate                                     0x20000098   Data           4  user_task.o(.data)
    Num_1                                    0x2000009c   Data           1  user_task.o(.data)
    Num_2                                    0x2000009d   Data           1  user_task.o(.data)
    position_X                               0x2000009e   Data          26  user_task.o(.data)
    position_Y                               0x200000b8   Data          26  user_task.o(.data)
    position_dis                             0x200000d2   Data          26  user_task.o(.data)
    position_ang                             0x200000ec   Data          26  user_task.o(.data)
    position_dis_GoHome                      0x20000106   Data          26  user_task.o(.data)
    position_ang_GoHome                      0x20000120   Data          26  user_task.o(.data)
    fc_bat                                   0x20000146   Data           4  ano_lx.o(.data)
    sti_fun                                  0x2000015e   Data           2  lx_fc_state.o(.data)
    pvt_receive_updata                       0x2000017a   Data           1  drv_ubloxgps.o(.data)
    fre_test_cnt                             0x2000017c   Data           2  drv_ubloxgps.o(.data)
    Period_Out_H                             0x2000017e   Data          14  drv_ubloxgps.o(.data)
    Period_Out_L                             0x2000018c   Data          14  drv_ubloxgps.o(.data)
    Pulse_Period                             0x2000019a   Data          28  drv_ubloxgps.o(.data)
    Baud115200                               0x200001b6   Data          28  drv_ubloxgps.o(.data)
    Save_Con                                 0x200001d2   Data          21  drv_ubloxgps.o(.data)
    POLLSH_SET                               0x200001e7   Data          11  drv_ubloxgps.o(.data)
    SOL_SET                                  0x200001f2   Data          11  drv_ubloxgps.o(.data)
    VELNED_SET                               0x200001fd   Data          11  drv_ubloxgps.o(.data)
    TIMEUTC_SET                              0x20000208   Data          11  drv_ubloxgps.o(.data)
    DOP_SET                                  0x20000213   Data          11  drv_ubloxgps.o(.data)
    PVT_SET                                  0x2000021e   Data          11  drv_ubloxgps.o(.data)
    pvt_recerve_ok_cnt                       0x2000022e   Data           1  drv_ubloxgps.o(.data)
    led                                      0x20000238   Data           4  drv_led.o(.data)
    Tx1Counter                               0x20000248   Data           1  drv_uart.o(.data)
    count1                                   0x20000249   Data           1  drv_uart.o(.data)
    U1RxInCnt                                0x2000024a   Data           1  drv_uart.o(.data)
    U1RxoutCnt                               0x2000024b   Data           1  drv_uart.o(.data)
    TxCounter                                0x2000024c   Data           1  drv_uart.o(.data)
    count                                    0x2000024d   Data           1  drv_uart.o(.data)
    U2RxInCnt                                0x2000024e   Data           1  drv_uart.o(.data)
    U2RxoutCnt                               0x2000024f   Data           1  drv_uart.o(.data)
    Tx3Counter                               0x20000250   Data           1  drv_uart.o(.data)
    count3                                   0x20000251   Data           1  drv_uart.o(.data)
    U3RxInCnt                                0x20000252   Data           1  drv_uart.o(.data)
    U3RxoutCnt                               0x20000253   Data           1  drv_uart.o(.data)
    Tx4Counter                               0x20000254   Data           1  drv_uart.o(.data)
    count4                                   0x20000255   Data           1  drv_uart.o(.data)
    U4RxInCnt                                0x20000256   Data           1  drv_uart.o(.data)
    U4RxoutCnt                               0x20000257   Data           1  drv_uart.o(.data)
    Tx5Counter                               0x20000258   Data           1  drv_uart.o(.data)
    count5                                   0x20000259   Data           1  drv_uart.o(.data)
    U5RxInCnt                                0x2000025a   Data           1  drv_uart.o(.data)
    U5RxoutCnt                               0x2000025b   Data           1  drv_uart.o(.data)
    SystemCoreClock                          0x2000025c   Data           4  system_stm32f4xx.o(.data)
    AHBPrescTable                            0x20000260   Data          16  system_stm32f4xx.o(.data)
    send_buffer                              0x20000294   Data          50  ano_dt_lx.o(.bss)
    dt                                       0x200002c8   Data        1564  ano_dt_lx.o(.bss)
    rt_tar                                   0x200009e4   Data          14  ano_lx.o(.bss)
    pwm_to_esc                               0x200009f2   Data          16  ano_lx.o(.bss)
    fc_att                                   0x20000a02   Data          19  ano_lx.o(.bss)
    ext_sens                                 0x20000a26   Data          48  lx_fc_ext_sensor.o(.bss)
    fc_sta                                   0x20000a56   Data          11  lx_fc_state.o(.bss)
    rc_in                                    0x20000a62   Data          82  drv_bsp.o(.bss)
    ano_of                                   0x20000ad0   Data          60  drv_anoof.o(.bss)
    ubx                                      0x20000b4c   Data         100  drv_ubloxgps.o(.bss)
    openmv                                   0x20000bb0   Data         248  drv_my_openmv.o(.bss)
    AdcValue                                 0x20000cda   Data         100  drv_adc.o(.bss)
    Tx1Buffer                                0x20000d3e   Data         256  drv_uart.o(.bss)
    U1RxDataTmp                              0x20000e3e   Data         100  drv_uart.o(.bss)
    TxBuffer                                 0x20000ea2   Data         256  drv_uart.o(.bss)
    U2RxDataTmp                              0x20000fa2   Data         100  drv_uart.o(.bss)
    Tx3Buffer                                0x20001006   Data         256  drv_uart.o(.bss)
    U3RxDataTmp                              0x20001106   Data         100  drv_uart.o(.bss)
    Tx4Buffer                                0x2000116a   Data         256  drv_uart.o(.bss)
    U4RxDataTmp                              0x2000126a   Data         100  drv_uart.o(.bss)
    Tx5Buffer                                0x200012ce   Data         256  drv_uart.o(.bss)
    U5RxDataTmp                              0x200013ce   Data         100  drv_uart.o(.bss)
    __initial_sp                             0x20001c38   Data           0  startup_stm32f4xx.o(STACK)



==============================================================================

Memory Map of the image

  Image Entry point : 0x08000189

  Load Region LR_IROM1 (Base: 0x08000000, Size: 0x0000e6f0, Max: 0x00100000, ABSOLUTE, COMPRESSED[0x0000e594])

    Execution Region ER_IROM1 (Exec base: 0x08000000, Load base: 0x08000000, Size: 0x0000e470, Max: 0x00100000, ABSOLUTE)

    Exec Addr    Load Addr    Size         Type   Attr      Idx    E Section Name        Object

    0x08000000   0x08000000   0x00000188   Data   RO          612    RESET               startup_stm32f4xx.o
    0x08000188   0x08000188   0x00000000   Code   RO          811  * .ARM.Collect$$$$00000000  mc_w.l(entry.o)
    0x08000188   0x08000188   0x00000004   Code   RO          828    .ARM.Collect$$$$00000001  mc_w.l(entry2.o)
    0x0800018c   0x0800018c   0x00000004   Code   RO          831    .ARM.Collect$$$$00000004  mc_w.l(entry5.o)
    0x08000190   0x08000190   0x00000000   Code   RO          833    .ARM.Collect$$$$00000008  mc_w.l(entry7b.o)
    0x08000190   0x08000190   0x00000000   Code   RO          835    .ARM.Collect$$$$0000000A  mc_w.l(entry8b.o)
    0x08000190   0x08000190   0x00000008   Code   RO          836    .ARM.Collect$$$$0000000B  mc_w.l(entry9a.o)
    0x08000198   0x08000198   0x00000000   Code   RO          838    .ARM.Collect$$$$0000000D  mc_w.l(entry10a.o)
    0x08000198   0x08000198   0x00000000   Code   RO          840    .ARM.Collect$$$$0000000F  mc_w.l(entry11a.o)
    0x08000198   0x08000198   0x00000004   Code   RO          829    .ARM.Collect$$$$00002712  mc_w.l(entry2.o)
    0x0800019c   0x0800019c   0x00000014   Code   RO            2    .text               main.o
    0x080001b0   0x080001b0   0x0000020c   Code   RO          112    .text               ano_scheduler.o
    0x080003bc   0x080003bc   0x000016dc   Code   RO          140    .text               user_task.o
    0x08001a98   0x08001a98   0x00000884   Code   RO          185    .text               ano_dt_lx.o
    0x0800231c   0x0800231c   0x000004e4   Code   RO          228    .text               ano_lx.o
    0x08002800   0x08002800   0x000000e4   Code   RO          271    .text               lx_fc_ext_sensor.o
    0x080028e4   0x080028e4   0x0000043c   Code   RO          294    .text               lx_fc_fun.o
    0x08002d20   0x08002d20   0x00000284   Code   RO          311    .text               lx_fc_state.o
    0x08002fa4   0x08002fa4   0x000004d4   Code   RO          334    .text               drv_bsp.o
    0x08003478   0x08003478   0x0000087c   Code   RO          360    .text               ano_math.o
    0x08003cf4   0x08003cf4   0x0000037c   Code   RO          379    .text               drv_anoof.o
    0x08004070   0x08004070   0x000003a8   Code   RO          403    .text               drv_ubloxgps.o
    0x08004418   0x08004418   0x0000007c   Code   RO          446    .text               stm32f4xx_it.o
    0x08004494   0x08004494   0x00000108   Code   RO          462    .text               drv_sys.o
    0x0800459c   0x0800459c   0x00000194   Code   RO          490    .text               drv_adc.o
    0x08004730   0x08004730   0x0000011c   Code   RO          512    .text               drv_led.o
    0x0800484c   0x0800484c   0x0000037c   Code   RO          534    .text               drv_pwmout.o
    0x08004bc8   0x08004bc8   0x000001e4   Code   RO          550    .text               drv_rcin.o
    0x08004dac   0x08004dac   0x0000008c   Code   RO          567    .text               drv_timer.o
    0x08004e38   0x08004e38   0x00000a50   Code   RO          587    .text               drv_uart.o
    0x08005888   0x08005888   0x00000024   Code   RO          613    .text               startup_stm32f4xx.o
    0x080058ac   0x080058ac   0x00000210   Code   RO          618    .text               system_stm32f4xx.o
    0x08005abc   0x08005abc   0x000001c0   Code   RO          640    .text               misc.o
    0x08005c7c   0x08005c7c   0x00000fdc   Code   RO          657    .text               stm32f4xx_adc.o
    0x08006c58   0x08006c58   0x00001368   Code   RO          674    .text               stm32f4xx_dma.o
    0x08007fc0   0x08007fc0   0x000002d4   Code   RO          691    .text               stm32f4xx_exti.o
    0x08008294   0x08008294   0x000008c8   Code   RO          725    .text               stm32f4xx_gpio.o
    0x08008b5c   0x08008b5c   0x00000cfc   Code   RO          742    .text               stm32f4xx_rcc.o
    0x08009858   0x08009858   0x000031ec   Code   RO          778    .text               stm32f4xx_tim.o
    0x0800ca44   0x0800ca44   0x00000e24   Code   RO          795    .text               stm32f4xx_usart.o
    0x0800d868   0x0800d868   0x0000014e   Code   RO          814    .text               mf_w.l(dadd.o)
    0x0800d9b6   0x0800d9b6   0x000000e4   Code   RO          816    .text               mf_w.l(dmul.o)
    0x0800da9a   0x0800da9a   0x00000022   Code   RO          818    .text               mf_w.l(dflti.o)
    0x0800dabc   0x0800dabc   0x0000003e   Code   RO          820    .text               mf_w.l(dfixi.o)
    0x0800dafa   0x0800dafa   0x00000002   PAD
    0x0800dafc   0x0800dafc   0x00000030   Code   RO          822    .text               mf_w.l(cdcmple.o)
    0x0800db2c   0x0800db2c   0x00000030   Code   RO          824    .text               mf_w.l(cdrcmple.o)
    0x0800db5c   0x0800db5c   0x00000038   Code   RO          826    .text               mf_w.l(d2f.o)
    0x0800db94   0x0800db94   0x0000001e   Code   RO          842    .text               mc_w.l(llshl.o)
    0x0800dbb2   0x0800dbb2   0x00000020   Code   RO          844    .text               mc_w.l(llushr.o)
    0x0800dbd2   0x0800dbd2   0x00000024   Code   RO          846    .text               mc_w.l(llsshr.o)
    0x0800dbf6   0x0800dbf6   0x00000000   Code   RO          848    .text               mc_w.l(iusefp.o)
    0x0800dbf6   0x0800dbf6   0x0000006e   Code   RO          849    .text               mf_w.l(fepilogue.o)
    0x0800dc64   0x0800dc64   0x000000ba   Code   RO          851    .text               mf_w.l(depilogue.o)
    0x0800dd1e   0x0800dd1e   0x00000002   PAD
    0x0800dd20   0x0800dd20   0x00000024   Code   RO          853    .text               mc_w.l(init.o)
    0x0800dd44   0x0800dd44   0x00000056   Code   RO          863    .text               mc_w.l(__dczerorl2.o)
    0x0800dd9a   0x0800dd9a   0x0000000e   Code   RO          857    i.__scatterload_copy  mc_w.l(handlers.o)
    0x0800dda8   0x0800dda8   0x00000002   Code   RO          858    i.__scatterload_null  mc_w.l(handlers.o)
    0x0800ddaa   0x0800ddaa   0x0000000e   Code   RO          859    i.__scatterload_zeroinit  mc_w.l(handlers.o)
    0x0800ddb8   0x0800ddb8   0x00000404   Data   RO          361    .constdata          ano_math.o
    0x0800e1bc   0x0800e1bc   0x00000048   Data   RO          641    .conststring        misc.o
    0x0800e204   0x0800e204   0x00000051   Data   RO          658    .conststring        stm32f4xx_adc.o
    0x0800e255   0x0800e255   0x00000003   PAD
    0x0800e258   0x0800e258   0x00000051   Data   RO          675    .conststring        stm32f4xx_dma.o
    0x0800e2a9   0x0800e2a9   0x00000003   PAD
    0x0800e2ac   0x0800e2ac   0x00000052   Data   RO          692    .conststring        stm32f4xx_exti.o
    0x0800e2fe   0x0800e2fe   0x00000002   PAD
    0x0800e300   0x0800e300   0x00000052   Data   RO          726    .conststring        stm32f4xx_gpio.o
    0x0800e352   0x0800e352   0x00000002   PAD
    0x0800e354   0x0800e354   0x00000051   Data   RO          743    .conststring        stm32f4xx_rcc.o
    0x0800e3a5   0x0800e3a5   0x00000003   PAD
    0x0800e3a8   0x0800e3a8   0x00000051   Data   RO          779    .conststring        stm32f4xx_tim.o
    0x0800e3f9   0x0800e3f9   0x00000003   PAD
    0x0800e3fc   0x0800e3fc   0x00000053   Data   RO          796    .conststring        stm32f4xx_usart.o
    0x0800e44f   0x0800e44f   0x00000001   PAD
    0x0800e450   0x0800e450   0x00000020   Data   RO          855    Region$$Table       anon$$obj.o


    Execution Region RW_IRAM1 (Exec base: 0x20000000, Load base: 0x0800e470, Size: 0x00001c38, Max: 0x00020000, ABSOLUTE, COMPRESSED[0x00000124])

    Exec Addr    Load Addr    Size         Type   Attr      Idx    E Section Name        Object

    0x20000000   COMPRESSED   0x0000006c   Data   RW          113    .data               ano_scheduler.o
    0x2000006c   COMPRESSED   0x000000d4   Data   RW          142    .data               user_task.o
    0x20000140   COMPRESSED   0x00000006   Data   RW          187    .data               ano_dt_lx.o
    0x20000146   COMPRESSED   0x00000012   Data   RW          230    .data               ano_lx.o
    0x20000158   COMPRESSED   0x00000004   Data   RW          273    .data               lx_fc_ext_sensor.o
    0x2000015c   COMPRESSED   0x00000001   Data   RW          295    .data               lx_fc_fun.o
    0x2000015d   COMPRESSED   0x00000001   PAD
    0x2000015e   COMPRESSED   0x00000006   Data   RW          313    .data               lx_fc_state.o
    0x20000164   COMPRESSED   0x00000013   Data   RW          336    .data               drv_bsp.o
    0x20000177   COMPRESSED   0x00000003   Data   RW          381    .data               drv_anoof.o
    0x2000017a   COMPRESSED   0x000000b6   Data   RW          405    .data               drv_ubloxgps.o
    0x20000230   COMPRESSED   0x00000008   Data   RW          463    .data               drv_sys.o
    0x20000238   COMPRESSED   0x0000000c   Data   RW          513    .data               drv_led.o
    0x20000244   COMPRESSED   0x00000004   Data   RW          551    .data               drv_rcin.o
    0x20000248   COMPRESSED   0x00000014   Data   RW          589    .data               drv_uart.o
    0x2000025c   COMPRESSED   0x00000014   Data   RW          619    .data               system_stm32f4xx.o
    0x20000270   COMPRESSED   0x00000010   Data   RW          744    .data               stm32f4xx_rcc.o
    0x20000280        -       0x00000014   Zero   RW          141    .bss                user_task.o
    0x20000294        -       0x00000750   Zero   RW          186    .bss                ano_dt_lx.o
    0x200009e4        -       0x00000042   Zero   RW          229    .bss                ano_lx.o
    0x20000a26        -       0x00000030   Zero   RW          272    .bss                lx_fc_ext_sensor.o
    0x20000a56        -       0x0000000b   Zero   RW          312    .bss                lx_fc_state.o
    0x20000a61   COMPRESSED   0x00000001   PAD
    0x20000a62        -       0x0000006b   Zero   RW          335    .bss                drv_bsp.o
    0x20000acd   COMPRESSED   0x00000003   PAD
    0x20000ad0        -       0x0000007c   Zero   RW          380    .bss                drv_anoof.o
    0x20000b4c        -       0x00000064   Zero   RW          404    .bss                drv_ubloxgps.o
    0x20000bb0        -       0x0000012a   Zero   RW          424    .bss                drv_my_openmv.o
    0x20000cda        -       0x00000064   Zero   RW          491    .bss                drv_adc.o
    0x20000d3e        -       0x000006f4   Zero   RW          588    .bss                drv_uart.o
    0x20001432   COMPRESSED   0x00000006   PAD
    0x20001438        -       0x00000800   Zero   RW          610    STACK               startup_stm32f4xx.o


==============================================================================

Image component sizes


      Code (inc. data)   RO Data    RW Data    ZI Data      Debug   Object Name

      2180        136          0          6       1872       6262   ano_dt_lx.o
      1252        110          0         18         66       5132   ano_lx.o
      2172        142       1028          0          0       7830   ano_math.o
       524         70          0        108          0       2686   ano_scheduler.o
       404         36          0          0        100       1957   drv_adc.o
       892         58          0          3        124       3346   drv_anoof.o
      1236         62          0         19        107       3654   drv_bsp.o
       284         12          0         12          0       2578   drv_led.o
         0          0          0          0        298       1693   drv_my_openmv.o
       892         38          0          0          0       1867   drv_pwmout.o
       484         20          0          4          0       1472   drv_rcin.o
       264         12          0          8          0      20401   drv_sys.o
       140          4          0          0          0        947   drv_timer.o
      2640        170          0         20       1780       9075   drv_uart.o
       936         82          0        182        100       3483   drv_ubloxgps.o
       228         30          0          4         48       2711   lx_fc_ext_sensor.o
      1084         20          0          1          0       4131   lx_fc_fun.o
       644         30          0          6         11       2099   lx_fc_state.o
        20          0          0          0          0     299483   main.o
       448         30         72          0          0       2333   misc.o
        36          8        392          0       2048        972   startup_stm32f4xx.o
      4060        104         81          0          0      13646   stm32f4xx_adc.o
      4968        316         81          0          0       9261   stm32f4xx_dma.o
       724         14         82          0          0       3007   stm32f4xx_exti.o
      2248         86         82          0          0       5709   stm32f4xx_gpio.o
       124          4          0          0          0       2350   stm32f4xx_it.o
      3324        218         81         16          0      13875   stm32f4xx_rcc.o
     12780        628         81          0          0      31504   stm32f4xx_tim.o
      3620        116         83          0          0      10376   stm32f4xx_usart.o
       528         46          0         20          0       2271   system_stm32f4xx.o
      5852        352          0        212         20       8491   user_task.o

    ----------------------------------------------------------------------
     54988       2954       2112        640       6584     484602   Object Totals
         0          0         32          0          0          0   (incl. Generated)
         0          0         17          1         10          0   (incl. Padding)

    ----------------------------------------------------------------------

      Code (inc. data)   RO Data    RW Data    ZI Data      Debug   Library Member Name

        86          0          0          0          0          0   __dczerorl2.o
         0          0          0          0          0          0   entry.o
         0          0          0          0          0          0   entry10a.o
         0          0          0          0          0          0   entry11a.o
         8          4          0          0          0          0   entry2.o
         4          0          0          0          0          0   entry5.o
         0          0          0          0          0          0   entry7b.o
         0          0          0          0          0          0   entry8b.o
         8          4          0          0          0          0   entry9a.o
        30          0          0          0          0          0   handlers.o
        36          8          0          0          0         68   init.o
         0          0          0          0          0          0   iusefp.o
        30          0          0          0          0         68   llshl.o
        36          0          0          0          0         68   llsshr.o
        32          0          0          0          0         68   llushr.o
        48          0          0          0          0         68   cdcmple.o
        48          0          0          0          0         68   cdrcmple.o
        56          0          0          0          0         88   d2f.o
       334          0          0          0          0        148   dadd.o
       186          0          0          0          0        176   depilogue.o
        62          0          0          0          0         80   dfixi.o
        34          0          0          0          0         76   dflti.o
       228          0          0          0          0         96   dmul.o
       110          0          0          0          0        168   fepilogue.o

    ----------------------------------------------------------------------
      1380         16          0          0          0       1240   Library Totals
         4          0          0          0          0          0   (incl. Padding)

    ----------------------------------------------------------------------

      Code (inc. data)   RO Data    RW Data    ZI Data      Debug   Library Name

       270         16          0          0          0        272   mc_w.l
      1106          0          0          0          0        968   mf_w.l

    ----------------------------------------------------------------------
      1380         16          0          0          0       1240   Library Totals

    ----------------------------------------------------------------------

==============================================================================


      Code (inc. data)   RO Data    RW Data    ZI Data      Debug   

     56368       2970       2112        640       6584     480454   Grand Totals
     56368       2970       2112        292       6584     480454   ELF Image Totals (compressed)
     56368       2970       2112        292          0          0   ROM Totals

==============================================================================

    Total RO  Size (Code + RO Data)                58480 (  57.11kB)
    Total RW  Size (RW Data + ZI Data)              7224 (   7.05kB)
    Total ROM Size (Code + RO Data + RW Data)      58772 (  57.39kB)

==============================================================================

