:020000040800F2
:100000007809002025020008BB490008BD49000806
:10001000C1490008C5490008C9490008000000009E
:10002000000000000000000000000000CD490008B2
:10003000CF49000800000000D14900083D02000837
:100040003F0200083F0200083F0200083F0200088C
:100050003F0200083F0200083F0200083F0200087C
:100060003F0200083F0200083F0200083F0200086C
:100070003F0200083F0200083F0200083F0200085C
:100080003F0200083F0200083F0200083F0200084C
:100090003F0200083F0200083F0200083F0200083C
:1000A0003F0200083F0200083F0200083F0200082C
:1000B0003F0200083F0200083F0200083F0200081C
:1000C0003F0200083F0200083F0200083F0200080C
:1000D0003F020008E72000082F2B00083F0200081D
:1000E0003F0200083F0200083F0200083F020008EC
:1000F0003F0200083F0200083F0200083F020008DC
:100100003F0200083F0200083F0200083F020008CB
:100110003F0200083F020008913600083F02000835
:100120003F0200083F0200083F0200083F020008AB
:1001300000F002F800F067F80AA090E8000C824492
:100140008344AAF10107DA4501D100F05CF8AFF26F
:10015000090EBAE80F0013F0010F18BFFB1A43F0A5
:10016000010318474C6800006C6800000A444FF017
:10017000000C10F8013B13F0070408BF10F8014B06
:100180001D1108BF10F8015B641E05D010F8016B4B
:10019000641E01F8016BF9D113F0080F1EBF10F8AF
:1001A000014BAD1C0C1B09D16D1E58BF01F801CBD2
:1001B000FAD505E014F8016B01F8016B6D1EF9D555
:1001C0009142D6D37047000000230024002500266A
:1001D000103A28BF78C1FBD8520728BF30C148BFAA
:1001E0000B607047662905F08A87002070471FB5AD
:1001F00004F0E0FE04000020002105F021FCE06096
:100200001FBD10B510BD04F0D1FF1146FFF7EFFF81
:1002100004F0C6FB04F0EFFF03B4FFF7F2FF03BCEA
:1002200005F030F80948804709480047FEE7FEE737
:10023000FEE7FEE7FEE7FEE7FEE7FEE7FEE7FEE796
:1002400004480549054A064B70470000430300086F
:10025000310100087803002078090020780500208B
:10026000780500200CB50020019000906C480068D3
:1002700040F480306A49086000BF6948006800F4B3
:10028000003000900198401C0190009818B9019826
:10029000B0F5A06FF1D16248006800F4003010B1F1
:1002A0000120009001E0002000900098012843D137
:1002B0005C48006840F010005A4908600846006831
:1002C00020F0030008600846006840F00200086063
:1002D00053484068524948600846406848600846AC
:1002E000406840F4806048600846406820F47C1014
:1002F00048600846406840F4E810486008460068D6
:1003000040F08070086000BF4548006800F0007051
:100310000028F9D04248406820F003004049486076
:100320000846406840F00200486000BF3C48406812
:1003300000F00C000828F9D10CBD10B5FFF792FFB2
:1003400010BD10B53648006840F00100344908601F
:10035000084640683449084031494860084600680A
:10036000324908402E4908600846006820F4802081
:1003700008600846406820F4FE0048604FF41F0003
:100380008860FFF7DAFF4FF000602949086010BD70
:1003900010B5002100200022214B5B6803F00C0106
:1003A00021B1042906D0082928D107E0214B224C8D
:1003B000236027E01F4B204C236023E0184B5B6831
:1003C00003F47010164B5B6803F48032022303EBD6
:1003D000904022B9194B4343174C23600DE0104B5A
:1003E0005B6803F4003323B1144B4343124C236086
:1003F00003E0104B4343104C236003E00D4B0E4CC5
:10040000236000BF00BF064B5B68C3F303130C4CB3
:10041000E15C094B1B68CB40074C236010BD00001A
:1004200000100240002002400000FFF8FFFFF6FE2F
:1004300008ED00E000127A000000002000093D00F5
:100440000400002031490143314A1160704770B502
:10045000002100230F22C47804B32D4C246804F437
:10046000E064C4F5E064210AC1F10403CA404478A1
:1004700004FA03F18478144021430901254C0678DD
:10048000A155047804F01F050124AC4005786D11D6
:10049000AD0005F1E025C5F8004109E0047804F05D
:1004A0001F050124AC401C4D0678761145F8264006
:1004B00070BD1A4A0A400243154B1B1F1A60704751
:1004C00039B1134A121D12680243114B1B1D1A60E9
:1004D00006E00F4A121D126882430D4B1B1D1A6065
:1004E0007047042808D14FF0E021096941F0040168
:1004F0004FF0E022116107E04FF0E021096921F09F
:1005000004014FF0E0221161704700000000FA057D
:100510000CED00E000E400E080E100E080FFFF1F60
:1005200010B50446CC48844208D10121042000F0D3
:100530002DFB0021042000F029FB46E0C74884423F
:1005400008D10121082000F021FB0021082000F043
:100550001DFB3AE0C248844208D10121102000F07E
:1005600015FB0021102000F011FB2EE0BD48844255
:1005700008D10121202000F009FB0021202000F0FB
:1005800005FB22E0B848844208D10121402000F058
:10059000FDFA0021402000F0F9FA16E0B348844249
:1005A00008D10121802000F0F1FA0021802000F024
:1005B000EDFA0AE0AE48844207D10121801500F02F
:1005C000E5FA0021A01500F0E1FA10BD10B50121F7
:1005D000084600F0DBFA0021012000F0D7FA10BD38
:1005E0002DE9F041024600250026002000230024CA
:1005F000002791F803C00CF00F0591F803C00CF030
:10060000100CBCF1000F03D091F802C04CEA0505B4
:1006100091F800C0BCF1000F31D0146800202BE02D
:100620004FF0010C0CFA00F3B1F800C00CEA03061D
:100630009E4220D183004FF00F0C0CFA03F7BC430D
:1006400005FA03FC4CEA040491F803C0BCF1280F3E
:1006500006D14FF0010C0CFA00FCC2F814C00AE0FD
:1006600091F803C0BCF1480F05D14FF0010C0CFA12
:1006700000FCC2F810C0401C0828D1D31460B1F8A7
:1006800000C0BCF1FF0F34DD546800202EE000F103
:10069000080C4FF0010808FA0CF3B1F800C00CEA9E
:1006A00003069E4221D183004FF00F0C0CFA03F792
:1006B000BC4305FA03FC4CEA040491F803C0BCF106
:1006C000280F05D100F1080C08FA0CF8C2F81480C4
:1006D00091F803C0BCF1480F07D100F1080C4FF0AE
:1006E000010808FA0CF8C2F81080401C0828CED384
:1006F0005460BDE8F0814FF6FF71018002218170E6
:100700000421C17070470246002093680B400BB172
:10071000012000E0002070470146886880B27047E1
:1007200002460020D3680B400BB1012000E00020FE
:1007300070470146C86880B27047016170474161E7
:1007400070470AB1016100E041617047C1607047C4
:100750004FF480320A4382618161826182698269D9
:10076000704702460020434B18684FF680731840CC
:1007700040EA021008433F4B186070473E49C86189
:100780007047F0B50A46002300240021002500F040
:100790000046B6F1004F02D1364EF16901E0354E08
:1007A0007168C0F3034583B200F44016B6F5401FEC
:1007B00008D121F070612F4E766826F070662D4FBB
:1007C0007E6012E000F48016B6F5801F06D1032685
:1007D00006FA05F4A14341F0706106E0460D3601CA
:1007E00003FA06F6B14341F0706122B1460D3601BD
:1007F00003FA06F6314300F00046B6F1004F02D18D
:100800001C4EF16101E01B4E7160F0BD30B500225D
:100810008B071C0F0F2303FA04F2164B08338C10BE
:1008200053F824309343134C08348D1044F825308A
:1008300023468C1053F824308C07240F00FA04F45C
:1008400023430C4C08348D1044F8253030BD0A4940
:10085000DC3108607047000000080140000C0140D6
:10086000001001400014014000180140001C01402C
:10087000002001400000014000002042DF480068E5
:1008800040F00100DD49086008464068DC49084046
:10089000DA49486008460068DA490840D7490860E4
:1008A0000846006820F4802008600846406820F46C
:1008B000FE0048604FF41F0088607047CF49096808
:1008C00021F48031CD4A11601146096821F480215C
:1008D0001160B0F5803F03D0B0F5802F0ED106E057
:1008E000C649096841F48031C44A116007E0C34930
:1008F000096841F4A021C14A116000E000BF00BFB7
:10090000704710B501460022002300204A11012A39
:1009100002D1BA4C236806E0022A02D1B74C236AFE
:1009200001E0B64C636A01F01F02012494401C40B0
:100930000CB1012000E0002010BD38B5002000906F
:100940000024002500BF3120FFF7DBFF054600989B
:10095000401C00900098B0F5A06F01D0002DF2D09F
:100960003120FFF7CEFF08B1012400E0002420462B
:1009700038BD01460020A14A106820F0F80040EA86
:10098000C10010607047A04908607047024600200F
:100990009A4B586820F47C1042EA01031843974BA5
:1009A0005860704798490866704701460020934A8E
:1009B000506820F003000843506070478F4840683B
:1009C00000F00C007047014600208C4A506820F06F
:1009D000F00008435060704701460020874A506885
:1009E00020F4E06008435060704701460020834ACD
:1009F000506820F4605040EAC1005060704729B14F
:100A00007E4A527A02437D4B5A7204E07B4A527A04
:100A100082437A4B5A7270477B49D83108607047DD
:100A200001460020754A506820F440400843506059
:100A300070470021714A20321170704A82F82010EC
:100A4000012802D004280AD104E001216B4A203297
:100A5000117005E00521694A2032117000E000BFE5
:100A600000BF70476949086070476449096A0143DB
:100A7000624A11627047654944390860704730B571
:100A800000210022002400235C4D6D6805F00C015C
:100A900021B1042905D0082923D105E05C4D05606A
:100AA00022E05B4D05601FE0544D6D6805F4701247
:100AB000524D6D6805F48034022505EB92421CB955
:100AC000544D554305600BE04C4D6D6805F4003501
:100AD0001DB1504D5543056002E04D4D5543056035
:100AE00002E04B4D056000BF00BF444D6D6805F04E
:100AF000F0010909484D6B5C0568DD4045603F4DDC
:100B00006D6805F4E061090A434D6B5C4568DD40A2
:100B100085603A4D6D6805F46051C90A3E4D6B5CC5
:100B20004568DD40C560354D6D6805F44041890B71
:100B30003A4D6B5CC568B5FBF3F5056130BD29B175
:100B40002E4A526902432D4B5A6104E02B4A5269E6
:100B500082432A4B5A61704729B1284A926902435D
:100B6000264B9A6104E0254A92698243234B9A619D
:100B7000704729B1214AD2690243204BDA6104E06F
:100B80001E4AD26982431D4BDA61704729B11B4A64
:100B9000D2680243194BDA6004E0184AD2688243F3
:100BA000164BDA60704729B1144A12690243134B9D
:100BB0001A6104E0114A12698243104B1A617047AE
:100BC00012494039086070470F49C86470470B49A3
:100BD000C87170470948406A40F080700749486210
:100BE000704701460020054A92680A400AB1012078
:100BF00000E00020704701498872704700100240F1
:100C00000000FFF8FFFFF6FE00004242800442426F
:100C100000127A0000093D0014000020240000208A
:100C200010B50446FE48844208D10121C014FFF7E4
:100C3000ADFF0021E014FFF7A9FFC4E0B4F1804F3D
:100C400008D101210846FFF7AEFF00210120FFF780
:100C5000AAFFB8E0F348844208D101210220FFF73F
:100C6000A2FF00210220FFF79EFFACE0EE48844285
:100C700008D101210420FFF796FF00210420FFF78F
:100C800092FFA0E0E948844208D101210820FFF743
:100C90008AFF00210820FFF786FF94E0E4488442A1
:100CA00008D101211020FFF77EFF00211020FFF75F
:100CB0007AFF88E0DF48844208D101212020FFF735
:100CC00072FF00212020FFF76EFF7CE0DA488442AB
:100CD00008D101214014FFF759FF00216014FFF7EC
:100CE00055FF70E0D548844209D10121C804FFF7BF
:100CF0004DFF00214FF40020FFF748FF63E0D0488C
:100D0000844209D101210805FFF740FF00214FF47B
:100D10008010FFF73BFF56E0CA48844209D1012109
:100D20004805FFF733FF00214FF40010FFF72EFFB7
:100D300049E0C548844208D101214020FFF733FF34
:100D400000214020FFF72FFF3DE0C048844208D13A
:100D500001218020FFF727FF00218020FFF723FFDC
:100D600031E0BB48844208D101218015FFF71BFF09
:100D70000021A015FFF717FF25E0B648844209D1EE
:100D800001210804FFF702FF00214FF48030FFF734
:100D9000FDFE18E0B048844209D101214804FFF764
:100DA000F5FE00214FF40030FFF7F0FE0BE0AB48FA
:100DB000844208D101218804FFF7E8FE00214FF4A6
:100DC0008020FFF7E3FE10BD00220288944B98427A
:100DD0000ED0994B98420BD0B0F1804F08D0914B78
:100DE000984205D0904B984202D0904B984204D143
:100DF0004FF68F731A404B881A438D4B984207D099
:100E00008C4B984204D04FF6FF431A40CB881A43CC
:100E100002808B8883850B880385814B98420BD099
:100E2000854B984208D08B4B984205D08A4B98420C
:100E300002D08A4B984201D10B7A03860123838228
:100E4000704770B5002400220023058C4FF6FE7613
:100E500035400584028C8388048B4FF68F752C40B7
:100E6000B51E2C400D882C43751E2A400D892A433F
:100E70004D882A436A4DA8420BD06F4DA84208D036
:100E8000744DA84205D0744DA84202D0734DA842BB
:100E900013D14FF6F7752A404D892A434FF6FB755B
:100EA0002A408D882A434FF6FF652B404FF6FF55A9
:100EB0002B408D892B43CD892B4383800483CD88A0
:100EC0008586028470BD70B5002400220023058C45
:100ED0004FF6EF7635400584028C8388048B48F604
:100EE000FF752C404FF6FF452C400D884FF6FF76DE
:100EF00006EA05252C434FF6DF752A400D8906EAE0
:100F000005152A434D8806EA05152A43444DA84293
:100F100002D0494DA8421DD14FF67F752A404D8918
:100F20004FF6FF7606EA05152A434FF6BF752A40AD
:100F30008D8806EA05152A434FF6FF352B404FF200
:100F4000FF752B408D8906EA85052B43CD8906EA7E
:100F500085052B4383800483CD880587028470BD7B
:100F600070B5002400220023058C4FF6FF66354043
:100F70000584028C8388848B4FF68F752C404FF646
:100F8000FC752C400D882C434FF6FF552A400D89E7
:100F90004FF6FF7606EA05252A434D8806EA052521
:100FA0002A431F4DA84202D0234DA8421DD14FF223
:100FB000FF752A404D894FF6FF7606EA05252A433C
:100FC0004FF6FF352A408D8806EA05252A434EF65E
:100FD000FF752B404DF6FF752B408D8906EA0515F0
:100FE0002B43CD8906EA05152B4383808483CD8866
:100FF0008587028470BD70B5002200230024058C13
:101000004EF6FF7635400584038C8488828B48F643
:10101000FF752A404FF6FF452A400D8820E000006A
:10102000002C01400004004000080040000C00407B
:10103000001000400014004000340140004C01400A
:10104000005001400054014000180040001C0040C6
:1010500000200040004001400044014000480140A1
:101060004FF6FF7606EA05252A434DF6FF752B401D
:101070000D8906EA05352B434D8806EA05352B43D5
:10108000FA4DA84202D0FA4DA84208D14BF6FF759E
:101090002C408D894FF6FF7606EA85152C43848017
:1010A0008283CD88A0F84050038470BD828B4FF2BC
:1010B000FF331A408283828B4FF6FF7303EA0123CA
:1010C0001A4382837047F0B50C4615460022002172
:1010D0000026078C4EF6FF7C07EA0C070784828BFC
:1010E000018C4FF6FF7707EA043640F6FF473A4097
:1010F0004FF6FF7707EA05273A434FF6FF7707EAEF
:1011000003373A43D94FB8420ED0D94FB8420BD02B
:10111000B0F1804F08D0D74FB84205D0D64FB84273
:1011200002D0D64FB84206D14DF6FF77394046F48B
:101130008057394305E047F6FF57394044F480575C
:10114000394382830184F0BD828B4FF6F3731A40DA
:101150008283828B0A4382837047F0B50C46154622
:10116000002200210026078C4FF6FF6C07EA0C07CF
:101170000784828B018C4FF6FF7707EA04264FF62F
:101180000C773A404FF6FF7707EA03172F433A43AD
:10119000B64FB8420ED0B64FB8420BD0B0F1804F28
:1011A00008D0B44FB84205D0B34FB84202D0B34FC5
:1011B000B84206D14FF6FF57394046F4807739439D
:1011C00005E04FF2FF57394044F48077394382837A
:1011D0000184F0BD028B4FF2FF331A400283028B71
:1011E0004FF6FF7303EA01231A4302837047F0B5F9
:1011F0000C461546002200210026078C4FF6EF7C96
:1012000007EA0C070784028B018C4FF6FF7707EA89
:10121000041640F6FF473A404FF6FF7707EA0337D8
:101220003A434FF6FF7707EA05273A438F4FB84214
:101230000ED08F4FB8420BD0B0F1804F08D08D4FF9
:10124000B84205D08C4FB84202D08C4FB84206D17C
:101250004FF6DF77394046F01007394305E04FF687
:101260005F77394044F01007394302830184F0BDB1
:10127000028B4FF6F3731A400283028B0A430283F8
:101280007047F0B50C46154600220021068C4FF63B
:10129000FE773E400684028B018C4FF60C7632407E
:1012A0007E1C06EA03162E433243704EB0420ED027
:1012B0006F4EB0420BD0B0F1804F08D06D4EB042AF
:1012C00005D06D4EB04202D06C4EB04206D14FF602
:1012D000FD76314044F00106314305E04FF6F576E6
:1012E000314044F00106314302830184F0BD70B502
:1012F00005460C465D4885420ED05D4885420BD0C0
:10130000B5F1804F08D05B48854205D05A488542E8
:1013100002D05A48854200D100E000BF208850B971
:101320002389A28861882846FFF7ABFFE188284619
:10133000FFF79EFF25E0208804280AD12389A28890
:1013400061882846FFF753FFE1882846FFF742FFF0
:1013500017E0208808280AD12389A28861882846B6
:10136000FFF7FBFEE1882846FFF7EEFE09E0238940
:10137000A28861882846FFF7A6FEE1882846FFF785
:1013800095FE70BD2DE9F04105460C46002601276B
:10139000608808B9022600E00026A088012801D153
:1013A000022700E001272088A0B92389A28861884C
:1013B0002846FFF766FFE1882846FFF759FF238993
:1013C0003A4631462846FFF712FFE1882846FFF7E4
:1013D00001FF13E02389A28861882846FFF707FFF1
:1013E000E1882846FFF7F6FE23893A46314628462B
:1013F000FFF747FFE1882846FFF73AFFBDE8F08195
:101400000A884B881A438B881A43CB881A430B8966
:101410001A434B891A438B891A43A0F8442070471A
:101420004FF6FF71818000210180C18041800172EF
:1014300070470021018041808180C180018141810C
:101440008181C1817047002101804180012181801B
:101450000021C1800181704700210180418081808D
:10146000C18001814181818170470000002C0140D1
:10147000003401400004004000080040000C00401F
:1014800021B1028842F00102028004E002884FF696
:10149000FE731A400280704731B1B0F8442042F424
:1014A0000042A0F8442005E0B0F84420C2F30E0248
:1014B000A0F8442070471AB183890B43838102E06E
:1014C00083898B43838170478182704741EA02039D
:1014D000A0F8483070471AB183890B43838102E03A
:1014E00083898B438381704701894FF6F8721140DD
:1014F000018170470A46002101894FF68F73194018
:1015000011430181704730B504460D4629462046F7
:10151000FFF7F0FF208940F00700208130BD2DE962
:10152000F04104460D4616461F46602D06D13B4647
:10153000012231462046FFF75AFE05E03B460122D4
:1015400031462046FFF79DFE29462046FFF7D2FF91
:10155000208940F007002081BDE8F08130B50C46BD
:1015600000210189C9B24FF6FF7505EA032515432D
:1015700025432943018130BD2DE9F04105460E4642
:1015800017469846002443463A4631462846FFF718
:10159000E5FF2C894FF6F870044044F007044FF63D
:1015A0008F70044044F070042C81BDE8F081F0B5E8
:1015B00004460D4616461F463B46324629462046FF
:1015C000FFF7CCFF208940F480402081F0BD0185E9
:1015D000828270470A46002101884FF68F731940B6
:1015E000114301807047F0B50C4615461E46002198
:1015F000002200230189028B038C4FF6F8773940D3
:1016000021434FF6FC473A4040F201173A434FF668
:10161000DD773B404FF6FF7707EA06172F433B4342
:10162000018102830384F0BD0A460021018B4FF63D
:101630008F7319401143018370470A460021018BC3
:1016400048F6FF7319404FF6FF7303EA022319436C
:10165000018370470A460021818B4FF68F73194032
:101660001143818370470A460021818B48F6FF733E
:1016700019404FF6FF7303EA022319438183704731
:1016800021B1028842F08002028004E002884FF615
:101690007F731A400280704721B1828842F00402B1
:1016A000828004E082884FF6FB731A408280704784
:1016B00021B1828842F00802828004E082884FF6DD
:1016C000F7731A408280704721B1828842F001028C
:1016D000828004E082884FF6FE731A408280704751
:1016E0000A460021018B4FF6F7731940114301831D
:1016F00070470A460021018B4FF2FF7319404FF6E5
:10170000FF7303EA02231943018370470A4600214D
:10171000818B4FF6F77319401143818370470A4656
:101720000021818B4FF2FF7319404FF6FF7303EADC
:1017300002231943818370470A460021018B4FF62B
:10174000FB7319401143018370470A460021018B46
:101750004FF6FF3319404FF6FF7303EA0223194394
:10176000018370470A460021818B4FF6FB731940B5
:101770001143818370470A460021818B4FF6FF3366
:1017800019404FF6FF7303EA022319438183704720
:101790000A460021018B4FF67F73194011430183E4
:1017A00070470A460021018BC1F30E014FF6FF730B
:1017B00003EA02231943018370470A460021818B03
:1017C0004FF67F7319401143818370470A46002109
:1017D000818BC1F30E014FF6FF7303EA0223194315
:1017E000818370470A460021018C4FF6FD73194032
:1017F0001143018470470A460021018C4FF6F773AC
:1018000019401143018470470A460021018C4FF6AC
:10181000DF7319404FF6FF7303EA02131943018483
:1018200070470A460021018C4FF67F7319404FF62E
:10183000FF7303EA02131943018470470A4600212B
:10184000018C4FF6FF5319404FF6FF7303EA022352
:101850001943018470470A460021018C4FF2FF733F
:1018600019404FF6FF7303EA0223194301847047BE
:101870000A460021018C4DF6FF7319404FF6FF73A5
:1018800003EA023319430184704730B50023012471
:101890008C40A3B2048C9C430484048C02FA01F5AE
:1018A000ADB22C43048430BD30B5002304248C40F9
:1018B000A3B2048C9C430484048C02FA01F5ADB2FB
:1018C0002C43048430BD70B5034600200024184624
:1018D000183001258D40ACB21D8CA5431D8409B183
:1018E000082909D100EB6100056825F07005056045
:1018F0000568154305600EE00D1FC5F34E0528442D
:10190000056825F4E045056005684FF6FF7606EAB0
:1019100002263543056070BD21B1028842F0020203
:10192000028004E002884FF6FD731A40028070477F
:1019300021B1028842F00402028004E002884FF6DE
:10194000FB731A400280704721B1828842F0800206
:10195000828004E082884FF67F731A40828070474D
:1019600002884FF6F7731A40028002880A43028009
:10197000704782884FF68F731A40828082880A43AC
:101980008280704702894FF6F8731A4002810289FB
:101990000A430281704702894FF67F731A40028121
:1019A00002890A43028170478184704781857047AC
:1019B000818670470187704781877047A0F8401083
:1019C000704702884FF6FF431A40028002880A439C
:1019D000028070470146888E70470146088F704725
:1019E0000146888F70470146B1F8400070470146B4
:1019F000888C70470146088D704702460020138A84
:101A00000B400BB1012000E000207047CA43028266
:101A1000704730B50246002000230024158A05EAED
:101A20000103958905EA010413B10CB1012000E01E
:101A3000002030BDCA4302827047000010B5044642
:101A4000FB48844209D101218803FFF79FF8002158
:101A50004FF48040FFF79AF832E0F648844209D10B
:101A600001214804FFF79FF800214FF40030FFF7F1
:101A70009AF825E0F048844209D101218804FFF753
:101A800092F800214FF48020FFF78DF818E0EB4822
:101A9000844209D10121C804FFF785F800214FF4E1
:101AA0000020FFF780F80BE0E548844208D10121CF
:101AB0000805FFF778F800214FF48010FFF773F85E
:101AC00010BD2DE9F04786B005460E460024A2461B
:101AD00000BFA1460027B08900B100BF2F462C8A65
:101AE0004CF6FF700440F08804432C82AC894EF61B
:101AF000F3100440B08831890843718908430443D6
:101B0000AC81AC8A4FF6FF400440B0890443AC82FC
:101B100001A8FEF7B4FFC648874202D1DDF810A045
:101B200001E0DDF80CA0A88900F4004040B10AEB08
:101B3000CA0000EB0A1031684900B0FBF1F807E079
:101B40000AEBCA0000EB0A1031688900B0FBF1F81B
:101B50006420B8FBF0F004012009642101FB108926
:101B6000A88900F4004040B1322000EBC900B0FB6E
:101B7000F1F000F00700044308E0322000EB091008
:101B80006421B0FBF1F000F00F0004432C8106B09B
:101B9000BDE8F0874FF41651016000218180C180BB
:101BA00001810C21418100218181704710B50246DD
:101BB0000020108A4FF2FF0318400B884C88234303
:101BC0008C882343CC8823431843108210BD002106
:101BD000018041808180C180704721B1828942F4B7
:101BE0000052828104E082894DF6FF731A4082819F
:101BF0007047F0B50346002400260025002040F67B
:101C00006A17B94200D100BF1846C1F3421401F06F
:101C10001F06012707FA06F5012C01D10C3004E05C
:101C2000022C01D1103000E014301AB107682F43A4
:101C3000076002E00768AF430760F0BD1AB1838A0E
:101C40000B43838202E0838A8B4383827047028A3C
:101C50004FF6F0731A400282028A0A4302827047EA
:101C600082894FF2FF731A40828182890A438281FE
:101C7000704721B1828942F00202828104E08289A8
:101C80004FF6FD731A4082817047028A4FF6DF7368
:101C90001A400282028A0A430282704721B1028AF4
:101CA00042F48042028204E0028A4BF6FF731A403B
:101CB00002827047C1F3080282807047014688881B
:101CC000C0F308007047818941F0010181817047AC
:101CD000028BD2B20283028B42EA01220283704756
:101CE000028B02F47F420283028B0A430283704715
:101CF00021B1828A42F02002828204E0828A4FF679
:101D0000DF731A408282704721B1828A42F010024A
:101D1000828204E0828A4FF6EF731A408282704713
:101D200021B1828A42F00802828204E0828A4FF660
:101D3000F7731A408282704721B1828942F40042CF
:101D4000828103E08289C2F30E028281704721B151
:101D5000828A42F40062828204E0828A4FF2FF7338
:101D60001A4082827047828A4FF6FB731A40828241
:101D7000828A0A438282704721B1828A42F002023B
:101D8000828204E0828A4FF6FD731A408282704795
:101D900002460020B1F5007F00D100BF13880B4040
:101DA0000BB1012000E00020704701F40072B2F591
:101DB000007F00D100BFCA430280704770B5024661
:101DC000002400230025002040F66A16B14200D10D
:101DD00000BFC1F3421501F01F03012606FA03F309
:101DE000012D02D19689334006E0022D02D1168AD8
:101DF000334001E0968A33400C12012606FA04F4BF
:101E00001688344013B10CB1012000E0002070BDF1
:101E100010B50022002340F66A14A14200D100BF91
:101E20000A1201249440A3B2DC43048010BD0000D8
:101E3000003801400044004000480040004C004091
:101E40000050004008B501211020FEF785FE4FF438
:101E50000050ADF8000010208DF8030003208DF82D
:101E6000020069460F48FEF7BBFB08BD70B504468B
:101E70000D480068401C0C490860A04210D14FF486
:101E800000510848FEF73FFCC0F10100C5B22A46E8
:101E90004FF400510348FEF754FC0020024908604B
:101EA00070BD0000001001402800002070470000B5
:101EB00010B5482000F0D0F9FFF7F8FFFFF7C2FF98
:101EC0004FF4E13000F078F84FF4E13000F09CFD81
:101ED00001F076FD00F0E6FE01214FF4616000F0B4
:101EE00011FA00F000FB47F230504FF08041888437
:101EF00000F054FB47F230501C49088000F099FB79
:101F000047F230501A49088000F0DAFB47F23050AF
:101F10001849088001F0D7F901F072F80222002177
:101F2000084601F064F903220021102001F05FF956
:101F3000102311A20021582001F03CF90C2310A21B
:101F40000221002001F036F90C2312A20421002006
:101F500001F030F90C2314A20621002001F02AF927
:101F600000F088FA642000F091F910BD24040040CC
:101F700024080040240C00406D2F6D696E000000A5
:101F800046696E64303A2020204C6F723A2020203F
:101F9000200000004E756D323A202020204C6F72D8
:101FA000323A202020000000503A202020493A20D8
:101FB0002020443A2020200010B586B0044601219C
:101FC00044F20400FEF7C8FD4FF40070ADF81400B1
:101FD00018208DF8170003208DF8160005A99348E6
:101FE000FEF7FEFA4FF48060ADF8140004208DF87F
:101FF000170005A98D48FEF7F3FA01940020ADF80B
:102000000800ADF80A00ADF80C00ADF810000C2087
:10201000ADF80E0001A98648FFF753FD012240F2FA
:1020200025518348FFF7E5FD01218148FFF7D5FDE4
:1020300025208DF8000001208DF8030000208DF888
:10204000010004208DF802006846FEF700FA06B091
:1020500010BD70B504460D46E1B27548FFF72AFE83
:1020600000BF80217248FFF793FE0028F9D0204678
:1020700070BD10B5044600BF20216D48FFF788FEF3
:102080000028F9D06A48FFF719FE10BD70B5044664
:102090000D4640216648FFF788FE80216448FFF71F
:1020A000B7FE13E021786248FFF704FE00BF40212D
:1020B0005F48FFF76DFE0128F9D140215C48FFF72A
:1020C00074FE80215A48FFF7A3FE641C2800A5F186
:1020D0000105E7D170BD0022564B1A60564A1160C7
:1020E000564A1060704770B540F225515048FFF7CE
:1020F00065FE002819D040F225514D48FFF788FEB3
:102100004B48FFF7DBFDC5B24D48007870B92C2D68
:102110000CD14C4801780078401C4A4A10704A485B
:1021200020F811500120464908707DE044480078AD
:1021300001280ED1122D0CD1424801780078401CA4
:10214000404A1070404820F8115002203C49087065
:102150006AE03B480078022825D13A4801780078A7
:10216000401C384A1070384820F81150104600784A
:10217000042801DA5B2D57D132480078401E3249DD
:1021800031F81000314908602E480078801E2E4931
:1021900031F810002E49086001202E4908700320F4
:1021A0002749087040E02648007803282CD12648AB
:1021B0002449097830F811005B2814D1002240F23C
:1021C00025511B48FFF715FD0020224908701D49C5
:1021D0000870012240F225511548FFF70AFD002042
:1021E0001749087020E0002016490870002405E017
:1021F0000020154921F81400601CC4B2052CF7DB3F
:1022000000200F4908700FE000200E4908700024DC
:1022100005E000200C4921F81400601CC4B2052C14
:10222000F7DB00200649087070BD0000000801407F
:102230000038014030000020340000202C00002035
:1022400042000020380000203A000020F402002064
:10225000F80200204300002010B504466FF004008F
:10226000FEF73FF9E11704EB5171C1F3C701234AAF
:1022700011701046007800EB4001C1EBC0104FF622
:10228000FF7101EAC0001E49088010BD01461C4ACA
:1022900012884A434FF0E0235A6100229A610122DA
:1022A0001A6100BF4FF0E022106900F001021AB17C
:1022B00000F48032002AF5D000224FF0E0231A61AA
:1022C0009A61704701460D4A12784A434FF0E02365
:1022D0005A6100229A6101221A6100BF4FF0E02288
:1022E000106900F001021AB100F48032002AF5D022
:1022F00000224FF0E0231A619A61704744000020E9
:102300004600002030B589B005460C46012148033F
:10231000FEF722FC01211020FEF71EFC4FF4707026
:10232000ADF8200018208DF8230003208DF822003E
:1023300008A9FE48FEF754F9681E80B2ADF81800EF
:10234000601E80B2ADF814000020ADF81A00ADF8A0
:1023500016008DF81C0005A9F548FEF735FD602034
:10236000ADF804000120ADF806000020ADF8100023
:102370003220ADF80A000020ADF80C0001A9EC48AD
:10238000FEF75FFD0821EA48FFF7AAF96020ADF8E3
:1023900004000120ADF806000020ADF81000322046
:1023A000ADF80A000020ADF80C0001A9E048FEF7E6
:1023B0008AFD0821DE48FFF79CF96020ADF8040093
:1023C0000120ADF806000020ADF810003220ADF875
:1023D0000A000020ADF80C0001A9D548FEF7C0FDA9
:1023E0000821D348FFF792F96020ADF804000120DE
:1023F000ADF806000020ADF810003220ADF80A005C
:102400000020ADF80C0001A9C948FEF7F4FD082131
:10241000C748FFF784F90121C548FFF731F90121C9
:10242000C348FFF72DF80121C148FFF735F809B07F
:1024300030BDBF4A343210807047BD4A38321080F8
:102440007047BB4A3C3210807047B94A4032108016
:10245000704770B506460C4615463046FFF7E9FF53
:102460002046FFF7EAFF2846FFF7EBFF1846FFF785
:10247000ECFF70BD1FB501211020FEF77AFB42F280
:102480000F70ADF8080040F2CF20ADF80400002036
:10249000ADF80A00ADF806008DF80C0001A9A548BA
:1024A000FEF792FC0121A348FFF7B0FA0122114682
:1024B000A048FFF700F84FF44070FDF7C3FF362047
:1024C0008DF8000005208DF8010000208DF8020035
:1024D00001208DF803006846FDF7B9FF01219548FA
:1024E000FEF7CEFF1FBD00B587B001210D20FEF71E
:1024F00033FB01219048FEF744F901218F48FEF794
:1025000040F90820ADF8180004208DF81B000320C6
:102510008DF81A0006A98A48FEF762F84FF40040C9
:10252000ADF8180006A98748FEF75AF801210846B9
:10253000FEF71FFB4FF08040FEF772FB03A8FEF78B
:102540006FFF0020ADF80C004EF66020ADF81000D3
:102550000020ADF81200ADF80E0003A94FF0804046
:10256000FEF732FC00231A4603214FF08040FFF7AC
:102570003AF86846FEF767FF0020ADF808006946A4
:102580004FF08040FEF7B3FE00204FF0804188847A
:1025900001218807FEF774FF07B000BD00B587B0C2
:1025A00001210920FEF7D8FA3020ADF818000420E8
:1025B0008DF81B0003208DF81A0006A96048FEF76D
:1025C0000FF801210220FEF7D4FA01215E48FEF740
:1025D000D8F85E48FEF724FB03A8FEF721FF002091
:1025E000ADF80C004EF66020ADF810000020ADF8FC
:1025F0001200ADF80E0003A95448FEF7E5FB0023D6
:102600001A4603215148FEF7EEFF6846FEF71BFF0E
:102610000020ADF8080069464C48FEF768FE00212E
:102620004A48FFF7C1F901214848FEF729FF07B0E2
:1026300000BD00B587B001210820FEF78DFAC0204B
:10264000ADF8180004208DF81B0003208DF81A0047
:1026500006A93B48FDF7C4FF01210420FEF789FAD3
:102660003B48FEF7DDFA03A8FEF7DAFE0020ADF8DE
:102670000C004EF66020ADF810000020ADF81200FE
:10268000ADF80E0003A93248FEF79EFB00231A4660
:1026900003212F48FEF7A7FF6846FEF7D4FE00206F
:1026A000ADF8080069462A48FEF721FE00212848B7
:1026B000FFF77AF901212648FEF7E2FE07B000BDD8
:1026C00000B587B001210420FEF746FA0320ADF8DB
:1026D000180004208DF81B0003208DF81A0006A9AD
:1026E0001848FDF77DFF01210820FEF742FA19483E
:1026F000FEF796FA03A8FEF793FE0020ADF80C0053
:102700004EF66020ADF810000020ADF81200ADF8D4
:102710000E0003A90F48FEF757FB00231A460321BA
:102720000C48FEF760FF684616E00000001001400C
:102730000034014000100040000230000003180087
:10274000000C01400008014000081A00000400408D
:1027500000080040000C0040FEF775FE0020ADF8B8
:10276000080069461F48FEF7C2FD00211D48FFF71B
:102770001BF901211B48FEF783FE07B000BD01468F
:10278000022906D003290ED0042914D0052924D10A
:1027900019E04FF08042928C10B247F230524FF065
:1027A00080439A841BE0104A128810B247F23052DC
:1027B0000D4B1A8013E00D4A128810B247F23052C6
:1027C0000A4B1A800BE0074A2432128810B247F2F3
:1027D0003052044B24331A8001E0002000BF00BFB8
:1027E00070470000000C0040240400402408004012
:1027F000002001E0411CC8B20A28FBDB704710B57D
:102800004FF400617F48FDF798FF4FF480617D48E9
:10281000FDF793FFFFF7ECFF4FF400617948FDF7F8
:102820008EFFFFF7E5FF4FF480617648FDF787FFE5
:10283000FFF7DEFF10BD10B54FF400617148FDF7E2
:102840007EFF4FF480616F48FDF777FFFFF7D0FF01
:102850004FF400616B48FDF770FF10BD70B5044682
:10286000002528E004F0800028B14FF4006165489D
:10287000FDF763FF04E04FF400616248FDF75FFF7E
:10288000FFF7B6FF4FF480615E48FDF756FFFFF794
:10289000AFFF4FF480615B48FDF751FF072D04D176
:1028A0004FF400615748FDF748FF6006040EFFF73C
:1028B0009FFF681CC5B2082DD4DB70BD10B54FF466
:1028C00000615048FDF73BFFFFF792FF4FF4806136
:1028D0004C48FDF732FFFFF78BFF4FF4806149480A
:1028E000FDF72DFFFFF784FF4FF400614548FDF72A
:1028F00024FF10BD10B54FF400614248FDF71DFFE5
:10290000FFF776FF4FF480613E48FDF716FFFFF7B3
:102910006FFF4FF480613B48FDF711FFFFF768FF41
:1029200010BD70B505460024002619E06006040EAF
:102930004FF480613348FDF700FFFFF759FF4FF474
:1029400000613048FDF7DFFE08B1601CC4B24FF4EF
:1029500080612C48FDF7F3FEFFF74AFF701CC6B2FA
:10296000082EE3DB15B9FFF7C5FF01E0FFF7A6FF6F
:10297000204670BD10B54FF400612248FDF7DDFE22
:10298000FFF736FF4FF480611E48FDF7D6FEFFF7D4
:102990002FFF4FF400611B48FDF7B5FE08B101247D
:1029A00000E000244FF480611648FDF7C8FEFFF7F1
:1029B0001FFF204610BD08B501210820FEF7CCF806
:1029C0004FF44060ADF8000003208DF802001420A1
:1029D0008DF8030069460B48FDF702FEFFF72BFF59
:1029E00008BD70B50446FFF7E6FFFFF708FF204675
:1029F000FFF734FFFFF7BEFF0546FFF71CFF284631
:102A000070BD0000000C014010B586B004460121E5
:102A10009848FEF7AEF80420ADF8140018208DF8A1
:102A2000170003208DF8160005A99348FDF7D8FD7F
:102A30000820ADF8140004208DF8170005A98E4871
:102A4000FDF7CEFD01940020ADF80800ADF80A00B6
:102A5000ADF80C00ADF810000C20ADF80E0001A987
:102A60008648FFF72EF8012240F225518348FFF7F0
:102A7000C0F801218148FFF7B0F826208DF800004A
:102A800001208DF803008DF8010003208DF802006D
:102A90006846FDF7DCFC06B010BD70B504460D4677
:102AA000E1B27648FFF706F900BF80217348FFF7CF
:102AB0006FF90028F9D0204670BD10B5044600BF5C
:102AC00020216E48FFF764F90028F9D06B48FFF722
:102AD000F5F810BD70B504460D4640216748FFF774
:102AE00064F980216548FFF793F913E02178634882
:102AF000FFF7E0F800BF40216048FFF749F90128DF
:102B0000F9D140215D48FFF750F980215B48FFF77C
:102B10007FF9641C2800A5F10105E7D170BD0022F2
:102B2000574B1A60574A1160574A1060704770B58A
:102B300040F225515148FFF741F9002819D040F2E1
:102B400025514E48FFF764F94C48FFF7B7F8C5B276
:102B50004E48007870B92C2D0CD14D480178007882
:102B6000401C4B4A10704B4820F811500120474937
:102B700008707DE04548007801280ED1122D0CD157
:102B8000434801780078401C414A1070414820F8C1
:102B9000115002203D4908706AE03C480078022844
:102BA00025D13B4801780078401C394A10703948DB
:102BB00020F8115010460078042801DA5B2D57D117
:102BC00033480078401E334931F81000324908601C
:102BD0002F480078801E2F4931F810002F490860D7
:102BE00001202F49087003202849087040E0274839
:102BF000007803282CD127482549097830F811009E
:102C00005B2814D1002240F225511C48FEF7F1FF49
:102C10000020234908701E490870012240F2255106
:102C20001648FEF7E6FF00201849087020E0002053
:102C300017490870002405E00020164921F8140007
:102C4000601CC4B2052CF7DB0020104908700FE0AF
:102C500000200F490870002405E000200D4921F8EC
:102C60001400601CC4B2052CF7DB00200749087073
:102C700070BD000004000200000801400044004054
:102C80004C00002050000020480000205E00002082
:102C90005D00002054000020FC0200200003002002
:102CA0005C00002008B501211020FDF755FF41F61A
:102CB0000F40ADF8000010208DF8030003208DF8C0
:102CC000020069467C48FDF78BFC01212020FDF7BE
:102CD00043FF0420ADF8000010208DF8030003200E
:102CE0008DF8020069467548FDF77AFC08BD10B5FD
:102CF00004463CB902217048FDF71FFD01216E48D2
:102D0000FDF71DFD012C07D101216B48FDF715FDD5
:102D100002216948FDF713FD022C07D10121664805
:102D2000FDF70DFD02216448FDF709FD10BD10B54A
:102D300004463CB904216048FDF7FFFC08215E48C9
:102D4000FDF7FDFC012C07D108215B48FDF7F5FCE0
:102D500004215948FDF7F3FC022C07D10421564801
:102D6000FDF7EDFC08215448FDF7E9FC10BD10B556
:102D700004464CB94FF480614F48FDF7DEFC4FF438
:102D800000614D48FDF7DBFC012C07D1E1024A4808
:102D9000FDF7D3FCA1024848FDF7D1FC022C07D176
:102DA000A1024548FDF7CBFC61024348FDF7C7FC93
:102DB00010BD10B5044644B904214048FDF7BDFCE0
:102DC0004FF480513C48FDF7BAFC012C07D1210398
:102DD0003948FDF7B2FC04213848FDF7B0FC022C5D
:102DE00007D1E1023448FDF7AAFC04213348FDF77E
:102DF000A6FC10BD10B50020FFF779FF0020FFF7FB
:102E000096FF0020FFF7D5FF0020FFF7B0FF10BDB1
:102E100010B50120FFF76BFF0120FFF788FF0120AD
:102E2000FFF7C7FF0120FFF7A2FF10BD10B502207A
:102E3000FFF75DFF0220FFF77AFF0220FFF7B9FFDF
:102E40000220FFF794FF10BD10B50220FFF74FFFDF
:102E50000020FFF76CFF0220FFF7ABFF0020FFF719
:102E600086FF10BD10B50120FFF741FF0020FFF7DE
:102E70005EFF0120FFF79DFF0020FFF778FF10BDE8
:102E800010B50020FFF733FF0220FFF750FF0020AE
:102E9000FFF78FFF0220FFF76AFF10BD10B500207B
:102EA000FFF725FF0120FFF742FF0020FFF781FF1A
:102EB0000120FFF75CFF10BD00100140001401402D
:102EC00010B50446FFF79BFC7820FFF7C7FCFFF71F
:102ED00051FD0020FFF7C2FCFFF74CFD2046FFF735
:102EE000BDFCFFF747FDFFF7A6FC10BD10B504467B
:102EF000FFF785FC7820FFF7B1FCFFF73BFD402092
:102F0000FFF7ACFCFFF736FD2046FFF7A7FCFFF705
:102F100031FDFFF790FC10BD70B504460D461DB1A4
:102F2000E0B2FFF7E3FF02E0E0B2FFF7C9FF70BDD8
:102F300070B50646002418E004F1B0000021FFF748
:102F4000EBFF00210846FFF7E7FF00211020FFF705
:102F5000E3FF002505E001213046FFF7DDFF681C97
:102F6000C5B2802DF7DB601CC4B2082CE4DB70BD59
:102F700006E041F6650100E0491E0029FCD1401E33
:102F80000028F6D17047014605E0002001E0421C10
:102F9000D0B27B28FBDB0A00A1F10101F5D170471B
:102FA00070B504460D4605F1B0000021FFF7B4FFEF
:102FB000102141EA14100021FFF7AEFF04F00F00CA
:102FC0000021FFF7A9FF70BD10B500218D20FFF78C
:102FD000A3FF00211420FFF79FFF0021AF20FFF780
:102FE0009BFF10BD10B500218D20FFF795FF00213C
:102FF0001020FFF791FF0021AE20FFF78DFF10BDDD
:1030000070B5002418E004F1B0000021FFF784FF40
:1030100000210846FFF780FF00211020FFF77CFF0A
:10302000002505E001210020FFF776FF681CC5B2EE
:10303000802DF7DB601CC4B2082CE4DB70BD70B5DA
:10304000002418E004F1B0000021FFF765FF002123
:103050000846FFF761FF00211020FFF75DFF002504
:1030600005E001210846FFF757FF681CC5B2802D17
:10307000F7DB601CC4B2082CE4DB70BD2DE9F0471F
:1030800007460E469046994600250024A8F12000E8
:10309000C5B27F2F02DD0027B01CC6B2B9F1100FF8
:1030A00024D131463846FFF77BFF002408E004EBCB
:1030B0000511BF4A505C0121FFF72EFF601CC4B20E
:1030C000082CF4DB701CC1B23846FFF769FF0024FE
:1030D00009E004EB05110831B54A505C0121FFF706
:1030E0001BFF601CC4B2082CF3DB12E031463846EB
:1030F000FFF756FF00240AE005EB4501AD4A02EB5D
:103100004101085D0121FFF707FF601CC4B2062CD6
:10311000F2DBBDE8F08710B50246012000E0504325
:103120000B00A1F10104E1B2F9D110BD2DE9FF5F5F
:10313000074691461E460E9D4FF0000A002435E0DA
:10314000301B401EC1B20A20FFF7E5FFB9FBF0F0CB
:103150000A21B0FBF1F201FB1208BAF1000F14D101
:10316000701EA04211DDB8F1000F0CD1AB4605EB8B
:10317000DB71491001FB0471C8B22B462022019972
:10318000FFF77CFF10E04FF0010AAB4605EBDB7167
:10319000491001FB0471C8B208F13001CAB22B46D4
:1031A0000199FFF76BFF00BF601CC4B2B442C7DBDC
:1031B000BDE8FF9F2DE9F04104460F4615469846AD
:1031C00000260FE0AA5D434639462046FFF756FF2A
:1031D00004F10800C4B2782C02DD0024B81CC7B288
:1031E000701CC6B2A85D0028ECD1BDE8F0812DE9C5
:1031F000F04180460E461546002731464046FFF70F
:10320000CFFE00240AE06C4A02EB8511085D012123
:10321000FFF782FE781CC7B2601CC4B2102CF2DB30
:10322000701CC1B24046FFF7BBFE00240CE06900F1
:10323000491C614A02EB4111085D0121FFF76CFE58
:10324000781CC7B2601CC4B2102CF0DBBDE8F08162
:103250002DE9F05F06460F4690461C46DDF828A093
:103260004FF0000BE11704EB5171C910A4EBC10141
:1032700031B92046E11704EB5171C1F3C70506E0EF
:103280002046E11704EB5171C910491CCDB23D46EF
:1032900015E029463046FFF783FEB1460BE059465C
:1032A0000BF1010B1AF801000121FFF735FE09F1BE
:1032B000010000F0FF09C145F1DB681CC5B2A54261
:1032C000E7DBBDE8F09F10B5FFF775FB4FF44870E2
:1032D000FEF7DCFF0021AE20FFF71EFE00210846AE
:1032E000FFF71AFE00211020FFF716FE00214020F4
:1032F000FFF712FE0021B020FFF70EFE0021812013
:10330000FFF70AFE0021FF20FFF706FE0021A120A3
:10331000FFF702FE0021A620FFF7FEFD0021A820F6
:10332000FFF7FAFD00213F20FFF7F6FD0021C8203E
:10333000FFF7F2FD0021D320FFF7EEFD0021084644
:10334000FFF7EAFD0021D520FFF7E6FD00218020F0
:10335000FFF7E2FD0021D820FFF7DEFD0021052068
:10336000FFF7DAFD0021D920FFF7D6FD0021F1207B
:10337000FFF7D2FD0021DA20FFF7CEFD0021122059
:10338000FFF7CAFD0021DB20FFF7C6FD002130203A
:10339000FFF7C2FD00218D20FFF7BEFD00211420A4
:1033A000FFF7BAFD0021AF20FFF7B6FD10BD00000A
:1033B0002A630008026100085F0000202DE9FE4337
:1033C000A2480468204602F097FC064632460B46A7
:1033D0009FA102A801F0FEFA102302AA06211846B6
:1033E000FFF7E8FE9C480568284602F085FC064683
:1033F00032460B4696A101A801F0ECFA102301AA6F
:1034000006213820FFF7D6FE9448D0F800804046C9
:1034100002F072FC064632460B468DA1684601F06A
:10342000D9FA10236A4606216820FFF7C3FEBDE8DB
:10343000FE832DE9F84F04460D46281B8849086095
:103440008848006809680844864908608449096812
:10345000854A1268881A02F0F9FC82467F480168A2
:10346000504602F00BFD80467E48006802F0EEFCFC
:10347000009079480168009802F000FD8246784883
:10348000006802F0E3FC009070480168009802F0C8
:10349000F5FC8346514602F05BFC8146414602F052
:1034A00057FC074602F0B6FC06466D4800686E49B8
:1034B00008603046BDE8F88F2DE9F84F04460D4608
:1034C000281B6A4908606A48006809680844684916
:1034D000086066490968674A1268881A02F0B6FCF3
:1034E00082465E480168504602F0C8FC804660484B
:1034F000006802F0ABFC009057480168009802F0A9
:10350000BDFC82465948006802F0A0FC00904F487C
:103510000168009802F0B2FC8346514602F018FCA4
:103520008146414602F014FC074602F073FC064651
:103530004E4800684F4908603046BDE8F88F2DE9D5
:10354000F84F04460D46281B4B4908604B4800685D
:10355000096808444949086047490968484A1268A7
:10356000881A02F073FC82463C480168504602F01B
:1035700085FC80464148006802F068FC00903648AF
:103580000168009802F07AFC82463B48006802F02D
:103590005DFC00902D480168009802F06FFC8346A6
:1035A000514602F0D5FB8146414602F0D1FB074669
:1035B00002F030FC06463048006831490860304669
:1035C000BDE8F88F2DE9F84F04460D46281B2D491C
:1035D00008602D480068096808442B49086029499B
:1035E00009682A4A1268881A02F030FC82461B4891
:1035F0000168504602F042FC80462348006802F011
:1036000025FC009014480168009802F037FC8246BF
:103610001C48006802F01AFC00900C4801680098F1
:1036200002F02CFC8346514602F092FB8146414653
:1036300002F08EFB074602F0EDFB064611480068DB
:10364000124908603046BDE8F88F00006002002093
:1036500025312E316600000064020020680200203F
:1036600070020020740200206C0200207C02002006
:103670008002002078020020880200208C020020B6
:103680008402002094020020980200209002002072
:103690002DE9F84F0121AD48FEF7AFF900287DD0A4
:1036A0000121AA48FEF7C6F90520FEF7DFFB052039
:1036B000FFF765F8A0F5EA403038A5490860022018
:1036C000FFF75DF8A0F5EA403038A2490860032012
:1036D000FFF755F8A0F5EA4030389F49086004200C
:1036E000FFF74DF8A0F5EA4030389C49086098484B
:1036F0000068984909680844974909680844974947
:10370000096800EB010A4FEAEA700AEB907080103A
:103710004FF4167148434FF4C35190FBF1FB5846E8
:1037200002F0D5F906468E4A8E4B02F0E7F90446C0
:103730008D4A8E4B02F0E2F9804602F097F98C49EF
:1037400008600846006802F0D7FA044622460B4695
:1037500088A18A4801F03EF91023884A00213020D0
:10376000FFF728FD7A480068002804DA78480068E6
:1037700040427749086077480068002804DA7548B5
:10378000006840427349086073480068002804DA02
:103790007148006840427049086000E0D4E06F481A
:1037A0000068002804DA6D48006840426B490860F0
:1037B000734800684FF4C35148434FF4167190FBAF
:1037C000F1F4214662480068FFF733FE6D49086056
:1037D0006B4800684FF4C35148434FF4167190FB97
:1037E000F1F421465B480068FFF766FE6649086011
:1037F000634800684FF4C35148434FF4167190FB7F
:10380000F1F4214654480068FFF799FE5F490860CB
:103810005B4800684FF4C35148434FF4167190FB66
:10382000F1F421464D480068FFF7CCFE5849086086
:103830005448006810F1050F03DB52480068052862
:1038400006DD544800684F4909680844514908603A
:103850004D48006810F1050F03DB4B480068052850
:1038600006DD4D4800684849096808444A4908602F
:103870004648006810F1050F03DB4448006805283E
:1038800006DD464800684149096808444349086024
:103890003F48006810F1050F03DB3D48006805282C
:1038A00006DD3F4800683A49096808443C49086019
:1038B000384800883B49088037480088091D08803F
:1038C00036480088091D088035480088091D088091
:1038D000FFF774FD1E4800684FF4167148434FF41B
:1038E000C35190FBF1F0304908600C2000902F4844
:1038F0000123022142683220FFF718FC0C2001232B
:1039000000902B48022102687320FFF70FFC0C2067
:10391000012300902748042102683220FFF706FCAB
:103920000E4800684FF4167148434FF4C35190FBA2
:10393000F1F0214908600C20012300901F48042168
:1039400002687320FFF7F2FBBDE8F88F001000401B
:103950009C020020A0020020A4020020A802002057
:10396000A4703D0AD7A3B03F6F1283C0CA2109409B
:10397000E002002025322E3266000000E90200201D
:10398000CC020020BC020020C0020020C4020020A3
:10399000C8020020AC020020B0020020B4020020C7
:1039A000B802002034340140D0020020040300207B
:1039B000F402002000030020DC020020FC020020B2
:1039C00008B501210420FDF7C7F84FF41F60ADF8DA
:1039D000000028208DF803006946FE48FCF700FE31
:1039E00008BD10B51021FB48FCF78DFEB8B92021A9
:1039F000F848FCF788FE90B94021F648FCF783FEB2
:103A000001280CD18021F348FCF77DFE38B94FF432
:103A10008071F048FCF777FE08B9FFF7EBF9102149
:103A2000EC48FCF770FEE0B92021EA48FCF76BFE99
:103A3000B8B94021E748FCF766FE90B98021E54817
:103A4000FCF761FE68B94FF48071E248FCF75BFE59
:103A500038B94FF40061DF48FCF755FE08B9FFF7AD
:103A6000C9F91021DB48FCF74EFEE8B92021D948FE
:103A7000FCF749FEC0B94021D648FCF744FE98B98E
:103A80008021D448FCF73FFE70B94FF48071D148D3
:103A9000FCF739FE40B94FF40061CE48FCF733FE25
:103AA000012801D1FFF7C2F92021CA48FCF72BFEFB
:103AB00060B94021C748FCF726FE38B98021C548C7
:103AC000FCF721FE012801D1FFF7DAF92021C148D6
:103AD000FCF719FE68B94021BE48FCF714FE012826
:103AE00007D18021BB48FCF70EFE012801D1FFF76A
:103AF000C7F92021B748FCF706FE01280BD1402169
:103B0000B448FCF700FE30B98021B248FCF7FBFD59
:103B100008B9FFF799F92021AE48FCF7F4FD012818
:103B20000CD14021AB48FCF7EEFD012806D18021E5
:103B3000A848FCF7E8FD08B9FFF786F910BD10B5F5
:103B40002021A448FCF7DFFD012816D14021A1481F
:103B5000FCF7D9FD012810D180219E48FCF7D3FD48
:103B600001280AD101029B48FCF7CDFD012804D1B0
:103B7000C1029848FCF7C7FDE0B110219548FCF759
:103B8000C2FD012825D120219248FCF7BCFD012867
:103B90001FD140218F48FCF7B6FD012819D18021A3
:103BA0008C48FCF7B0FD012813D1C1028948FCF70D
:103BB000AAFD70B92320FEF769FBFFF737F94FF430
:103BC0004870FEF763FBFFF74DF94FF4F070FEF716
:103BD0005DFB10BD10B520217E48FCF794FD012847
:103BE00016D140217B48FCF78EFD012810D18021A1
:103BF0007848FCF788FD01280AD101027548FCF7D6
:103C000082FD012804D1C1027248FCF77CFDE0B1BD
:103C100010217048FCF777FD012825D120216D483F
:103C2000FCF771FD01281FD140216A48FCF76BFDAC
:103C3000012819D180216748FCF765FD012813D1BF
:103C4000C1026448FCF75FFD70B92320FEF71EFB3C
:103C5000FFF7ECF84FF44870FEF718FBFFF71EF97A
:103C60004FF4F070FEF712FB10BD10B56BE01021A1
:103C70005848FCF748FD012806D04FF4807155489C
:103C8000FCF741FD012804D1FFF7D0F80A20FEF728
:103C9000FDFA10214F48FCF736FDD0B920214D48E0
:103CA000FCF731FDA8B940214A48FCF72CFD01285A
:103CB0000FD180214748FCF726FD012809D10102D8
:103CC0004448FCF720FD20B9FFF7DAF86420FEF73E
:103CD000DDFA10213F48FCF716FDD8B920213D48F8
:103CE000FCF711FD012815D140213A48FCF70BFDE6
:103CF00001280FD180213748FCF705FD50B94FF45A
:103D000080713448FCF7FFFC20B9FFF79DF8642070
:103D1000FEF7BCFA4FF400612E48FCF7F4FC0128D2
:103D200011D14FF4FA70FEF7B1FAFFF7B7F84FF47C
:103D30007A70FEF7ABFA002027490860FFF75AF8BF
:103D40006420FEF7A3FA2448006803288FD010BD32
:103D500010B5FFF746FEFFF788FF20211D48FCF74E
:103D6000D2FC012819D140211A48FCF7CCFC0128CB
:103D700013D180211748FCF7C6FC01280DD10102A0
:103D80001448FCF7C0FC012807D1C1021148FCF718
:103D9000BAFC10B91148006830B310210D48FCF787
:103DA000B2FC012827D120210A48FCF7ACFC0128ED
:103DB00021D140210748FCF7A6FC01281BD1802116
:103DC0000448FCF7A0FC012815D1C1020148FCF70A
:103DD0009AFC05E000080140F402002004030020E2
:103DE00048B9FE48006830B9FC480068401CFB49EF
:103DF0000860FFF7A4FE2021F948FCF784FC0128A5
:103E00001BD14021F648FCF77EFC012815D180210A
:103E1000F348FCF778FC01280FD10102F048FCF7C9
:103E200072FC012809D1C102ED48FCF76CFC0128A5
:103E300003D1EA480068012821D01021E848FCF7A6
:103E400062FC012820D12021E548FCF75CFC012818
:103E50001AD14021E248FCF756FC012814D18021F8
:103E6000DF48FCF750FC01280ED1C102DC48FCF70A
:103E70004AFC012808D1D9480068012804D1002053
:103E8000D6490860FFF7A6FE10BD10B5FFF7A9FDE3
:103E9000FFF7EBFE2021D248FCF735FC012819D1B1
:103EA0004021CF48FCF72FFC012813D18021CC48BA
:103EB000FCF729FC01280DD10102C948FCF723FCBD
:103EC000012807D1C102C648FCF71DFC10B9C34840
:103ED0000068F8B11021C248FCF715FC012820D178
:103EE0002021BF48FCF70FFC01281AD14021BC4813
:103EF000FCF709FC012814D18021B948FCF703FC28
:103F000001280ED1C102B648FCF7FDFB48B9B34801
:103F1000006830B9B1480068401CB0490860FFF73C
:103F200059FE2021AE48FCF7EEFB01281BD14021B1
:103F3000AB48FCF7E8FB012815D18021A848FCF725
:103F4000E2FB01280FD10102A548FCF7DCFB0128A8
:103F500009D1C102A248FCF7D6FB012803D19F4832
:103F60000068012821D010219D48FCF7CCFB0128D6
:103F700020D120219A48FCF7C6FB01281AD1402104
:103F80009748FCF7C0FB012814D180219448FCF726
:103F9000BAFB01280ED1C1029148FCF7B4FB0128FD
:103FA00008D18E480068012804D100208B490860A0
:103FB000FFF7C5FD10BD10B50024FFF712FDFFF798
:103FC00054FE20218648FCF79EFB012819D1402190
:103FD0008348FCF798FB012813D180218048FCF727
:103FE00092FB01280DD101027D48FCF78CFB0128D2
:103FF00007D1C1027A48FCF786FB10B979480068FE
:10400000F8B110217648FCF77EFB012825D120214C
:104010007348FCF778FB01281FD140217048FCF75A
:1040200072FB012819D180216D48FCF76CFB012837
:1040300013D1C1026A48FCF766FB70B96948006891
:1040400058B9FEF7D7FE67480068644941F8240074
:104050006420FEF71BF9601CC4B220216048FCF705
:1040600052FB012815D140215D48FCF74CFB01288B
:104070000FD180215A48FCF746FB012809D10102E3
:104080005748FCF740FB012803D156480068012837
:1040900037D010215248FCF736FB012815D12021DA
:1040A0004F48FCF730FB01280FD140214C48FCF76A
:1040B0002AFB012809D180214948FCF724FB01286B
:1040C00003D14848006801281BD010214448FCF760
:1040D0001AFB01282ED120214148FCF714FB0128AE
:1040E00028D180213E48FCF70EFB012822D1010295
:1040F0003B48FCF708FB01281CD13A48006801281E
:1041000018D12320FEF7C2F8FEF790FE4FF4487056
:10411000FEF7BCF8FEF7A6FE4FF4F070FEF7B6F817
:10412000304800682D4941F824006420FEF7AEF8BD
:10413000601CC4B220212A48FCF7E5FA012824D1EA
:1041400080212748FCF7DFFA01281ED1C10224484C
:10415000FCF7D9FAC8B924480068022815D1FEF73F
:1041600065FE4FF44870FEF791F8FEF797FE4FF4A6
:10417000F070FEF78BF81C480068184941F82400DD
:104180006420FEF783F8601CC4B220211448FCF7B9
:10419000BAFA01281BD140211148FCF7B4FA0128D2
:1041A00015D180210E48FCF7AEFA01280FD101028B
:1041B0000B48FCF7A8FA012809D1C1020848FCF70E
:1041C000A2FA20B90748006808B9022C4CD0102187
:1041D0000348FCF798FA012824D107E004030020E3
:1041E00000080140FC020020F40200202021FE48CB
:1041F000FCF789FA012815D14021FB48FCF783FA26
:1042000001280FD18021F848FCF77DFA012809D157
:10421000C102F548FCF777FA20B9F448006808B9FC
:10422000022C21D01021F048FCF76DFA012834D17E
:104230002021ED48FCF767FA01282ED18021EA48B9
:10424000FCF761FA012828D10102E748FCF75BFA84
:10425000012822D1C102E448FCF755FAE8B9E34845
:104260000068D0B9022C18D12320FEF70FF8FEF712
:10427000DDFD4FF44870FEF709F8FEF7F3FD4FF44B
:10428000F070FEF703F8D9480068D94941F82400D6
:104290006420FDF7FBFF601CC4B22021D248FCF76C
:1042A00032FA012818D14021CF48FCF72CFA012816
:1042B00012D18021CC48FCF726FA01280CD101024A
:1042C000C948FCF720FA012806D1C102C648FCF70C
:1042D0001AFA012800D1F4B11021C348FCF713FAEF
:1042E00001281DD12021C048FCF70DFA012817D163
:1042F0004021BD48FCF707FA012811D18021BA48B6
:10430000FCF701FA01280BD1C102B748FCF7FBF911
:10431000012805D124B9FEF76DFD6420FDF7B6FF35
:104320002021B148FCF7EFF901281DD14021AE480A
:10433000FCF7E9F9012817D18021AB48FCF7E3F934
:10434000012811D10102A848FCF7DDF901280BD1A1
:10435000C102A548FCF7D7F9012805D1A548006896
:10436000022801D1022C23D010219F48FCF7CBF961
:1043700001282DD120219C48FCF7C5F9012827D11F
:1043800040219948FCF7BFF9012821D180219648A6
:10439000FCF7B9F901281BD1C1029348FCF7B3F926
:1043A000012815D193480068022811D1022C0FD1A1
:1043B0002320FDF76BFFFEF739FD4FF44870FDF742
:1043C00065FFFEF74FFD4FF4F070FDF75FFF00242F
:1043D00020218548FCF797F901281DD1402182480A
:1043E000FCF791F9012817D180217F48FCF78BF960
:1043F000012811D101027C48FCF785F901280BD175
:10440000C1027948FCF77FF9012805D17748006897
:10441000012801D1022C23D010217348FCF773F935
:1044200001282DD120217048FCF76DF9012827D1F2
:1044300040216D48FCF767F9012821D180216A48A5
:10444000FCF761F901281BD1C1026748FCF75BF951
:10445000012815D165480068012811D1022C0FD11F
:104460002320FDF713FFFEF7E1FC4FF44870FDF742
:104470000DFFFEF713FD4FF4F070FDF707FF00246A
:1044800010215948FCF73FF9012837D1202156481F
:10449000FCF739F9012831D140215348FCF733F9B1
:1044A00001282BD180215048FCF72DF930BB4FF467
:1044B00080714D48FCF727F900BB4FF400614A4872
:1044C000FCF721F9012819D14948C068022815D103
:1044D000032C13D12320FDF7D9FEFEF7A7FC4FF4E0
:1044E0004870FDF7D3FEFEF7BDFC4FF4F070FDF70A
:1044F000CDFEFEF77FFC6420FDF7C8FE10213A4890
:10450000FCF701F9B8BB20213748FCF7FCF890BB59
:1045100040213548FCF7F7F801282CD1802132489A
:10452000FCF7F1F8012826D101022F48FCF7EBF83F
:10453000012820D1C1022C48FCF7E5F801281AD146
:104540002B488068012816D1032C14D12320FDF7B5
:104550009DFEFEF76BFC4FF44870FDF797FEFEF7EB
:104560009DFC4FF4F070FDF791FEFEF743FC6420D4
:10457000FDF78CFE002410211B48FCF7C4F890BB0B
:1045800020211948FCF7BFF868BB40211648FCF70A
:10459000BAF8012835D180211348FCF7B4F8012876
:1045A0002FD101021048FCF7AEF8012829D1C10231
:1045B0000D48FCF7A8F8012823D10D48C068012850
:1045C0001FD1032C1DD12320FDF760FEFEF72EFC2A
:1045D0004FF44870FDF75AFEFEF760FC4FF4F070A0
:1045E000FDF754FE08E00CE000080140FC0200204A
:1045F00004030020F4020020FEF7FCFB6420FDF71A
:1046000045FE1021E248FCF77EF8B8BB2021E048C7
:10461000FCF779F890BB4021DD48FCF774F80128DD
:104620002CD18021DA48FCF76EF8012826D101024E
:10463000D748FCF768F8012820D1C102D448FCF71C
:1046400062F801281AD1D3488068012816D1032CBA
:1046500014D12320FDF71AFEFEF7E8FB4FF4487053
:10466000FDF714FEFEF71AFC4FF4F070FDF70EFE96
:10467000FEF7C0FB6420FDF709FE00241021C448AA
:10468000FCF741F8B0BB2021C148FCF73CF888BBDF
:104690004021BF48FCF737F801282BD18021BC48C6
:1046A000FCF731F8012825D10102B948FCF72BF8B5
:1046B00001281FD1C102B648FCF725F8012819D1FD
:1046C000B448C068012815D1032C13D12320FDF76D
:1046D000DDFDFEF7ABFB4FF44870FDF7D7FDFEF7AD
:1046E000DDFB4FF4F070FDF7D1FDFEF783FB642096
:1046F000FDF7CCFD1021A648FCF705F8012838D1BC
:104700002021A348FBF7FFFF012832D14021A04818
:10471000FBF7F9FF01282CD180219D48FBF7F3FF1F
:1047200038BB4FF480719A48FBF7EDFF08BB4FF49C
:1047300000619748FBF7E7FF01281AD19548806888
:10474000022816D1032C14D12320FDF79FFDFEF77C
:104750006DFB4FF44870FDF799FDFEF783FB4FF4B6
:10476000F070FDF793FDFEF745FB6420FDF78EFD2D
:10477000002410218648FBF7C6FF012837D12021ED
:104780008348FBF7C0FF012831D140218048FBF767
:10479000BAFF01282BD180217D48FBF7B4FF30BB45
:1047A0004FF480717A48FBF7AEFF00BB4FF4006115
:1047B0007748FBF7A8FF012819D17648C06802287E
:1047C00015D1032C13D12320FDF760FDFEF72EFB3E
:1047D0004FF44870FDF75AFDFEF744FB4FF4F070BC
:1047E000FDF754FDFEF706FB6420FDF74FFD102199
:1047F0006748FBF788FF012838D120216448FBF780
:1048000082FF012832D140216148FBF77CFF01285B
:104810002CD180215E48FBF776FF38BB4FF48071C6
:104820005B48FBF770FF08BB4FF400615848FBF78B
:104830006AFF01281AD157488068022816D1032C34
:1048400014D12320FDF722FDFEF7F0FA4FF4487053
:10485000FDF71CFDFEF706FB4FF4F070FDF716FDAB
:10486000FEF7C8FA6420FDF711FD00246BE010216B
:104870004748FBF748FF012806D04FF480714448B1
:10488000FBF741FF012804D1FEF7D0FA0A20FDF71B
:10489000FDFC10213E48FBF736FFD0B920213C48F3
:1048A000FBF731FFA8B940213948FBF72CFF01285D
:1048B0000FD180213648FBF726FF012809D10102DC
:1048C0003348FBF720FF20B9FEF7DAFA6420FDF742
:1048D000DDFC10212E48FBF716FFD8B920212C480B
:1048E000FBF711FF012815D140212948FBF70BFFE9
:1048F00001280FD180212648FBF705FF50B94FF45E
:1049000080712348FBF7FFFE20B9FEF79DFA642073
:10491000FDF7BCFC4FF400611D48FBF7F4FE0128D5
:1049200011D14FF4FA70FDF7B1FCFEF7B7FA40F27F
:10493000B630FDF7ABFC002017490860FEF75AFAC5
:104940006420FDF7A3FC1448006803288FD010BD35
:1049500010B512480068092814D2DFE800F01305EA
:10496000080B0C0D0E0F1000FFF7F2F90DE0FFF72A
:104970008CFA0AE000BF00BF00BF00BF00BFFFF716
:104980001AFB02E0FEF752FA00BF00BF10BD0000A4
:104990000008014004030020F4020020000300206E
:1049A000FDF786FA40F628231A4619461846FDF701
:1049B00050FD01E0FFF7CCFFFCE7704700BFFEE7CA
:1049C00000BFFEE700BFFEE700BFFEE7704770478D
:1049D000704700000FB41CB5074B06AA7B4469461C
:1049E0000090059800F0CDFA0020694600F0DCFA4E
:1049F0001CBC5DF814FB0000C905000070B504463E
:104A000085690068C10601D5302600E02026C00770
:104A100007D070BDD4E9012130469047206A401C80
:104A200020626D1EF6D570BD70B5044685690078AC
:104A3000C00707D170BDD4E9012120209047206A2A
:104A4000401C20626D1EF6D570BD2DE9F0474FF079
:104A5000000A89460446C0F820A02046E16888473D
:104A6000002876D0252806D0D4E901219047206A75
:104A7000401C2062F1E7E168204600258847C4F821
:104A80001CA006460027C4F818A02A2E09D03046DC
:104A900000F0CEFF38B304EB8708303EC8F818604A
:104AA00019E059F8041B204604EB87029161E16884
:104AB0008847012F064618D1E069002820DA25F042
:104AC00020051DE0D8F8180000EB800006EB400040
:104AD0003038C8F818002046E1688847064600F0DC
:104AE000A7FF0028EED1012F0AD02E2E08D1204694
:104AF000E16888477F1C0646022F45F02005C4DB8D
:104B0000A069002803DA404245F00105A061E807EA
:104B100001D025F01005B6B1A6F14100192802D840
:104B2000203645F400654A463146204625604D460C
:104B3000FBF758FB58B1012806D0ED1D25F0070002
:104B400000F1080989E704E005F1040985E730462A
:104B50008AE7206ABDE8F087704770477047704762
:104B60002DE9FF4F0C461E464FF0FF378BB0D2E9C0
:104B70000001DDF860800A908A46C1F30A5505B944
:104B80003D46002108464FF00000BAF1000F00F446
:104B9000400005DA00EB80004FF4400101EA5000CC
:104BA0004FEA9059B9F1010F00DDB9460A9850EA71
:104BB0004A000ED044F61050A5F2FF3545432F149D
:104BC000B8F1000F1ED07542291E1EDDC9F100028A
:104BD0001CE0B8F1010F4FF0000001D0302103E0DC
:104BE000F24305E02154401CB042FBDB304600227A
:104BF000002121540B99C1F80880C1E900200FB0B1
:104C0000BDE8F08FBD1B6D1CDEE74A4600DA694245
:104C100006A800F059FA06AB93E8070003AB83E857
:104C2000070050460A9900F034FB8DE80700A0F514
:104C300000501F3800900398002D09DD42F21F013B
:104C40004A46084403A90390684600F093FD08E033
:104C5000A0F500504A461F3803A90390684600F0AB
:104C60009DFD8DE807000004000C03D04FF0FF30DD
:104C7000410800E01046B8F1000F03D00022009276
:104C800015461EE0751E05D400F098F930326255C5
:104C90006D1EF9D5B3460122084302D000227F1CC5
:104CA00004E02078302801D100227F1E002A0997D5
:104CB00086D01DE0112D07DA00F080F93032625500
:104CC0006D1C50EA0102F5D1084302D00098C8B12A
:104CD0000EE00021681E05E0235C625C63542254F0
:104CE000401E491C8142F7DBAB46A81B401E0990C1
:104CF000002004F80B000B98099AC0F80880C0E95E
:104D0000002B7CE711264FF0000859E72DE9F04F02
:104D100088460446D21D22F0070191B0D1E9000176
:104D2000CDE90A0100F070FE02460B98C00F01D0D9
:104D30002D2007E02068810701D52B2002E02021EB
:104D400001EAC000032A099001D0072A05DB0346C7
:104D50004146204600F078F90BE12078800601D525
:104D6000E06900E00620B8F1650F814606D0B8F191
:104D7000660F18D0B8F1670F70D131E00020B9F19B
:104D8000110F009001DB112301E009F101030AAAD0
:104D900001A90CA8FFF7E4FEDDE90C70002609F17B
:104DA0000105834647E001204B4600904FF0004745
:104DB0000AAA01A90CA8FFF7D3FEDDE90DB00C99F2
:104DC0005D46002610B909F101000D18B9EB050088
:104DD00003D4C0F1FF3609F10105A5EB09002BE072
:104DE000B9F1010F01DA4FF001090020B9F1110FFB
:104DF0000090484601DD112300E003460AAA01A9FC
:104E00000CA8FFF7ADFEDDE90C704D460026834689
:104E1000207800070AD4AB4500DA5D4601A8012DD1
:104E200004DD411911F8011C302907D04F4502DA81
:104E300017F1040F04DA012082460FE06D1EEEE741
:104E4000002F02DCED1B3E4403E0781CA84200DD8D
:104E50007D1CB81B00F1010A4FF0004720780007C5
:104E600003D4AA4501DB4FF0FF3A0021B7F1004F10
:104E70000DF143088DF8431024D002202B23002F7E
:104E800001DA7F422D230A21021EA0F1010000DC7D
:104E90005FB197FBF1FC97FBF1F201FB1C7C17461D
:104EA0000CF1300C08F801CDEEE7A8F10100037019
:104EB0002188090501D5452100E06521A0F10108FF
:104EC00000F8011C09980FA9A1EB0807FF1D00B10C
:104ED0000120411901EBEA70A1693844081A401E0B
:104EE000A0612078C00602D42046FFF787FD09980C
:104EF00028B1D4E901219047206A401C2062207823
:104F0000C00622D52046FFF779FD1EE0002E04DB07
:104F1000B34502DD01A8805D00E03020D4E9012125
:104F20009047206A401C2062761CAAF101005FEACB
:104F3000000A0AD100F03EF8C0680168405CD4E97C
:104F400001219047206A401C2062281EA5F101051E
:104F5000DCDC07E0D4E9012118F8010B9047206A56
:104F6000401C2062381EA7F10107F3DC2046FFF742
:104F70005BFD032011B043E601694A1C0261087819
:104F8000704700B58FB0CDE9013100210591054989
:104F90007944CDE9031011466846FFF756FD0FB07E
:104FA00000BD0000E5FFFFFF0A6802F8010B0A6080
:104FB00070470000004870473403002030B5B0F15E
:104FC0000A024FEA900E71F100034EEA817EB0EBC7
:104FD0000E0061EB91014FEA101E4EEA017E10EBCC
:104FE0000E0041EB11114FEA102E4EEA016E10EB4C
:104FF0000E0041EB11214FEA104E4EEA014E10EB2C
:105000000E0041EB1141401841F100014FEAD00080
:1050100040EA41704FEAD10110EB80054FEA81046C
:1050200044EA907444EB01046D1944EB0404521BF0
:10503000A3414FF0000348BF0A3200D530BD401CE9
:1050400041F1000130BD00002DE9F0411F4604464A
:1050500003260168072A01F4006004DB08B116A5E5
:1050600005E016A503E008B115A500E015A521F09F
:1050700010002060A069C01EA0610FB1401EA06199
:105080002046FFF7BBFC4FB1D4E9012138469047D9
:10509000206A401C2062C01C206206E0206AFAE7F9
:1050A000D4E9012115F8010B9047761EF8D220466D
:1050B000FFF7BAFCBDE8F0814E414E006E616E0014
:1050C000494E4600696E66002DE9F0478146164656
:1050D0008AB0334878440DC88DE80D0030487844D4
:1050E000801C03AC0DC884E80D0041F69B300844D9
:1050F000372190FBF1F290FBF1F5A5F1800501FB62
:1051000012041B3C02D56442012000E00020DFF8BD
:1051100090A080460027FA44AAF1BE0A0DE0E007FD
:1051200009D03246684607EB47010AEB810100F0DF
:1051300035FB8DE8070064107F1C002CEFD1184F61
:105140007F44AC3F18E0E80714D007EB04100DF1E2
:10515000180A90E80E008AE80E00C068F04201D1FB
:1051600098190890324606A903A800F017FB03AB74
:1051700083E807006D10641C002DE4D132466946B7
:10518000B8F1000F03A802D000F0F4FA01E000F03B
:1051900005FBC9E90001C9F808200AB0BDE8F0879D
:1051A000C018000000487047140300207546FFF740
:1051B000F9FFAE4605006946534620F007008546D4
:1051C00018B020B5FBF73CF8BDE820404FF00006D2
:1051D0004FF000074FF000084FF0000B21F00701DF
:1051E000AC46ACE8C009ACE8C009ACE8C009ACE822
:1051F000C0098D4670470446AFF300802046FBF798
:105200000BF800004FF0013C50F8042B51F8043B20
:105210009A4221D1A2EB0C03934313EACC1317D18A
:1052200050F8042B51F8043B9A4215D1A2EB0C0321
:10523000934313EACC130BD150F8042B51F8043BE1
:105240009A4209D1A2EB0C03934313EACC13DBD0AF
:105250004FF00000704700BFD01A01BAB1FA81F1D7
:1052600001F0180122FA01F0CB40C1F12001DBB2BC
:10527000C0B2C01A2CFA01F3D11A914311EAC3113A
:10528000E6D1704701491820ABBEFEE726000200B8
:1052900070475FEA400C08BF91F0000F4FEA8C2383
:1052A0004FEAC12243EA51514FEA1C5018BF00F5A2
:1052B000F0404FEA300018BF41F000415FEA6C5CFB
:1052C00000F02980BCF1FF3F08BF40F080407047EC
:1052D000130C06BF12044FF0100C4FF0000C130E0D
:1052E00004BF12020CF1080C130F04BF12010CF1E1
:1052F000040C930F04BF92000CF1020CD30F04BFF7
:1053000052000CF1010C11464FF00002A0F11F00F9
:10531000A0EB0C00704711F0004F08BF704731F050
:1053200000413FF4D5AF0B0C06BF09044FF0100C41
:105330004FF0000C0B0E04BF09020CF1080C0B0F10
:1053400004BF09010CF1040C8B0F04BF89000CF1A0
:10535000020CCB0F04BF49000CF1010CCCF120036F
:10536000A0EB0C0022FA03F302FA0CF241EA03016B
:1053700000F10100704720F07F4C80EA030023F029
:105380007F47ACEB070303F57C5300F0004003F1CB
:10539000FF032DE980494FEA154B09B44FEA144346
:1053A00025EA0B4E24EA03480FF2042606EB1327E6
:1053B00049083E785FEA320203FB0667C7F500073B
:1053C00007FB06F64FEA54374FEAD64606F10206C7
:1053D00007FB066CCCF1005C4FEA1C472CEA074C3B
:1053E00007FB06F40CFB06F504EB15464FEA961690
:1053F00034BF00204FF000404FEAD13706FB07FCD6
:105400004FEA1C4C0CFB0BF7D21B03FB0CF761EBB8
:1054100007010CFB0EF7B0EB074072EB17420CFBD9
:1054200008F734BFA2EB0742B2EB074261EB17412A
:105430004FEA0C444FEA910706FB07FC4FEA1C4C6D
:105440000CFB0BF7B0EBC74072EB573203FB0CF7CA
:1054500034BFA2EBC742B2EBC74261EB57310CFB42
:105460000EF7B0EBC70072EB57720CFB08F734BFB6
:10547000A2EBC702B2EBC70261EB5771039F4FEA81
:10548000816141EA921104EBCC044FEAD1374FEA33
:10549000826206FB07FC42EA90124FEA80604FEA04
:1054A0001C4C0CFB0BF7D21B03FB0CF761EB070149
:1054B0000CFB0EF7B0EB074072EB17420CFB08F742
:1054C00034BFA2EB0742B2EB074261EB17414FEA50
:1054D0008C554FEA910704EB9C2406FB07FC4FEA2E
:1054E0001C4C0CFB0BF7B0EBC74072EB573203FBC5
:1054F0000CF734BFA2EBC742B2EBC74261EB5731A6
:105500000CFB0EF7B0EBC70072EB57720CFB08F701
:1055100034BFA2EBC702B2EBC70261EB577115EBC8
:105520004C254FEA816141EA92114FEA82624FEACB
:10553000D13742EA901206FB07FC44F100044FEA1F
:1055400080604FEA1C4C0CFB0BF7D21B03FB0CF7E3
:1055500061EB07010CFB0EF7B0EB074072EB174253
:105560000CFB08F734BFA2EB0742B2EB074261EB3A
:10557000174115EB1C154FEA813141EA92414FEA80
:10558000823242EA90424FEA80304FEA0C7644F190
:10559000000448EA03434EEA0B484FF0000EB2EB1A
:1055A000080C71EB030724BF624639464EEB0E0E22
:1055B0004FF0000B0018524149414BEB0B0BB2EB83
:1055C000080C71EB03077BF1000B24BF62463946E0
:1055D0004EEB0E0E4FF0000B0018524149414BEBC1
:1055E0000B0BB2EB080C71EB03077BF1000B24BF34
:1055F000624639464EEB0E0E51EA020718BF46F0DE
:10560000010616EB0E7655F1000254F1000103D5A8
:10561000BDE88901BDE80088BDE88901BDE8004812
:10562000B619524141EB0101A3F10103704780809B
:105630007F7E7D7C7B7A79787776767574737271EC
:1056400071706F6E6E6D6C6C6B6A6A6968686766A4
:1056500066656464636362616160605F5F5E5E5D36
:105660005D5C5C5B5B5A5A595958585757565655AA
:1056700055555454535352525251515050504F4F0C
:105680004F4E4E4D4D4D4C4C4C4B4B4B4A4A4A495C
:10569000494948484847474747464646454545449F
:1056A0004444444343434342424242414141002B2C
:1056B00026D4770021D01CB54FEA370703B44FF04A
:1056C00010004FF010014FF000000FBCBDE810407B
:1056D0000BF1010BBBF1010F08BF5FEA170722BFF7
:1056E00012F1010211F101014FF0004143F10003F9
:1056F00000F0004043EA00007047F9D35708DAE7AA
:1057000046EA064613F1400F4FEA16461FDD13F135
:10571000200FDFBF16430A46002120335B42C8D06A
:10572000C3F1200746EA064602FA07F74FEA164693
:1057300046EA0706C3F1200722FA03F201FA07F747
:1057400021FA03F14FF0000342EA0702B1E746EA0B
:10575000020646EA06464FEA164646EA0106BCBF7E
:1057600046EA0646360C4FF000034FF000024FF0B9
:1057700000019EE72DE9C048934630B491E8380017
:1057800007C831EA400C48BF34EA430C03D5FFF7A1
:10579000F2FDFFF78CFFF0BCBDE800882DE9C048A2
:1057A000934630B491E8380007C810F0804F08BF26
:1057B00013F0804F03D100F005F8FFF778FFF0BC3D
:1057C000BDE8008820F07F4780EA030023F07F4C8B
:1057D00007EB0C03A3F57C5300F00040A3F1FE039C
:1057E00092F0000F00F0B38095F0000F00F077808A
:1057F0002DE901494FEA11404FEA144621EA0048D9
:1058000000FB06FC24EA064708FB06F607FB08F83F
:1058100000FB07F718EB06484CEB164C4FEA124B0F
:1058200018EB07484FEA15464CEB174022EA0B4E9F
:105830000BFB06FC25EA06470EFB06F607FB0EFEF1
:105840000BFB07F71EEB064E4CEB164C4FF0000619
:105850001EEB074E4CEB174B18EB0B0840F100000A
:1058600018EB0E0B58EB000840F100008F1A4FF0B8
:1058700000013CBFC943661B14BFB5EB040C0021FB
:105880003CBFC943F61B4FEA17444EEA8E0E27EA87
:1058900004454FEA1C4704FB07622CEA074C05FB52
:1058A00007F70CFB05F604FB0CFC16EB074642EB76
:1058B000174216EB0C4642EB1C421BEB060658EB5C
:1058C0000202414146EA9E0601D5BDE80189B619AA
:1058D000524141EB0101A3F10103BDE801894FEA07
:1058E00014454FEA114724EA054621EA074C05FB17
:1058F00007F406FB07F70CFB06F105FB0CFC11EBAC
:10590000074144EB17444FEA124711EB0C4144EBBB
:105910001C4422EA074C05FB07F206FB07F70CFBC9
:1059200006F605FB0CFC16EB074642EB174216EB9E
:105930000C4642EB1C456A1854F1000148BF704701
:10594000B619524141EB0101A3F10103704795F0F3
:10595000000F37D04FEA11424FEA144721EA0246BE
:1059600024EA074C02FB07F106FB07F70CFB06F4E1
:1059700002FB0CFC14EB074441EB17414FEA1547BF
:1059800014EB0C4441EB1C4125EA074C02FB07F5E4
:1059900006FB07F70CFB06F602FB0CFC16EB0746B2
:1059A00045EB174516EB0C4645EB1C42121951F11D
:1059B000000148BF7047B619524141EB0101A3F104
:1059C000010370474FEA14454FEA114724EA0546A0
:1059D00021EA074C05FB07F106FB07F70CFB06F273
:1059E0004FF0000605FB0CFC12EB074241EB1741A0
:1059F00012EB0C4251EB1C4148BF7047921841EB2F
:105A00000101A3F101037047490050EAC12018BF0A
:105A100004204A0D18BF40F0010040F2FF72B2EBC3
:105A2000515F08BF40F00200012808BF0520704701
:105A300030380A2801D2012070470020704700004A
:105A400010B500290AD00878002807D00548784406
:105A5000FFF7D8FB002801D0002010BD0248784491
:105A600010BD0000820F00007A0F000021F00042FC
:105A7000A2F16052B2F5801F01F0004328BFD2F1BD
:105A80007F6C0BD95FEA001C43EAC20242EB507004
:105A900018BF704728BF20F001007047B2F5801F83
:105AA000BCBF184670474FEA410C1CF5001F02D2DC
:105AB000084600F0AABA70B500F0CAF800000089E4
:105AC000FFF7F6BF4FF00040A0F58000704710F0E0
:105AD000004248BF4042B0FA80F310FA03F10AD006
:105AE000C3F11D0303F580634FEA415002EB0352FB
:105AF00002EBD12170474FF000007047DFF848C13A
:105B000070B51CEA111E1EBF1CEA13159EEA0C0F8D
:105B100095EA0C0F00F06F8081EA030423EA4C132E
:105B20004EEAD47E21EA4C1141F4801143F48013F3
:105B3000AE44A1FB024CA0FB0365AEF17F7E36199B
:105B400055EB0C05A1FB034C4CF10003A0FB021C20
:105B500016EB0C06654153F10003094218BF46F0ED
:105B6000010613F4007F0BD14FEA03314FEA0530F1
:105B7000340341EA155140EA16506FF003020AE07F
:105B80004FEAC3214FEAC520F40241EA555140EAE9
:105B900056506FF0020202EB2E4201EB025585EAED
:105BA000CE710AD05FEA440C18BF24F0004450F1D3
:105BB000000041F1000120EAD47040F2FE7C624511
:105BC00000D270BDA84214BF4FF080444FF0404453
:105BD000002E08BF0024BEF1806FA8BFA1F1C04114
:105BE000BDE8704080F282804FF0000001F1C041BA
:105BF00001F0004170479EEA0C0F0CEA131518BF24
:105C000095EA0C0F06D04FF0000081EA030E0EF06B
:105C1000004170BD00F01CF88900013E00F007B89B
:105C200000F009B84FEA430C5FEA5C5C08D081EAF7
:105C3000030100F05BB84FEA410C5FEA5C5CF6D10F
:105C40004FF00000014970470000FF070000F87F97
:105C50000EF1020E2EF0030E5EF8046B364205D4F0
:105C6000012A43EB030515F5001F12D8012841EB6B
:105C7000010C1CF5001F0CD80ED14FEAD17C15F594
:105C8000001F0CEB4C0C0CF1020C08BF4CEBD37C4E
:105C900004E04FF0080C01E04FEAD37C0CEB4C051C
:105CA00026FA05F606F00706B6F1040C06D20EEB4E
:105CB000860CBDE870404CF0010C6047DFE80CF04A
:105CC000090B02024FF000414FF00000A1F5002146
:105CD00070BD19461046012851EB010418BFD4F5D8
:105CE000001484BF002001F0004170BD0808A0F539
:105CF00000114FEA3101704743004FEAD30C4FEADD
:105D00003C0C43401FBF40070CF1605113F0FE4FA5
:105D100070471CF0006F03D100200CF00041704769
:105D20000CF0004343EA507010B540EACC0000F09C
:105D300026F900BF000000924FEA0001FFF7D6BF2E
:105D40004FF000414FF00000A1F500217047000026
:105D500090EA010F48BF81F0004100F16281421AD0
:105D60003CBF801A89184FEAD0524FF07F4C1CEA92
:105D7000410FA2EBD15318BF9CEA026F00F03B80A9
:105D80004FF0004C4CEA00204CEA012121FA03FCC0
:105D900010EB0C0C1ED202F1FF325FEA1C2040EB2C
:105DA000C25038BF70471CF07F0F4FEA400C18BF3D
:105DB000BCF17F4F38BF7047C3F12003994008BF43
:105DC00020F00100BCF17F4F38BF7047A0F1C04008
:105DD00000F01BB94FEA3C00000A40EBC25028BF5C
:105DE0001CF0FF0F4FEA400CE6D018BFBCF17F4F0C
:105DF00038BF7047EAE79CEA026F05D010EA5C0FF3
:105E000008BF00F00040704710B500F0B8F800BFC0
:105E100064FBBE3E41000B0ED3F19E0208D950F444
:105E200000034FEA032323FA02F048BF40427047C1
:105E300010B500F0A4F800BF4992248000207047FC
:105E40006FF0004282EA20007047000010F000412D
:105E500048BF4042B0FA80F310FA03F2C3F19D0349
:105E60000BD051EAC35101EB1220530638BF7047E3
:105E700000F1010008BF20F0010070474FF47F0CD3
:105E80001CEAD0121EBF1CEAD11392EA0C0F93EA4F
:105E90000C0F00F0478090EA010F48BF42F4807277
:105EA0004FF0004C4CEA00204CEA012102EB0302C7
:105EB000A0FB0113A2F50002002918BF43F0010363
:105EC0005B0028BF4FEA330342EB22425FEA132C08
:105ED0004CEBC2502EBFBCEB436FB2F57C0F70474A
:105EE0004FEA036CBCF1004F08BF20F00100B2F58F
:105EF0007C0F38BF70470BD582F0FF0212F5803F50
:105F0000C8BF704700F1C040D8BF00F000407047E4
:105F100000F5000C5FEA4C0C48BF7047B0F1C04080
:105F200000F073B890EA010F0CEAD11348BF42F4B5
:105F30008072624538BF634504D280EA010000F0F8
:105F40000040704710B500F01AF800BF8900013E0C
:105F500000F007B800F009B85FEA410C5FEA1C6C7A
:105F600008D080EA010000F050B85FEA400C5FEA18
:105F70001C6CF6D14FF00040A0F5800070470EF188
:105F8000020E2EF0030E5EF8044B244204D44FEAB6
:105F90004102B2F17F4F11D84FEA4003B3F17F4F76
:105FA0000CD80ED14FEAD07CB2F17F4F0CEB4C0CE9
:105FB0000CF1020C08BF4CEBD17C04E04FF0080C54
:105FC00001E04FEAD17C0CEB4C0324FA03F404F01B
:105FD0000704B4F1040C06D20EEB840CBDE81040AB
:105FE0004CF0010C6047DFE80CF0070802024FF0AC
:105FF0000040A0F5800010BD0846420018BFD2F155
:10600000807288BF00F0004010BDFF2141EAD050EF
:10601000C005704790EA010F48BF81F000413FF58D
:106020009EAE421A04D882F00042A0EB0200114456
:106030004FEAD0524FF07F4C1CEA410FA2EBD153F4
:1060400018BF9CEA026F4AD04FF0004C4CEA002087
:106050004CEA012121FA03FCB0EB0C0C0FD412F036
:10606000FE0F36D05FEA4C001DD5001240EBC25047
:1060700038BF70471CF03F0F18BF70470BE0A2F10C
:1060800001025FEA1C2040EBC25038BF70471CF091
:106090007F0F18BF7047C3F12003994014BF401E03
:1060A00020F00100704780084FEA122308BF7047B4
:1060B000B0FA80FCA2EB0C02CCF1280C60FA0CF0D8
:1060C00093EA122F04BF00EBC25070474FEAC3702F
:1060D0007047130A5FEADC1008BF7047F6E79CEAD6
:1060E000026F04D010EA5C0F08BF0020704710B5A3
:1060F000FFF745FF40DFF63E81F000407047FEF7B6
:1061000005BE0000000000000000002F000000009D
:106110000700070000147F147F1400242A7F2A122E
:10612000006264081323003649552250000005031D
:10613000000000001C224100000041221C0000144D
:10614000083E08140008083E0808000000A060008F
:10615000000808080808000060600000002010081F
:106160000402003E5149453E0000427F400000428B
:1061700061514946002141454B31001814127F10EE
:10618000002745454539003C4A494930000171091D
:10619000050300364949493600064949291E0000D1
:1061A0003636000000005636000000081422410078
:1061B00000141414141400004122140800020151A8
:1061C000090600324959513E007C1211127C007FB1
:1061D00049494936003E41414122007F4141221C4C
:1061E000007F49494941007F09090901003E4149B1
:1061F000497A007F0808087F0000417F41000020A5
:1062000040413F01007F08142241007F4040404050
:10621000007F020C027F007F0408107F003E414196
:10622000413E007F09090906003E4151215E007F81
:10623000091929460046494949310001017F0101F8
:10624000003F4040403F001F2040201F003F40389B
:10625000403F0063140814630007087008070061DA
:106260005149454300007F41410000552A552A55B8
:10627000000041417F000004020102040040404050
:106280004040000001020400002054545478007F74
:106290004844443800384444442000384444487F4B
:1062A00000385454541800087E0901020018A4A4B0
:1062B000A47C007F080404780000447D4000004076
:1062C00080847D00007F102844000000417F400052
:1062D000007C04180478007C0804047800384444E6
:1062E000443800FC242424180018242418FC007CC2
:1062F0000804040800485454542000043F4440203B
:10630000003C4040207C001C2040201C003C4030D1
:10631000403C004428102844001CA0A0A07C00445D
:1063200064544C44141414141414000000000000AD
:1063300000000000000000000000000000F8000065
:106340000000000000333000000000100C06100CAC
:106350000600000000000000000040C07840C07847
:106360004000043F04043F040400007088FC08302F
:106370000000001820FF211E0000F008F000E018C7
:10638000000000211C031E211E0000F00888700080
:1063900000001E2123241927211010160E000000D2
:1063A00000000000000000000000000000E01804F1
:1063B0000200000000071820400000020418E0005E
:1063C00000000040201807000000404080F080409E
:1063D00040000202010F01020200000000F0000074
:1063E00000000101011F0101010000000000000088
:1063F000000080B0700000000000000000000000FD
:106400000000000101010101010100000000000085
:10641000000000303000000000000000000080603C
:106420001804006018060100000000E010080810C1
:10643000E000000F102020100F00001010F80000E6
:1064400000000020203F202000000070080808887D
:10645000700000302824222130000030088888484D
:1064600030000018202020110E000000C02010F87D
:10647000000000070424243F240000F8088888084E
:1064800008000019212020110E0000E01088881853
:106490000000000F112020110E0000380808C83835
:1064A00008000000003F0000000000708808088815
:1064B0007000001C222121221C0000E0100808109E
:1064C000E0000000312222110F00000000C0C000D7
:1064D00000000000003030000000000000800000DC
:1064E00000000000806000000000000080402010DC
:1064F00008000001020408102000404040404040D5
:106500004000040404040404040000081020408037
:10651000000000201008040201000070480808086C
:10652000F0000000003036010000C030C828E8103C
:10653000E0000718272423140B000000C038E000F7
:106540000000203C23020227382008F88888887041
:106550000000203F202020110E00C030080808084D
:106560003800071820202010080008F80808081034
:10657000E000203F202020100F0008F88888E8085D
:106580001000203F20202320180008F88888E80801
:106590001000203F200003000000C0300808083829
:1065A000000007182020221E020008F8080000083A
:1065B000F808203F210101213F20000808F80808C1
:1065C00000000020203F2020000000000808F808FC
:1065D0000800C08080807F00000008F888C028186C
:1065E0000800203F20012638200008F8080000009D
:1065F0000000203F20202020300008F8F800F8F8A4
:106600000800203F003F003F200008F830C000088D
:10661000F808203F200007183F00E0100808081085
:10662000E0000F10202020100F0008F808080808CC
:10663000F000203F210101010000E01008080810CF
:10664000E0000F18242438504F0008F88888888804
:106650007000203F2000030C3020007088080808DC
:1066600038000038202121221C00180808F80808EA
:1066700018000000203F2000000008F80800000873
:10668000F808001F202020201F000878880000C87C
:106690003808000007380E010000F80800F800086C
:1066A000F800033C0700073C030008186880806876
:1066B000180820302C03032C30200838C800C838B4
:1066C00008000000203F2000000010080808C8381B
:1066D00008002038262120201800000000FE0202B9
:1066E00002000000007F40404000000C30C000006D
:1066F0000000000000010638C00000020202FE0097
:106700000000004040407F00000000000402020240
:106710000400000000000000000000000000000075
:106720000000808080808080808000020204000061
:106730000000000000000000000000008080808059
:1067400000000019242222223F2008F80080800047
:106750000000003F112020110E000000008080800A
:106760000000000E11202020110000000080808811
:10677000F800000E112020103F2000008080808053
:106780000000001F222222221300008080F088884F
:1067900088180020203F202000000000808080809A
:1067A0008000006B94949493600008F800808080CF
:1067B0000000203F210000203F200080989800002A
:1067C00000000020203F202000000000008098985A
:1067D000000000C08080807F000008F800008080FA
:1067E0008000203F24022D302000000808F800001F
:1067F00000000020203F20200000808080808080DA
:106800008000203F20003F20003F8080008080806B
:106810000000203F210000203F2000008080808079
:106820000000001F202020201F00808000808000AA
:10683000000080FFA12020110E0000000080808059
:106840008000000E112020A0FF80808080008080CA
:10685000800020203F2120000100000080808080F7
:1068600080000033242424241900008080E08080EC
:1068700000000000001F2020000080800000008039
:106880008000001F202020103F208080800000809A
:10689000808000010E3008060100808000800080AA
:1068A00080800F300C030C300F000080800080804F
:1068B00080000020312E0E3120008080800000807A
:1068C000808080818E70180601000080808080802A
:1068D00080000021302C2221300000000000807C4C
:1068E000020200000000003F404000000000FF00E6
:1068F000000000000000FF0000000002027C800099
:1069000000000040403F00000000000601010202BC
:10691000040400000000000000000000024000002D
:10692000000000A00000000005400000000000C8BA
:10693000000000000C4000000000409C000000002F
:10694000194000000020BCBE0000000034400000E0
:10695000BFC91B8E00000004B5400000504BCFD0D3
:106960006607E2CF010000006C4100003E8251AAA0
:10697000DFEEA73401000000D9420000DCB5A0E240
:106980003A301F97FFFFFFFFB4450000FD25A0C868
:10699000E9A3C14FFFFFFFFFFF3F000000000080A1
:1069A00000000000FF3F0000000000800000000029
:1069B000EC69000800000020040300006C010008DE
:1069C000F46A00080403002074060000C8010008EF
:1069D0001C00000043000000F8FFFFFF0C00000057
:1069E0000E0000000F0000002E0000001184A24ADB
:1069F00004680901020304060708090C6910053739
:106A00000204060815404042CC000B1440A09E82B0
:106A100082829EA02020000D113F908840432C10C0
:106A200028464180801C100C44012B45C6060411E9
:106A300044140C38098040201E2040407F2003125F
:106A40004040380908884828180FE8080109111F34
:106A50002B0809013AFF0609112139C0080A12045E
:106A6000F49494FF9494F404E1080D10201F20483E
:106A70004442415F414244488029764C88780F7FE8
:106A80000911601E2010484641012A7F050911C0E6
:106A900029350B18C838402E08040201FF3C1901A3
:106AA0000213FF080E12C8B88FE888C820900C03A4
:106AB0000C902060161808FF04041A3FC20414400A
:106AC00040702809FC242424FC25262408021104F3
:106AD00000101240308F80844C55252525554C8060
:106AE0008080000D606666263FCDCCCC3D0AD72362
:046AF0003D023746E6
:0400000508000131BD
:00000001FF
