:020000040800F2
:10000000000B002035020008794A000879440008F6
:100010004D4A000833040008695100080000000040
:10002000000000000000000000000000E54B000898
:1000300009050008000000007B4A0008E74B0008A3
:100040004F0200084F0200084F0200084F0200084C
:100050004F0200084F0200084F0200084F0200083C
:100060004F0200084F0200084F0200084F0200082C
:100070004F0200084F0200084F0200084F0200081C
:100080005D040008690400084F0200080000000039
:100090000000000000000000000000004F02000807
:1000A0004F020008914C00084F0200084F02000860
:1000B0004F0200084F020008AD4C00084F02000834
:1000C0004F0200084F0200084F0200084F020008CC
:1000D0004F020008515100085D5100080000000067
:1000E0004F0200084F0200084F0200080000000005
:1000F0000000000000000000000000004F020008A7
:10010000000000004F020008B94C00084F02000830
:1001100000000000000000000000000000000000DF
:100120004F0200084F020008750400084F02000843
:100130004F02000800000000000000000000000066
:100140000000000000000000000000004F02000856
:100150004F0200084F020008810400084F02000807
:100160004F0200084F0200080000000000000000DD
:10017000000000000000000000000000000000007F
:10018000000000004F020008000000000000000016
:100190004F02000800F002F800F03CF80AA090E8D6
:1001A000000C82448344AAF10107DA4501D100F032
:1001B00031F8AFF2090EBAE80F0013F0010F18BFC3
:1001C000FB1A43F001031847A8530000C85300006E
:1001D000103A24BF78C878C1FAD8520724BF30C873
:1001E00030C144BF04680C60704700000023002445
:1001F00000250026103A28BF78C1FBD8520728BF37
:1002000030C148BF0B6070471FB505F09BF91FBD9B
:1002100010B510BD00F0CFF81146FFF7F5FF04F060
:10022000C5FF00F0EDF803B4FFF7F2FF03BC00F0E8
:10023000F5F800000948804709480047FEE7FEE757
:10024000FEE7FEE7FEE7FEE7FEE7FEE7FEE7FEE786
:1002500004480549054A064B70470000814C0008D8
:100260009501000800050020000B00200007002079
:100270000007002053EA020C00F069802DE9F04BE2
:100280004FF00006002B1FBFB3FA83F503FA05F405
:1002900024FA05F65E4012BF1643B2FA82F502FA5E
:1002A00005F4C5F120051EBF22FA05FC44EA0C0442
:1002B000203556EA044C4FEA144418BF641C4FF032
:1002C00000084FF00009904271EB030C39D300296C
:1002D00019BFB1FA81F701FA07F6B0FA80F700FA10
:1002E00007F6C7F120071EBF20FA07FC46EA0C06F6
:1002F0002037B6FBF4FCA7EB0507103F07F01F0BF8
:10030000CBF120060CFA0BFB2CFA06F644BFB346E1
:100310000026202FA4BF5E464FF0000B5BEA060CC0
:1003200008BF4FF0010B19EB0B09ABFB027C48EB4C
:100330000608C01B06FB02CC0BFB03CC71EB0C01C7
:10034000C1E70B46024641464846BDE8F08B13B56F
:100350004FF000004FF00001AFF30080BDE81C40FB
:1003600070474FF0000200B5134694469646203978
:1003700022BFA0E80C50A0E80C50B1F12001BFF45E
:10038000F7AF090728BFA0E80C5048BF0CC05DF8C4
:1003900004EB890028BF40F8042B08BF704748BF12
:1003A00020F8022B11F0804F18BF00F8012B704786
:1003B000704770477047754600F02CF8AE46050050
:1003C0006946534620F00700854618B020B5FFF770
:1003D0003FFFBDE820404FF000064FF000074FF010
:1003E00000084FF0000B21F00701AC46ACE8C00953
:1003F000ACE8C009ACE8C009ACE8C0098D4670475C
:1004000010B50446AFF300802046BDE81040FFF76A
:100410000ABF000000487047A004002001491820CE
:10042000ABBEFEE7260002007047002800DA40421B
:100430007047FEE7024900200860024908607047E3
:100440003C000020500000204FF080410020486216
:10045000014908607047000024040040014802F090
:100460004FBB0000E0030020014802F049BB000040
:1004700040040020014802F043BB0000800300203C
:10048000014802F03DBB0000200300200168182352
:10049000CAB2103AB2FBF3F2054B6FF30901032A1B
:1004A0009B5CC36500D9091D816508467047000043
:1004B0004E55000810B5014600208B698A6A4FF03E
:1004C000C07453B1B3F5005F15D072B1012A0CD0DE
:1004D000022A0AD0032A09D104E01AB1012A06D05F
:1004E000022A03D1C96AC90100D5012010BDC96A19
:1004F000A142FAD010BD002AF7D0012AF2D0022A78
:10050000F3D0032AF3D010BD704772B6FEE70000A7
:100510002DE9F041744C6069744E754DC8281FD3A5
:10052000207901281CD14FF42F60E081102108466A
:1005300004F098FAB4F90E10084604F089FAB4F9F8
:100540000E002968091A01290ADA3168081A0128F7
:1005500006DAFFF76FFFFFF777FF2079401C207165
:10056000606940F6B83188421CD32079022819D13D
:1005700040F23520E0810621084604F073FAB4F910
:100580000E10484200B204F063FAB4F90E10286865
:100590000844012806DAFFF74DFFFFF755FF2079E1
:1005A000401C2071616941F29410DFF848814FF4DA
:1005B0008067814224D32079032821D14FF49660AB
:1005C000E0811021084604F04DFAB4F90E100846F7
:1005D00004F03EFAB4F90E002968091A01290FDA6D
:1005E0003168081A01280BDAFFF724FFFFF72CFF08
:1005F00020790122401C20713946404602F0B7FCA8
:10060000606942F6F821884224D32079042821D158
:1006100000223946404602F0AAFC4FF65030E081F5
:100620001021084604F01EFAB4F90E10084604F032
:100630000FFAB4F90E002968014401290ADA316879
:100640000844012806DAFFF7F5FEFFF7FDFE2079E2
:10065000401C2071606943F2D40188421CD3207988
:10066000052819D14FF40270E0810621084604F0F4
:10067000F9F9B4F90E00414209B204F0E9F9B4F90C
:100680000E102868401A012806DAFFF7D3FEFFF79C
:10069000DBFE2079401C2071606943F2B061884222
:1006A0001FD3207906281CD14FF21050E081102171
:1006B000084604F0D7F9B4F90E10084604F0C8F95A
:1006C000B4F90E002968014401290ADA31680844A6
:1006D000012806DAFFF7AEFEFFF7B6FE2079401CD0
:1006E0002071BDE8F0810000980000204C0000203F
:1006F00038000020000402402DE9F05FC54C60691D
:10070000C54DC64EC8281FD3207901281CD14FF4EF
:100710002F60E0811021084604F0A4F9B4F90E100E
:10072000084604F095F9B4F90E002968091A012960
:100730000ADA3168081A012806DAFFF77BFEFFF7AC
:1007400083FE2079401C2071606940F6B83140F288
:10075000032888421BD32079022818D10621A4F847
:100760000E80084604F07EF9B4F90E00414209B249
:1007700004F06EF9B4F90E102868401A012806DA60
:10078000FFF758FEFFF760FE2079401C207160697A
:1007900041F294114FF4FA6788421DD3207903285F
:1007A0001AD11021E781084604F05CF9B4F90E1063
:1007B000084604F04DF9B4F90E002968091A012918
:1007C0000ADA3168081A012806DAFFF733FEFFF764
:1007D0003BFE2079401C2071606941F270716FF01E
:1007E000090B884219D32079042816D1062108461E
:1007F00004F038F90A21584604F02AF928680A302A
:1008000001280ADA30680A38012806DAFFF712FEF2
:10081000FFF71AFE2079401C2071616941F66410CF
:10082000DFF8FCA14FF48069814222D320790528AA
:100830001FD11021E781084604F014F9B4F90E1015
:10084000084604F005F9B4F90E002968091A0129CF
:100850000FDA3168081A01280BDAFFF7EBFDFFF712
:10086000F3FD20790122401C20714946504602F0D8
:100870007EFB606945F6CC31884220D3207906287A
:100880001DD100224946504602F071FB0621A4F812
:100890000E80084604F0E6F8B4F90E00414209B2B1
:1008A00004F0D6F8B4F90E102868401A012806DAC8
:1008B000FFF7C0FDFFF7C8FD2079401C207160697B
:1008C00046F2A81188421DD3207907281AD1102199
:1008D000E781084604F0C6F8B4F90E10084604F0A3
:1008E000B7F8B4F90E002968091A01290ADA316843
:1008F000081A012806DAFFF79DFDFFF7A5FD20790C
:10090000401C2071606946F2847188421BD32079B3
:10091000082818D10621A4F80E80084604F0A2F891
:10092000B4F90E00414209B204F092F8B4F90E1085
:100930002868401A012806DAFFF77CFDFFF784FDDE
:100940002079401C2071606946F6605188421DD3B1
:10095000207909281AD11021E781084604F082F88D
:10096000B4F90E10084604F073F8B4F90E002968C3
:10097000091A01290ADA3168081A012806DAFFF78C
:1009800059FDFFF761FD2079401C2071606947F235
:100990003C31884219D320790A2816D1062108460D
:1009A00004F060F80A21584604F052F828680A302A
:1009B00001280ADA30680A38012806DAFFF73AFD1A
:1009C000FFF742FD2079401C2071606947F23051E9
:1009D00088421DD320790B281AD11021E7810846BF
:1009E00004F040F8B4F90E10084604F031F8B4F9F8
:1009F0000E002968091A01290ADA3168081A012843
:100A000006DAFFF717FDFFF71FFD2079401C207164
:100A1000BDE8F09F98000020380000204C00002026
:100A2000000402402DE9F047FE4C60694EF6544147
:100A3000FD4DFE4E88421FD3207901281CD14FF472
:100A40002F60E0811021084604F00CF8B4F90E1074
:100A5000084603F0FDFFB4F90E002968091A0129C0
:100A60000ADA3168081A012806DAFFF7E3FCFFF713
:100A7000EBFC2079401C207160694FF218618842BC
:100A80001CD32079022819D140F20320E0810621ED
:100A9000084603F0E7FFB4F90E00414209B203F043
:100AA000D7FFB4F90E102868401A012806DAFFF7BC
:100AB000C1FCFFF7C9FC2079401C207160694FF62A
:100AC000F4314FF4FA6788421DD3207903281AD1F4
:100AD0001021E781084603F0C5FFB4F90E1008465F
:100AE00003F0B6FFB4F90E002968091A01290ADAE1
:100AF0003168081A012806DAFFF79CFCFFF7A4FC0E
:100B00002079401C20716069C9496FF00909884249
:100B100019D32079042816D10621084603F0A2FF34
:100B20000A21484603F094FF28680A3001280ADAAF
:100B300030680A38012806DAFFF77CFCFFF784FCEE
:100B40002079401C20716069BA4940F698088842B3
:100B50001ED3207905281BD11021A4F80E80084649
:100B600003F080FFB4F90E10084603F071FFB4F9EA
:100B70000E002968091A01290ADA3168081A0128C1
:100B800006DAFFF757FCFFF75FFC2079401C207165
:100B90006169A948814219D32079062816D1062116
:100BA000084603F05FFF0A21484603F051FF28681A
:100BB0000A3001280ADA30680A38012806DAFFF715
:100BC00039FCFFF741FC2079401C207161699B488A
:100BD00081421ED3207907281BD11021A4F80E8052
:100BE000084603F03FFFB4F90E10084603F030FF4B
:100BF000B4F90E002968091A01290ADA3168081ABD
:100C0000012806DAFFF716FCFFF71EFC2079401CCE
:100C1000207160698A4988421FD3207908281CD135
:100C20000C20E0810621084603F01CFFB4F90E10E9
:100C3000484200B203F00CFFB4F90E0029680144E9
:100C400001290ADA3168081A012806DAFFF7F2FBEF
:100C5000FFF7FAFB2079401C2071616979488142D5
:100C60001ED3207909281BD11021A4F80E80084634
:100C700003F0F8FEB4F90E10084603F0E9FEB4F9EB
:100C80000E002968091A01290ADA3168081A0128B0
:100C900006DAFFF7CFFBFFF7D7FB2079401C207166
:100CA00060696949DFF8A4914FF48068884221D3D4
:100CB00020790A281ED140F23520E081062108461D
:100CC00003F0D0FEB4F90E10484200B203F0C0FEAB
:100CD000B4F90E102868084401280BDAFFF7AAFBC4
:100CE000FFF7B2FB20790122401C207141464846A3
:100CF00002F03DF960695649884223D320790B28D8
:100D000020D100224146484602F031F91021E78106
:100D1000084603F0A7FEE089404201B2084603F00E
:100D200097FEB4F90E002968014401290ADA3168F6
:100D30000844012806DAFFF77DFBFFF785FB2079E1
:100D4000401C20716069434988421CD320790C28DB
:100D500019D140F21220E0810621084603F082FEFC
:100D6000B4F90E10484200B203F072FEB4F90E104E
:100D700028680844012806DAFFF75CFBFFF764FBEC
:100D80002079401C20716069334988421DD3207945
:100D90000D281AD11021E781084603F063FEB4F94B
:100DA0000E10084603F054FEB4F90E002968091A23
:100DB00001290ADA3168081A012806DAFFF73AFB36
:100DC000FFF742FB2079401C2071606923494FF0F6
:100DD000320888421FD320790E281CD10621A4F89E
:100DE0000E80084603F03EFEB4F90E10484200B2F1
:100DF00003F02EFEB4F90E002968014401290ADA35
:100E00003168081A012806DAFFF714FBFFF71CFB0C
:100E10002079401C20716069114988423ED32079B5
:100E20000F281FE098000020380000204C00002010
:100E3000D0010100C4030100A0090100940B0100CE
:100E40007011010064130100401901000004024008
:100E5000D8530100B45901007863010054690100BE
:100E6000486B01001AD11021E781084603F0FAFD12
:100E7000B4F90E10084603F0EBFDB4F90E00296832
:100E8000091A01290ADA3168081A012806DAFFF777
:100E9000D1FAFFF7D9FA2079401C207160694649E0
:100EA00088421FD3207910281CD10621A4F80E8077
:100EB000084603F0D7FDB4F90E10484200B203F023
:100EC000C7FDB4F90E002968014401290ADA316826
:100ED000081A012806DAFFF7ADFAFFF7B5FA20790C
:100EE000401C20716069354988421DD32079112842
:100EF0001AD11021E781084603F0B4FDB4F90E10B1
:100F0000084603F0A5FDB4F90E002968091A012965
:100F10000ADA3168081A012806DAFFF78BFAFFF7B8
:100F200093FA2079401C20716069254988421FD3BB
:100F3000207912281CD11420E0810621084603F0F4
:100F400091FDB4F90E10484200B203F081FDB4F9EE
:100F50000E002968014401290ADA3168081A0128BB
:100F600006DAFFF767FAFFF76FFA2079401C207165
:100F70006069144988421DD3207913281AD11021A1
:100F8000E781084603F06EFDB4F90E10084603F041
:100F90005FFDB4F90E002968091A01290ADA3168DF
:100FA000081A012806DAFFF745FAFFF74DFA20790B
:100FB000401C2071BDE8F087247101001873010006
:100FC000F4780100E87A01002DE9F05FFD4F7869BF
:100FD000FD4DFE4CB0F5FA7F1FD3387901281CD1A6
:100FE0004FF42F60F8811021084603F03BFDB7F95C
:100FF0000E10084603F02CFDB7F90E002168091AFF
:1010000001290ADA2968081A012806DAFFF712FA14
:10101000FFF71AFA3879401C3871786940F6B83110
:1010200088421CD33879022819D140F20320F88174
:101030000621084603F016FDB7F90E00414209B239
:1010400003F006FDB7F90E102068401A012806DAF1
:10105000FFF7F0F9FFF7F8F93879401C3871786933
:1010600041F294114FF4FA6688421DD3387903286F
:101070001AD11021FE81084603F0F4FCB7F90E10D6
:10108000084603F0E5FCB7F90E002168091A0129AA
:101090000ADA2968081A012806DAFFF7CBF9FFF700
:1010A000D3F93879401C3871786941F270714FF08A
:1010B000050988421FD3387904281CD10621A7F8D6
:1010C0000E90084603F0CEFCB7F90E10484200B26D
:1010D00003F0BEFCB7F90E002168014401290ADAC9
:1010E0002968081A012806DAFFF7A4F9FFF7ACF916
:1010F0003879401C3871786941F6641140F69808D7
:1011000088421ED3387905281BD11021A7F80E80FC
:10111000084603F0A7FCB7F90E10084603F098FC48
:10112000B7F90E002168091A01290ADA2968081A94
:10113000012806DAFFF77EF9FFF786F93879401CB7
:1011400038717869B0F5FA5F1FD3387906281CD159
:101150000621A7F80E90084603F084FCB7F90E109C
:10116000484200B203F074FCB7F90E002168014454
:1011700001290ADA2968081A012806DAFFF75AF95C
:10118000FFF762F93879401C3871786942F23411FE
:1011900088421ED3387907281BD11021A7F80E806A
:1011A000084603F05FFCB7F90E10084603F050FC48
:1011B000B7F90E002168091A01290ADA2968081A04
:1011C000012806DAFFF736F9FFF73EF93879401CB7
:1011D0003871786942F2107188421FD33879082833
:1011E0001CD10621A7F80E90084603F03BFCB7F986
:1011F0000E10484200B203F02BFCB7F90E00216834
:10120000014401290ADA2968081A012806DAFFF7D9
:1012100011F9FFF719F93879401C3871786942F6ED
:10122000041188421ED3387909281BD11021A7F850
:101230000E80084603F016FCB7F90E10084603F0BE
:1012400007FCB7F90E002168091A01290ADA296892
:10125000081A012806DAFFF7EDF8FFF7F5F83879F4
:10126000401C3871786942F6E06140F235298842C5
:101270001BD338790A2818D10621A7F80E90084602
:1012800003F0F0FBB7F90E10484200B203F0E0FBA8
:10129000B7F90E1020680844012806DAFFF7CAF8EB
:1012A000FFF7D2F83879401C3871786943F2BC41B5
:1012B00088421DD338790B281AD11021FE810846A7
:1012C00003F0D0FBB7F90E10084603F0C1FBB7F9E5
:1012D0000E002168091A01290ADA2968081A01286A
:1012E00006DAFFF7A7F8FFF7AFF83879401C387136
:1012F0007869B84643F698210F27884222D398F898
:1013000004100C291ED10621A8F80E70084603F01F
:10131000A9FBB8F90E10484200B203F099FBB8F9E6
:101320000E002168014401290CDA2968081A0128F5
:1013300008DAFFF77FF8FFF787F898F80410491CE0
:1013400088F80410D8F8140043F68C41884221D361
:1013500098F804100D291DD11021A8F80E60084638
:1013600003F080FBB8F90E10084603F071FBB8F9E2
:101370000E002168091A01290CDA2968081A0128C7
:1013800008DAFFF757F8FFF75FF898F80410491CE0
:1013900088F80410D8F8140044F2682188422AD34F
:1013A00098F804100E2926D10621A8F80E700846D8
:1013B00003F058FBB8F90E10484200B203F048FBA6
:1013C00006E00000980000204C00002038000020BB
:1013D000B8F90E002168014401290CDA2968081ABD
:1013E000012808DAFFF726F8FFF72EF898F804101E
:1013F000491C88F80410D8F8140044F25C41884273
:1014000021D398F804100F291DD11021A8F80E60DF
:10141000084603F027FBB8F90E10084603F018FB46
:10142000B8F90E002168091A01290CDA2968081A8E
:10143000012808DAFEF7FEFFFFF706F898F8041017
:10144000491C88F80410D8F8140044F63821884262
:1014500022D398F8041010291ED10621A8F80E7086
:10146000084603F0FFFAB8F90E10484200B203F044
:10147000EFFAB8F90E002168014401290CDA296855
:10148000081A012808DAFEF7D5FFFEF7DDFF98F805
:101490000410491C88F80410D8F8140044F62C41B4
:1014A000884221D398F8041011291DD11021A8F8E1
:1014B0000E60084603F0D6FAB8F90E10084603F09D
:1014C000C7FAB8F90E002168091A01290CDA29684F
:1014D000081A012808DAFEF7ADFFFEF7B5FF98F805
:1014E0000410491C88F80410D8F8140045F20821AB
:1014F000DFF8E8B64FF4806A884227D398F80410E2
:10150000122923D10621A8F80E70084603F0AAFA82
:10151000B8F90E10484200B203F09AFAB8F90E007A
:1015200021680144012911DA2968081A01280DDA15
:10153000FEF780FFFEF788FF98F804100122491C8F
:1015400088F804105146584601F011FDD8F81400EF
:1015500047F61811884225D398F80400132821D1A2
:1015600000225146584601F002FD40F26A41A8F8B7
:101570000E100621084603F075FAB8F90E1048421D
:1015800000B203F065FAB8F90E002168084401289A
:1015900008DAFEF74FFFFEF757FF98F80410491CD2
:1015A00088F80410D8F8140048F2D041884221D3BA
:1015B00098F8041014291DD11021A8F80E600846CF
:1015C00003F050FAB8F90E10084603F041FAB8F9E2
:1015D0000E002168091A01290CDA2968081A012865
:1015E00008DAFEF727FFFEF72FFF98F80410491CD2
:1015F00088F80410D8F8140048F6AC21884222D3A9
:1016000098F8041015291ED10621A8F80E70084676
:1016100003F028FAB8F90E10484200B203F018FAA5
:10162000B8F90E002168014401290CDA2968081A6A
:10163000012808DAFEF7FEFEFEF706FF98F8041010
:10164000491C88F80410D8F8140048F6A0418842D4
:1016500021D398F8041016291DD11021A8F80E6086
:10166000084603F0FFF9B8F90E10084603F0F0F948
:10167000B8F90E002168091A01290CDA2968081A3C
:10168000012808DAFEF7D6FEFEF7DEFE98F8041011
:10169000491C88F80410D8F8140049F27C218842CB
:1016A00022D398F8041017291ED10621A8F80E702D
:1016B000084603F0D7F9B8F90E10484200B203F01B
:1016C000C7F9B8F90E002168014401290CDA29682C
:1016D000081A012808DAFEF7ADFEFEF7B5FE98F805
:1016E0000410491C88F80410D8F8140049F270411D
:1016F000884221D398F8041018291DD11021A8F888
:101700000E60084603F0AEF9B8F90E10084603F073
:101710009FF9B8F90E002168091A01290CDA296825
:10172000081A012808DAFEF785FEFEF78DFE98F804
:101730000410491C88F80410D8F8140049F64C210C
:10174000884222D398F8041019291ED10621A8F83E
:101750000E70084603F086F9B8F90E10484200B240
:1017600003F076F9B8F90E002168014401290CDA7A
:101770002968081A012808DAFEF75CFEFEF764FE05
:1017800098F80410491C88F80410D8F8140049F699
:101790004041884221D398F804101A291DD1102104
:1017A000A8F80E60084603F05DF9B8F90E10084677
:1017B00003F04EF9B8F90E002168091A01290CDA74
:1017C0002968081A012808DAFEF734FEFEF73CFE05
:1017D00098F80410491C88F80410D8F814004AF24C
:1017E0001C21884222D398F804101B291ED10621FF
:1017F000A8F80E70084603F035F9B8F90E10484203
:1018000000B203F025F9B8F90E002168014401295E
:101810000CDA2968081A012808DAFEF70BFEFEF731
:1018200013FE98F80410491C88F80410D8F8141016
:101830004AF21040814221D398F804101C291DD18E
:101840001021A8F80E60084603F00CF9B8F90E1044
:10185000084603F0FDF8B8F90E002168091A0129BD
:101860000CDA2968081A012808DAFEF7E3FDFEF70A
:10187000EBFD98F80410491C88F80410D8F81400FF
:101880004AF6EC11884222D398F804101D291ED183
:101890000621A8F80E70084603F0E4F8B8F90E1017
:1018A000484200B203F0D4F8B8F90E0021680144B0
:1018B00001290CDA2968081A012808DAFEF7BAFDAE
:1018C000FEF7C2FD98F80410491C88F80410D8F8F7
:1018D00014004AF6E031884220D398F804101E29FB
:1018E0001CD140F22F21A8F80E100621084603F063
:1018F000B9F8B8F90E00414209B203F0A9F8B8F9F5
:101900000E002168081A012808DAFEF793FDFEF799
:101910009BFD98F80410491C88F80410D8F81400AE
:101920004BF2BC11884221D398F804101F291DD115
:101930001021A8F80E60084603F094F8B8F90E10CC
:10194000084603F085F8B8F90E002168091A012944
:101950000CDA2968081A012808DAFEF76BFDFEF791
:1019600073FD98F80410491C88F80410D8F8140086
:101970004BF29871884222D398F8041020291ED186
:101980000621A8F80E70084603F06CF8B8F90E109E
:10199000484200B203F05CF8B8F90E002168014437
:1019A00001290CDA2968081A012808DAFEF742FD35
:1019B000FEF74AFD98F80410491C88F80410D8F87E
:1019C00014004BF68C11884221D398F80410212979
:1019D0001DD11021A8F80E60084603F043F8B8F9AD
:1019E0000E10084603F034F8B8F90E002168091A01
:1019F00001290CDA2968081A012808DAFEF71AFD0D
:101A0000FEF722FD98F80410491C88F80410D8F855
:101A100014004BF66871884222D398F804102229EA
:101A20001ED10621A8F80E70084603F01BF8B8F97D
:101A30000E10484200B203F00BF8B8F90E0021680E
:101A4000014401290CDA2968081A012808DAFEF78E
:101A5000F1FCFEF7F9FC98F80410491C88F8041012
:101A6000D8F814004CF25C11884221D398F8041085
:101A700023291DD11021A8F80E60084602F0F2FFBC
:101A8000B8F90E10084602F0E3FFB8F90E0021681D
:101A9000091A01290CDA2968081A012808DAFEF760
:101AA000C9FCFEF7D1FC98F80410491C88F8041012
:101AB000D8F814004CF23871884222D398F8040008
:101AC00024281ED10621A8F80E70084602F0CAFF8D
:101AD000B8F90E10484200B202F0BAFFB8F90E0091
:101AE0002168014401290CDA2968081A012808DA5A
:101AF000FEF7A0FCFEF7A8FC98F80400401C88F84C
:101B00000400D8F8140047464CF6145188421DD3FF
:101B1000387925281AD11021FE81084602F0A2FF4B
:101B2000B7F90E10084602F093FFB7F90E002168CE
:101B3000091A01290ADA2968081A012806DAFEF7C3
:101B400079FCFEF781FC3879401C387178694DF2D8
:101B5000F02188421BD33879262818D10621A7F80E
:101B60000E90084602F07EFFB7F90E10484200B210
:101B700002F06EFFB7F90E1020680844012806DA5B
:101B8000FEF758FCFEF760FC3879401C3871786924
:101B90004DF6CC0188421FD3387927281CD14FF449
:101BA0009660F8811021084602F05CFFB7F90E102C
:101BB000084602F04DFFB7F90E002168091A012905
:101BC0000ADA2968081A012806DAFEF733FCFEF75C
:101BD0003BFC3879401C3871BDE8F09F000402409E
:101BE0002DE9F05FFE4E7069FE4CC8281CD3307999
:101BF000012819D140F22F20F0810621084602F079
:101C000031FFB6F90E00414209B202F021FFB6F9E8
:101C10000E102068401A012806DAFEF70BFCFEF7CA
:101C200013FC3079401C307170694FF4FA68EE4D46
:101C300040451FD3307902281CD14FF4AF60F081AA
:101C40001021084602F00EFFB6F90E10084602F009
:101C5000FFFEB6F90E002168091A01290ADA29687F
:101C6000081A012806DAFEF7E5FBFEF7EDFB3079EE
:101C7000401C3071706940F6AC5140F2352B8842FF
:101C80001BD33079032818D10621A6F80EB00846D8
:101C900002F0E8FEB6F90E10484200B202F0D8FE9B
:101CA000B6F90E1020680844012806DAFEF7C2FBD8
:101CB000FEF7CAFB3079401C3071706941F28831FF
:101CC00088421ED3307904281BD11021A6F80E803B
:101CD000084602F0C7FEB6F90E10084602F0B8FE3C
:101CE000B6F90E002168091A01290ADA2968081ACA
:101CF000012806DAFEF79EFBFEF7A6FB3079401CB2
:101D00003071706941F658310A2788421ED3317903
:101D100005291BD10621F781084602F0A3FEB6F97A
:101D20000E10484200B202F093FEB6F90E00216890
:101D3000014401290ADA2968081A012806DAFEF79F
:101D400079FBFEF781FB3179491C3171706941F6ED
:101D50004C5188421ED3317906291BD11021A6F897
:101D60000E80084602F07EFEB6F90E10084602F01C
:101D70006FFEB6F90E002168091A01290ADA2968EE
:101D8000081A012806DAFEF755FBFEF75DFB3179EC
:101D9000491C3171706942F21C5188421ED331795D
:101DA00007291BD10621F781084602F05BFEB6F930
:101DB0000E10484200B202F04BFEB6F90E00216848
:101DC000014401290ADA2968081A012806DAFEF70F
:101DD00031FBFEF739FB3179491C3171706942F2F0
:101DE000107188421ED3317908291BD11021A6F821
:101DF0000E80084602F036FEB6F90E10084602F0D4
:101E000027FEB6F90E002168091A01290ADA2968A5
:101E1000081A012806DAFEF70DFBFEF715FB3179EB
:101E2000491C3171706942F6E06188421ED33179F4
:101E300009291BD10621F781084602F013FEB6F9E5
:101E40000E10484200B202F003FEB6F90E002168FF
:101E5000014401290ADA2968081A012806DAFEF77E
:101E6000E9FAFEF7F1FA3179491C3171706943F2F0
:101E7000D40188421ED331790A291BD11021A6F83A
:101E80000E80084602F0EEFDB6F90E10084602F08C
:101E9000DFFDB6F90E002168091A01290ADA29685E
:101EA000081A012806DAFEF7C5FAFEF7CDFA3179ED
:101EB000491C3171706943F68C4140F2032A884213
:101EC0001BD331790B2918D10621A6F80EA008469C
:101ED00002F0C8FDB6F90E00414209B202F0B8FDA9
:101EE000B6F90E002168081A012806DAFEF7A2FAF0
:101EF000FEF7AAFA3179491C3171706944F2682100
:101F00004FF4B96988421ED331790C291BD11021B5
:101F1000A6F80E90084602F0A5FDB6F90E10084688
:101F200002F096FDB6F90E002168091A01290ADAB5
:101F30002968081A012806DAFEF77CFAFEF784FA07
:101F40003179491C3171706944F6440188421CD3CF
:101F500031790D2919D140F23A21F1810621084643
:101F600002F080FDB6F90E10484200B202F070FD9A
:101F7000B6F90E0021680844012806DAFEF75AFA7D
:101F8000FEF762FA3179491C3171706944F62061BB
:101F9000884224D331790E2921D14FF42F61F18168
:101FA0001021084602F05EFDB6F90E10084602F058
:101FB0004FFDB6F90E002168091A01290FDA2968C8
:101FC000081A01280BDAFEF735FAFEF73DFA3179E7
:101FD0000122491C31719102044800F0C8FF07E05A
:101FE00098000020380000204C000020000402402F
:101FF000706946F66051884225D330790F2822D186
:1020000000224FF48061E64800F0B1FF4FF210511A
:10201000F1811021084602F025FDB6F90E100846A0
:1020200002F016FDB6F90E002168014401290ADA12
:1020300029680844012806DAFEF7FCF9FEF704FADD
:102040003179491C3171706947F6181188421CD3E7
:102050003179102919D14FF41171F1810621084607
:1020600002F000FDB6F90E10484200B202F0F0FC9A
:10207000B6F90E0021680844012806DAFEF7DAF9FD
:10208000FEF7E2F93179491C3171706947F6F46164
:1020900088421ED3317911291BD11021A6F80E9048
:1020A000084602F0DFFCB6F90E10084602F0D0FC3C
:1020B000B6F90E002168091A01290ADA2968081AF6
:1020C000012806DAFEF7B6F9FEF7BEF93179491CA8
:1020D0003171706948F2D04188421BD3317912299D
:1020E00018D10621A6F80EB0084602F0BBFCB6F9DE
:1020F0000E10484200B202F0ABFCB6F90E002168A7
:102100000844012806DAFEF795F9FEF79DF93179C2
:10211000491C3171706948F6AC2188421ED331796F
:1021200013291BD11021A6F80E80084602F09AFC54
:10213000B6F90E10084602F08BFCB6F90E002168C5
:10214000091A01290ADA2968081A012806DAFEF7AD
:1021500071F9FEF779F93179491C3171706949F2E9
:102160007C2188421ED3317914291BD10621F781A5
:10217000084602F077FCB6F90E10484200B202F0B1
:1021800067FCB6F90E002168014401290ADA2968C2
:10219000081A012806DAFEF74DF9FEF755F93179EC
:1021A000491C3171706949F2704188421ED33179FE
:1021B00015291BD11021A6F80E80084602F052FC0A
:1021C000B6F90E10084602F043FCB6F90E0021687D
:1021D000091A01290ADA2968081A012806DAFEF71D
:1021E00029F9FEF731F93179491C3171706949F6E5
:1021F000404188421ED3317916291BD10621F7812F
:10220000084602F02FFCB6F90E10484200B202F068
:102210001FFCB6F90E002168014401290ADA296879
:10222000081A012806DAFEF705F9FEF70DF93179EB
:10223000491C3171706949F6346188421ED3307986
:1022400017281BD11021A6F80E80084602F00AFCC0
:10225000B6F90E10084602F0FBFBB6F90E00216835
:10226000091A01290ADA2968081A012806DAFEF78C
:10227000E1F8FEF7E9F83079401C307170694AF2F4
:10228000046188421ED3307918281BD10621F781BA
:10229000084602F0E7FBB6F90E10484200B202F021
:1022A000D7FBB6F90E002168014401290ADA296832
:1022B000081A012806DAFEF7BDF8FEF7C5F83079EE
:1022C000401C307170694AF2F87188421FD330792E
:1022D00019281CD14FF49660F0811021084602F0B5
:1022E000C1FBB6F90E10084602F0B2FBB6F90E00BB
:1022F0002168091A01290ADA2968081A012806DA68
:10230000FEF798F8FEF7A0F83079401C307170693C
:102310004AF6C87188421BD330791A2818D1062191
:10232000A6F80EA0084602F09DFBB6F90E00414249
:1023300009B202F08DFBB6F90E102068401A012890
:1023400006DAFEF777F8FEF77FF83079401C307137
:1023500070694BF2A45188421FD330791B281CD1DD
:102360004FF4AF60F0811021084602F07BFBB6F914
:102370000E10084602F06CFBB6F90E002168091A2F
:1023800001290ADA2968081A012806DAFEF752F844
:10239000FEF75AF83079401C3071BDE8F09F00001C
:1023A000000402402DE9F05FFE4E7069FE4CC82823
:1023B0001CD33079012819D140F22F20F081062159
:1023C000084602F04FFBB6F90E00414209B202F096
:1023D0003FFBB6F90E102068401A012806DAFEF716
:1023E00029F8FEF731F83079401C307170694FF4EC
:1023F000FA68EE4D4FF4AF6A40451ED3307902289B
:102400001BD11021A6F80EA0084602F02BFBB6F94E
:102410000E10084602F01CFBB6F90E002168091ADE
:1024200001290ADA2968081A012806DAFEF702F8F3
:10243000FEF70AF83079401C3071706940F6AC51F3
:1024400088421CD33079032819D140F23520F0811D
:102450000621084602F006FBB6F90E10484200B20B
:1024600002F0F6FAB6F90E1020680844012806DAE0
:10247000FDF7E0FFFDF7E8FF3079401C307171692E
:1024800041F2883081421ED3307904281BD11021BB
:10249000A6F80E80084602F0E5FAB6F90E100846D6
:1024A00002F0D6FAB6F90E002168091A01290ADAF3
:1024B0002968081A012806DAFDF7BCFFFDF7C4FFFA
:1024C0003079401C3071706941F658310A278842D2
:1024D0001ED3317905291BD10621F781084602F068
:1024E000C1FAB6F90E10484200B202F0B1FAB6F9DC
:1024F0000E002168014401290ADA2968081A012816
:1025000006DAFDF797FFFDF79FFF3179491C31711E
:10251000716941F64C5081421ED3317906291BD195
:102520001021A6F80E80084602F09CFAB6F90E10AB
:10253000084602F08DFAB6F90E002168091A012941
:102540000ADA2968081A012806DAFDF773FFFDF791
:102550007BFF3179491C3171716942F21C50814213
:102560001ED3317907291BD10621F781084602F0D5
:1025700079FAB6F90E10484200B202F069FAB6F9DB
:102580000E002168014401290ADA2968081A012885
:1025900006DAFDF74FFFFDF757FF3179491C31711E
:1025A000706942F2107188421ED3317908291BD11B
:1025B0001021A6F80E80084602F054FAB6F90E1063
:1025C000084602F045FAB6F90E002168091A0129F9
:1025D0000ADA2968081A012806DAFDF72BFFFDF749
:1025E00033FF3179491C3171706942F6E0618842EC
:1025F0001ED3317909291BD10621F781084602F043
:1026000031FAB6F90E10484200B202F021FAB6F9DA
:102610000E002168014401290ADA2968081A0128F4
:1026200006DAFDF707FFFDF70FFF3179491C31711D
:10263000706943F2D40188421FD331790A291CD131
:1026400040F62821F1811021084602F00BFAB6F974
:102650000E10084602F0FCF9B6F90E002168091ABE
:1026600001290ADA2968081A012806DAFDF7E2FECC
:10267000FDF7EAFE3179491C3171706943F6A40116
:1026800040F23A2988421BD331790B2918D106210F
:10269000A6F80E90084602F0E5F9B6F90E10484289
:1026A00000B202F0D5F9B6F90E00216808440128FD
:1026B00006DAFDF7BFFEFDF7C7FE3179491C31711F
:1026C00070694FF4806BB0F57A5F23D331790C29B0
:1026D00020D11021A6F80E80084602F0C3F9B6F901
:1026E0000E10084602F0B4F9B6F90E002168091A76
:1026F00001290FDA2968081A01280BDAFDF79AFE7A
:10270000FDF7A2FE31790122491C31715946284852
:1027100000F02DFC706945F6D811884224D3307939
:102720000D2821D100225946214800F020FC4FF607
:102730003001F1811021084602F094F9B6F90E102B
:10274000084602F085F9B6F90E0021680144012916
:102750000ADA29680844012806DAFDF76BFEFDF75E
:1027600073FE3179491C3171716946F2A8108142BA
:1027700025D331790E2922D10621A6F80E900846DC
:1027800002F070F9B6F90E10484200B202F060F99A
:10279000B6F90E0021680844012810DAFDF74AFE58
:1027A00008E0000098000020380000204C000020C5
:1027B00000040240FDF748FE3179491C317170690F
:1027C00046F2847188421ED331790F291BD1102122
:1027D000A6F80E80084602F045F9B6F90E10084634
:1027E00002F036F9B6F90E002168091A01290ADA51
:1027F0002968081A012806DAFDF71CFEFDF724FEF9
:102800003179491C3171706946F6547188421ED382
:10281000317910291BD10621F781084602F022F9EF
:10282000B6F90E10484200B202F012F9B6F90E00E5
:102830002168014401290ADA2968081A012806DA00
:10284000FDF7F8FDFDF700FE3179491C3171706923
:1028500047F2481188421ED3317911291BD110212A
:10286000A6F80E80084602F0FDF8B6F90E100846EC
:1028700002F0EEF8B6F90E002168091A01290ADA09
:102880002968081A012806DAFDF7D4FDFDF7DCFDFA
:102890003179491C3171716947F6181081421ED394
:1028A000317912291BD10621F781084602F0DAF8A6
:1028B000B6F90E10484200B202F0CAF8B6F90E009E
:1028C0002168014401290ADA2968081A012806DA70
:1028D000FDF7B0FDFDF7B8FD3179491C3171706924
:1028E00047F60C3188421ED3307913281BD11021B2
:1028F000A6F80E80084602F0B5F8B6F90E100846A4
:1029000002F0A6F8B6F90E002168091A01290ADAC0
:102910002968081A012806DAFDF78CFDFDF794FDF9
:102920003079401C3071706948F2DC2188421ED336
:10293000307914281BD10621F781084602F092F85D
:10294000B6F90E10484200B202F082F8B6F90E0055
:102950002168014401290ADA2968081A012806DADF
:10296000FDF768FDFDF770FD3079401C307170692E
:1029700048F2D04188421FD3307915281CD14FF43A
:10298000C860F0811021084602F06CF8B6F90E100C
:10299000084602F05DF8B6F90E002168091A01290F
:1029A0000ADA2968081A012806DAFDF743FDFDF75F
:1029B0004BFD3079401C3071706948F6AC2188427B
:1029C0001CD33079162819D140F20320F08106215A
:1029D000084602F047F8B6F90E00414209B202F08B
:1029E00037F8B6F90E102068401A012806DAFDF70C
:1029F00021FDFDF729FD3079401C3071716949F2E4
:102A0000880081421ED3307917281BD11021A6F8E7
:102A10000EA0084602F026F8B6F90E10084602F09D
:102A200017F8B6F90E002168091A01290ADA29688F
:102A3000081A012806DAFDF7FDFCFDF705FD3079DF
:102A4000401C3071BDE8F09F2DE9F0410446876DD0
:102A500000F092FA064694F835000025022806D0C8
:102A60008020606584F834500120BDE8F081206842
:102A7000016821F0160101602068416921F08001A0
:102A80004161206C08B9A06C20B12068016821F078
:102A9000080101602068016821F0010101600CE07B
:102AA00000F06AFA801B052807D920206065032002
:102AB00084F8350084F83450D7E720680068C007F0
:102AC000EED194F85C103F208840B860012084F873
:102AD000350084F834500020C7E790F835100229FB
:102AE00003D08021416501207047052180F8351011
:102AF0000068016821F001010160002070470000BA
:102B00002DE9F84304464FF00009CDF800906348E2
:102B10004FF41651A56D0068B0FBF1F72E6894F8DC
:102B20005C10082000FA01F131420FD021680A68D8
:102B300052070BD50A6822F004020A6094F85C1070
:102B40008840A860606D40F00100606594F85C10FA
:102B50004FF0010808FA01F0304208D021684969B5
:102B6000090604D5A860606D40F00200606594F825
:102B70005C1004208840304208D021680968890729
:102B800004D5A860606D40F00400606594F85C10A6
:102B900010208840304218D021680968090714D5F0
:102BA000A86020680168490304D50068000308D5BF
:102BB000A16C07E00168C90503D4016821F0080190
:102BC0000160216C09B12046884794F85C102020F0
:102BD0008840304231D021680968C9062DD5A860E7
:102BE00094F8350005282068016806D0490347D5C8
:102BF000006800031DD4616C1CE021F01601016027
:102C00002068416921F080014161206C08B9A06C05
:102C100020B12068016821F00801016094F85C107F
:102C20003F208840A86084F8358084F83490216D76
:102C30001FE0E16B09B120468847606D00282BD06A
:102C4000606DC00714D0052084F835002068016845
:102C500021F0010101600098401C0090B84203D8A7
:102C600020680068C007F6D184F8358084F8349075
:102C7000E16C002910D001B02046BDE8F0430847C0
:102C80000168C905D5D4016821F01001016084F8FC
:102C9000358084F83490CCE7BDE8F883E400002068
:102CA0002DE9F041044600F067F906465CB10220C8
:102CB00084F83500002584F834502068016821F03C
:102CC000010101600DE00120BDE8F08100F054F940
:102CD000801B052805D920206065032084F8350075
:102CE000F2E720680068C007F0D122681168204828
:102CF0000140D4E901031843D4E9033633431843B0
:102D000063691843A3691843E3691843236A1843A6
:102D10000843616A042903D1D4E90B13194308431A
:102D2000106020684069666A20F0070130460E4353
:102D3000012704280CD1A06A0643E06A40B120466E
:102D4000FDF7B8FB20B14020606584F83570BAE724
:102D5000206846612046FDF799FB94F85C203F21EE
:102D600091408160656584F835700020ACE7000013
:102D70003F8010F02DE9F84FDFF8B8A100220124C0
:102D800003254FF00F090AF1040BAAF1040E00BF4E
:102D90000B6804FA02F63340B34273D10F7907F09F
:102DA0000307012F01D0022F16D187684FEA42088E
:102DB00005FA08FC27EA0C07D1F80CC00CFA08FC4D
:102DC0004CEA070CC0F808C04768B7430E79C6F351
:102DD000001696403E4346600E79F643B6070DD086
:102DE000C768560005FA06FC27EA0C07D1F808C0A8
:102DF0000CFA06FC4CEA070CC0F80CC00E7906F081
:102E00000306022E10D1D60800EB8608D8F8206001
:102E100057074FEAD76C09FA0CF7BE430F6907FA58
:102E20000CF73743C8F8207006684FEA420C05FAE1
:102E30000CF7BE430F7907F0030707FA0CF7374387
:102E400007604E6816F4403F6DD03B4E376847F43C
:102E500080473760366822F0030706F48046009604
:102E6000364E07EB060CDCF8086897073F0F09FAA7
:102E700007F826EA0806DFF8C880404503D14FF07E
:102E800000081EE04FE0DFF8BC80404502D14FF063
:102E9000010816E0DFF8B080404502D14FF002088B
:102EA0000FE0DFF8A880404502D14FF0030808E0AA
:102EB000DFF89C80404502D14FF0040801E04FF05C
:102EC000070808FA07F848EA0608CCF80888DAF88C
:102ED00000605746D1F804C09E435FEACC2C00D571
:102EE0001E433E60DBF800605F46D1F804C09E439D
:102EF0005FEA8C2C00D51E433E60DEF8006077460A
:102F0000D1F804C09E435FEA8C3C00D51E433E606E
:102F1000084F083F3E68D1F804C09E435FEACC3CAE
:102F200000D51E433E60521C102AFFF431AFBDE8AD
:102F3000F88F0000083C0140443802400030014056
:102F4000000002400004024000080240000C024061
:102F5000001002400069084000D00120704742691B
:102F600021EA02030A4043EA0241816170470AB143
:102F7000816170470904FBE70148806870470000E1
:102F8000D8000020024881680278114481607047AF
:102F9000D80000200B4810B5016841F400710160B1
:102FA000016841F480610160016841F48071016051
:102FB000032000F06FF8002000F006F800F024F87D
:102FC000002010BD003C024070B50D4D04464FF48A
:102FD0007A712878B1FBF0F00A490968B1FBF0F08A
:102FE00000F00CFB48B9102C07D200222146501EDD
:102FF00000F030F800206C6070BD012070BD000052
:10300000D8000020E40000200A4808B5016841F417
:1030100080410160006800F4804000900548001F76
:10302000016841F080510160006800F0805000901C
:1030300008BD000044380240002809DB00F01F02F0
:10304000012191404009800000F1E020C0F800110A
:1030500070470000F0B40E4B1B680C46C3F302230C
:10306000C3F10705042D00D90425191D072901D234
:10307000002300E0DB1E012606FA05F1491E21406F
:1030800099409E40761E16403143F0BC02F07EB857
:103090000CED00E0064900F0070208684FF6FF0358
:1030A000184040EA0220034A1043086070470000BD
:1030B0000CED00E00000FA052DE9F0470E46050092
:1030C00065D0DFF81481D8F80000F7B200F00700EF
:1030D000B04207D288F80070D8F8000000F007006E
:1030E000B04254D128683D4C810712D5400703D522
:1030F000206840F4E05020602878000703D520685D
:1031000040F4604020602068A96820F0F000084387
:1031100020602878C0072DD0304968680839012818
:1031200012D0022813D0032811D00968890700297A
:103130002DDA216821F0030101432160FFF71CFF14
:10314000814641F2883A0EE009688903EFE7096891
:103150008901ECE7FFF710FFA0EB0901514502D907
:103160000320BDE8F0872068696800F00C00B0EB30
:10317000810FEFD1D8F80010404601F00701B142AD
:1031800007D90770006800F00700B04201D00120A5
:10319000E7E72878400705D52068E96820F4E05083
:1031A000084320602878000706D52068296920F4A4
:1031B000604040EAC100206000F038F82168084A09
:1031C000C1F30311515CC840064908600648006815
:1031D000FFF7FAFE0020C4E7003C02400838024036
:1031E00056550008E4000020DC0000200448054992
:1031F00000680968044AC1F38221515CC8407047E5
:10320000E4000020083802406655000804480549DB
:1032100000680968044AC1F34231515CC8407047F4
:10322000E40000200838024066550008154810B533
:10323000006810F00C02144813D01449042A0FD06F
:10324000082A0ED10F4C241F2268236802F03F0287
:103250005B0207D52068C0F38810A0FB010106E0DF
:10326000084610BD2168C1F38811A1FB00010023AD
:10327000FDF700F82168C1F30141491C4900B0FB8A
:10328000F1F010BD083802400024F40040787D01C0
:103290002DE9F84F04006ED02078DFF84C93C0077A
:1032A000A9F104054AD009F104000168C1F38101C4
:1032B000012908D00068C0F3810002280AD1D9F89A
:1032C0000000400206D52868800337D560680028D2
:1032D000E1D033E06068B0F5803F10D0B0F5A02FAA
:1032E000286810D020F480302860286820F48020DE
:1032F00028606068A8B1FFF73FFE06460DE0286829
:1033000040F48030F4E740F480202860F7E700BF05
:10331000FFF732FE801B642873D828688003F7D536
:103320000CE0FFF729FE064605E000BFFFF724FE8C
:10333000801B6428F0D828688003F7D42078DFF851
:10334000AC8280074FF0000A3ED5A748001D0168F7
:1033500011F00C0F08D00068C0F3810002280BD1D7
:10336000D9F80000400207D42868800716D5E06825
:10337000012800D112E033E1E068B8B10120C8F8BB
:103380000000FFF7F9FD064605E000BFFFF7F4FD7A
:10339000801B0228C0D828688007F7D528682169D3
:1033A00020F0F80040EAC10028600DE0C8F800A055
:1033B000FFF7E2FD064604E0FFF7DEFD801B022872
:1033C0001FD828688007F7D42078000722D5864FB9
:1033D00087486169703771B101210160FFF7CCFD49
:1033E000064604E0FFF7C8FD801B022809D83868AC
:1033F0008007F7D50EE0C0F800A0FFF7BDFD064638
:1034000005E082E0FFF7B8FD801B02287DD8386810
:103410008007F7D42078400768D5DFF8CCB10027C3
:103420000BF13C0BDBF80000C0000BD4DBF8001004
:1034300041F08051CBF80010DBF80000012700F0CC
:10344000805000906B4E3068C00510D4306840F456
:1034500080703060FFF790FD009005E0FFF78CFD75
:103460000099401A022850D83068C005F6D55E4E43
:10347000A0686C3601280FD00528306810D020F0E5
:1034800001003060306820F004003060A068B8B1FE
:10349000FFF772FD00900FE0306840F00100F4E7A4
:1034A00040F004003060F7E7FFF766FD0099411A2D
:1034B00041F28830814266D830688007F4D50EE04A
:1034C000FFF75AFD009007E0FFF756FD0099411AFB
:1034D00041F28830814256D830688007F4D42FB149
:1034E000DBF8001021F08051CBF80010A069C8B3C0
:1034F0003D49091D0968C1F3810102294AD002280A
:10350000504607D0C8F8600000E03CE0FFF734FD0B
:1035100004463BE04746C8F86000FFF72DFD06462D
:1035200005E000BFFFF728FD801B02282BD8286884
:103530008001F7D4D4E907010843A16A2E4A49085B
:1035400002EB0141626A41EA8211084394F82C10AF
:1035500040EA0161C9F8001001203866FFF70CFD50
:10356000044606E03EE000BFFFF706FD001B022810
:1035700009D828688001F7D534E000BFFFF7FCFCCC
:10358000001B022802D90320BDE8F88F28688001BB
:10359000F4D427E00128F7D0D9F80000E26900F45C
:1035A000800191421CD1226A00F03F01914217D163
:1035B00047F6C071626A0140B1EB821F10D1A26A66
:1035C0004FF0FF3300F4403103EB5202B1EB024FF6
:1035D00006D194F82C1000F07060B0EB016F01D0B0
:1035E0000120D1E70020CFE7043802400000474225
:1035F000800E4742007000400000FFFF10B5401EE3
:10360000B0F1807F01D3012010BD4FF0E024606154
:103610000F21601701F0BAFD0020A0610720206192
:10362000002010BD7047704710B590F83C20012A6B
:1036300022D0012280F83C20CA688C6822F44072B3
:1036400022434C6822F4806222430C6822F4006218
:1036500022430C6922F4805222434C6922F4005226
:103660002243C969002322F480420A4301684A6464
:1036700080F83C30002010BD022010BD70B590F8DD
:103680003C20012A2CD0012480F83C40022280F802
:103690003D2003685A689D6822F070060A6832432C
:1036A0005A60104B02689A420ED0B2F1804F0BD094
:1036B0000D4B9A4208D00D4B9A4205D00C4B9A42C2
:1036C00002D00C4B9A4204D1496825F0800319437B
:1036D000916080F83D40002180F83C10084670BDA4
:1036E000022070BD000001400004004000080040BE
:1036F000000C00400040014010B5040003D094F8D5
:103700003D0010B107E0012010BD002084F83C000E
:10371000204600F01FF8022084F83D00211D20689B
:1037200001F0D0FA012084F8460084F83E0084F8C5
:103730003F0084F8400084F8410084F8420084F897
:10374000430084F8440084F8450084F83D000020DC
:1037500010BD000008B52449026824488A4207D1F8
:10376000016841F001010160006800F001002FE0F4
:103770001E491F4B091F9A420ED1086840F00400F1
:1037800008600868002200F00400009011461E2026
:10379000FFF760FC1E2022E0164B9A420ED108680B
:1037A00040F0080008600868002200F0080000905F
:1037B00011463220FFF74EFC322010E00E498A42BB
:1037C00011D1016841F400310160006800F400305B
:1037D0000022009011461920FFF73CFC1920BDE89B
:1037E0000840FFF729BC08BD0000014044380240F2
:1037F00000080040000C00400044014090F83D10DB
:10380000012901D001207047022180F83D10016894
:10381000CA6842F00102CA6000680E4988420ED0B0
:10382000B0F1804F0BD00C49884208D00B49884238
:1038300005D00B49884202D00A49884204D18168E8
:1038400001F00701062903D0016841F00101016080
:1038500000207047000001400004004000080040C4
:10386000000C00400040014070B5044690F83C0058
:103870000025012817D0012684F83C60022084F836
:103880003D002068826822F0770222F47F42826045
:103890000868502838D00DDC20284FD005DC90B3C4
:1038A000102811D14AE0022070BD302846D04028AF
:1038B0000AD13BE060282FD070280DD0B0F5805F92
:1038C00003D0B0F5005F12D0012584F83D600020E0
:1038D00084F83C00284670BDCB68D1E901212068FE
:1038E00001F049FA2068816841F0770109E0CB686E
:1038F000D1E90121206801F03EFA2068816841F495
:1039000080418160E1E719E0CA684968206801F0F8
:10391000E7FA5021206806E0CA684968206801F08B
:10392000F0FA6021206801F030FACEE7CA684968F1
:10393000206801F0D5FA40212068F4E722680146AA
:103940001046F0E72DE9F0410D46040003D094F84D
:103950003D0018B108E00120BDE8F081002084F8A6
:103960003C00204600F040F8022084F83D0020682A
:10397000816844F2070291438160211D206801F0B3
:10398000A1F9226890689169166A2B68AF690343B0
:1039900040F20330814341EA0721A868EF690843F8
:1039A0004FF6FC418843E96840EA07200143286953
:1039B0002F6A000140EA0730084369686D6926F004
:1039C000AA0646EA0515294393602268906154F8D7
:1039D000460B0162012004F81F09E0752076E076AD
:1039E0002077A0750020B7E770B586B00446142193
:1039F0006846FCF7B6FC1F48256800231D491038AF
:103A000002220324B5F1804F1CD01B4EB54217D1C2
:103A10000D6845F002050D60096801F0020105918D
:103A2000016841F0020101600068694600F002008F
:103A3000059030208DE81D0010480492FFF79AF998
:103A400006B070BD0D6845F001050D60096801F014
:103A500001010591016841F00101016000686946BA
:103A600000F00100059022208DE81D000120049047
:103A70000348E3E7403802400004004000040240ED
:103A80000000024070B590F83E60044690F83F5048
:103A900090F8423090F84320022021B104290ED042
:103AA000012E1BD114E0012E18D1012B16D184F860
:103AB0003E0084F8420001220021206820E0012D10
:103AC0000CD1012A0AD184F83F0084F8430014E0A5
:103AD000012D03D1012B01D1012A01D0012070BD9C
:103AE00084F83E0084F83F0084F8420084F84300E4
:103AF00001220021206801F031F90122042120680F
:103B000001F02CF92068016841F0010101600020FA
:103B100070BD704770B50446006801694FF000053C
:103B2000C943890715D4C168C943890711D4E91E5F
:103B3000016101202077206880698007204602D03B
:103B4000FFF7E7FF04E000F0C5F8204600F057F962
:103B5000257720680169C943490717D4C168C9435B
:103B6000490713D46FF00401016102202077206817
:103B7000806910F4407F204602D0FFF7CAFF04E0BE
:103B800000F0A8F8204600F03AF92577206801698E
:103B9000C943090716D4C168C943090712D46FF095
:103BA00008010161042020772068C0698007204651
:103BB00002D0FFF7AEFF04E000F08CF8204600F0E2
:103BC0001EF9257720680169C943C90617D4C16861
:103BD000C943C90613D46FF0100101610820207792
:103BE0002068C06910F4407F204602D0FFF791FFA3
:103BF00004E000F06FF8204600F001F92577206816
:103C00000169C943C90708D1C168C943C90704D1BB
:103C1000891E0161204600F061F920680169C943ED
:103C2000090609D4C168C943090605D46FF08001AB
:103C300001612046FFF7F6FC20680169C943490687
:103C400009D4C168C943490605D46FF04001016138
:103C5000204600F0D5F920680169C94389060BD4D4
:103C6000C168C943890607D46FF02001016120466D
:103C7000BDE87040FFF7D7BC70BD000010B586B03E
:103C8000044614216846FCF76CFB0F492068884203
:103C900017D10E480021026842F00102026000685C
:103CA00000F0010005904FF4407000900220CDE933
:103CB0000101032003900120049069460448FFF7A6
:103CC00059F806B010BD0000000001403038024035
:103CD00000000240704770B5044690F83C00002692
:103CE0000D4601280FD0012084F83C006AB1042A57
:103CF0001DD0082A2FD00C2A3FD00126002084F89E
:103D00003C00304670BD022070BD206801F046F8CE
:103D10002068816941F0080181612068816921F092
:103D200004018161206881692A69114311E02068DA
:103D300001F05CF82068816941F4006181612068CC
:103D4000816921F480618161206881692A6941EA81
:103D500002218161D2E7206801F074F82068C1690E
:103D600041F00801C1612068C16921F00401C1610D
:103D70002068C1692A69114311E0206801F08EF8BA
:103D80002068C16941F40061C1612068C16921F402
:103D90008061C1612068C1692A6941EA0221C1616B
:103DA000ACE710B5040003D094F83D0010B107E073
:103DB000012010BD002084F83C00204600F01EF8D1
:103DC000022084F83D00211D206800F07BFF0120C7
:103DD00084F8460084F83E0084F83F0084F84000F0
:103DE00084F8410084F8420084F8430084F84400D9
:103DF00084F8450084F83D00002010BD70477047EE
:103E000030B500250446022249B1042912D0082900
:103E100044D094F8410001284BD0012030BD94F8E3
:103E20003E000128F9D184F83E202068C26842F0A3
:103E3000020209E094F83F000128EED184F83F2007
:103E40002068C26842F00402C2600122206800F0CB
:103E500085FF1D492068884203D1426C42F400422C
:103E60004264206888420ED0B0F1804F0BD01749D1
:103E7000884208D01649884205D01649884202D0A7
:103E80001549884204D1816801F00701062903D051
:103E9000016841F001010160284630BD94F84000FE
:103EA0000128BAD184F840202068C26842F0080294
:103EB000CAE784F841200C2901D00125ECE72068ED
:103EC000C26842F01002BFE7000001400004004059
:103ED00000080040000C0040004001402DE9F04186
:103EE0000746006840490025404C88420AD12069B5
:103EF000401C206120690A2804D900F0EDFA00F086
:103F0000EDFD25613A493868884236D1E088DFF80E
:103F1000E480401C80B2E0802189491C21816189B4
:103F2000491C6181A169491CA161642808D3A08949
:103F30004FF40051401CA081E5804046FFF70FF888
:103F400001212D48FFF706F80126F8B1A562E561C9
:103F5000C4F834504FF400414046FEF7FBFF20B355
:103F6000E5622562C4F838504FF480414046FEF7C0
:103F7000F1FF48B325636562E563204938688842EC
:103F800002D16069401C6061BDE8F081A06A401CFC
:103F9000A062072807DB606B08B1A562DAE7E6617B
:103FA0006663A562D6E7E561D4E7E06A401CE0629B
:103FB000072807DBA06B08B1E562D5E72662A66398
:103FC000E562D1E72562CFE7206B401C206307281C
:103FD00007DBE06B08B12563CFE76662E663256324
:103FE000CBE76562C9E700000008004098000020A8
:103FF000000C004000080240000002400044014064
:104000007047704770470000F8B5016804460868BB
:10401000CA684B6910F00F0F4FF0000559D003F03C
:10402000010602F49077374365D0C10705D0D1056A
:1040300003D5216C41F001012164410705D5D90761
:1040400003D0216C41F002012164810705D5D90715
:1040500003D0216C41F004012164010707D502F06F
:104060002001314303D0216C41F008012164216C0F
:1040700000293AD0800604D5900602D5204600F0EB
:1040800081FF20684069216CC0F38010090700D4CB
:1040900060B3204600F04FFF20684069400621D5FC
:1040A0002068143050E8001F21F0400140E8001261
:1040B000002AF5D1A06BA8B16C490165A06BFEF791
:1040C0000CFD002811D0A06B016D01B0BDE8F040DF
:1040D000084783060FD593060DD52046BDE8F84066
:1040E00000F050BF2046FFF78DFFF8BD2046FFF7D8
:1040F00089FF2564F8BD266B2023012E79D1C606E1
:1041000077D5D60675D50868486800904869400696
:1041100040D5A16B086840680004000CEAD0A28D6D
:104120008242E7D9E085C869B0F5807F2DD020684C
:104130000C3050E8001F21F4807140E80012002A82
:10414000F5D12068143050E8001F21F0010140E84B
:104150000012002AF5D12068143050E8001F21F029
:10416000400140E80012002AF5D184F83E30256372
:1041700020680C3050E8001F21F0100140E80012C8
:10418000002AF5D1A06BFEF75FFCA08DE18D401AEF
:1041900081B229E0A08DE18D401A81B2E08D002826
:1041A000A8D00029A6D020680C3050E8002F22F4B7
:1041B000907240E80026002EF5D12068143050E8B7
:1041C000002F22F0010240E80026002EF5D184F8ED
:1041D0003E30256320680C3050E8002F22F010029A
:1041E00040E80023002BF5D12046FFF70AFFF8BD79
:1041F000FFE705062BD5150629D594F83D002128A3
:10420000F5D1A068B0F5805F01D12069B0B1206A16
:10421000411C2162216800784860E08C401E000447
:10422000000CE084E3D12068C16821F08001C16006
:104230002068C16841F04001C160D8E7206A008869
:10424000C0F308004860206A801C2062E5E7400651
:10425000CDD55006CBD5CA68204622F04002CA60B0
:1042600084F83D3000F007F9C1E70000274F00084F
:1042700070B5040004D094F83D00002510B106E0AC
:10428000012070BD84F83C50204600F023F8242023
:1042900084F83D002068C16821F40051C1602046C7
:1042A00000F0D0FE2068016921F49041016120688E
:1042B000416921F02A0141612068C16841F400513F
:1042C000C1602564202084F83D0084F83E00002071
:1042D00070BD00002DE9F04786B004461421684601
:1042E000FCF73FF8DFF868C102212668594803222D
:1042F000072300258F064FF0400A4FF4806966457A
:104300004DD1544E1436D6F800C04CF0100CC6F8FF
:1043100000C0366806F010060596066846F00206EC
:104320000660006800F002000590C0208DE82300C0
:1043300069464948CDE90323FEF71CFD484E47482E
:10434000C846C6E903597561B561F56135627562A4
:1043500086E881043046FEF7A3FC08B1FCF7D5F8E7
:104360006663B4633E4E3D48603678383060C6E9D7
:104370000175C6E903587561B561F561356230466E
:104380007562FEF78DFC08B1FCF7BFF8A66300224A
:1043900011462520B463FEF75DFE252052E0DFF8CC
:1043A000C4C0664550D12B4E1036D6F800C04CF430
:1043B000003CC6F800C0366806F40036059606686C
:1043C00046F001060660006800F0010005900C2030
:1043D0008DE8230069462448CDE90323FEF7CAFC93
:1043E0001F4E2248C036B8463060C6E90175C6E99E
:1043F000035980157561C6E9065035624F4630464F
:104400007562FEF74DFC08B1FCF77FF8A663B46354
:10441000174E1648C6E903577561B561F5613562F7
:104420001830756286E801053046FEF739FC08B1A0
:10443000FCF76BF86663002211462620B463FEF792
:1044400009FE2620FEF7F8FD06B0BDE8F087000063
:10445000001001403038024000040240B8640240BD
:104460002003002000440040000002408860024019
:104470004004002070477047FEE70000081A00EE75
:10448000100A1448B0EE002AB8EEC00AD0ED1B0A9C
:10449000D0ED031A30EE601A21EE211AD0ED041A85
:1044A00001EE801AF0EE401A40EEC21A90ED1C2A7E
:1044B00071EE821A90ED052A02EE211AD0ED1D1A36
:1044C0006C3031EE211A80EC030ABDEEC10A10EE09
:1044D000100A70470000002010B5022000F06CFBAD
:1044E000104B5863D96B0844D863996B00F01CF8E3
:1044F0001864196B00F039FE1864D3E90E10401AE5
:10450000FBF793FF052801DA002105E0196C586BD1
:10451000FFF7B4FF01B21864BDE81040012000F0BD
:10452000B5BF000000000020081A00EE100A1B486A
:104530001B4AB8EEC00AD0ED180A70EE800A10EEE1
:10454000901AC0ED180A914203DDDFED160AC0EDA6
:10455000180A10EE901A144A914203D9DFED130A9B
:10456000C0ED180AD0ED000A90ED011AD0ED181A2E
:1045700060EE800A41EE210A90ED171AD0ED021A82
:1045800030EE411A41EE810AC0ED190A80ED170A9A
:10459000BDEEE00A10EE100A704700000000002097
:1045A00000409C4500409C4500409CC500409CC587
:1045B000194808B5016841F400110160016801F46F
:1045C00000110091016841F480010160006800223F
:1045D00000F48000009011461020FEF73BFD1020F3
:1045E000FEF72AFD002211461120FEF733FD1120AF
:1045F000FEF722FD002211463A20FEF72BFD3A205D
:10460000FEF71AFD002211464620FEF723FDBDE805
:1046100008404620FEF710BD303802402DE9F04337
:1046200087B014216846FBF79CFE3B4800240168D4
:1046300041F004010160016801F004010591016885
:1046400041F080010160016801F08001059101687D
:1046500041F001010160016801F00101059101686B
:1046600041F00201016000682C4F00F002004FF49D
:1046700000550590002229463846FEF778FCDFF801
:10468000A090002280214846FEF771FCDFF894805C
:1046900040F20746002231464046FEF768FC00958E
:1046A0000125CDE90154694638460394FEF762FBC3
:1046B0004FF440408DE8310069463846FEF75AFB1A
:1046C000CDE90054694648460295FEF753FB802029
:1046D0000090CDE90154694648460394FEF74AFB31
:1046E0000096CDE90154694640460394FEF742FB2B
:1046F0004FF2080002258DE8310069464046FEF77A
:1047000039FBA8038DE8310069464846FEF732FBC5
:1047100007B0BDE8F08300003038024000080240D6
:1047200000000240000402400B4810B50949016036
:1047300053214160002140F2E732C0E902120161D9
:104740008161FEF7D9FF002803D0BDE81040FBF7D8
:10475000DCBE10BD004401405002002010B596B0F0
:1047600000240F9410941194129413941C21684601
:104770001494FBF7F6FD202107A8FBF7F2FD2D4866
:104780002B4901605321C0E9011440F2E731C0E92F
:1047900003148021C0E90541FEF7AEFF08B1FBF725
:1047A000B4FE4FF480500F900FA92248FFF75CF839
:1047B00008B1FBF7AAFE1F48FFF7F3FA08B1FBF7B1
:1047C000A4FE139413A91B481494FEF757FF08B1D5
:1047D000FBF79BFE6020CDE900040294039404944F
:1047E00005940022694613480694FFF774FA08B14D
:1047F000FBF78BFE042269460E48FFF76CFA08B1FE
:10480000FBF783FE0794089409944FF400500A9430
:10481000CDE90B4007A907480E94FEF705FF08B144
:10482000FBF773FE0348FFF729FA16B010BD00002E
:1048300000000140E800002010B58CB0242168463B
:10484000FBF78FFD0024154809944FF080410A942E
:10485000C0E90014611EC0E90241046184610320C3
:10486000CDE900040120CDE902040494CDE905401E
:104870000794694609480894FFF764F808B1FBF704
:1048800044FE099409A905480A94FEF7F7FE00289A
:1048900001D0FBF73AFE0CB010BD00003001002043
:1048A00010B58CB024216846FBF75BFD0024164848
:1048B000099414490A94C0E900144FF6FF71C0E945
:1048C0000241046184610320CDE900040120CDE9A7
:1048D00002040494CDE90540079469460A48089407
:1048E000FFF730F808B1FBF710FE099409A9064854
:1048F0000A94FEF7C3FE002801D0FBF706FE0CB0B9
:1049000010BD0000000400407801002010B586B002
:1049100000241748009401940294039404941349CA
:10492000059401605321C0E9011440F2E731C0E968
:10493000031480218161FEF7DFFE08B1FBF7E5FD7E
:104940004FF48050009069460948FEF78DFF08B18A
:10495000FBF7DBFD049404A905480594FEF78EFEE1
:10496000002801D0FBF7D1FD06B010BD00080040C3
:10497000C001002010B586B00024174800940194AF
:104980000294039404941349059401605321C0E9EF
:10499000011440F2E731C0E9031480218161FEF780
:1049A000ABFE08B1FBF7B1FD4FF4805000906946B3
:1049B0000948FEF759FF08B1FBF7A7FD049404A9C5
:1049C00005480594FEF75AFE002801D0FBF79DFD2F
:1049D00006B010BD000C0040080200200C4810B5C5
:1049E0000A4901604FF416514160002181600C2298
:1049F000C160C0E904128161C161FFF739FC002880
:104A000003D0BDE81040FBF780BD10BD0010014091
:104A1000980200200C4810B50A4901604FF4E131BA
:104A20004160002181600C22C160C0E904128161F3
:104A3000C161FFF71DFC002803D0BDE81040FBF763
:104A400064BD10BD00440040DC020020FEE7000011
:104A5000024A1060024801607047000038000020E0
:104A60004C000020024A10600248016070470000BC
:104A70003000002044000020FEE77047081A00EED6
:104A8000100A1548B0EE002AB8EEC00AD0ED030AAD
:104A9000A0F1800130EE601AD1ED091A21EE211A41
:104AA000D1ED0A1A01EE801AF0EE401A40EEC21A59
:104AB00090ED042A71EE821A91ED0B2A02EE211A72
:104AC000D0ED051A0C3031EE211A80EC030ABDEE50
:104AD000C10A10EE100A70478000002010B50320B4
:104AE00000F06AF8104B9864196D08441865D96C89
:104AF00000F01CF85865596C00F037FB5865D3E995
:104B00001310401AFBF791FC052801DA002105E09B
:104B1000596D986CFFF7B2FF01B25865BDE81040BF
:104B2000022000F0B3BC000000000020081A00EED4
:104B3000100A1C481C4AB8EEC00AD0ED000A70EEFC
:104B4000800A10EE901AC0ED000A914203DDDFEDFD
:104B5000170AC0ED000A10EE901A154A914203D9C7
:104B6000DFED140AC0ED000A0E49D0ED001A8039BD
:104B7000D1ED060A91ED071A60EE800A41EE210A96
:104B800091ED1F1AD1ED081A30EE411A41EE810A5B
:104B9000C0ED010A81ED1F0ABDEEE00A10EE100A19
:104BA000704700008000002000409C4500409C456C
:104BB00000409CC500409CC50021022803D003286A
:104BC00007D0002070474FF08042506A516200B217
:104BD0007047034A10681160404200B270470000FD
:104BE000240400407047FEF7CDB9000030B593B003
:104BF00030216846FBF7B5FB14210CA8FBF7B1FB8D
:104C00001D480025016841F080510160006800F0F6
:104C1000805011901948016821F4404141F400414D
:104C200001600068022400F44040119001200090CF
:104C3000000401908001CDE9064019200890A820C9
:104C4000CDE9090404200B906846FEF721FB08B16A
:104C500072B6FEE70CA90F2081E831004FF48050B6
:104C6000CDE90F0502210CA8FEF726FA002801D095
:104C700072B6FEE713B030BD40380240007000400D
:104C80000248016841F470010160704788ED00E05E
:104C900010B50448FEF73EFFBDE810400248FEF79D
:104CA00039BF0000E8000020500200200148FEF754
:104CB00031BF0000C00100200148FEF72BBF0000FB
:104CC00008020020F0B502681D4B1E4C9F031E4DCC
:104CD0001E4E984207D0B84205D0A04203D0A84249
:104CE00001D0B04204D122F0700C4A6842EA0C02B2
:104CF000984210D0B8420ED0A0420CD0A8420AD0A0
:104D0000B04208D0124CA04205D0124CA04202D0B2
:104D1000114CA04203D122F44074CA6822434C696A
:104D200022F08002224302608A68C2620A688262BC
:104D3000984201D10969016301214161F0BD000080
:104D4000000001400004004000080040000C00404A
:104D500000400140004401400048014010B501F00E
:104D60001F030121046A99408C430462016A9A403E
:104D70001143016210BD10B5846842EA032224F495
:104D80007F440A432243826010BD826822F0700291
:104D90000A4342F0070181607047000030B5026AA3
:104DA00022F001020262026A4368846924F07305FA
:104DB0000C682C4322F002058A682A430A4DA84257
:104DC0000BD122F00805CA6823F440732A434D69C9
:104DD00022F004021D438B692B43436084614968C0
:104DE0004163026230BD00000000014030B5026A3C
:104DF00022F010020262026A436884690D6824F49A
:104E0000E64444EA05248D6822F0200242EA0512B5
:104E10000B4DA8420ED1CD6822F0800242EA051265
:104E20004D6923F4406343EA85038D6922F0400213
:104E300043EA85034360846149688163026230BD4F
:104E40000000014030B5026A22F480720262036AF7
:104E50004268C46923F4007324F073050C682C4382
:104E60008D6843EA05230C4DA8420ED1CD6823F48A
:104E7000006343EA05234D6922F4405242EA0512D9
:104E80008D6923F4806342EA05124260C461496877
:104E9000C163036230BD00000000014030B5026A0A
:104EA00022F480520262046A4268C3690D6823F4E6
:104EB000E64343EA05238D6824F4005444EA0534AC
:104EC000064DA84204D14D6922F4804242EA85127F
:104ED0004260C36149680164046230BD0000014062
:104EE00010B5036A046A24F001040462846924F0A2
:104EF000F00444EA021423F00A020A4384610262C5
:104F000010BD10B5036A23F0100303628369046ABD
:104F100023F4704343EA023224F0A00343EA011170
:104F20008261016210BD10B5806B0021C185C18412
:104F3000FFF768F810BD01680C3151E8002F22F42A
:104F4000907241E80023002BF5D10168143151E83B
:104F5000002F22F0010241E80023002BF5D1016B64
:104F6000012909D101680C3151E8002F22F010020B
:104F700041E80023002BF5D1202180F83E100021CC
:104F80000163704708B590F83E10222901D0022035
:104F900008BD82684FF480539A4201D1016921B162
:104FA000816A9A421BD04AB10AE00268816A52685B
:104FB000C2F308020A80816A891C08E0026972B1A2
:104FC0000268526802F07F020A70816A491C81629D
:104FD000C18D491E0904090CC18503D019E002687E
:104FE0005268F1E70168CA6822F02002CA600168CD
:104FF000CA6822F48072CA6001684A6922F001021C
:105000004A61202180F83E10016B012903D0FFF78F
:1050100031FA002008BD0021016301680C3151E81C
:10502000002F22F0100241E80023002BF5D1016887
:105030000A68D20602D50A6849680091818DFEF798
:10504000E0FFE6E770B5044600680169E26821F414
:105050004051114301612169A068E2690843616917
:10506000114308432168CA6849F20C639A4302431A
:10507000CA6020684169A26921F44071114341610D
:1050800031492068884202D03049884202D1FEF777
:10509000BDF801E0FEF7AAF8E269002319216425B2
:1050A0003226B2F5004F626828D0A0FB0101930FB1
:1050B0009200FBF7DFF80146B0FBF5F06FF0180245
:1050C000504301EB800006EB0010B0FBF5F000F060
:1050D000F002B1FBF5F002EB0012B1FBF5F06FF05E
:1050E0001803584301EB800006EB0010B0FBF5F00D
:1050F00000F00F0021681044886070BDA0FB010122
:1051000092185B41FBF7B6F80146B0FBF5F00201DF
:10511000B1FBF5F06FF01803584301EB800006EB8C
:10512000C000B0FBF5F000F0F80002EB4002B1FB6C
:10513000F5F0584301EB800006EBC000B0FBF5F042
:1051400000F00700D6E70000001001400014014005
:105150000148FEF759BF0000980200200148FEF701
:1051600053BF0000DC020020FEE7884202DC494217
:10517000884202DA00EE101A01E000EE100AB8EEE2
:10518000C00ABDEEC00A10EE100A70470907090EEA
:10519000002804DB00F1E02080F80014704700F0E4
:1051A0000F0000F1E02080F8141D7047FDF7F2FEBB
:1051B000FFF71CFDFFF732FAFFF7FAF9FFF7CEFA17
:1051C000FFF7A4FBFFF7D6FBFFF736FBFFF768FB03
:1051D000FFF704FCFFF71EFCFFF7A6FAA148FEF755
:1051E0000DFBA148FEF70AFBA048FEF707FBA0480D
:1051F000FEF704FB00219B48FEF702FE04219948BC
:10520000FEF7FEFD3C219B48FEF73CFC3C219A4802
:10521000FEF738FC4FF48057984C994D4FF0000939
:105220004FF4005A4FF4804BFE004FF00108686ABB
:10523000012805D151469348FDF791FEC5F8249009
:10524000287898B9296A012902D0686A01280DD105
:10525000404685F80080012900D16870696A0129FB
:1052600000D1A870C5F82090C5F82490687800286F
:10527000DDD0E87838B9FBF7E7F8FBF7DBF885F81D
:105280000380C5F8148039462046FDF763FE0128E7
:105290001AD151462046FDF75DFEA8B95946204671
:1052A000FDF758FE80B931462046FDF753FE58B948
:1052B00031467548FDF74EFE30B908212046FDF70E
:1052C00049FE08B9FBF724F939462046FDF742FEAE
:1052D000D8B951462046FDF73DFE012815D1594663
:1052E0002046FDF737FE80B931462046FDF732FEF5
:1052F00058B931466448FDF72DFE30B908212046E3
:10530000FDF728FE08B9FBF7F7F939462046FDF707
:1053100021FED8B951462046FDF71CFEB0B95946CA
:105320002046FDF717FE012810D131462046FDF733
:1053300011FE58B931465448FDF70CFE30B908212A
:105340002046FDF707FE08B9FBF76CFB39462046FF
:10535000FDF700FED8B951462046FDF7FBFDB0B978
:1053600059462046FDF7F6FD88B931462046FDF73F
:10537000F1FD01280BD131464348FDF7EBFD30B973
:1053800008212046FDF7E6FD08B9FBF71DFE39466A
:105390002046FDF7DFFDD8B951462046FDF7DAFD7E
:1053A000B0B959462046FDF7D5FD88B931462046AB
:1053B000FDF7D0FD60B931463348FDF7CBFD01283C
:1053C00006D108212046FDF7C5FD08B9FCF708FC09
:1053D00039462046FDF7BEFDD8B951462046FDF7B7
:1053E000B9FDB0B959462046FDF7B4FD88B931463C
:1053F0002046FDF7AFFD60B931462348FDF7AAFD11
:1054000038B908212046FDF7A5FD012801D1FCF798
:10541000C9FF39462046FDF79DFD00287FF407AF00
:1054200051462046FDF796FD0028F7D15946204603
:10543000FDF790FD0028F1D131462046FDF78AFDA9
:105440000028EBD131461048FDF784FD0028E5D156
:1054500008212046FDF77EFD0028DFD1C5F8148025
:10546000E5E60000E8000020C0010020080200205E
:10547000500200203001002078010020000402408A
:1054800098000020000802400000024070B52B4A3E
:105490000C46284B284D5142012815D0022812D124
:1054A000002C35DA944200DA1446002201211E460F
:1054B0001846FDF75CFD012202213046FDF757FD3D
:1054C00029686042886370BD1D4E002C10DA94423A
:1054D00000DA1446002204211846FDF748FD012297
:1054E00080213046FDF743FD29686042486370BD66
:1054F0008C4200DD0C46012204211846FDF737FDE1
:10550000002280213046FDF732FD2868446370BDDB
:105510008C4200DD0C46012211461E461846FDF75E
:1055200026FD002202213046FDF721FD2868846314
:1055300070BD000000040240E800002018FCFFFFDE
:10554000000002404FF04070E1EE100A7047000684
:1055500010160006101600000000000000000102F6
:10556000030406070809000000000102030400000C
:105570009055000800000020E8000000D00100085D
:1055800078560008E8000020180A0000EC01000826
:105590000000003F000000000000003F0000F0425B
:1055A00000004040CDCCCC3D0000003F000000009A
:1055B0000000003F0000F04200004040CDCCCC3D58
:1055C00000000000000000000000000000000000DB
:1055D00000000000000000000000000000000000CB
:1055E00000000000000000000000000000000000BB
:1055F00000000000000000000000000000000000AB
:10560000000000000000000000000000000000009A
:10561000000000000000000000000000000000008A
:105620000000000000000000000000000100000079
:10563000000000000000000000000000000000006A
:10564000000000000000000000000000000000005A
:10565000000000000000000000000000000000004A
:105660000000000000000000010000001000000029
:08567000000000000024F4001A
:040000050800019559
:00000001FF
