:020000040800F2
:10000000401C002071570008014300087B5700087E
:1000100003430008074300080B43000800000000EA
:100020000000000000000000000000000F43000876
:10003000114300080000000087570008E143000852
:100040008B5700088B5700088B5700088B57000808
:100050008B5700088B5700088B5700088B570008F8
:100060008B5700088B5700088B5700088B570008E8
:100070008B5700088B5700088B5700088B570008D8
:100080008B5700088B5700088B5700088B570008C8
:100090008B5700088B5700088B5700081343000844
:1000A0008B5700088B5700088B5700088B570008A8
:1000B0008B570008254300082D4300088B57000884
:1000C0008B5700088B5700088B5700088B57000888
:1000D0008B57000849430008514300085943000862
:1000E0008B5700088B5700088B5700088B57000868
:1000F0008B5700088B5700088B5700088B57000858
:100100008B5700088B5700088B5700088B57000847
:1001100061430008694300088B5700082F4300081B
:100120008B5700088B5700088B5700088B57000827
:100130008B5700088B5700088B5700088B57000817
:100140008B5700088B5700088B5700088B57000807
:100150008B5700088B5700088B5700087143000825
:100160008B5700088B5700088B5700088B570008E7
:100170008B5700088B5700088B5700088B570008D7
:100180008B5700088B570008DFF80CD00DF03CFDB2
:1001900000480047A1010008401C002000BFFEE706
:1001A00002F070FD00F097F801E000F0BAF8FCE70B
:1001B000704770476E480078042807D06C48007874
:1001C000292803D06A4800782D280ED16948B0F953
:1001D0000000694908806948B0F900006849088052
:1001E0006848D0F80E00684908607047704710B53D
:1001F0002DED088B00F01AFA5F48B0F900000DF001
:10020000C0FB41EC1B0B9FED610B53EC102B0DF071
:1002100046FB41EC190B5748B0F900000DF0B1FB5B
:1002200041EC1A0B53EC192B0DF033FB41EC180B7E
:100230000DF0B8FB00B2574908805148B0F90000F2
:100240000DF09FFB41EC1B0B9FED530B53EC102B60
:100250000DF025FB41EC190B4848B0F900000DF0FA
:1002600090FB41EC1A0B53EC192B0DF012FB41ECF7
:10027000180B0DF097FB00B2494908803D480088F3
:100280003D490988401A00B2464908803B48008829
:100290003B490988401A00B243490880F22143488B
:1002A000006800F0DBFEF5213E48B0F9000000F0E8
:1002B000CEF8F6213C48B0F9000000F0C8F8F7216C
:1002C0002B48007800F08CFE00F019FFBDEC088B85
:1002D00010BD70477047002000BF1FE000EB4001D9
:1002E000334A02EB810189884FF47A7292FBF1F173
:1002F00000EB40022E4B03EB8202D18000EB400169
:100300001A4602EB8101C988012905DA012100EBB7
:10031000400203EB8202D180411CC8B20728DDD322
:10032000704770B5002400BF1EE004F063F8054676
:1003300004EB44001E4901EB80008068281A04EB9E
:1003400044011B4A02EB8101C98888420AD304EBAD
:100350004400114601EB8000856004EB440152F833
:1003600021008047601CC4B2072CDED370BD0000A2
:1003700000000020100000201400002012000020C7
:10038000160000200A0A0020040000203333333313
:100390003333EB3F6C000020CDCCCCCCCCCCEC3F4D
:1003A0006E000020700000207200002080000020FD
:1003B00018000020F1B52DED020B9AB0064600247E
:1003C00000250027AA222146641C01A84254FF22CE
:1003D0002146641C42542146641C46540422214692
:1003E000641C42549DF868202146641C42549DF8C8
:1003F00069202146641C42549DF86A202146641CF1
:1004000042549DF86B202046611CCCB201A90A54CD
:10041000002007E001A9095C2944CDB27919CFB2C7
:10042000411CC8B29DF80710091D8142F2DC20462C
:10043000611CCCB201A90D542046611CCCB201A9AB
:100440000F54214601A805F0FAF81DB0F0BDF3B530
:1004500099B00E46002400250027AA222146641CDC
:100460000DF80120FF222146641C0DF801202146D1
:10047000641C0DF8016002222146641C0DF8012065
:100480009DF864202146641C0DF801209DF865202C
:100490002146641C0DF80120002007E01DF8001023
:1004A0002944CDB27919CFB2411CC8B29DF80310CE
:1004B000091D8142F2DC2046611CCCB20DF80050CF
:1004C0002046611CCCB20DF800702146684605F04C
:1004D000B6F81BB0F0BD2DE9F05F0746884691469F
:1004E0009A46A9EB070005B2AAEB080004B215FB77
:1004F00005F014FB040000EE900AF8EEE00AB0EEFE
:10050000600A02F00BFFBCEEC00A10EE100AF749B9
:100510000870002D1FDD002C1DDDB5F1000B01DB87
:10052000584601E0CBF1000001EE100AF8EEC10AD6
:10053000261E01DB304600E0704201EE100AB8EEE4
:10054000C10A02F00AFEDFEDEA0A30EEC00AE9480D
:1005500080ED000A68E0002D23DA002C21DDB5F1E2
:10056000000B01DB584601E0CBF1000001EE100A60
:10057000F8EEC10A261E01DB304600E0704201EEB3
:10058000100AB8EEC10A02F0E8FDDFEDDB0A30EE3A
:10059000C00ADFEDD70A30EEC00AD64880ED000A67
:1005A00042E0002D23DA002C21DAB5F1000B01DB4B
:1005B000584601E0CBF1000001EE100AF8EEC10A46
:1005C000261E01DB304600E0704201EE100AB8EE54
:1005D000C10A02F0C2FDDFEDC80A30EE200ADFEDED
:1005E000C40A30EEC00AC34880ED000A1CE0002DAA
:1005F0001ADD002C18DAB5F1000B01DB584601E0DA
:10060000CBF1000001EE100AF8EEC10A261E01DB54
:10061000304600E0704201EE100AB8EEC10A02F066
:100620009CFDB44880ED000ABDE8F09F10B52DEDAB
:10063000028BB24890F83800002879D1AF48B0F961
:100640004200B0F5487F0DDDAC48B0F94200B0F58E
:10065000966F07DAAA48007838B902F011F9A8496C
:10066000087002E00020A6490870A448B0F94200D2
:1006700040F2A46188420FDDA048B0F9420040F684
:100680009801884208DA9F48007840B901209D49C6
:1006900008709D49087002E000209A490870994846
:1006A000007801287ED1984800780A287BD008DCA1
:1006B0000A2879D2DFE800F01E222830464F64A1D4
:1006C000D6FD292871D00CDC12286FD004DC0B2851
:1006D0006DD00C2868D17CE3132869D02828F9D183
:1006E0000FE22A2865D02B287CD02C287BD02D28FF
:1006F000F0D1BAE200208549088001E28248007802
:10070000401C81490870FBE101F054FF7E490978E3
:1007100008447D490870F3E17C48008841F2883143
:10072000884206DA7948008814307849088008E061
:10073000FEE300207549088073480078401C724928
:100740000870DDE18C2002F07AF86F4909780844DE
:100750006D490870D4E16D48008841F658318842EF
:1007600005DA6A48008814306849088007E00020EC
:100770006649088064480078401C63490870BFE1FE
:100780006248008841F27C5188422DDA5F48008837
:1007900014305E49088008460088A0F5FA7000BB56
:1007A0005B4807E0F9E331E2F8E3C4E1F7E360E234
:1007B000F6E3C6E1D0F80E0000EE100A5548D0ED81
:1007C000000A30EE600ABDEEC00A10EE100A00B258
:1007D00051490880012150480088404200B201F090
:1007E0009BFF09E0D5E177E247480078401C464985
:1007F0000870002045490880EBE3484848490978DB
:1008000030F91100192190FBF1F0C01C00EB400100
:10081000C1EBC0103D490988B1EBC00F19DA3B4864
:10082000008814303949088008460088A0F5FA701D
:10083000B8B93C493A4B1B7831F813108AB23749A2
:10084000374B1B7831F8131088B2192102F031F8B8
:1008500007E02D480078401C2B49087000202B49E8
:100860000880B6E3304A2E4B1B7832F813205242F0
:1008700011B22E4A2A4B1B7832F913002C4AB2F9D6
:1008800000302C4AB2F90020FFF725FE1F480088EF
:1008900040F6B83188424FDA1C48008814301B49B2
:1008A000088008460088143870B9124890ED000A94
:1008B00000E04AE0BCEEC00A10EE100A82B2042149
:1008C0000A48007801F0F5FFF82108480078FFF7A2
:1008D000BEFDF921074890ED000ABDEEC00A10EEFA
:1008E000100A00B2FFF7B3FD2EE0000078000020F0
:1008F0000000B44308000020000034436A0A0020CE
:100900003B0100203C010020000000203E010020AF
:100910000A0A0020040000208C000020D2000020E1
:100920009C000020EC0000209E000020B800002069
:100930006E0000206C000020FD480078401CFC493F
:1009400008700020FB49088043E3FA48008814300F
:10095000F8490880F84890F8D20003287ED1F7487B
:1009600000689B2808DAF5480068912804DDB0EE9D
:10097000008ADFEDF38A2AE0F04800689B2808DA55
:10098000EE480068AA2804DD9FEDEE8ADFEDEE8ACE
:100990001DE0EA480068822808DDE84800689128E0
:1009A00004DA9FEDEA8AF7EE088A10E0E34800686F
:1009B0005A2808DDE1480068822804DA9FEDE48ABD
:1009C000F7EE008A03E0B6EE008ADFEDE28AE24845
:1009D000B0F9000000EE100AB8EEC00A20EE480A96
:1009E000BDEEC00A10EE100A03B2DC48B0F90000F8
:1009F00000EE100AB8EEC00A20EE680ABDEEC00A8A
:100A000010EE100A02B200210846FFF764FDD34839
:100A1000B0F9000000EE900AF8EEE00A60EEA80AD5
:100A2000B0EE600AF520FFF7C5FCCB48B0F9000036
:100A300000EE900AF8EEE00A60EE880AB0EE600A76
:100A4000F620FFF7B7FCC448B0F9000010F1060F1C
:100A500011DBC148B0F90000062800E050E00ADCD4
:100A6000BE48B0F9000010F1060F04DBBB48B0F936
:100A70000000062816DDAF4800884FF47A7190FB1D
:100A8000F1F201FB120070BBAB48B0F8DA2005218F
:100A9000B348007801F00DFFF321B1480078FFF76B
:100AA000D6FC20E0AC48B0F9000010F1060F1ADDCA
:100AB000A948B0F90000062815DAA848B0F90000E6
:100AC00010F1060F0FDDA548B0F9000006280ADA7C
:100AD000994890F8D200FF2805D128209449087041
:100AE0000020944908809348008842F2107188429F
:100AF00005DD28208E49087000208E49088000BF3F
:100B000067E28C480088B0F5FA7F0BDA89480088E4
:100B100014308849088008460088143850B901F01C
:100B20005CFE07E082480078401C81490870002084
:100B3000804908804DE27E480078401C7C4908705E
:100B400047E27C48008842F21071884218DA7948FE
:100B5000008814307749088008460088143820B986
:100B60001421322001F011FE12E072480088A0F535
:100B7000B850703860B91421322001F0DDFD07E073
:100B80006B480078401C6A49087000206949088059
:100B90001FE27448B0F900307348B0F9002000211A
:100BA0000846FFF798FC63480088B0F57A6F26DAAC
:100BB0006048008814305F4908800846008814386F
:100BC00060B96A4890ED000ABCEEC00A10EE100A47
:100BD00082B203216248007801F06BFEF821604880
:100BE0000078FFF734FCF921604890ED000ABDEE73
:100BF000C00A10EE100A00B2FFF729FC05E00A2037
:100C00004B49087000204B490880E2E149480088C0
:100C1000B0F5FA6F22DA4748008814304549088059
:100C200008460088A0F5FA70F0B95148D0F80E00D7
:100C300000EE100A4F48D0ED000A30EE600ABDEE1B
:100C4000C00A10EE100A00B24B49088001214A4840
:100C50000088404200B201F05FFD05E02D203449DC
:100C60000870002033490880B3E10B203049087038
:100C7000AFE142484249097830F91100192190FB4F
:100C8000F1F0C01C00EB4001C1EBC01029490988FC
:100C9000B1EBC00F19DA27480088143025490880C5
:100CA00008460088A0F5FA70A8B93649344B1B787D
:100CB00031F813108AB23149314B1B7831F81310D7
:100CC00088B2192101F0F5FD05E02C2018490870C3
:100CD0000020184908807CE12B4A294B1B7832F808
:100CE0001320524211B2294A254B1B7832F91300C6
:100CF000274AB2F90030274AB2F90020FFF7EBFB90
:100D00000C480088B0F5FA6F5CDA0A4800881430A5
:100D100008490880084600881438E8BB134890ED5D
:100D2000000ABCEEC00A10EE100A82B2032134E0C1
:100D3000000000203E010020B80B002080000020B1
:100D4000E17AD43F9A991940C3F5E83F295CCF3F37
:100D50009A99993FCDCCCC3E8E0000209000002087
:100D600078000020720000207000002008000020A1
:100D70000A0A0020040000208C0000200601002048
:100D80009C000020200100209E000020B8000020D0
:100D90006E0000206C00002003E0FE48007801F0A7
:100DA00088FDF821FB480078FFF751FBF921FA484C
:100DB00090ED000ABDEEC00A10EE100A00B2FFF777
:100DC00046FB05E00C20F54908700020F449088036
:100DD000FFE0F34800881430F1490880F14890F8AA
:100DE000D200FF287ED1F04800689B2808DAEE4840
:100DF0000068912804DDB0EE008A5FED2F8A2AE0BA
:100E0000E94800689B2808DAE7480068AA2804DD5A
:100E10001FED348A5FED348A1DE0E34800688228C4
:100E200008DDE1480068912804DA1FED388AF7EE02
:100E3000088A10E0DC4800685A2808DDDA480068B3
:100E4000822804DA1FED3E8AF7EE008A03E0B6EE50
:100E5000008A5FED408AD548B0F9000000EE100A24
:100E6000B8EEC00A20EE480ABDEEC00A10EE100A25
:100E700003B2CF48B0F9000000EE100AB8EEC00A85
:100E800020EE680ABDEEC00A10EE100A02B2002180
:100E90000846FFF720FBC648B0F9000000EE900AB4
:100EA000F8EEE00A60EEA80AB0EE600AF520FFF75F
:100EB00081FABE48B0F9000000EE900AF8EEE00AB0
:100EC00060EE880AB0EE600AF620FFF773FAB748C2
:100ED000B0F9000010F1060F11DBB448B0F90000C2
:100EE000062800E058E00ADCB148B0F9000010F133
:100EF000060F04DBAE48B0F9000006281EDDA84846
:100F000000884FF47A7190FBF1F201FB1200B0BB44
:100F1000A448B0F8DA200A219E48007801F0C9FC04
:100F2000F3219C480078FFF792FAF1209A4900E0FB
:100F300053E091ED000AFFF73DFA20E09B48B0F93D
:100F4000000010F1060F1ADD9848B0F900000628DD
:100F500015DA9748B0F9000010F1060F0FDD94483C
:100F6000B0F9000006280ADA8E4890F8D200FF286F
:100F700005D11220894908700020894908808848D5
:100F8000008842F21071884205DD12208349087002
:100F900000208349088000BF1BE01BE018E000E050
:100FA00013E07F480088B0F5FA6F05DA7C480088C6
:100FB00014307B49088007E0002079490880774891
:100FC0000078401C7549087003E001F059FC00E00E
:100FD00000BF02E0002071490870BDEC028B10BD1B
:100FE0002DE9F0419AB006460F4600240025A046A0
:100FF000AA222146641C01A84254FF222146641CF7
:1010000042542146641C475401222146641C425428
:101010002146641C4654002009E001A9095C2944CA
:10102000CDB208EB050101F0FF08411CC8B29DF8E4
:101030000710091D8142F0DC2046611CCCB201A9D9
:101040000D542046611CCCB201A901F80080214654
:1010500001A804F0F4FA1AB0BDE8F081F3B599B034
:101060000E46002400250027AA222146641C0DF804
:101070000120FF222146641C0DF801202146641C3A
:101080000DF8016004222146641C0DF801209DF832
:1010900064202146641C0DF801209DF8652021463E
:1010A000641C0DF801209DF866202146641C0DF893
:1010B00001209DF867202046611CCCB20DF800206D
:1010C000002007E01DF800102944CDB27919CFB2F5
:1010D000411CC8B29DF80310091D8142F2DC204674
:1010E000611CCCB20DF800502046611CCCB20DF84A
:1010F00000702146684604F0A2FA1BB0F0BD70B53E
:101100000024AA222146641C2A484254FF22214678
:10111000641C4254234890F8DE00012861D1F22279
:101120002046611CCCB223490A5400222046611C8F
:10113000CCB220490A541B4890F8DE202046611C9E
:10114000CCB21C490A54174890F8E2202046611C92
:10115000CCB218490A54134890F8E3202046611C89
:10116000CCB214490A540F4890F8E4202046611C80
:10117000CCB210490A540B4890F8E5202046611C77
:10118000CCB20C490A54074890F8E6202046611C6E
:10119000CCB211E078000020080000200000002000
:1011A0003E010020B80B0020800000208E000020AF
:1011B0009000002088020020F7490A54F74890F870
:1011C000E7202046611CCCB2F3490A54F34890F85A
:1011D000E8202046611CCCB2EF490A54201FC87099
:1011E0000DE1EE4890F8DE0002286FD1F322204690
:1011F000611CCCB2E8490A5400222046611CCCB2E2
:10120000E5490A54E54890F8DE202046611CCCB23E
:10121000E1490A54E14890F8EA202046611CCCB22A
:10122000DD490A54DD4890F8EC202046611CCCB220
:10123000D9490A54D94890F8ED202046611CCCB217
:10124000D5490A54D54890F8EE202046611CCCB20E
:10125000D1490A54D14890F8EF202046611CCCB205
:10126000CD490A54CD4890F8F0202046611CCCB2FC
:10127000C9490A54C94890F8F2202046611CCCB2F2
:10128000C5490A54C54890F8F3202046611CCCB2E9
:10129000C1490A54C14890F8F4202046611CCCB2E0
:1012A000BD490A54BD4890F8F5202046611CCCB2D7
:1012B000B9490A54B94890F8F6202046611CCCB2CE
:1012C000B5490A54201FC87099E0FFE7B34890F869
:1012D000DE00032884D1F4222046611CCCB2AE4942
:1012E0000A5400222046611CCCB2AB490A54AB48D8
:1012F00090F8D2202046611CCCB2A7490A54A748D6
:1013000090F8CA202046611CCCB2A3490A54A348D5
:1013100090F8CC202046611CCCB29F490A549F48CB
:1013200090F8D4202046611CCCB29B490A549B48BB
:10133000B0F8CA00463800B2994908809748B0F81A
:10134000CC001E3800B2974908809548B0F90000DB
:1013500000280BDB0846B0F90000002806DC8F48A7
:10136000B0F8D4008D49A1F8DA0036E08C48B0F925
:10137000000000280DDD8B48B0F90000002808DDD2
:101380008648B0F8D400C0F1B4008449A1F8DA006E
:1013900023E08348B0F9000000280CDA8148B0F956
:1013A0000000002807DD7D48B0F8D400B4307B4948
:1013B000A1F8DA0011E07A48B0F9000000280CDA50
:1013C0007848B0F90000002807DA7448B0F8D40073
:1013D000C0F5B4707149A1F8DA00704890F8DA20CD
:1013E0002046611CCCB26C490A546C4890F8DB2052
:1013F0002046611CCCB268490A54201FC8700025E1
:101400000026002007E06449095C2944CDB2711927
:10141000CEB2411CC8B2A042F5DB2046611CCCB262
:101420005D490D542046611CCCB25B490E542146E7
:10143000594804F004F970BD30B50346002B01DDB6
:101440001C4600E05C4264256C43002901DD0D462A
:1014500000E04D4294FBF5F400EE104AB8EEC00AED
:10146000514C84ED000A94ED000ADFED500AB4EE11
:10147000600AF1EE10FA13D1012A06D0022A06D032
:10148000032A07D0042A09D106E0482007E04FF4D8
:10149000907004E0FC2002E06C2000E000BF93E0CC
:1014A000414C94ED000ADFED420AB4EE600AF1EE21
:1014B00010FA13D1012A06D0022A06D0032A07D037
:1014C000042A09D106E03F2007E040F2291004E099
:1014D000F32002E0752000E000BF75E0324C94ED8F
:1014E000000ADFED340AB4EE600AF1EE10FA13D10F
:1014F000012A06D0022A06D0032A07D0042A09D1DD
:1015000006E02D2007E040F23B1004E0E12002E07D
:10151000872000E000BF57E0234C94ED000ADFED88
:10152000260AB4EE600AF1EE10FA13D1012A06D0B1
:10153000022A06D0032A07D0042A09D106E01B207C
:1015400007E040F24D1004E0CF2002E0992000E0D7
:1015500000BF39E0144C94ED000ADFED180AB4EE38
:10156000E00AF1EE10FA2FD294ED000AB5EEC00AAF
:10157000F1EE10FA28DD012A06D0022A06D0032A4D
:1015800007D0042A1ED11BE012201CE04FF4AB70E0
:1015900019E0C42017E0000088020020B80B0020EA
:1015A0008E0000209000002098000020000096434C
:1015B000000048430000C8420000484200002042AA
:1015C000A22000E000BF00BF30BD2DE9F0478046FB
:1015D0008946614830F819005F4931F81810401AFF
:1015E00006B25E4830F819005C4931F81810401A0C
:1015F00005B2002E0ADD002D08DD01273A462946F6
:101600003046FFF719FF5649088046E0002E0ADAF7
:10161000002D08DD02273A4629463046FFF70CFF29
:101620004F49088039E0002E0ADA002D08DA032736
:101630003A4629463046FFF7FFFE494908802CE02C
:10164000002E0ADD002D08DA04273A4629463046E6
:10165000FFF7F2FE424908801FE0002E05DD25B9A4
:1016600005275A203E49088017E036B9002D04DDD1
:10167000062700203A4908800FE0002E06DA2DB92F
:1016800007274FF487703649088006E02EB9002DF1
:1016900003DA0827B4203249088006FB06F005FB70
:1016A000050000EE900AF8EEE00AB0EE600A01F0E4
:1016B00035FEBDEEC00A10EE100A04B2742C05DA35
:1016C000602C03DD6A202749088042E0A02C05DA5F
:1016D0008C2C03DD9620234908803AE0DE2C05DAC5
:1016E000CA2C03DDD4201F49088032E0F72C05DA2C
:1016F000D22C03DDD2201B4908802AE0B4F59B7F61
:1017000007DAB4F5917F04DD4FF49670154908802F
:101710001FE0B4F5A47F07DAB4F59A7F04DD4FF437
:101720009F701049088014E0B4F5AC7F07DCB4F575
:10173000A37F04DB40F24F100A49088009E0B4F5AA
:10174000D97F06DAB4F5CF7F03DD4FF4D4700549B5
:101750000880BDE8F08700009E000020B80000204F
:101760007C0000207A000020FF20F84981F84E001C
:101770006421F648A0F850100121A0F85210FF2073
:10178000F24981F880011421F048A0F8821100216B
:10179000A0F88411FF20ED4981F820010021EB48D9
:1017A000A0F82211A0F82411FF20E84981F83201A5
:1017B0000021E648A0F83411A0F83611FF20E349D3
:1017C00081F838010021E148A0F83A11A0F83C1155
:1017D000FF20DE4981F886010021DC48A0F888114D
:1017E000A0F88A11FF20D94981F840050021D74887
:1017F000A0F84215A0F84415FF20D44981F84C0503
:101800000021D248A0F84E15A0F85015704770B5C9
:1018100004460D462946204603F011FF70BDCB4A11
:1018200010700122C94B5A707047C84A82F84C05A3
:10183000012382F84D3570472DE9F04104460D46ED
:1018400000260027E178A81F814201D0BDE8F08181
:10185000002006E0215C3144CEB2B919CFB2411C60
:10186000C8B2A91E8142F5DC601910F8020CB04222
:1018700004D1601910F8010CB84200D0E6E72078D6
:10188000AA2805D16078612803D06078FF2800D0AD
:10189000DCE7A078202811D1A088AD490880E08835
:1018A0004880208988806089C880A0890881E08973
:1018B0004881208A8881608AC8810EE1A0780F283B
:1018C0000DD1207940B2A3490870607940B24870C8
:1018D000A07940B28870E07940B2C870FDE0A0788D
:1018E00006280CD120799C4948706079C870A0798D
:1018F0000871E17998484171217A8171EDE0A07811
:101900000728DAD0A07803286AD1002005E0211D3D
:10191000095C924A1154411CC8B20728F7DB8F4872
:1019200000788E49497800EB012000EE100AF8EEAD
:10193000C00A9FED8B1A80EE810A10EE100A8749CB
:10194000C1F8060008468078C97800EB012000EE57
:10195000100AF8EEC00A9FED821A80EE810A10EE9E
:10196000100A7E49C1F80A0008460079497900EB5F
:10197000012000EE100AF8EEC00A9FED791A80EE01
:10198000810A10EE100A7549C1F80E000846D0F819
:101990000E0000EE100ADFED730AB4EEE00AF1EE7D
:1019A00010FA0CDD0846D0F80E0000EE100ADFED4C
:1019B0006E0A30EE600A10EE100AC1F80E00674899
:1019C000D0F80E0000EE100ADFED680A30EE200AB3
:1019D000BDEEC00A10EE100A00B2654908807CE036
:1019E000A078082818D1E0790106A07901EB004120
:1019F000607901EB0020217908445E490860E07AB3
:101A00000106A07A01EB0041607A01EB0021207A07
:101A100008445949086060E0A078E0281ED1207988
:101A2000012806D0022805D0102804D0112804D19E
:101A300002E003E002E001E000E000BF00BF207927
:101A4000424981F80C06084680F80D6680F80E764B
:101A500000F20C61AF20FFF7E2FE3EE0A078B0B9E3
:101A60003A4890F80F062179884236D1374890F8E5
:101A700010066179884230D1344890F81106A17976
:101A800088422AD10020314981F8000625E0A0785B
:101A9000E12811D12179607901EB00201FFA80F84B
:101AA0002A48A0F814860021C0F8181600F2146124
:101AB000FF20FFF7BAFE10E0A078E2280DD12079D0
:101AC000224981F80C06084680F80D6680F80E76EB
:101AD00000F20C61FF20FFF7A2FE00BFB6E610B5D2
:101AE00004462648007838B9AA2C05D1012023499C
:101AF00008702348047093E020480078012809D139
:101B0000612C01D0FF2C05D102201C4908701C4813
:101B1000447085E019480078022805D10320174950
:101B20000870174884707BE01448007803282DD192
:101B3000FA2C2BDA0420114908701148C47011489E
:101B400004700020104908706AE00000D0020020F4
:101B5000FA090020400200205E0A00200A0A002044
:101B60000000C8420000964300C0234400003443F4
:101B70007E00002084000020880000204401002016
:101B8000EC0800204201002043010020FE480078BC
:101B9000042819D1FD480078002815DDFB4800789D
:101BA000401EFA490870FA480078F9490978491C3A
:101BB000F74A1170001DF7490C54F448007858BBDF
:101BC0000520F14908702BE0EF48007805280DD179
:101BD0000620ED490870EE480078ED490978491C67
:101BE000EB4A1170001DEB490C5419E0E6480078EF
:101BF000062812D10020E4490870E5480078001D4D
:101C0000E4490C54E2480078401DE3490870084656
:101C10000178E048FFF710FE02E00020DA49087082
:101C200010BD7CB50346342B4FD007DC7BB10D2BA8
:101C300023D0302B2ED0332B6FD138E0402B52D015
:101C4000412B5DD0E02B6AD0E22BF5D17BE0D3486D
:101C500090F80C460D78681C08705455CF4890F8E1
:101C60000D460D78681C08705455CC4890F80E4607
:101C70000D78681C0870545594E0002007E0C84CAB
:101C8000255C0E78741C0C709555441CE0B2042839
:101C9000F5DB87E0002007E0C24C255C0E78741C61
:101CA0000C709555441CE0B21728F5DB7AE0002053
:101CB00008E0BC4C193C255C0E78741C0C709555E2
:101CC000441CE0B20628F4DB6CE0002008E0B54CD0
:101CD000E41F255C0E78741C0C709555441CE0B212
:101CE0000728F4DB5EE0002007E0AF4C255C0E78AF
:101CF000741C0C709555441CE0B21428F5DB51E0BF
:101D0000002007E0A94C255C0E78741C0C709555DA
:101D1000441CE0B20E28F5DB44E042E0FFE79F48B8
:101D200090F801460D78681C08705455002007E0B3
:101D30009F4C255C0E78741C0C709555441CE0B2C9
:101D40000A28F5DB2EE09548B0F8140600B20190A1
:101D50009DF804400D78681C087054559DF80540A6
:101D60000D78681C087054558C48D0F818060090FF
:101D70009DF800400D78681C087054559DF801408E
:101D80000D78681C087054559DF802400D78681C49
:101D9000087054559DF803400D78681C0870545520
:101DA00000E000BF00BF7CBDF8B504460F46002030
:101DB0000090AA219DF80020501CC0B200907D48E0
:101DC000815439789DF80020501CC0B200907948A9
:101DD00081549DF80010481CC0B2009075484454CE
:101DE00000219DF80020501CC0B200907148815421
:101DF000024669462046FFF714FF9DF80000001FC9
:101E00006C49C87000250026002007E06949095C7C
:101E10002944CDB27119CEB2411CC8B29DF8001050
:101E20008842F3DB9DF80010481CC0B20090614866
:101E300045549DF80010481CC0B200905D484654BF
:101E4000564890F8000640B1E02C06D1534880F87F
:101E50000F4680F8105680F811669DF8001055481E
:101E6000FFF7D5FCF8BD10B5044604EB44004B4920
:101E700001EB4000408828B304EB440001EB400034
:101E8000808804EB4401454A02EB410149888842BD
:101E90000CDA04EB4400114601EB40008088401C42
:101EA00004EB440102EB410188800BE0012004EBCC
:101EB00044013A4A02EB4101888004EB440102EB01
:101EC0004101487004EB4400344901EB4000407884
:101ED00068B1002004EB4401304A02EB4101487034
:101EE00004EB440002EB40012046FFF75DFF10BD0C
:101EF0002A4A82F84005012382F841350122274B06
:101F000083F80026704710B52DED028BB0EE408AA5
:101F100000F01BF83020FFF7A6FF3320FFF7A3FFE8
:101F20003420FFF7A0FF4020FFF79DFF4120FFF77F
:101F30009AFFE020FFF797FFE220FFF794FF0D20C4
:101F4000FFF791FFBDEC028B10BD144890F800061E
:101F500001283FD118480078322805DA1648007861
:101F6000401C154908703AE00020134908701348D6
:101F70000078401C1149087008460078052822DACC
:101F8000012106481CE0000044010020420100201D
:101F900043010020EC08002040010020D002002076
:101FA00046010020470A0020A40A0020EC09002076
:101FB000D20800209C0200204501002041010020A1
:101FC00080F841150BE0002005490870054981F8AB
:101FD000000604E0002004490870014908707047B9
:101FE00041010020D00200204501002000B52DED68
:101FF000028B85B0B0EE408AFE4890F83800002889
:102000007CD1FC4890F839000028F9D1F948B0F9A2
:102010004200B0F5966F06DA012000F003FB0120C4
:10202000F549087013E0F348B0F9420040F2A461AA
:10203000884206DA022000F0F5FA0220EE49087024
:1020400005E0032000F0EEFA0320EB490870EA48AF
:102050004078E949097888420BD0E7480078E6499A
:10206000487008460078032803D108468078401C51
:102070008870E148807810B3E0480088B0F5FA6FC6
:1020800010DADE48008800EE100AB8EE400ADFEDF4
:10209000DC0A00EE880ABCEEC00A10EE100AD7492E
:1020A00008800CE0D4498978032901DB00F0AEFBFD
:1020B00020B10021D14A1180CF4A917000BFCD4894
:1020C000B0F93A00A0F2DC5000EE900AF8EEE00A17
:1020D000B0EE600A9FEDCB1ADFEDCB0A01F034FAC7
:1020E0008DED010AC348B0F93C00A0F2DC5000EECF
:1020F000900AF8EEE00AB0EE600A00E081E09FEDA1
:10210000C11ADFEDC10A01F01FFA8DED020AB948CC
:10211000B0F93E00A0F2DC5000EE900AF8EEE00AC2
:10212000B0EE600A9FEDB91ADFEDB70A01F00CFAC4
:102130008DED030AAF48B0F94000A0F2DC5000EE8C
:10214000900AF8EEE00AB0EE600A9FEDB01ADFEDFB
:10215000AE0A01F0F9F98DED040AAD48007858B1E6
:102160009FEDA90A8DED010A9FEDA70A8DED020AE8
:102170009FEDA50A8DED040A9DED010ADFEDA50A8C
:1021800020EE200ADFEDA40A20EE200ABDEEC00AF0
:1021900010EE100A00B2A14908809DED020AB1EECE
:1021A000400ADFED9C0A20EE200ADFED9B0A20EEBC
:1021B000200ABDEEC00A10EE100A00B248808D4819
:1021C000C08FA0F57A7000B288809DED040AB1EE50
:1021D000400ADFED930A20EE200ADFED920A20EE9E
:1021E000200ABDEEC00A10EE100A00B2C88001211C
:1021F0008D4880F8871100208C4908708C49087040
:102200001EE08C48C07878B18848007828B903204F
:1022100000F008FA8549087006E08548007818B98A
:1022200000F0F4FA8249087000207C490880488058
:102230004FF4AF7088800020C88088814881088171
:1022400005B0BDEC028B00BD10B504467A4800888D
:1022500000EE100AB8EE400ADFED780A20EE200A00
:10226000BDEEC00A10EE100A00B27549088072482F
:10227000408800EE100AB8EE400ADFED700A20EE4A
:10228000200ABDEEC00A10EE100A00B248806A486B
:10229000808800EE100AB8EE400ADFED680A20EEF2
:1022A000200ABDEEC00A10EE100A00B28880624813
:1022B000C08800EE100AB8EE400ADFED600A20EE9A
:1022C000200ABDEEC00A10EE100A00B2C8805A48BB
:1022D000008900EE100AB8EE400ADFED580A20EE41
:1022E000200ABDEEC00A10EE100A00B20881524862
:1022F000408900EE100AB8EE400ADFED500A20EEE9
:10230000200ABDEEC00A10EE100A00B248814A4809
:10231000808900EE100AB8EE400ADFED480A20EE90
:10232000200ABDEEC00A10EE100A00B288814248B1
:10233000C08900EE100AB8EE400ADFED400A20EE38
:10234000200ABDEEC00A10EE100A00B2C8813D4856
:10235000007818B901203B49087027E0E4B100205B
:1023600017E0374931F91010002901DC00210BE09A
:10237000334931F91010B1F57A7F02DD4FF47A71EB
:1023800002E02F4931F910102D4A22F81010411C9B
:10239000C8B20828E5DB09E0002005E00021284A52
:1023A00022F81010411CC8B20828F7DB244802F0BC
:1023B00034FB10BD10B502F0EFF8DFED230A20EE7C
:1023C000200ABCEEC00A10EE100A2049088010BD99
:1023D00010B51F480088401C1D4908800846008829
:1023E0000A2190FBF1F201FB12001949088008460E
:1023F00000882FE06A0A00204C01002050010020D4
:1024000000007A4400002042000000000000A042CA
:102410005E0100208F360E3B00C05A45EC090020BB
:10242000C6F91B3B00004843D00200204A010020AF
:102430004B0100205E0A0020FA090020CDCCCC3DE3
:102440001E0A0020520100200000C8424601002060
:102450005401002010BB9FED1B0A00F0DCFD9FED36
:10246000190AFFF7C3FD9FED170A00F0E7FB9FED88
:10247000150A01F0A3FA14484088401C124948800C
:10248000084640880A2190FBF1F201FB12000E4938
:1024900048800846408808B9FFF78CFF03F04EF9E2
:1024A000012001F049FC9FED090A00F011F89FEDB1
:1024B000070AFFF728FD0120FFF7C6FE02F00DF91D
:1024C00010BD00000AD7233C540100206F12833A4C
:1024D00010B52DED028BB0EE408A00F020F800BF61
:1024E0002D4840782D490978884214D02A484078F0
:1024F0002A49087000202A4988744FF487712848B7
:10250000A0F813102448C1692548C0F8151001210E
:10251000244880F8391100BFBDEC028B10BD224861
:102520000078FF2804D020480078401C1E4908701D
:10253000194800781D490978884216D01648007855
:102540001A4908701448007A50B11348C07838B15D
:1025500011484089124908800F488089488004E06A
:102560004FF400400E49088048800B4840781049DD
:10257000097888420ED0084840780D4908704FF419
:102580000040074988800121064880F83311002067
:102590000549087070470000D80A00205B01002040
:1025A0002E0A0020D00200205A01002058010020ED
:1025B0005901002010B50120FB498870FB4890F8B4
:1025C000000688B91020F94981F801060021F74872
:1025D00080F80216012180F8031600F20161FF2045
:1025E000FFF786FC012010BD0020FCE710B500209D
:1025F000ED498870ED4890F8000688B91020EB4945
:1026000081F801060021E94880F80216022180F8CD
:10261000031600F20161FF20FFF76AFC012010BDE4
:102620000020FCE710B50446E1480078A0421FD026
:10263000DE4890F80006C8B9DB480470DC48047036
:102640000120DA4981F801060121D84880F80216F4
:1026500080F80316D4480178D44880F8041600F2B4
:102660000161FF20FFF744FC012010BD0020FCE7C2
:102670000120FAE713B5CD4890F8000608BB1020FA
:10268000CA4981F801060221C84880F802160721CC
:1026900080F803169DF8001080F804169DF80110CC
:1026A00080F805169DF8041080F806169DF80510B0
:1026B00080F8071600F20161FF20FFF719FC0120E6
:1026C0001CBD0020FCE713B5B84890F8000608BB15
:1026D0001020B64981F801060221B44880F802169C
:1026E000082180F803169DF8001080F804169DF864
:1026F000011080F805169DF8041080F806169DF864
:10270000051080F8071600F20161FF20FFF7F0FBCB
:1027100001201CBD0020FCE770B504460D46002CCE
:1027200004DBA0B22946FFF7CEFF04E0614288B285
:102730002946FFF79FFF70BD13B59C4890F800062F
:1027400008BB1020994981F801060221974880F8BA
:102750000216012180F803169DF8001080F8041677
:102760009DF8011080F805169DF8041080F80616F3
:102770009DF8051080F8071600F20161FF20FFF7B1
:10278000B7FB01201CBD0020FCE713B5874890F87B
:10279000000600BB1020854981F80106022183480C
:1027A00080F8021680F803169DF8001080F80416D1
:1027B0009DF8011080F805169DF8041080F80616A3
:1027C0009DF8051080F8071600F20161FF20FFF761
:1027D0008FFB01201CBD0020FCE710B5734890F86A
:1027E000000688B91020714981F8010600216F4860
:1027F00080F80216042180F8031600F20161FF2020
:10280000FFF776FB012010BD0020FCE710B56748FC
:1028100090F8000688B91020644981F8010600216B
:10282000624880F80216072180F8031600F2016161
:10283000FF20FFF75DFB012010BD0020FCE701B584
:102840005A4890F80006C8B91020584981F8010686
:102850000021564880F80216052180F803169DF8DD
:10286000001080F804169DF8011080F8051600F29B
:102870000161FF20FFF73CFB012008BD0020FCE7C1
:1028800010B54A4890F8000688B91020474981F8E9
:1028900001060021454880F80216062180F803163B
:1028A00000F20161FF20FFF723FB012010BD002093
:1028B000FCE707B53D4890F8000648BB10203B49AF
:1028C00081F801060221394880F80216032180F8B8
:1028D00003169DF8001080F804169DF8011080F88A
:1028E00005169DF8041080F806169DF8051080F86E
:1028F00007169DF8081080F808169DF8091080F852
:10290000091600F20161FF20FFF7F2FA01200EBD67
:102910000020FCE710B5254890F8000688B9012092
:10292000224981F801060021204880F8021603217F
:1029300080F8031600F20161FF20FFF7D9FA0120A9
:1029400010BD0020FCE710B5184890F8000688B9C3
:102950000120164981F801060021144880F802166A
:10296000042180F8031600F20161FF20FFF7C0FA8E
:10297000012010BD0020FCE710B50C4890F80006BF
:10298000C0B90120094981F801060021074880F8F3
:102990000216052180F8031600F20161FF20FFF7FF
:1029A000A7FA012010BD00005E0A0020D00200201E
:1029B0005C0100200020F5E710B50C4890F80006F7
:1029C00088B90120094981F801060021074880F8EB
:1029D0000216022180F8031600F20161FF20FFF7C2
:1029E00087FA012010BD0020FCE70000D002002083
:1029F00010B504469848B0F94000B0F5AF6F0BDD54
:102A00009548B0F94000B0F5C86F05DA0120934948
:102A100048709349087002E00020904948708E4841
:102A2000B0F93E00B0F5966F06DA8C48407818B9D8
:102A300001208A49087002E000208849087088480F
:102A4000007801284AD18748C078002853D18248AD
:102A5000B0F93A0040F26C71884210DD7E48B0F95E
:102A60003C0040F24C41884209DA7B48B0F93E0014
:102A7000884204DA7848B0F94000884217DB76488B
:102A8000B0F9400040F26C71884230DD7248B0F914
:102A90003C0040F24C41884229DA6F48B0F93E00D0
:102AA000884224DA6C48B0F93A0088421FDA6E484E
:102AB0000088B0F57A7F12DAD4ED000A6A480088FF
:102AC00000EE100AB8EE400A9FED681A00EE810A87
:102AD000BCEEC00A10EE100A6349088062E0FFF7FE
:102AE00069FD0020604908805D4908705AE00020B7
:102AF0005D49088056E05B48C078012852D15648AD
:102B0000B0F93A0040F26C71884210DD5248B0F9D9
:102B10003C0040F24C41884209DA4F48B0F93E008F
:102B2000884204DA4C48B0F94000884217DB4A4832
:102B3000B0F9400040F26C71884230DD4648B0F98F
:102B40003C0040F24C41884229DA4348B0F93E004B
:102B5000884224DA4048B0F93A0088421FDA4248F5
:102B60000088B0F5967F12DAD4ED000A3E4800885E
:102B700000EE100AB8EE400A9FED3C1A00EE810A02
:102B8000BCEEC00A10EE100A374908800AE0FFF7D1
:102B90002DFD0020344908803149087002E00020F2
:102BA0003149088010BD10B52E48C078002844D1A6
:102BB0002948B0F9400040F24C41884217DA2648D3
:102BC000B0F93C00884212DA2348B0F93E0088424E
:102BD0000DDA2148B0F93A00884208DA2448007832
:102BE00038BBFFF797FE01202149087025E01A48FD
:102BF000B0F9400040F26C7188421BDD1648B0F914
:102C00003C0040F24C41884214DA1348B0F93E00CF
:102C100088420FDA1048B0F93A0040F26C718842ED
:102C200008DD1348007820B9FFF78DFE0120104918
:102C3000087002E000200E49087010BD10B52DED9F
:102C4000020B054890F8380020B96846FFF7D0FE1F
:102C5000FFF7A9FF1CBD00006A0A00205E010020EA
:102C6000620100205E0A00206001002000007A441A
:102C70006301002010B501F01BFF0120F74981F826
:102C8000380010BD10B501F0EFFB642001F0E0FB4F
:102C900001F0C2FC01F04EFD642001F0D9FBF048C8
:102CA00002F039F9EE4802F030FAED4802F04EFB3E
:102CB000EB4802F034FC642001F0CAFBFFF7DAFFB6
:102CC00001F016FC642001F0C3FBFEF74DFD4FF44C
:102CD000487001F0BDFB01F0D4F802F013F80120B8
:102CE00010BD40F6C411884203DDDE49097803298E
:102CF00003DCDC4909780A290DD10021D94A117079
:102D0000D649B1F84E10491CD44AA2F84E10012100
:102D100082F8501012E0B0F5967F0FDD40F6B83122
:102D200088420BDA02B2CD49891CCE4B1B7821F8C0
:102D30001320CC490978491CCA4A1170704738B52C
:102D40000446C9A000680090C8484068C7490860A8
:102D500001F053FBC5494860084640680968401ABD
:102D600040F6C411884202D90020C1490870C04809
:102D700001780078401CBE4A1070BE48445410468A
:102D8000007819287ED1182011460870B9480078BB
:102D90000F2878D1B748007E38B1B648007EB64AD1
:102DA00012781DF802108842F3D10020B049087053
:102DB000B0484078AF49897801F0070140EA012026
:102DC000A6498882AB48C0788006400DA949897819
:102DD00040EAE100A149C882A6484079C007400DF9
:102DE000A449097940EA8100A249C97840EAA110C2
:102DF0009A4908839F4880790007400D9D49497989
:102E000040EA6100954948839A48C0794006400DE0
:102E10009849897940EA2110904988839548407AF9
:102E20008007400D9349097A40EA41009149C979E8
:102E300040EAE1108949C8838E48807AC006400D77
:102E40008C49497A40EAA100844908848948C07ABB
:102E5000C0008849897A40EA6111804841848548E8
:102E6000007B8449497B01F0070140EA01207B494E
:102E700088848048807B8006400D7E49497B40EAFB
:102E8000E10001E072E067E07449C8847948007CA1
:102E9000C007400D7749C97B40EA81007549897BAD
:102EA00040EAA1106D4908857248407C0007400D3A
:102EB0007049097C40EA6100684948856D48807C1A
:102EC0004006400D6B49497C40EA211063498885E2
:102ED0006848007D8007400D6649C97C40EA410092
:102EE0006449897C40EAE1105C49C8856148407DBD
:102EF000C006400D5F49097D40EAA1005749088698
:102F00005C48807DC0005B49497D40EA61115348BF
:102F100041865848C07D514981F83400084690F8F0
:102F2000340000F0080040B90846B0F84E00401CDC
:102F3000A1F84E00022081F850004F480078401C54
:102F40004D4908700878C11700EB91718910A0EB0A
:102F50008101494A117009E0002005E0454A411C01
:102F6000515C1154411CC8B21828F7DB38BD10B5AC
:102F70000446D4ED000A4148008800EE100AB8EE7D
:102F8000400A9FED3F1A00EE810ABCEEC00A10EE27
:102F9000100A3A49088008460088B0F57A7F39DD82
:102FA000002008802D48B0F84E002C49C8860846FD
:102FB000C08E052803DA012081F8380003E00020E4
:102FC000264981F83800254890F83800C8B12348D0
:102FD0000078D8B92B480078401C2A490870087836
:102FE00000EBD0714910A0EB4101264A1170104648
:102FF0000078012802D101F0DCFD07E001F058FD66
:1030000004E0164890F85000144908700020134955
:10301000A1F84E0010BD10B52DED020B6846FFF76C
:10302000A6FF0E4890F83800002872D10B480078AF
:1030300001280DD1002008E00849891C31F8102032
:10304000383121F81020411CC8B20A28F4DB37E0DF
:1030500002480078022833D100202FE06A0A0020BD
:1030600020A107006401002004142434680100201A
:1030700070010020BC0A00207101002074010020B2
:1030800000007A44720100202A4931F91010A1F59C
:10309000806100EE101AF8EEC00A9FED270A9FED3E
:1030A000271A01EE200ABDEEC00A10EE101A0AB26D
:1030B0002049263121F81020411CC8B20A28E3DB40
:1030C0001C481438B0F94200B0F5966F06DD194877
:1030D0001438B0F94200B0F5AF6F0DDB1548143865
:1030E000B0F94200B0F5C86F0CDD12481438B0F9E1
:1030F0004200B0F5E16F05DA01200E49143981F87C
:10310000390016E000200B49143981F8390010E02D
:10311000FFE701200749143981F83900002006E053
:1031200000220449263121F81020411CC8B20A2887
:10313000F6DB1CBD7E0A00200080BB442FDD243F4F
:10314000F0EE400AF5EEC00AF1EE10FA02DBB0EE46
:10315000600A7047B1EE600AFBE700B5B0EE403A96
:10316000B0EE602AB5EEC03AF1EE10FA07D1B5EE36
:10317000C02AF1EE10FA02D19FEDFC1A99E0B0EEF0
:10318000430AFFF7DDFFF0EE403AB0EE420AFFF7E8
:10319000D7FFF0EE402AF4EEE23AF1EE10FA02D256
:1031A00083EEA24A01E082EEA34A9FEDF10AB4EE5B
:1031B000C04AF1EE10FA02D2F0EE441A2DE0DFED33
:1031C000ED0AB6EE000A14EE200AF0EE404ABDEE1B
:1031D000E40A10EE100A00EE100AB8EEC00A34EE4F
:1031E000C00AF0EE404AE44901EB800191ED000A8B
:1031F000F0EE401AE04A411C02EB810191ED000A19
:10320000114601EB8001D1ED000A70EE600AB0EECC
:10321000610A00EEA40AF0EE401AF4EEE32AF1EEA1
:1032200010FA20DDB5EEC02AF1EE10FA0ADBB5EE99
:10323000C03AF1EE10FA02DBB0EE611A39E0B1EEFD
:10324000611A36E09FEDCD1AB5EEC03AF1EE10FAF4
:1032500004DB31EE610AB0EE401A2AE031EEC10A19
:10326000B0EE401A25E0B5EEC03AF1EE10FA10DBF0
:103270009FEDC31AB5EEC02AF1EE10FA04DB31EE71
:10328000610AB0EE401A14E031EE210AB0EE401AA5
:103290000FE09FEDBC1AB5EEC02AF1EE10FA04DB88
:1032A00031EE210AB0EE401A03E031EE610AB0EED1
:1032B000401AB0EE410A00BD00B5B0EE405AF0EE43
:1032C000605AF0EE450AB0EE650AFFF746FF00BD12
:1032D000F0EE400AF6EE001A60EEA11AB0EE611AA6
:1032E000B0EE600A10EE100AA749A1EB600000EEF4
:1032F000100A21EE002AF7EE081A42EE401A61EE9B
:10330000801AB0EE610A21EE002AF7EE081A42EEAA
:10331000401A61EE801AB0EE610A704700B5F0EE17
:10332000402AB0EE620AFFF7D3FF20EE220A00BD6A
:1033300010B52DED0A8BB0EE409AF0EE609A9FED3D
:10334000930B53EC102B51EC190B0AF04BFB18D2DA
:103350009FED900B53EC102B51EC190B0AF09FFAD8
:1033600041EC1B0B9FED8D0B53EC102B0AF0F0F989
:1033700041EC1A0B53EC192B0AF091FA41EC180BA3
:1033800017E09FED840B53EC102B51EC190B0AF056
:1033900086FA41EC1B0B9FED810B53EC102B0AF0CE
:1033A0007BFA41EC1A0B53EC192B0AF078FA41EC3A
:1033B000180B9FED760B53EC102B51EC180B0AF009
:1033C00011FB20D29FED770B53EC102B51EC180B17
:1033D0000AF0BEF941EC1C0B9FED740B53EC102B63
:1033E0000AF05DFA41EC1B0B9FED6E0B53EC102BBA
:1033F0000AF0AEF941EC1A0B53EC182B0AF04FFA15
:1034000041EC180B1FE09FED670B53EC102B51ECB8
:10341000180B0AF03EFA41EC1C0B9FED660B53ECC7
:10342000102B0AF03CFA41EC1B0B9FED5E0B53ECAA
:10343000102B0AF08DF941EC1A0B53EC182B0AF003
:103440002EFA41EC180BB0EE480AF0EE680ABDEC1B
:103450000A8B10BD10B52DED068BB0EE408AF0EE54
:10346000608A01249FED550B53EC102B51EC180B87
:103470000AF0D0FA0AD89FED510B53EC102B51EC07
:10348000180B0AF006FA41EC180BA41E20460AF0AD
:1034900078FA41EC190BB0EE480AF0EE680AFFF733
:1034A00047FFB0EE40AAF0EE60AA53EC192B51ECA6
:1034B0001A0B0AF0F4F941EC100BBDEC068B10BDB1
:1034C00010B52DED088BB0EE408AF0EE608A012435
:1034D0009FED3C0B53EC102B51EC180B0AF038F914
:1034E00041EC180B9FED350B53EC102B51EC180BE6
:1034F0000AF090FA0AD8A41E9FED300B53EC102B63
:1035000051EC180B0AF0C5F941EC180B20460AF0F3
:1035100038FA41EC1A0BB0EE480AF0EE680AFFF7F1
:1035200099FFB0EE40BAF0EE60BA53EC1A2B51ECB2
:103530001B0B0AF0B4F941EC190B0AF083FA00EE08
:10354000100ABDEC088B10BDF0EE401AF4EEE01A44
:10355000F1EE10FA3ADD31EEC10AB4EEE00AF1EE16
:1035600010FA3CD2B0EE600A39E000000000000022
:103570008180803B00008043A0DC0008DB0F4940D5
:10358000DB0FC93FDB0FC9BFDF59375F0000000009
:1035900000000000000000602FF0D93F0000006034
:1035A000305FF43F000000000000F03F000000C06A
:1035B000CCCCCCBF000000C0CCCCCC3FF1D4C853A5
:1035C000FB210940F1D4C853FB21F93F31EE810AB8
:1035D000B4EEE00AF1EE10FA01DDB0EE600A7047D9
:1035E000F0EE401AB1EE412A32EE202AB4EEE12A82
:1035F000F1EE10FA09D231EE202AB4EEE12AF1EE12
:1036000010FA02DDB0EE600A01E0B0EE610A704728
:10361000F0EE402AB5EEC01AF1EE10FA02DDB0EE7F
:10362000410A01E0B1EE410AB6EE003A22EE033A59
:1036300023EE213AB4EEC30AF1EE10FA06D29FED62
:10364000D40A20EE800AF0EE400A4DE0B5EEC01A32
:10365000F1EE10FA02DDB0EE410A01E0B1EE410AEE
:1036600022EE213AB4EEC30AF1EE10FA06D29FED33
:10367000C90A20EE800AF0EE400A35E0B5EEC01A25
:10368000F1EE10FA02DDB0EE410A01E0B1EE410ABE
:10369000B4EEE10AF1EE10FA06D2B6EE000A20EE20
:1036A000800AF0EE400A1FE0B5EEC01AF1EE10FA03
:1036B00002DDB0EE410A01E0B1EE410AB0EE003A9F
:1036C00021EE833AB4EEC30AF1EE10FA06D29FED72
:1036D000B20A20EE800AF0EE400A05E09FEDAF0A44
:1036E00020EE800AF0EE400A9FEDAD0A20EE800A3F
:1036F00020EE223AF7EE003A83EE830AB7EE003A64
:1037000030EE030AF7EE003A83EE803A90ED000ABD
:1037100071EE403A90ED000A03EE230A80ED000AB4
:1037200090ED000AB1EE423A23EE213AB4EEC30A1C
:10373000F1EE10FA04D8B1EE420A20EE210A0DE0B3
:1037400090ED000A22EE213AB4EEC30AF1EE10FA2F
:1037500002DD22EE210A01E090ED000A80ED000A70
:1037600090ED000A31EE400A704710B52DED028B46
:10377000B0EE408AF0EE608A9FED8A0B53EC102B7E
:1037800051EC180B0AF046F90CD29FED880B53EC64
:10379000102B51EC180B0AF07CF841EC100BBDEC2F
:1037A000028B10BD9FED830B53EC102B51EC180BCB
:1037B0000AF018F90AD29FED7D0B53EC102B51EC57
:1037C000180B09F0C5FF41EC100BE8E7B0EE480A12
:1037D000F0EE680AE3E730B505460C46F0EE403AF5
:1037E000D5ED000A60EEA00A94ED001AD4ED001A9F
:1037F00041EE210AB0EE600AFFF790FDB0EE403ACC
:10380000B5EEC03AF1EE10FA02D81FEDA80A09E0B1
:10381000B4EEE33AF1EE10FA02DDB0EE630A01E035
:10382000B0EE430AB0EE404AB5EEC03AF1EE10FAFF
:1038300006D11FEDB20A83ED000A82ED000A0FE007
:1038400084EE030AD5ED000A20EE200A82ED000A7C
:1038500084EE030AD4ED000A20EE200A83ED000A6C
:1038600030BDF0EE400A0B7802EB8303C3ED000A93
:103870000B785B1C0B700B78834201DB00230B7011
:103880000B7802EB830393ED000A704700B5024604
:10389000B0EE403A0B46F7EE000A43EE430AB0EEB4
:1038A000600AFFF73BFDD2ED000A20EE200AD2EDC0
:1038B000010A00EEC30A83ED000AF7EE000A43EEA8
:1038C000430AB0EE600AFFF729FDD2ED010A20EEAF
:1038D000200AD2ED000A00EE830A83ED010A00BD42
:1038E00090ED000AD1ED010A20EE200AD0ED010A88
:1038F00091ED001A00EEC10A704790ED000AD1ED7B
:10390000000A20EE200AD0ED010A91ED011A00EE26
:10391000810A704790ED010AD1ED020A20EE200ADB
:10392000D0ED020A91ED011A00EEC10A82ED000A03
:1039300090ED020AD1ED000A20EE200AD0ED000A37
:1039400091ED021A00EEC10A82ED010A90ED000A23
:10395000D1ED010A20EE200AD0ED010A91ED001A06
:1039600000EEC10A82ED020A704790ED000AD1ED27
:10397000000A20EE200AD0ED010A91ED011A00EEB6
:10398000810AD0ED020A91ED021A00EE810A704719
:103990009A99993FCDCC4C3FCDCC4C3ECDCCCC3D33
:1039A000C3F5C84000000000008066400000000031
:1039B0000080764000000000008066C008B5D04856
:1039C000D0ED000A9FEDCF1AF4EEC10AF1EE10FA25
:1039D0000BD2D0ED000AB7EE001A70EE810AC0EDEE
:1039E000000A0120C849887002E00020C64988709A
:1039F000C348D0ED010A9FEDC31AF4EEC10AF1EEFF
:103A000010FA0BD2D0ED010AB7EE001A70EE810A5F
:103A1000C0ED010A01208DF8000002E000208DF8C1
:103A20000000B748D0ED020A9FEDB61AF4EEC10AC5
:103A3000F1EE10FA0BD2D0ED020AB7EE001A70EEDA
:103A4000810AC0ED020A01208DF8010002E0002089
:103A50008DF801009DF8000030B19DF8010018B10B
:103A60000120A949C87002E00020A749C87008BD1C
:103A700030B500220024C5788B1F9D4200D030BD98
:103A8000002306E0C55C1544EAB2A518ECB25D1C43
:103A9000EBB28D1E9D42F5DC431813F8023C9342B5
:103AA00004D1431813F8013CA34200D0E7E7837820
:103AB000512B48D103795BB94379934D6B7183796D
:103AC0005BB2AB71C3795BB2EB71037A2B7196E099
:103AD0000379012B12D143798B4D2B72C3886B81F3
:103AE0000389AB81837A2B719FED880A844B83ED28
:103AF000010A2B461B785B1C2B7080E00379022B9C
:103B00007DD14379804DAB73C3882B8203896B824F
:103B10004389AB828389EB82C3892B83038A6B83BE
:103B2000837C2B712B469B8A794D2B80764BDB8ACD
:103B3000784D2B80744B1B8B774D2B80724B5B8B9E
:103B4000764D2B805BE08378342B10D1D0F8073092
:103B50006D4DEB61724D2B609FED6C0A684B83EDF0
:103B6000020A694B5B785B1C674D6B7047E083789A
:103B7000012B0DD18388644D2B86C3886B86038906
:103B8000AB864389EB8683892B87C3896B8736E0B5
:103B90008378042B33D1B0F9043000EE103AB8EE3C
:103BA000C00ADFED600A20EE200A574B83ED080AB9
:103BB000B0F9063000EE103AB8EEC00ADFED590A4F
:103BC00020EE200A504B83ED090AB0F9083000EED0
:103BD000103AB8EEC00ADFED530A20EE200A4A4B35
:103BE00083ED0A0AB0F90A3000EE103AB8EEC00AC6
:103BF000DFED4C0A20EE200A434B83ED0B0A00BF99
:103C00003DE710B504464848007838B9AA2C05D1DC
:103C1000012045490870454804706FE0424800782B
:103C2000012809D1612C01D0FF2C05D102203E4989
:103C300008703E48447061E03B480078022805D196
:103C40000320394908703948847057E036480078B5
:103C500003280CD1FA2C0ADA0420334908703348BF
:103C6000C4703348047000203249087046E02E4882
:103C70000078042819D12E480078002815DD2C483A
:103C80000078401E2A4908702A4800782949097896
:103C9000491C284A1170001D24490C5424480078FE
:103CA00040BB05202049087028E01F4800780528FF
:103CB0000DD106201C4908701E4800781D4909785E
:103CC000491C1C4A1170001D18490C5416E0164876
:103CD000007806280FD10020134908701548007895
:103CE000001D12490C5413480078401DC1B20F4802
:103CF000FFF7BEFE02E000200B49087010BD000077
:103D0000480B00200000FA43D80A00200000000001
:103D10000C0000200E0000201000002012000020E7
:103D20008000002017B7D13878010020140B002044
:103D300076010020770100200146D5480078002850
:103D40007ED00022D24B1A70D24A1288C832D14B90
:103D50001A80D14A127DD14B5A76CF4AD37DCF4AB1
:103D60009376CD4A9369CD4AC2F81B30CA4AD369CB
:103D7000CA4AC2F81F30C84A526A0A2392FBF3F3B8
:103D8000C64AC2F82330C44A126B0A2392FBF3F2EC
:103D900013B2C24AA2F82730BF4A526B0A2392FBE1
:103DA000F3F213B2BD4AA2F82930BB4A926B0A2340
:103DB00092FBF3F213B2B94AA2F82B30B64AB2F82A
:103DC0004C2000EE102AB8EE400ADFEDB50A20EED6
:103DD000200ABCEEC00A10EE100A08B9002204E066
:103DE000C82801D9C82200E002461046AB4A82F832
:103DF0002D00A94A526C00EE102AB8EE400ADFED01
:103E0000A80A20EE200ABCEEC00A10EE100A08B97B
:103E1000002204E0C82801D9C82200E0024610466A
:103E20009E4A82F82E009C4AD26A00EE102AB8EE12
:103E3000400ADFED9B0A20EE200ABCEEC00A00E03B
:103E400012E010EE100A08B9002204E0C82801D9D7
:103E5000C82200E002461046904A82F82F00012353
:103E6000904A82F8213100BF704710B50E218E486C
:103E700000F0D2FF10BD10B50E218C4800F0CCFF31
:103E800010BD10B5642000F0E3FA4FF4165000F0B6
:103E900048FF322000F0DCFA1C21854800F0BCFF0E
:103EA000642000F0D5FA4FF4964000F03AFF32203B
:103EB00000F0CEFA1C217E4800F0AEFF642000F036
:103EC000C7FA4FF4164000F02CFF322000F0C0FA81
:103ED0001C21774800F0A0FF642000F0B9FA4FF4ED
:103EE000E13000F01EFF142000F0B2FA0B217148FF
:103EF00000F092FF142000F0ABFA0B216E4800F0A6
:103F00008BFF142000F0A4FA0B216C4800F084FF12
:103F1000142000F09DFA0B21694800F07DFF142069
:103F200000F096FA0B21674800F076FF142000F0AD
:103F30008FFA0B21644800F06FFF142000F088FA1C
:103F4000FFF793FF10BD10B50146002000225F4B24
:103F50001B782BB9B52903D101235C4C237095E064
:103F60005A4B1B78012B05D1622903D10223574CF0
:103F700023708BE0554B1B78022B05D10323534C48
:103F80002370534B197081E0504B1B78032B05D1E4
:103F900004234E4C23704F4B197077E04B4B1B782A
:103FA000042B05D10523494C23704B4B19706DE050
:103FB000464B1B78052B10D10623444C2370464BEF
:103FC0001B7803EB0123454C238023461B88622B7F
:103FD0005CDB00233D4C237058E03C4B1B78062BE8
:103FE00054DB3A4B1B789B1F3C4C2488A41CA342F7
:103FF0000ADA364B1B789B1F274CE154334B1B7856
:104000005B1C324C237041E0314B1B780344D8B227
:104010001318DAB22F4B1B780344D8B21318DAB254
:104020002E4B1B780344D8B21318DAB22B4B1B88E3
:1040300000EB1323D8B21318DAB2002307E0164CB2
:10404000E45C0444E0B21418E2B25C1CE3B2234C1A
:104050002488A342F3DB104B204C24881B5D834251
:1040600011D10D4C1D4B1B885B1CE35C93420AD1A4
:10407000174B1B78012B06D1164B1B78072B02D14F
:104080000123034C23700023104C237010BD00004B
:104090007A0100207C010020540B00202E0A002011
:1040A0000AD7233CD00200207E0100208C01002092
:1040B000B6010020E7010020F2010020FD010020F0
:1040C00008020020130200201E0200202F02002000
:1040D000290200202A0200202B0200202C020020AE
:1040E00030B500220024C5788B1F9D4200D030BD22
:1040F000002306E0C55C1544EAB2A518ECB25D1CCD
:10410000EBB28D1E9D42F5DC431813F8023C93423E
:1041100004D1431813F8013CA34200D0E7E78378A9
:10412000AA2B1FD10379714D85F8E23045796F4B89
:1041300083F8E350C379857943EA05231DB26B4BBD
:10414000A3F8E450437A057A43EA05231DB2674B8E
:10415000A3F8E650857A83F8E8500123634D85F88B
:10416000DE3044E08378BB2B2ED103795F4D85F898
:10417000EA308379457943EA05231DB25B4BA3F806
:10418000EC50037AC57943EA05231DB2574BA3F8D7
:10419000EE50457A83F8F050C37A857A43EA0523D6
:1041A0001DB2524BA3F8F250437B057B43EA052333
:1041B0001DB24E4BA3F8F450857B83F8F6500223D2
:1041C0004A4D85F8DE3012E08378CC2B0FD103798D
:1041D000464D85F8D2304379A5F8CA308379A5F8E1
:1041E000CC30C379A5F8D430032385F8DE3000BF86
:1041F0007DE710B504463E48007838B9AA2C05D1B1
:1042000001203B4908703B4804706DE03848007855
:10421000012807D1FF2C05D1022035490870354807
:10422000447061E032480078022805D1032030490B
:1042300008703048847057E02D48007803280CD16E
:10424000FA2C0ADA04202A4908702A48C4702A483D
:10425000047000202949087046E0254800780428A9
:1042600019D125480078002815DD23480078401E24
:10427000214908702148007820490978491C1F4AC3
:104280001170001D1B490C541B48007840BB0520D1
:104290001749087028E01648007805280DD1062037
:1042A000134908701548007814490978491C134AC5
:1042B0001170001D0F490C5416E00D4800780628B7
:1042C0000FD100200A4908700C480078001D0949E8
:1042D0000C540A480078401DC1B20648FFF700FFA1
:1042E00002E000200249087010BD0000B80B002059
:1042F00032020020B00C00203002002031020020E9
:10430000704700BFFEE700BFFEE700BFFEE7704753
:10431000704710B5802003F0C4FE10B1802003F078
:1043200016FF10BD10B500F01BFC10BD704710B596
:104330000121114807F0ABFD28B101210E4807F01B
:1043400003FEFEF745F810BD10B500F0ADFD10BD41
:1043500010B500F09EFE10BD10B500F0BBFF10BD03
:1043600010B501F0A0F810BD10B501F0B0F910BD06
:1043700010B500F071FC10BD001400407FB5684618
:1043800004F0C1FD4FF47A710198B0FBF1F4E40838
:104390002146B1F1807F00D31DE021F07F40401E17
:1043A0004FF0E022506150170F22002807DA130760
:1043B0001E0E314B00F00F052D1F5E5503E0130755
:1043C0001D0E2E4B1D5400BF00204FF0E0229061C7
:1043D0000720106100BF6FF0040001F095FB7FBD66
:1043E0002748D0E900305A1C40F100002449C1E9B7
:1043F0000020704722480068704710B500BF204A6F
:1044000011684FF0E02252694FF0E0239B69D21A05
:104410004FF47A735A434FF0E0235B69B2FBF3F237
:1044200001EB4103C3EBC11302EBC300144C18CCE6
:104430004B402343E3D110BD30B50446FFF7DDFF09
:10444000054600BFFFF7D9FF401BA042FAD330BD9D
:1044500010B5044603E04FF47A70FFF7EDFF201E1D
:10446000A4F10104F7D110BD10B54FF4806001F044
:1044700099FAFFF783FF10BD18ED00E000E400E0BB
:104480003802002000B58FB0684602F096FD012189
:10449000880504F050FE00BF564803F0ABF8002832
:1044A000FAD10090544801905448029000200390A3
:1044B00032200490002005904FF480600690400068
:1044C00007908000089000010A9040120990002097
:1044D0000B9001200C9000200D900E9069464548ED
:1044E00002F015FC0121434802F078FD0FB000BD39
:1044F00000B58DB001A801F009FC0121042004F0F1
:104500001AFE0121080204F0FCFEFFF7BBFF0320A6
:104510008DF8300020200B9000208DF833000BA97F
:10452000374803F0B9FE0020099007904FF480301F
:10453000089000200A9007A801F0F2FB00200190EB
:104540008DF8080001208DF80900002003900590E7
:1045500001208DF8180001A927484C3801F00DFB07
:10456000072301220F2124484C3801F09EFD012130
:1045700021484C3801F077FF01211F484C3801F0E9
:1045800080FC01211C484C3801F047FF1A484C3888
:1045900001F057FE0DB000BD9FED1A0AF0EE400A83
:1045A000002010E0154931F8101000EE101AB8EE96
:1045B000401ADFED151AB0EE600A01EE210AF0EEA6
:1045C000400A411CC8B23228ECDB9FED101A80EE85
:1045D000810A9FED0F1A20EE010AB2EE061A20EEB4
:1045E000010AF7EE001A80EE211A9FED0A0A21EE69
:1045F000000A7047106402404C200140E20C002089
:1046000000080240000000000AD7A33C00008045DB
:1046100000404E456F12833A1CB5684603F0E7FE32
:104620000121102004F087FD01208DF804008DF891
:10463000070000208DF8060002208DF805000720F5
:1046400000906946384803F027FE01208DF80400E9
:104650008DF8060002208DF8050080200090694644
:10466000314803F019FE02212F4804F04BF80121D4
:104670002D4804F047F804212B4804F043F880212A
:10468000294804F03FF81CBD00F0010119B10221D6
:10469000254A118302E00221234A518300F00201DE
:1046A00019B10121204A118302E001211E4A5183E0
:1046B00000F0040119B104211B4A118302E0042116
:1046C000194A518300F0080119B18021164A51831B
:1046D00002E08021144A1183704700B500201DE0DC
:1046E000124931F81010124A1256914204DA01218F
:1046F000814019438BB202E0012181408B430B4979
:1047000031F81010491C89B2084A22F810101429F7
:1047100002DB002122F81010411CC8B20428DFDBA4
:104720001846FFF7B1FF00BD001002404402002010
:104730004002002030B58BB00025D44C01A803F016
:1047400056FE08A805F063F903A805F09CFF012CAC
:1047500001D8012004E0CE48844200D900E0204680
:1047600004460121082004F0A9FD0121022004F0E3
:10477000C8FD0121084604F0C4FD0121152004F004
:10478000DAFC0C20019002208DF8080003208DF83F
:10479000090000208DF80A0001208DF80B0001A906
:1047A000BC4803F079FD02221146BA4804F088F8AB
:1047B00002220321B74804F083F8B7480068400894
:1047C000B0FBF4F0401E85B242F210700990ADF8D3
:1047D00020500020ADF82800ADF8220008A9AF480D
:1047E00005F08AF86020ADF80C000020ADF8180044
:1047F0000120ADF80E004FF47A60059003A9A74898
:1048000005F0E8FD0821A54806F0B1F90120ADF852
:104810000E004FF47A60059003A9A04805F0A2FEAF
:1048200008219E4806F0CFF901219C4805F0E9FADD
:1048300001219A4805F0D1FB4FF4D44001900220A9
:104840008DF8080003208DF8090000208DF80A007B
:1048500001208DF80B0001A9914803F01DFD0122F4
:1048600009218F4804F02CF801220B218C4804F018
:1048700027F801220D218A4804F022F801220E2196
:10488000874804F01DF884480068B0FBF4F0401E2F
:1048900085B242F210700990ADF820500020ADF8BA
:1048A0002800ADF822008DF82A0008A97D4805F0FF
:1048B00023F86020ADF80C000020ADF81000ADF832
:1048C00018000820ADF81A004001ADF81C000020C7
:1048D000ADF81E000120ADF80E004FF47A6005908F
:1048E00003A9704805F0C1FB08216E4806F0CBF81B
:1048F0004FF47A60059003A96A4805F07EFC082110
:10490000684806F0FEF84FF47A60059003A9654800
:1049100005F060FD0821634806F029F94FF47A603C
:10492000059003A95F4805F01DFE08215D4806F0CB
:104930004AF901215B4807F0FCF80121594805F0CC
:1049400060FA0121574805F048FB4FF44070019090
:1049500002208DF8080003208DF8090000208DF852
:104960000A0001208DF80B0001A94F4803F094FCC8
:10497000032208214C4803F0A3FF032209214A48DF
:1049800003F09EFF44480068B0FBF4F0401E85B27F
:1049900042F210700990ADF820500020ADF82800C8
:1049A000ADF822008DF82A0008A9404804F0A4FFC1
:1049B0006020ADF80C000020ADF81000ADF8180034
:1049C0000820ADF81A004001ADF81C000020ADF839
:1049D0001E004FF47A60059003A9344805F0FAFCF4
:1049E0000821304806F0C3F84FF47A60059003A917
:1049F0002E4805F0B7FD08212A4806F0E4F8012109
:104A00002A4807F096F80121284805F0FAF9012113
:104A1000264805F0E2FA0BB030BDB0F9001089006D
:104A200001F57A611F4A1164B0F90210890001F59D
:104A30007A61D163B0F90410890001F57A6191635C
:104A4000B0F90610890001F57A615163B0F90810D8
:104A5000890001F57A61114A40321160B0F90A10FB
:104A6000890001F57A61121F1160B0F90C108900FC
:104A700001F57A610D4A40321160B0F90E108900DB
:104A800001F57A61121F11607047000000093D00B6
:104A900000BD01050000024064020020000C00403F
:104AA00000100240000001400008024000040140E4
:104AB00000B587B005A803F09AFC02A806F0BBFE7B
:104AC0000121022004F0FAFB0121042004F033FB51
:104AD0001D208DF8040002208DF8050001208DF8BE
:104AE00006008DF8070001A800F077FF80200590F0
:104AF00002208DF8180003208DF8190000208DF891
:104B00001A0002208DF81B0005A95D4803F0C4FBC4
:104B1000022207215A4803F0D3FE53205949088046
:104B20000420ADF808000A20ADF80A000120ADF815
:104B30000C000020ADF80E00ADF8100002A951489D
:104B4000283806F092FD01214E48283805F045FA34
:104B5000012204214B48283807F05AF807B000BD5D
:104B600010B548481838008800F0040000B34FF62C
:104B7000FB704449183908804FF6FF3008804048E0
:104B80001030006800F0800090B93E48283806F0E8
:104B9000FEFE3D490880084600884988401A84B2D4
:104BA0002046FEF79EF8384800883749488000BF05
:104BB00010BD00B587B0684603F019FC0121202024
:104BC00004F09FFB0121042004F0B5FA47208DF882
:104BD000080004208DF8090001208DF80A008DF8E6
:104BE0000B0002A800F0F9FE08220721244803F078
:104BF00067FE8020009002208DF804008DF80500EB
:104C000001208DF8060000208DF8070069461C4839
:104C100003F042FB1D4803900020ADF810004FF454
:104C20000050ADF81200C010ADF814000020ADF82F
:104C300018000420ADF8160003A9154807F0DBFEA4
:104C4000012240F22551124808F071FB0121104861
:104C500008F01AF807B000BD10B540F225510C4815
:104C600008F08BFC58B140F22551094808F010FDBE
:104C70000748001D0088C4B22046FEF760F810BD4A
:104C800000080240280400404C020020A0860100D9
:104C9000001401403EB504460121202004F00EFB23
:104CA0001E4804F04DFD01945320ADF80000002093
:104CB000ADF80800ADF802006946184804F01CFE83
:104CC0000121164807F0ADF801221146134806F0FD
:104CD0009FFF0121114805F080F90021202004F0F8
:104CE000EDFA3EBD08B537208DF8000007208DF89D
:104CF000010001208DF802008DF80300684600F0E5
:104D00006CFE08BD10B54FF47A70FFF7C3FFFFF7D4
:104D1000E9FF0121202004F0D1FA10BD0014004069
:104D2000704710B58AB0044606A807F048FF012175
:104D3000102004F0E6FA0121084604F0FCF92520D1
:104D40008DF80C0003208DF80D0000208DF80E006A
:104D500001208DF80F0003A800F03FFE0722092173
:104D6000FE4803F0ADFD07220A21FC4803F0A8FD30
:104D70004FF40070019002208DF808008DF80900B2
:104D800000208DF80A0001208DF80B0001A9F348DE
:104D900003F082FA4FF48060019002208DF8080041
:104DA0008DF8090001208DF80A0000208DF80B0015
:104DB00001A9EA4803F070FAE94807F0B7FD069444
:104DC0000020ADF81C00ADF81E00ADF82000ADF8D5
:104DD00024000C20ADF822000020ADF81000ADF842
:104DE00012004FF40070ADF814000020ADF816006A
:104DF00006A9DB4807F0FFFD04A9D94807F0EBFE40
:104E0000012240F22551D64808F091FA0121D448F8
:104E100007F03AFF0AB010BD70B505460E460024F3
:104E20000AE0295DCF4802780078401CCD4B18700D
:104E3000CD488154601CC4B2B442F2DBC8488089BA
:104E400000F0800028B9012240F22771C44808F020
:104E50006EFA70BDC5490A780978491CC34B1970B0
:104E6000C349885419460978642902DB00211A468F
:104E70001170704710B510E0BE490A780978491CD6
:104E8000BC4B1970BA49885CFFF75DF8B9480078E7
:104E9000642802DB0020B7490870B4480078B5499F
:104EA00009788842E8D110BD10B5AD48008800F0FF
:104EB000080010B1AA488088C4B240F22551A84821
:104EC00008F05BFB50B140F22551A54808F0E0FB2B
:104ED000A3488088C4B22046FFF7BCFF40F2277188
:104EE0009F4808F04AFBA8B1A34801780078401C0D
:104EF000A14A10709C48405C99498880104600780F
:104F000098490978884205D19548808920F0800029
:104F10009349888110BD10B58AB0044606A807F0F1
:104F20004EFE0121480404F0C9F90121082004F0D3
:104F300002F926208DF80C0004208DF80D000120C8
:104F40008DF80E008DF80F0003A800F046FD072233
:104F500005218A4803F0B4FC07220621874803F0A4
:104F6000AFFC2020019002208DF808008DF8090088
:104F700000208DF80A0001208DF80B0001A97F4860
:104F800003F08AF94020019002208DF808008DF886
:104F9000090001208DF80A0000208DF80B0001A9FE
:104FA000764803F079F906940020ADF81C00ADF8BE
:104FB0001E00ADF82000ADF824000C20ADF8220052
:104FC0000020ADF81000ADF812004FF40070ADF8FD
:104FD00014000020ADF8160006A9694807F00BFD83
:104FE00004A9674807F0F7FD012240F22551644803
:104FF00008F09DF90121624807F046FE0AB010BD95
:1050000070B505460E4600240AE0295D5D48027829
:105010000078401C5B4B18705B488154601CC4B224
:10502000B442F2DB56480C30008800F0800028B90A
:10503000012240F22771524808F079F970BD5349B6
:105040000A780978491C514B1970514988541946FE
:105050000978642902DB00211A461170704700B5F7
:1050600010E04C490A780978491C4A4B19704849A4
:10507000885CFFF755FE47480078642802DB002073
:105080004449087041480078424909788842E8D18B
:1050900000BD10B53A48008800F0080018B1384843
:1050A000001D0088C4B240F22551354808F065FA69
:1050B00058B140F22551324808F0EAFA3048001D54
:1050C0000088C4B22046FFF7BAFF40F227712C488F
:1050D00008F053FAC0B1304801780078401C2E4ADD
:1050E00010702948405C2649091D08801046007848
:1050F00024490978884207D121480C30008820F0E3
:1051000080001F490C31088010BD10B58AB00446DC
:1051100006A807F054FD0121880404F0CFF801210E
:10512000022004F008F827208DF80C0002208DF8EA
:105130000D0000208DF80E0001208DF80F0003A84F
:1051400000F04BFC07220A21144803F0B9FB0722A8
:105150000B21124803F0B4FB22E0000000000240E3
:105160000010014051020020460D00205202002094
:10517000460E00205302002050020020000C024086
:105180000044004055020020AA0E002056020020D4
:10519000AA0F002057020020540200200004024001
:1051A0004FF48060019002208DF808008DF809000E
:1051B00000208DF80A0001208DF80B0001A9FE489F
:1051C00003F06AF84FF40060019002208DF80800A7
:1051D0008DF8090001208DF80A0000208DF80B00E1
:1051E00001A9F54803F058F806940020ADF81C001A
:1051F000ADF81E00ADF82000ADF824000C20ADF88D
:1052000022000020ADF81000ADF812004FF400703D
:10521000ADF814000020ADF8160006A9E74807F025
:10522000EAFB04A9E54807F0D6FC012240F225512B
:10523000E24808F07CF80121E04807F025FD0AB0BB
:1052400010BD70B505460E4600240AE0295DDC4815
:1052500002780078401CDA4B1870DA488154601CE0
:10526000C4B2B442F2DBD5480C30008800F08000B4
:1052700028B9012240F22771D04808F058F870BDD3
:10528000D1490A780978491CCF4B1970CF49885405
:1052900019460978642902DB00211A46117070470B
:1052A00010B510E0CA490A780978491CC84B197032
:1052B000C649885CFEF79DFFC5480078642802DB7C
:1052C0000020C3490870C0480078C1490978884265
:1052D000E8D110BD10B5B948008800F0080018B139
:1052E000B648001D0088C4B240F22551B34808F00A
:1052F00044F958B140F22551B04808F0C9F9AF4817
:10530000001D0088C4B22046FFF7BAFF40F22771A3
:10531000AA4808F032F9C0B1AE4801780078401CC4
:10532000AC4A1070A748405CA449091D088010468B
:105330000078A3490978884207D1A0480C3000883A
:1053400020F080009D490C31088010BD10B588B058
:10535000044604A807F033FC0121C80403F0AEFFA3
:105360000121084603F0E7FE34208DF80C000320ED
:105370008DF80D0001208DF80E008DF80F0003A8A8
:1053800000F02BFB08220021934803F099FA082231
:105390000121914803F094FA0120019002208DF838
:1053A00008008DF8090000208DF80A0001208DF812
:1053B0000B0001A9884802F06FFF022001908DF8D0
:1053C00008008DF8090001208DF80A0000208DF8F2
:1053D0000B0001A9804802F05FFF04940020ADF8A3
:1053E0001400ADF81600ADF81800ADF81C000C2044
:1053F000ADF81A0004A9794807F0FDFA012240F23D
:105400002551764807F093FF0121744807F03CFCD2
:1054100008B010BD70B505460E4600240AE0295DAF
:105420006F4802780078401C6D4B18706D488154AD
:10543000601CC4B2B442F2DB68480C30008800F053
:10544000800028B9012240F22771644807F06FFFFD
:1054500070BD65490A780978491C634B1970634926
:10546000885419460978642902DB00211A46117014
:10547000704710B510E05E490A780978491C5C4B0A
:1054800019705A49885CFEF7BCFB594800786428BB
:1054900002DB0020564908705348007854490978C7
:1054A0008842E8D110BD10B54C48008800F00800D3
:1054B00018B14A48001D0088C4B240F2255147483F
:1054C00008F05BF858B140F22551444808F0E0F884
:1054D0004248001D0088C4B22046FFF7BAFF40F2E0
:1054E00027713E4808F049F8C0B142480178007879
:1054F000401C404A10703B48405C3849091D0880F8
:105500001046007836490978884207D133480C3074
:10551000008820F0800031490C31088010BD10B5A2
:1055200088B0044604A807F04AFB0121080503F0EF
:10553000C5FE0121042003F0FEFD0121082003F037
:10554000FAFD35208DF80C0001208DF80D000020AB
:105550008DF80E0001208DF80F0003A800F03DFA31
:1055600008220C21244803F0ABF908220221234829
:1055700003F0A6F94FF48050019002208DF8080046
:105580008DF8090000208DF80A0001208DF80B002D
:1055900001A9194802F080FE0420019002208DF834
:1055A00008008DF8090001208DF80A0000208DF810
:1055B0000B0001A9114823E000040240004800400C
:1055C000590200200E1000205A0200200E11002067
:1055D0005B0200205802002000000240004C004006
:1055E0005D020020721100205E0200207212002075
:1055F0005F0200205C02002000080240000C024014
:1056000002F04AFE04940020ADF81400ADF8160034
:10561000ADF81800ADF81C000C20ADF81A0004A974
:105620004C4807F0E8F9012240F22551494807F0BB
:105630007EFE0121474807F027FB08B010BD70B57A
:1056400005460E4600240AE0295D434802780078AA
:10565000401C414B187041488154601CC4B2B44294
:10566000F2DB3C48808900F0800028B9012240F23A
:105670002771384807F05BFE70BD39490A78097810
:10568000491C374B197037498854194609786429E1
:1056900002DB00211A461170704710B510E0324944
:1056A0000A780978491C304B19702E49885CFCF740
:1056B00016FA2D480078642802DB00202A49087079
:1056C00027480078284909788842E8D110BD10B5EC
:1056D0002048008800F0080010B11E488088C4B23D
:1056E00040F225511B4807F048FF50B140F22551C8
:1056F000184807F0CDFF17488088C4B22046FFF74E
:10570000BCFF40F22771134807F037FFA8B11748D4
:1057100001780078401C154A10701048405C0D4913
:105720008880104600780C490978884205D10948DC
:10573000808920F080000749888110BD10B5FFF7EF
:1057400099FBFFF78CFCFFF7ABFDFFF792FEFFF72D
:10575000A4FF10BD0050004061020020D6120020BE
:1057600062020020D61300206302002060020020A5
:105770000648804706480047FEE7FEE7FEE7FEE7EB
:10578000FEE7FEE7FEE7FEE7FEE7FEE771580008EA
:10579000890100080CB5002001900090764800684F
:1057A00040F480307449086000BF7348006800F41A
:1057B000003000900198401C0190009818B90198A1
:1057C000B0F5A06FF1D16C48006800F4003010B162
:1057D0000120009001E0002000900098012846D1AF
:1057E00065484030006840F08050634940310860AF
:1057F0006248006840F48040604908605E480830B4
:1058000000685D49083108600846006840F40040BF
:1058100008600846006840F4A05008605848091F16
:105820000860081F006840F08070091F086000BF12
:105830005148006800F000700028F9D040F205607F
:10584000504908604C480830006820F003004A497D
:10585000083108600846006840F00200086000BF98
:1058600045480830006800F00C000828F8D10CBD4D
:1058700010B54548006840F47000434908603E4850
:10588000006840F001003C49086000203A490831B6
:105890000860394800683D490840374908603C487D
:1058A000091D0860081F006820F48020091F086097
:1058B000002031490C310860FFF76CFF4FF00060A9
:1058C00031498039086010BD70B5002000220223E4
:1058D00000240221284D08352D6805F00C0020B168
:1058E000042806D0082834D107E02A4D2A4E356016
:1058F00033E02A4D284E35602FE01F4D2D1D2D68B9
:10590000C5F380541C4D2D1D2D6805F03F0154B189
:10591000224DB5FBF1F5184E361D3668C6F38816D4
:1059200005FB06F209E01B4DB5FBF1F5124E361DE5
:105930003668C6F3881605FB06F20F4D2D1D2D683F
:10594000C5F301456D1C6B00B2FBF3F5124E3560DB
:1059500003E0104D104E356000BF00BF064D083506
:105960002D68C5F303150E4E705D0B4D2D68C540B7
:10597000094E356070BD00000038024000700040E4
:1059800008544007003C024088ED00E0FFFFF6FEAF
:10599000103000240024F4006402002000127A0079
:1059A0006802002010B50446B4F5E06F0BD0B4F5E2
:1059B000C06F08D0B4F5A06F05D0B4F5806F02D0E9
:1059C000B4F5407F00D103E073215F48FAF7E6FBAE
:1059D0005E4820435E49086010BD2DE9F041044651
:1059E000002500270F26E07810B1E078012800D1CB
:1059F00003E087215448FAF7D1FB6078102800DAD9
:105A000003E088215048FAF7C9FBA078102800DA93
:105A100003E089214C48FAF7C1FBE07818B34C4801
:105A2000006800F4E060C0F5E060C0F30725C5F150
:105A30000400C7B22E416078B840C5B2A0783040AB
:105A400005432807050E434821784554207800F087
:105A50001F010120884021784911890001F1E021CE
:105A6000C1F8000109E0207800F01F010120884002
:105A700039492278521141F82200BDE8F08170B511
:105A800004460D46B4F1005F02D0B4F1006F00D1BE
:105A900003E0B1212C48FAF781FB3048854200D25F
:105AA00003E0B2212848FAF779FB2D4905EA010005
:105AB00020432749091F086070BD70B504460D4694
:105AC000102C03D0042C01D0022C00D103E0C421FF
:105AD0001D48FAF763FB0DB1012D00D103E0C5218C
:105AE0001948FAF75BFB3DB11948001D00682043D7
:105AF0001749091D086006E01548001D0068A0430D
:105B00001349091D086070BD10B50446042C01D06E
:105B1000601D00B903E0DC210B48FAF73FFB042CC1
:105B200008D14FF0E020006940F004004FF0E02180
:105B3000086107E04FF0E020006920F004004FF01A
:105B4000E021086110BD0000A4E000080000FA0593
:105B50000CED00E000E400E080E100E0FFFF0F005A
:105B600080FFFF1F10B50121080203F08DFC00210A
:105B70004FF4807003F088FC10BD2DE9F04105461C
:105B80000C4600260027F748854205D0F648854296
:105B900002D0F648854200D103E0E921F448FAF743
:105BA000FDFA206858B12068B0F1807F07D02068E6
:105BB000B0F1007F03D02068B0F1407F00D103E056
:105BC000EA21EB48FAF7EAFA207910B120790128A6
:105BD00000D103E0EB21E648FAF7E0FA607910B172
:105BE0006079012800D103E0EC21E148FAF7D6FA08
:105BF000A06858B1A068B0F1805F07D0A068B0F18C
:105C0000005F03D0A068B0F1405F00D103E0ED2158
:105C1000D748FAF7C3FAE068D8B3E068B0F1807FFC
:105C200037D0E068B0F1007F33D0E068B0F1407F5A
:105C30002FD0E068B0F1806F2BD0E068B0F1A06F9A
:105C400027D0E068B0F1C06F23D0E068B0F1E06F1A
:105C50001FD0E068B0F1006F1BD0E068B0F1106FAA
:105C600017D0E068B0F1206F13D0E068B0F1306F6A
:105C70000FD0E068B0F1406F0BD0E068B0F1506F2A
:105C800007D0E068B0F1606F03D0E068B0F1706FEA
:105C900000D103E0EE21B648FAF780FA206918B186
:105CA0002069B0F5006F00D103E0EF21B048FAF7AA
:105CB00075FA207D012803DB207D102800DC03E03D
:105CC000F021AB48FAF76AFA6E68AA4806402179D3
:105CD000206840EA012006436E60AE68A648064090
:105CE000D4E903100843A1680843617940EA410000
:105CF0000643AE60EE6A26F47006207D401EC0B2F8
:105D0000074346EA0756EE62BDE8F08100210160D4
:105D1000017141718160C1600161012101757047AC
:105D200070B504460025206818B32068012820D0EB
:105D3000206802281DD0206805281AD0206806286F
:105D400017D02068072814D02068092811D02068AF
:105D500011280ED0206812280BD02068152808D0F2
:105D60002068162805D02068172802D02068192836
:105D700000D104E04FF4A9717D48FAF70FFA60688A
:105D800058B16068B0F5803F07D06068B0F5003F5B
:105D900003D06068B0F5403F00D104E040F25311F9
:105DA0007348FAF7FBF9A06858B1A068B0F5804FC6
:105DB00007D0A068B0F5004F03D0A068B0F5404F01
:105DC00000D104E04FF4AA716948FAF7E7F9E068F6
:105DD000D8B3E068B0F5807F37D0E068B0F5007FD9
:105DE00033D0E068B0F5407F2FD0E068B0F5806F29
:105DF0002BD0E068B0F5A06F27D0E068B0F5C06F99
:105E000023D0E068B0F5E06F1FD0E068B0F5006F18
:105E10001BD0E068B0F5106F17D0E068B0F5206FC8
:105E200013D0E068B0F5306F0FD0E068B0F5406F88
:105E30000BD0E068B0F5506F07D0E068B0F5606F48
:105E400003D0E068B0F5706F00D104E040F2551166
:105E50004748FAF7A3F94948056849480540D4E995
:105E600000010843A1680843E168084305433D4831
:105E7000C0F8045370BD0021016041608160C160C1
:105E8000704770B504460D463648844205D0364802
:105E9000844202D03548844200D104E040F28B11A4
:105EA0003348FAF77BF90DB1012D00D104E04FF42E
:105EB000C6712F48FAF772F925B1A06840F00100C9
:105EC000A06003E0A06820F00100A06070BD70B584
:105ED00005460C4600262348854205D022488542C7
:105EE00002D02248854200D104E04FF4E3712048FB
:105EF000FAF754F9234884420FD0234884420CD047
:105F00002248844209D0B4F5000F06D0B4F5800FC2
:105F100003D0B4F5400F00D004B904E040F2C7113B
:105F20001348FAF73BF96E681848C0430640264309
:105F30006E6070BD70B504460E4615460948844231
:105F400005D00948844202D00848844200D104E0C8
:105F500040F2E3110648FAF721F9B6F5805F17DA47
:105F60001BE0000000200140002101400022014010
:105F7000ECE00008FFFEFFFCFDF7FFC0042301403A
:105F8000E030FCFF00028000000240000002C00080
:105F90004FF4F271FD48FAF701F9B5F5805F00DAC8
:105FA00004E040F2E511F948FAF7F8F86662A562F4
:105FB00070BD70B505460C460026F548854205D0F3
:105FC000F448854202D0F448854200D104E04FF401
:105FD0000371EE48FAF7E2F81CB3012C21D0022C31
:105FE0001FD0032C1DD0042C1BD0052C19D0062C3F
:105FF00017D0072C15D0082C13D0092C11D00A2C3F
:106000000FD00B2C0DD00C2C0BD00D2C09D00E2C3E
:1060100007D00F2C05D0102C03D0112C01D0122C3E
:1060200000D104E040F20D21D848FAF7B7F86E68C5
:1060300026F01F0626436E6070BD10B504460CB1F5
:10604000012C00D104E04FF41371D048FAF7A6F800
:106050003CB1D248006840F40000CD49C1F80403C7
:1060600006E0CE48006820F40000C949C1F80403E6
:1060700010BD10B504460CB1012C00D104E040F273
:106080006221C248FAF78AF83CB1C448006840F47B
:106090008000BF49C1F8040306E0C048006820F44E
:1060A0008000BB49C1F8040310BD2DE9F047064646
:1060B0000C46174698460025A946B548864205D0A5
:1060C000B448864202D0B448864200D104E04FF47E
:1060D0003271AE48FAF762F81CB3012C21D0022CC1
:1060E0001FD0032C1DD0042C1BD0052C19D0062C3E
:1060F00017D0072C15D0082C13D0092C11D00A2C3E
:106100000FD00B2C0DD00C2C0BD00D2C09D00E2C3D
:1061100007D00F2C05D0102C03D0112C01D0122C3D
:1061200000D104E040F2C9219848FAF737F8012F6E
:1061300002DB102F00DC04E040F2CA219348FAF79A
:106140002DF8B8F1000F14D0B8F1010F11D0B8F14B
:10615000020F0ED0B8F1030F0BD0B8F1040F08D026
:10616000B8F1050F05D0B8F1060F02D0B8F1070F4E
:1061700000D104E040F2CB218448FAF70FF8092C53
:1061800013DDF568A4F10A0000EB4001072000FAD6
:1061900001F925EA0905A4F10A0000EB400008FA1C
:1061A00000F945EA0905F5600EE0356904EB4401A4
:1061B000072000FA01F925EA090504EB440008FA72
:1061C00000F945EA09053561072F11DA756B781E6C
:1061D00000EB80011F2000FA01F925EA0905781E6D
:1061E00000EB800004FA00F945EA0905756326E032
:1061F0000D2F11DA356BF81F00EB80011F2000FA1C
:1062000001F925EA0905F81F00EB800004FA00F9FE
:1062100045EA0905356312E0F56AA7F10D0000EBC8
:1062200080011F2000FA01F925EA0905A7F10D00F8
:1062300000EB800004FA00F945EA0905F562BDE8C3
:10624000F08710B504465248844205D05148844234
:1062500002D05148844200D104E040F23F314B4823
:10626000F9F79CFFA06840F08040A06010BD70B5B9
:10627000044600254648844205D04648844202D060
:106280004548844200D104E040F24E313F48F9F7DE
:1062900085FFA06800F4800008B1012500E000251A
:1062A000284670BD70B504460D463948844205D075
:1062B0003848844202D03848844200D104E040F299
:1062C0006B313248F9F76AFF0DB1012D00D104E0BE
:1062D0004FF45B712D48F9F761FF25B1A06840F4D8
:1062E0008060A06003E0A06820F48060A06070BDC2
:1062F00070B504460D462648844205D025488442A0
:1063000002D02548844200D104E04FF461711F4857
:10631000F9F744FF0DB1012D00D104E040F28531C1
:106320001A48F9F73BFF25B1A06840F00200A060D1
:1063300003E0A06820F00200A06070BD2DE9F041EC
:1063400004460D46002600271148844205D0114816
:10635000844202D01048844200D104E040F2A131CE
:106360000A48F9F71BFF012D02DB082D00DC04E0D1
:1063700040F2A2310548F9F711FF666826F460463D
:106380006F1E46EA47366660BDE8F081ECE0000823
:10639000002001400021014000220140042301406F
:1063A00070B504460D46F948844205D0F848844249
:1063B00002D0F848844200D104E040F2BE31F648F1
:1063C000F9F7ECFE0DB1012D00D104E040F2BF3130
:1063D000F148F9F7E3FE25B1606840F400606060C1
:1063E00003E0606820F40060606070BD10B5044692
:1063F000E648844205D0E648844202D0E54884421B
:1064000000D104E040F2D531E348F9F7C7FEE06C73
:1064100080B210BDE1480068704770B504460D4673
:10642000DA48844205D0DA48844202D0D94884420E
:1064300000D104E040F21B41D748F9F7AFFE0DB19F
:10644000012D00D104E040F21C41D348F9F7A6FE2B
:1064500025B1A06840F48070A06003E0A06820F43B
:106460008070A06070BD70B504460D46C748844278
:1064700005D0C748844202D0C648844200D104E017
:1064800040F23341C448F9F789FE0DB1012D00D126
:1064900004E040F23441C048F9F780FE25B1A0681D
:1064A00040F40070A06003E0A06820F40070A060D9
:1064B00070BD10B504460CB1012C00D104E040F2CF
:1064C0004E41B548F9F76AFE44B1B448001F006870
:1064D00040F40050AD49C1F8040307E0AF48001F85
:1064E000006820F40050A949C1F8040310BD2DE94B
:1064F000F04706460C4691461D460027B846BA4668
:10650000A248864205D0A248864202D0A1488642CF
:1065100000D104E040F2A6419F48F9F73FFE1CB3CA
:10652000012C21D0022C1FD0032C1DD0042C1BD0F9
:10653000052C19D0062C17D0072C15D0082C13D0F9
:10654000092C11D00A2C0FD00B2C0DD00C2C0BD0F9
:106550000D2C09D00E2C07D00F2C05D0102C03D0F9
:10656000112C01D0122C00D104E040F2A7418A483E
:10657000F9F714FEB9F1010F03DBB9F1040F00DCE8
:1065800004E04FF495618448F9F708FE6DB1012DE0
:106590000BD0022D09D0032D07D0042D05D0052DD9
:1065A00003D0062D01D0072D00D104E040F2A9410F
:1065B0007948F9F7F3FD092C13DDF768A4F10A0017
:1065C00000EB4001072000FA01F827EA0807A4F1D0
:1065D0000A0000EB400005FA00F847EA0807F760F8
:1065E0000EE0376904EB4401072000FA01F827EABE
:1065F000080704EB440005FA00F847EA080737618A
:10660000B76BC7F3015A09F103000AF10101401AFF
:1066100000EB80011F2000FA01F827EA080709F1C2
:1066200003000AF10101401A00EB800004FA00F8AF
:1066300047EA0807B763BDE8F0872DE9F041044653
:106640000D46002600275148844205D05048844218
:1066500002D05048844200D104E040F2E6414E4866
:10666000F9F79CFD012D02DB042D00DC04E040F273
:10667000E7414948F9F792FDA66B26F440166F1ED4
:1066800046EA0756A663BDE8F081F8B505460C4614
:106690001646002000903D48854205D03C48854282
:1066A00002D03C48854200D104E04FF4A1613A4851
:1066B000F9F774FD142C05D0182C03D01C2C01D034
:1066C000202C00D104E040F209513348F9F766FD6F
:1066D000B6F5805F00DA04E040F20A512E48F9F77F
:1066E0005DFD009500982044009000980660F8BD7C
:1066F00070B505460C4600262448854205D024483E
:10670000854202D02348854200D104E040F22E5158
:106710002148F9F743FD64B3B4F5803F29D0B4F5BF
:10672000003F26D0B4F5403F23D0B4F5802F20D0D1
:10673000B4F5A02F1DD0B4F5C02F1AD0B4F5E02FBA
:1067400017D0B4F5002F14D0B4F5102F11D0B4F534
:10675000202F0ED0B4F5302F0BD0B4F5402F08D039
:10676000B4F5502F05D0B4F5602F02D0B4F5702FDA
:1067700000D104E040F22F510748F9F70FFDAE6851
:1067800026F470262643AE6070BD00000020014054
:106790000021014000220140ECE0000808230140F4
:1067A00070B504460D460026E148844205D0E14814
:1067B000844202D0E048844200D104E04FF4AA6150
:1067C000DE48F9F7EBFC45B1B5F5801F05D0B5F50E
:1067D000001F02D0B5F5401F00D104E040F2515136
:1067E000D648F9F7DBFCA66826F440162E43A660CF
:1067F00070BD10B50446CE48844205D0CD488442D1
:1068000002D0CD48844200D104E040F26451CB482C
:10681000F9F7C4FCA06840F48000A06010BD70B51A
:1068200004460025C248844205D0C248844202D0B2
:10683000C148844200D104E040F27251BF48F9F7E8
:10684000ADFCA06800F4800008B1012500E000253F
:10685000284670BD70B504460D46B548844205D043
:10686000B448844202D0B448844200D104E040F2EB
:106870008E51B248F9F792FC0DB1012D00D104E020
:1068800040F28F51AD48F9F789FC25B1606840F4BA
:106890008060606003E0606820F48060606070BDCC
:1068A00070B504460D46A248844205D0A1488442F2
:1068B00002D0A148844200D104E04FF4B5619F4862
:1068C000F9F76CFC0DB1012D00D104E040F2A951A3
:1068D0009A48F9F763FC25B1606840F48050606025
:1068E00003E0606820F48050606070BD38B50546F4
:1068F0000C46002000908E48854205D08D48854288
:1069000002D08D48854200D104E040F2C6518B4848
:10691000F9F744FC142C05D0182C03D01C2C01D002
:10692000202C00D104E040F2C7518448F9F736FC2E
:10693000009504F128000099084400900098006830
:1069400080B238BD2DE9F04104460D4616460027B9
:106950007748844205D07748844202D07648844202
:1069600000D104E040F231617448F9F717FC0EB130
:10697000012E00D104E040F232617048F9F70EFCBC
:1069800040F2052085420AD0B5F5837F07D040F25A
:106990000740854203D042F21A00854200D104E04C
:1069A00040F233616548F9F7F9FBEFB2012000FAD4
:1069B00007F71EB160683843606002E06068B84362
:1069C0006060BDE8F08170B505460C460026584869
:1069D000854205D05748854202D05748854200D1AC
:1069E00004E040F256615548F9F7D8FB012C09D074
:1069F000022C07D0042C05D0082C03D0102C01D079
:106A0000202C00D104E040F257614C48F9F7C6FB56
:106A10002868204008B1012600E00026304670BDFD
:106A200070B504460D464248844205D04148844230
:106A300002D04148844200D104E04FF4CF613F4886
:106A4000F9F7ACFB05F0C00008B905B104E040F26D
:106A500079613A48F9F7A2FBE843206070BD2DE95F
:106A6000F04105460C4600260027B04630488542D6
:106A700005D03048854202D02F48854200D104E03D
:106A80004FF4D2612D48F9F789FB40F2052084428A
:106A90000AD0B4F5837F07D040F20740844203D088
:106AA00042F21A00844200D104E040F2916123488E
:106AB000F9F774FB271268680121A14000EA010878
:106AC0002868384020B1B8F1000F01D0012600E05D
:106AD00000263046BDE8F08170B505460C4600261C
:106AE0001348854205D01348854202D0124885429A
:106AF00000D104E040F2B7611048F9F74FFB40F2D3
:106B0000052084420AD0B4F5837F07D040F20740C5
:106B1000844203D042F21A00844200D104E04FF4D0
:106B2000D7610648F9F73AFB2612F043286070BD9A
:106B3000002001400021014000220140ECE000085B
:106B400010B50446FE4884423AD0FD4818308442CD
:106B500036D0FB483030844232D0F9484830844245
:106B60002ED0F748603084422AD0F54878308442ED
:106B700026D0F3489030844222D0F148A830844295
:106B80001ED0F04884421BD0EE481830844217D003
:106B9000EC483030844213D0EA48483084420FD069
:106BA000E848603084420BD0E6487830844207D011
:106BB000E4489030844203D0E248A830844200D1B7
:106BC00003E0BF21E048F9F7E9FA206820F001006E
:106BD0002060002020606060A060E06020612120D3
:106BE0006061D748844204D13D20D549103988607E
:106BF0008CE0D3481830844205D14FF47460D049FA
:106C00001039886082E0CE483030844205D14FF49C
:106C10007410CB491039886078E0C9484830844204
:106C200005D14FF07460C649103988606EE0C448E1
:106C30006030844204D1C548C1491039C86065E05C
:106C4000BF487830844204D1C148BD491039C8607A
:106C50005CE0BB489030844204D1BE48B84910394A
:106C6000C86053E0B648A830844205D14FF03D508B
:106C7000B3491039C86049E0B248844204D13D208C
:106C8000B0490839086041E0AE481830844205D167
:106C90004FF47460AB490839086037E0A9483030D8
:106CA000844205D14FF47410A649083908602DE0DC
:106CB000A4484830844205D14FF07460A149083996
:106CC000086023E09F486030844204D19F489D497A
:106CD000091F08601AE09B487830844204D19C4820
:106CE0009849091F086011E096489030844204D109
:106CF00098489449091F086008E09248A8308442E7
:106D000004D14FF03D508F49091F086010BD70B588
:106D100005460C4600268A4885423AD088481830F5
:106D2000854236D086483030854232D0844848305B
:106D300085422ED08248603085422AD08048783003
:106D4000854226D07E489030854222D07C48A830AB
:106D500085421ED07B4885421BD07A481830854238
:106D600017D078483030854213D076484830854275
:106D70000FD07448603085420BD07248783085421D
:106D800007D070489030854203D06E48A8308542C5
:106D900000D104E04FF49E716B48F9F7FFF92068C9
:106DA000D8B12068B0F1007F17D02068B0F1806FB3
:106DB00013D02068B0F1C06F0FD02068B0F1006F21
:106DC0000BD02068B0F1206F07D02068B0F1406F81
:106DD00003D02068B0F1606F00D104E040F23D11B3
:106DE0005948F9F7DBF9E06828B1E068402802D09B
:106DF000E068802800D104E04FF49F715248F9F711
:106E0000CDF9206920B12069B0F5803F00D204E0BF
:106E100040F23F114C48F9F7C1F96069B0F5007FC5
:106E200001D0606900B904E04FF4A0714648F9F759
:106E3000B5F9A069B0F5806F01D0A06900B904E090
:106E400040F241114048F9F7A9F9E06938B1E06929
:106E5000B0F5006F03D0E069B0F5805F00D104E0C9
:106E60004FF4A1713848F9F799F9206A38B1206ACE
:106E7000B0F5005F03D0206AB0F5804F00D104E088
:106E800040F243113048F9F789F9606A18B1606A35
:106E9000B0F5807F00D104E04FF4A2712A48F9F7E1
:106EA0007DF9A06A58B1A06AB0F5803F07D0A06A0A
:106EB000B0F5003F03D0A06AB0F5403F00D104E038
:106EC00040F245112048F9F769F9E06A10B1E06A2B
:106ED000042800D104E04FF4A3711B48F9F75EF9D0
:106EE000206B40B1206B012805D0206B022802D016
:106EF000206B032800D104E040F247111248F9F753
:106F00004DF9606B58B1606BB0F5000F07D0606B46
:106F1000B0F1807F03D0606BB0F1C07F00D104E09E
:106F20004FF4A4710848F9F739F9A06BC0B1A06B10
:106F3000B0F5001F14D0A06BB0F5800F10D00BE09F
:106F4000106002401064024040E100083D00002053
:106F5000400F002000003D20A06BB0F5C00F00D115
:106F600004E040F24911FE48F9F718F92E68FD488F
:106F70000640E1682068084361690843A169084345
:106F8000E1690843216A0843616A0843A16A08432A
:106F9000616B0843A16B084306432E606E6926F0BF
:106FA0000706D4E90B01084306436E612069686057
:106FB0006068A860A068E86070BD00210160416061
:106FC0008160C160016141618161C16101624162B1
:106FD0008162C162016341638163704770B5044699
:106FE0000D46E14884423AD0DF481830844236D01A
:106FF000DD483030844232D0DB48483084422ED0E5
:10700000D948603084422AD0D7487830844226D08C
:10701000D5489030844222D0D348A83084421ED034
:10702000D24884421BD0D1481830844217D0CF4870
:107030003030844213D0CD48483084420FD0CB4802
:10704000603084420BD0C9487830844207D0C748AA
:107050009030844203D0C548A830844200D104E077
:1070600040F2D911BE48F9F799F80DB1012D00D1C0
:1070700004E04FF4ED71BA48F9F790F825B12068B3
:1070800040F00100206003E0206820F00100206053
:1070900070BD70B504460D46B34884423AD0B2483C
:1070A0001830844236D0B0483030844232D0AE48B6
:1070B000483084422ED0AC48603084422AD0AA485E
:1070C0007830844226D0A8489030844222D0A64806
:1070D000A83084421ED0A54884421BD0A348183053
:1070E000844217D0A1483030844213D09F484830A2
:1070F00084420FD09D48603084420BD09B4878304A
:10710000844207D099489030844203D09748A830F1
:10711000844200D104E040F2FD119148F9F73EF8B5
:1071200015B1B5F5004F00D104E04FF4FF718C4864
:10713000F9F734F825B1206840F40040206003E0FE
:10714000206820F40040206070BD70B504460D46F4
:10715000854884423AD084481830844236D08248E8
:107160003030844232D08048483084422ED07E482D
:10717000603084422AD07C487830844226D07A48D5
:107180009030844222D07848A83084421ED077487C
:1071900084421BD075481830844217D07348303071
:1071A000844213D07148483084420FD06F48603019
:1071B00084420BD06D487830844207D06B489030C1
:1071C000844203D06948A830844200D104E040F2F0
:1071D00021216348F8F7E2FF0DB1202D00D104E032
:1071E00040F222215E48F8F7D9FF25B1206840F02F
:1071F0002000206003E0206820F02000206070BDA7
:1072000070B504460D46584884423AD05648183066
:10721000844236D054483030844232D052484830CC
:1072200084422ED05048603084422AD04E48783074
:10723000844226D04C489030844222D04A48A8301C
:1072400084421ED0494884421BD0484818308442AA
:1072500017D046483030844213D0444848308442E6
:107260000FD04248603084420BD04048783084428E
:1072700007D03E489030844203D03C48A830844236
:1072800000D104E040F275213548F8F787FF6560CA
:1072900070BD10B50446344884423AD032481830A4
:1072A000844236D030483030844232D02E48483084
:1072B00084422ED02C48603084422AD02A4878302C
:1072C000844226D028489030844222D02648A830D4
:1072D00084421ED0254884421BD024481830844262
:1072E00017D022483030844213D02048483084429E
:1072F0000FD01E48603084420BD01C487830844246
:1073000007D01A489030844203D01848A8308442ED
:1073100000D104E04FF421711148F8F73FFF606895
:1073200080B210BD70B504460E4615460E48844224
:1073300042D00D48183084423ED00B483030844251
:107340003AD009484830844236D0074860308442F9
:1073500032D00548783084422ED00348903007E080
:1073600040E100083F801CF01060024010640240C1
:10737000844221D0FE4884421ED0FE4884421BD065
:10738000FC481830844217D0FA483030844213D079
:10739000F848483084420FD0F648603084420BD021
:1073A000F4487830844207D0F2489030844203D0C9
:1073B000F048A830844200D104E040F2D221EE48E7
:1073C000F8F7ECFE15B1B5F5002F00D104E040F25E
:1073D000D321E948F8F7E2FE25B1206840F4002007
:1073E000206003E0206820F400202060266170BD4A
:1073F00070B504460D46DE48A838844239D0DC48D2
:107400009038844235D0DA487838844231D0D84830
:10741000603884422DD0D6484838844229D0D44898
:107420003038844225D0D2481838844221D0D04800
:1074300084421ED0CF4884421BD0CE4818308442AC
:1074400017D0CC483030844213D0CA4848308442E8
:107450000FD0C848603084420BD0C6487830844290
:1074600007D0C4489030844203D0C248A830844238
:1074700000D104E04FF43C71BF48F8F78FFE0DB126
:10748000012D00D104E040F2F121BB48F8F786FE5F
:1074900025B1206840F48020206003E0206820F4BB
:1074A0008020206070BD70B504460E461546B04879
:1074B000A838844239D0AE489038844235D0AC48A0
:1074C0007838844231D0AA48603884422DD0A84808
:1074D0004838844229D0A6483038844225D0A44870
:1074E0001838844221D0A24884421ED0A148844248
:1074F0001BD0A0481830844217D09E4830308442B8
:1075000013D09C48483084420FD09A48603084425F
:107510000BD098487830844207D096489030844207
:1075200003D09448A830844200D104E040F21A31DC
:107530009148F8F733FE15B1B5F5002F00D104E0FE
:1075400040F21B318C48F8F729FE0DB1266100E0AE
:10755000E66070BD70B5044600258548A8388442B1
:1075600039D083489038844235D081487838844275
:1075700031D07F48603884422DD07D4848388442DD
:1075800029D07B483038844225D079481838844245
:1075900021D0774884421ED0764884421BD075485B
:1075A0001830844217D073483030844213D0714869
:1075B000483084420FD06F48603084420BD06D4811
:1075C0007830844207D06B489030844203D06948B9
:1075D000A830844200D104E040F235316648F8F723
:1075E000DDFD206800F4002008B1012500E0002541
:1075F000284670BD70B5044600255D48A838844211
:1076000039D05B489038844235D059487838844224
:1076100031D05748603884422DD05548483884428C
:1076200029D053483038844225D0514818388442F4
:1076300021D04F4884421ED04E4884421BD04D4832
:107640001830844217D04B483030844213D0494818
:10765000483084420FD04748603084420BD04548C0
:107660007830844207D043489030844203D0414868
:10767000A830844200D104E040F2A2313E48F8F73D
:107680008DFD206800F0010008B1012500E0002513
:10769000284670BD70B5044600253548A838844298
:1076A00039D033489038844235D0314878388442D4
:1076B00031D02F48603884422DD02D48483884423C
:1076C00029D02B483038844225D0294818388442A4
:1076D00021D0274884421ED0264884421BD025480A
:1076E0001830844217D023483030844213D02148C8
:1076F000483084420FD01F48603084420BD01D4870
:107700007830844207D01B489030844203D0194817
:10771000A830844200D104E04FF471711648F8F7A4
:107720003DFD606900F03805284670BD2DE9F04147
:1077300005460C464FF0000800270D48A838854242
:1077400040D00B48903885423CD009487838854273
:1077500038D007486038854234D0054848388542DB
:1077600030D00348303885422CD00148183805E025
:10777000B86002401064024040E10008854221D018
:10778000F94885421ED0F94885421BD0F748183089
:10779000854217D0F5483030854213D0F348483041
:1077A00085420FD0F148603085420BD0EF487830E9
:1077B000854207D0ED489030854203D0EB48A83091
:1077C000854200D104E040F2E131E948F8F7E6FCF7
:1077D000E84884427CD0E7481038844278D0E548B5
:1077E0001838844274D0E448844271D0C01E844268
:1077F0006ED0E24884426BD0E148844268D0E148D0
:10780000844265D0DB48E030844261D0D9482030E2
:1078100084425DD0B4F1815F5AD0DB48844257D0B6
:10782000DA48844254D0DA48844251D0D94884425C
:107830004ED0B4F1C05F4BD0B4F1A05F48D0B4F1EA
:10784000905F45D0B4F1885F42D0B4F1825F3FD001
:10785000D14884423CD0D0481038844238D0CE48F9
:107860001838844234D0001F844231D0C01E844274
:107870002ED0CA4884422BD0C948844228D0C94857
:10788000844225D0C448E030844221D0C248203010
:1078900084421DD0C44884421AD0C448844217D0C0
:1078A000C348844214D0C348844211D0C2488442A1
:1078B0000ED0B4F1205F0BD0B4F1105F08D0B4F15A
:1078C000085F05D0B4F1045F02D0B4F1015F00D1CC
:1078D00004E040F2E231A648F8F760FCA348854294
:1078E00002D2A14EB83E01E0A04E103E04F000507E
:1078F00008B1776800E03768B048074007EA04003D
:1079000010B14FF0010801E04FF000084046BDE81B
:10791000F08170B504460D469348A838844239D0AA
:1079200091489038844235D08F487838844231D09D
:107930008D48603884422DD08B484838844229D005
:1079400089483038844225D087481838844221D06D
:10795000854884421ED0854884421BD08348183015
:10796000844217D081483030844213D07F48483059
:1079700084420FD07D48603084420BD07B48783001
:10798000844207D079489030844203D07748A830A9
:10799000844200D104E040F222417548F8F7FEFB32
:1079A00005F04050B0F1405F07D005F0405020B1E5
:1079B0008348284008B905B104E040F223416C48EF
:1079C000F8F7ECFB6948844202D2674EB83E01E00A
:1079D000664E103E05F0005018B178482840F0601F
:1079E00002E076482840B06070BD70B504460D4690
:1079F00016465D48A838844239D05B4890388442A6
:107A000035D059487838844231D05748603884425C
:107A10002DD055484838844229D0534830388442C4
:107A200025D051481838844221D04F4884421ED076
:107A30004E4884421BD04D481830844217D04B48E2
:107A40003030844213D04948483084420FD04748F0
:107A5000603084420BD045487830844207D0434898
:107A60009030844203D04148A830844200D104E0E1
:107A700040F24F413E48F8F791FB25F09E0008B9CF
:107A800005B104E04FF48A613948F8F787FB0EB17D
:107A9000012E00D104E040F251413548F8F77EFB59
:107AA00005F0800048B126B1606940F08000606157
:107AB00003E0606920F080006061802D0BD02EB162
:107AC000206805F01E010843206004E0206805F0EE
:107AD0001E018843206070BD2DE9F04705460C4625
:107AE0004FF000080027B9461F48A838854239D012
:107AF0001D489038854235D01B487838854231D0B2
:107B00001948603885422DD017484838854229D019
:107B100015483038854225D013481838854221D081
:107B2000114885421ED0114885421BD00F4818309D
:107B3000854217D00D483030854213D00B4848306D
:107B400085420FD00948603085420BD00748783015
:107B5000854207D005489030854203D00348A830BD
:107B600085422FD133E00000B8600240106402402B
:107B700040E1000820000010040080100008001000
:107B80000004001000020010000010100000081097
:107B90000000041000000110200000200008002058
:107BA000000400200002002000002020000010201F
:107BB0000000082000000420000001207D0F7D0F40
:107BC00082F082C040F287418D48F8F7E7FA8D488D
:107BD000844278D08C48844275D08C48844272D0DC
:107BE0008B4884426FD08B4884426CD08A48844250
:107BF00069D08A48844266D08948844263D08448E8
:107C0000FC3084425FD083483F3084425BD085485B
:107C1000844258D08448844255D08448844252D00B
:107C2000834884424FD0834884424CD08248844267
:107C300049D08248844246D08148844243D081481A
:107C4000844240D0804884423DD0804884423AD02B
:107C50007F48844237D07F48844234D07E48844273
:107C600031D07E4884422ED07D4884422BD07D483E
:107C7000844228D07C48844225D07748FC30844216
:107C800021D076483F3084421DD0784884421AD0B3
:107C90007748844217D07748844214D0764884428B
:107CA00011D0764884420ED0754884420BD0754876
:107CB000844208D07448844205D07448844202D07B
:107CC0007348844200D104E04FF491614C48F8F7C6
:107CD00065FA7048854201D26F4E01E06D4E103E4C
:107CE0006E48204030B11E2000EAD427286800EA00
:107CF000070902E0686900F0800904F0005008B14B
:107D0000776800E037686648074007EA040028B152
:107D1000B9F1000F02D04FF0010801E04FF0000868
:107D20004046BDE8F08770B504460D465A4810300D
:107D300084423AD058482830844236D056484030A1
:107D4000844232D05448583084422ED05248703049
:107D500084422AD050488830844226D04E48A030F1
:107D6000844222D04C48B83084421ED049488442D4
:107D70001BD048481830844217D0464830308442DF
:107D800013D04448483084420FD042486030844287
:107D90000BD040487830844207D03E48903084422F
:107DA00003D03C48A830844200D104E040F2D741DF
:107DB0001348F8F7F3F905F04050B0F1405F07D0F1
:107DC00005F0405020B11DB13648284000B904E00C
:107DD0004FF49B610A48F8F7E1F92E48844201D23A
:107DE0002D4E01E02B4E103E05F0005018B12C48EE
:107DF0002840F06002E02A482840B06070BD0000D2
:107E000040E1000820800010104000100820001001
:107E100004100010010000900088001000440010C1
:107E200000220010008020100040101000200810D8
:107E300000100410000001900080001800400014A1
:107E4000002000120010001100004090208000204F
:107E5000104000200820002004100020010000A095
:107E60000088002000440020002200200080202004
:107E7000004010200020082000100420000001A075
:107E80000080002800400024002000220010002173
:107E9000000040A010640240006002403C0F3C0F14
:107EA0007D0F7D0F820082400020B1490860091DCE
:107EB0000860091D0860091D0860AE48AC4914310E
:107EC0000860704770B504460025207910B120790C
:107ED000042800D103E07C21A748F8F75FF9607916
:107EE000082805D060790C2802D06079102800D1CC
:107EF00003E07D21A048F8F751F920686FF31600E0
:107F000010B9206800B103E07E219B48F8F746F9DC
:107F1000A07910B1A079012800D103E07F21964813
:107F2000F8F73CF9924DA07990B328460068216893
:107F3000884329460860081D006821688843291D78
:107F4000086020790544286821680843286088482B
:107F50000830006821688843854908310860081D99
:107F600000682168884382490C31086060791028D4
:107F70000FD1081F0068216808437D490831086057
:107F8000081D00682168084379490C3108600EE03B
:107F900007E0774D60790544286821680843286028
:107FA00005E020790544286821688843286070BD71
:107FB0000021016001710C21417100218171704724
:107FC00010B50446E00DC00508B904B103E0C121B5
:107FD0006948F8F7E3F866481030006820436449C0
:107FE0001031086010BD70B504460025012C3AD050
:107FF000022C38D0042C36D0082C34D0102C32D09F
:10800000202C30D0402C2ED0802C2CD0B4F5807F6A
:1080100029D0B4F5007F26D0B4F5806F23D0B4F515
:10802000006F20D0B4F5805F1DD0B4F5005F1AD08A
:10803000B4F5804F17D0B4F5004F14D0B4F5803F9D
:1080400011D0B4F5003F0ED0B4F5802F0BD0B4F5AD
:10805000002F08D0B4F5801F05D0B4F5001F02D062
:10806000B4F5800F00D103E0E0214348F8F796F81B
:108070003F4814300068204008B1012500E0002589
:10808000284670BD10B50446E00DC00508B904B11E
:1080900003E0F6213848F8F781F8354814300460D9
:1080A00010BD70B5044600250026012C3AD0022CE4
:1080B00038D0042C36D0082C34D0102C32D0202CC0
:1080C00030D0402C2ED0802C2CD0B4F5807F29D0FD
:1080D000B4F5007F26D0B4F5806F23D0B4F5006FDF
:1080E00020D0B4F5805F1DD0B4F5005F1AD0B4F590
:1080F000804F17D0B4F5004F14D0B4F5803F11D0A5
:10810000B4F5003F0ED0B4F5802F0BD0B4F5002F9E
:1081100008D0B4F5801F05D0B4F5001F02D0B4F527
:10812000800F00D104E04FF483711348F8F736F85C
:108130000F48006800EA04060D481430006820402B
:1081400010B10EB1012500E00025284670BD10B524
:108150000446E00DC00508B904B104E040F21D1169
:108160000548F8F71BF802481430046010BD000001
:10817000003C0140FFFF7F0094E1000810B5044679
:10818000FA48844217D0FA48844214D0F94884420D
:1081900011D0F94884420ED0F84884420BD0F848F8
:1081A000844208D0F748844205D0F748844202D080
:1081B000F648844200D103E07B21F548F7F7EEFF53
:1081C000EA48844208D10121084601F0C1F80021A3
:1081D000012001F0BDF85EE0E548844208D10121AC
:1081E000022001F0B5F80021022001F0B1F852E0C0
:1081F000E048844208D10121042001F0A9F80021BF
:10820000042001F0A5F846E0DB48844208D10121B2
:10821000082001F09DF80021082001F099F83AE0CB
:10822000D648844208D10121102001F091F80021A4
:10823000102001F08DF82EE0D148844208D10121B0
:10824000202001F085F80021202001F081F822E0B3
:10825000CC48844208D10121402001F079F8002166
:10826000402001F075F816E0C748844208D101218A
:10827000802001F06DF80021802001F069F80AE00B
:10828000C248844207D10121801501F061F8002124
:10829000A01501F05DF810BD2DE9F04104460D4632
:1082A00000260027B046B148844217D0B048844227
:1082B00014D0B048844211D0AF4884420ED0AF48A9
:1082C00084420BD0AE48844208D0AE48844205D0E8
:1082D000AD48844202D0AD48844200D103E0BB21C6
:1082E000AB48F7F75BFF002010B9286800B103E046
:1082F000BC21A748F7F752FF287940B12879012817
:1083000005D02879022802D02879032800D103E07B
:10831000BD219F48F7F742FFE87928B1E8790128A5
:1083200002D0E879022800D103E0BE219848F7F78F
:1083300035FF002657E0012000FA06F7286800EA1A
:108340000708B8454ED12068720003219140884348
:1083500020602879710088402168084320602879CE
:10836000012802D02879022830D1687940B1687993
:10837000012805D06879022802D06879032800D145
:1083800003E0D0218248F7F709FFA06872000321BB
:1083900091408843A060687971008840A1680843D3
:1083A000A060A87910B1A879012800D103E0D721F5
:1083B0007748F7F7F3FE61680120B04081436160C0
:1083C0006068A979B14089B208436060E0687200D2
:1083D000032191408843E060E87971008840E168BA
:1083E0000843E060761C102EA5D3BDE8F0814FF65F
:1083F000FF7101600021017141718171C17170478C
:1084000038B504460D464FF48030009057488442FA
:1084100017D05748844214D05648844211D0564849
:1084200084420ED0554884420BD05548844208D02F
:108430005448844205D05448844202D05348844270
:1084400000D104E04FF482715148F7F7A7FE0020F5
:1084500008B905B104E040F205114D48F7F79EFE5A
:108460000098284300900098E061E5610098E06181
:10847000E0690090E069009038BD70B505460C4693
:1084800000263A48854217D03948854214D03948E9
:10849000854211D0384885420ED0384885420BD0ED
:1084A0003748854208D03748854205D0364885424E
:1084B00002D03648854200D104E04FF49871344828
:1084C000F7F76CFE012C25D0022C23D0042C21D0F0
:1084D000082C1FD0102C1DD0202C1BD0402C19D0C4
:1084E000802C17D0B4F5807F14D0B4F5007F11D064
:1084F000B4F5806F0ED0B4F5006F0BD0B4F5805F8B
:1085000008D0B4F5005F05D0B4F5804F02D0B4F5C3
:10851000004F00D104E040F231111D48F7F73EFE54
:108520002869204008B1012600E00026304670BDD1
:1085300010B504460D48844217D00D48844214D02B
:108540000C48844211D00C4884420ED00B4884421F
:108550000BD00B48844208D00A48844205D00A4810
:10856000844202D00948844214D118E0000002403D
:108570000004024000080240000C024000100240CB
:108580000014024000180240001C0240002002407B
:10859000E8E100084FF4A371FE48F7F7FFFD2069FA
:1085A00080B210BD70B505460C460026FA488542DB
:1085B00017D0FA48854214D0F948854211D0F948BD
:1085C00085420ED0F84885420BD0F848854208D045
:1085D000F748854205D0F748854202D0F6488542E3
:1085E00000D104E040F25711EA48F7F7D7FD012C1B
:1085F00025D0022C23D0042C21D0082C1FD0102CE5
:108600001DD0202C1BD0402C19D0802C17D0B4F5B5
:10861000807F14D0B4F5007F11D0B4F5806F0ED0F8
:10862000B4F5006F0BD0B4F5805F08D0B4F5005FEF
:1086300005D0B4F5804F02D0B4F5004F00D104E06E
:108640004FF4AC71D348F7F7A9FD6869204008B131
:10865000012600E00026304670BD10B50446CE4825
:10866000844217D0CD48844214D0CD48844211D0E2
:10867000CC4884420ED0CC4884420BD0CB488442B4
:1086800008D0CB48844205D0CA48844202D0CA48A8
:10869000844200D104E040F26D11BE48F7F77EFD40
:1086A000606980B210BD70B504460D46BA48844278
:1086B00017D0BA48844214D0B948844211D0B9487E
:1086C00084420ED0B84884420BD0B848844208D0C7
:1086D000B748844205D0B748844202D0B6488442A5
:1086E00000D104E040F27F11AA48F7F757FD0020BF
:1086F00008B905B104E04FF4C071A648F7F74EFD84
:10870000258370BD70B504460D46A348844217D03A
:10871000A248844214D0A248844211D0A148844285
:108720000ED0A14884420BD0A048844208D0A04873
:10873000844205D09F48844202D09F48844200D1A1
:1087400004E04FF4C9719348F7F728FD002008B9F9
:1087500005B104E040F293118E48F7F71FFD6583E1
:1087600070BD70B505460C4616468B48854217D03D
:108770008A48854214D08A48854211D0894885426A
:108780000ED0894885420BD08848854208D0884859
:10879000854205D08748854202D08748854200D16E
:1087A00004E04FF4D3717B48F7F7F8FC012C25D097
:1087B000022C23D0042C21D0082C1FD0102C1DD02B
:1087C000202C1BD0402C19D0802C17D0B4F5807FE2
:1087D00014D0B4F5007F11D0B4F5806F0ED0B4F58D
:1087E000006F0BD0B4F5805F08D0B4F5005F05D002
:1087F000B4F5804F02D0B4F5004F00D104E040F250
:10880000A7116448F7F7CAFC0EB1012E00D104E0AD
:108810004FF4D4715F48F7F7C1FC0EB12C8300E030
:108820006C8370BD70B504460D465B48844217D01A
:108830005A48844214D05A48844211D0594884423C
:108840000ED0594884420BD05848844208D058482A
:10885000844205D05748844202D05748844200D110
:1088600004E040F2BD114B48F7F798FC656170BD1C
:1088700070B504460D464848844217D047488442A4
:1088800014D04748844211D0464884420ED046480E
:1088900084420BD04548844208D04548844205D0E4
:1088A0004448844202D04448844200D104E040F26B
:1088B000CB113848F7F772FC60696840606170BDA1
:1088C0002DE9F04106460D4614460027B8463248C9
:1088D000864217D03148864214D03148864211D0A2
:1088E000304886420ED0304886420BD02F48864210
:1088F00008D02F48864205D02E48864202D02E4806
:10890000864200D104E040F217212248F7F746FCE6
:10891000EDB1012D1BD0022D19D0032D17D0042D40
:1089200015D0052D13D0062D11D0072D0FD0082DF1
:108930000DD0092D0BD00A2D09D00B2D07D00C2DF1
:1089400005D00D2D03D00E2D01D00F2D00D104E048
:108950004FF406710F48F7F721FC7CB3092C47D080
:1089600064B35CB354B34CB3012C41D040D0022C5F
:108970003ED03DD03CD0032C3AD0042C38D037D058
:1089800036D0052C34D033D0092C31D0062C2FD042
:10899000092C14E0E8E10008000002400004024055
:1089A00000080240000C0240001002400014024087
:1089B00000180240001C02400020024018E017D0BE
:1089C000072C15D014D013D0082C11D010D00FD0F4
:1089D000092C0DD00CD00A2C0AD009D00B2C07D0B2
:1089E0000C2C05D004D003D00D2C01D00F2C00D1BD
:1089F00004E040F219211248F7F7D0FB6807C00ED7
:108A000004FA00F7E91006F1200050F82100690788
:108A1000CA0E0F2191408843EA1006F1200141F867
:108A20002200E91006F1200050F8210040EA070872
:108A3000E91006F1200040F82180BDE8F081000037
:108A4000E8E10008F948006840F00100F7490860D3
:108A50000020F64908310860F4480068F4490840ED
:108A6000F2490860F348091D0860081F006820F4F7
:108A70008020091F08600020EC490C310860704715
:108A800010B504461CB1012C01D0052C00D103E027
:108A9000F021E948F7F782FB0020E449891C0870BF
:108AA0000846047010BD2DE9F0410446002500265B
:108AB0000027212C17D0312C15D0392C13D0412C64
:108AC00011D0612C0FD0792C0DD07A2C0BD07B2CAF
:108AD00009D07C2C07D07D2C05D07E2C03D07F2C98
:108AE00001D03B2C00D104E040F29C61D248F7F762
:108AF00055FB6511012D02D1CC48066808E0022D16
:108B000003D1CA487030066802E0C848743006686D
:108B100004F01F050120A840304008B1012700E003
:108B200000273846BDE8F08138B5002000900024C9
:108B3000002500BF3120FFF7B6FF05460098401C16
:108B400000900098B0F5A06F01D0002DF2D0312038
:108B5000FFF7A9FF08B1012400E00024204638BD3A
:108B600070B5044600251F2C00DC04E04FF494711E
:108B7000B148F7F713FBAD48056825F0F80545EA5D
:108B8000C405056070BD10B504460CB1012C00D1C0
:108B900004E040F24B11A848F7F700FBA748046037
:108BA00010BD10B504461CB1012C01D0042C00D11D
:108BB00004E04FF4B271A048F7F7F0FA00209B49A7
:108BC000703108700870012C02D0042C0AD104E026
:108BD000012096497031087005E0052093497031F5
:108BE000087000E000BF00BF10BD10B504460CB116
:108BF000012C00D104E04FF4C6718F48F7F7CEFA8C
:108C00008F48046010BD2DE9F04105460F46164619
:108C10001C46DDF8188015B1B5F5800F00D104E0D1
:108C200040F2B7118448F7F7B9FA3F2F00D804E0B3
:108C30004FF4DC718048F7F7B1FAC02E03D3B6F5D4
:108C4000D87F00D804E040F2B9117B48F7F7A6FAC4
:108C5000022C05D0042C03D0062C01D0082C00D106
:108C600004E04FF4DD717448F7F798FAB8F1040F97
:108C700003D3B8F10F0F00D804E040F2BB116E48E7
:108C8000F7F78CFA47EA86100121C1EB540140EA5C
:108C90000140284340EA08606449091D0860BDE8B6
:108CA000F08110B504460CB1012C00D104E04FF462
:108CB000E7716148F7F772FA6048046610BD70B555
:108CC00005460C46C02D03D3B5F5D87F00D804E087
:108CD0004FF4F4715848F7F761FA022C02D3072CCD
:108CE00000D804E040F2E9115348F7F757FAA80119
:108CF00040EA04704D498431086070BD10B50446E7
:108D00000CB1012C00D104E040F2F7114A48F7F70A
:108D100045FA4A48846610BD10B504460CB1012CD2
:108D200000D104E040F209214348F7F737FA4348FD
:108D3000C46410BD70B505460C46002645B1B5F5B6
:108D4000001F05D0B5F5800F02D0B5F5C00F00D1DA
:108D500004E04FF409713848F7F720FA5CB1B4F138
:108D6000806F08D0B4F1A06F05D0B4F1C06F02D00D
:108D7000B4F1E06F00D104E040F225212E48F7F76E
:108D80000DFA2A480830066826F0EC6645EA040029
:108D9000064326480830066070BD70B505460C468F
:108DA000002645B1B5F1804F05D0B5F1004F02D096
:108DB000B5F1404F00D104E040F24A211E48F7F7D8
:108DC000EDF95CB1B4F1005F08D0B4F1205F05D0DB
:108DD000B4F1405F02D0B4F1605F00D104E040F232
:108DE0004B211548F7F7DAF910480830066826F0E5
:108DF000784645EA040006430C480830066070BD1A
:108E000070B5044600251CB1012C01D0022C00D104
:108E100004E04FF42D710848F7F7C0F90348083013
:108E2000056825F003052543056070BD0038024044
:108E3000FFFFF6FE103000243CE20008000047422D
:108E4000800E4742F648006800F00C00704770B58D
:108E5000044600257CB1802C0DD0902C0BD0A02C8A
:108E600009D0B02C07D0C02C05D0D02C03D0E02CDA
:108E700001D0F02C00D104E040F2E921E948F7F7F5
:108E80008DF9E748056825F0F0052543056070BDBC
:108E900070B5044600255CB1B4F5805F08D0B4F528
:108EA000A05F05D0B4F5C05F02D0B4F5E05F00D19B
:108EB00004E040F20931DB48F7F770F9D84805685B
:108EC00025F4E0552543056070BD70B504460025C6
:108ED0005CB1B4F5805F08D0B4F5A05F05D0B4F5FF
:108EE000C05F02D0B4F5E05F00D104E04FF44A71F6
:108EF000CC48F7F753F9CA48056825F4604545EAB8
:108F0000C405056070BDF0B50021002200240225D3
:108F100000260223C24F3F6807F00C0121B104294B
:108F200005D0082937D105E0BF4F076036E0BF4FB5
:108F3000076033E0BA4F3F1F3F68C7F38056B84F12
:108F40003F1F3F6807F03F036EB1B84FB7FBF3F721
:108F5000DFF8CCC2ACF1040CDCF800C0CCF3881C08
:108F600007FB0CF40CE0B04FB7FBF3F7DFF8B0C22F
:108F7000ACF1040CDCF800C0CCF3881C07FB0CF44B
:108F8000A74F3F1F3F68C7F301477F1C7D00B4FB1D
:108F9000F5F7076002E0A44F076000BF00BFA04FD5
:108FA0003F6807F0F0010909A14F7A5C0768D740D4
:108FB00047609B4F3F6807F4E051890A9C4F7A5CF9
:108FC0004768D7408760964F3F6807F46041490B78
:108FD000974F7A5C4768D740C760F0BD70B50446CC
:108FE0000025B4F5807F5CD0B4F5007F59D091485E
:108FF000844256D09048844253D09048844250D006
:109000008F4884424DD08F4884424AD08E48844253
:1090100047D08E48844244D08D48844241D08D4808
:1090200084423ED08C4884423BD08C48844238D025
:109030008B48844235D08B48844232D08A4884425F
:109040002FD08A4884422CD08948844229D089482C
:10905000844226D08848844223D08848844220D045
:10906000874884421DD0874884421AD0864884426B
:1090700017D08648844214D08548844211D0854850
:1090800084420ED0844884420BD08448844208D065
:109090008348844205D08348844202D08248844277
:1090A00000D104E040F2D9315E48F7F777F804F4D4
:1090B0004070B0F5407F09D15948056825F4F8158E
:1090C0007A4904EA01000543554805605448683070
:1090D0000068C4F30B01084351496831086070BD52
:1090E00010B504460CB1012C00D104E040F2F73178
:1090F0004C48F7F753F86E48046010BD10B50446AD
:109100000CB1012C00D104E04FF481614548F7F720
:1091100045F86748001D046010BD10B504460CB149
:10912000012C00D104E040F219413E48F7F736F82F
:109130006048046010BD70B504460D465E4820408E
:1091400008B904B104E04FF488613648F7F726F80F
:109150000DB1012D00D104E040F242413148F7F752
:109160001DF83DB12E482830006820432C49283195
:10917000086006E02A4828300068A04328492831C2
:10918000086070BD70B504460D4624F0F10008B9C2
:1091900004B104E04FF48C612248F6F7FFFF0DB1F3
:1091A000012D00D104E040F261411E48F6F7F6FFC0
:1091B0003DB11B482C300068204319492C31086010
:1091C00006E017482C300068A04315492C31086090
:1091D00070BD70B504460D4624F0010008B904B115
:1091E00004E040F27B410F48F6F7D8FF0DB1012DA6
:1091F00000D104E040F27C410A48F6F7CFFF3DB1D0
:10920000074830300068204305493031086006E0E7
:10921000034830300068A04301493031086070BD18
:10922000083802403CE200080024F40000127A00F2
:109230007802002000030200000303000003040082
:1092400000030500000306000003070000030800F8
:109250000003090000030A0000030B0000030C00D8
:1092600000030D0000030E0000030F0000031000B8
:109270000003110000031200000313000003140098
:109280000003150000031600000317000003180078
:109290000003190000031A0000031B0000031C0058
:1092A00000031D0000031E0000031F00FFFCFF0F52
:1092B0003C0E47425C01474200EE8B8170B504468C
:1092C0000D46FA48204008B904B104E040F2AD412F
:1092D000F748F6F763FF0DB1012D00D104E040F22D
:1092E000AE41F348F6F75AFF2DB1F248006820432B
:1092F000F049086004E0EF480068A043ED490860C9
:1093000070BD70B504460D46EB48204008B904B165
:1093100004E040F2D541E648F6F740FF0DB1012DDB
:1093200000D104E040F2D641E148F6F737FF3DB105
:10933000E048001D00682043DE49091D086006E082
:10934000DC48001D0068A043DA49091D086070BDB3
:1093500070B504460D46D948204008B904B104E070
:1093600040F2FC41D248F6F719FF0DB1012D00D1B2
:1093700004E040F2FD41CE48F6F710FF3DB1CD4884
:10938000303800682043CB493039086006E0C948CE
:1093900030380068A043C7493039086070BD70B5E7
:1093A00004460D4624F0F10008B904B104E040F28F
:1093B0001951BF48F6F7F2FE0DB1012D00D104E0BE
:1093C00040F21A51BA48F6F7E9FE3DB1B9482C38D7
:1093D00000682043B7492C39086006E0B5482C38AE
:1093E0000068A043B3492C39086070BD70B50446CD
:1093F0000D4624F0010008B904B104E040F23151F7
:10940000AB48F6F7CBFE0DB1012D00D104E040F2E0
:109410003251A748F6F7C2FE3DB1A6482838006889
:109420002043A4492839086006E0A248283800688B
:10943000A043A0492839086070BD70B504460D46A8
:109440009A48204008B904B104E04FF4AC61984850
:10945000F6F7A4FE0DB1012D00D104E040F26151F8
:109460009348F6F79BFE3DB19248203800682043B0
:1094700090492039086006E08E4820380068A043F3
:109480008C492039086070BD70B504460D468C4883
:10949000204008B904B104E040F284518448F6F752
:1094A0007DFE0DB1012D00D104E040F285518048D0
:1094B000F6F774FE3DB17F481C38006820437D49B3
:1094C0001C39086006E07B481C380068A0437949D5
:1094D0001C39086070BD70B504460D4679482040BF
:1094E00008B904B104E040F2B2517148F6F756FEF3
:1094F0000DB1012D00D104E040F2B3516C48F6F7F4
:109500004DFE3DB16B481030006820436949103171
:10951000086006E0674810300068A04365491031D4
:10952000086070BD70B504460D4624F0F10008B91E
:1095300004B104E040F2D2515D48F6F72FFE0DB1C0
:10954000012D00D104E040F2D3515948F6F726FE30
:109550003DB1584814300068204356491431086022
:1095600006E0544814300068A043524914310860A2
:1095700070BD70B504460D4624F0010008B904B171
:1095800004E040F2ED514A48F6F708FE0DB1012D16
:1095900000D104E040F2EE514548F6F7FFFD3DB141
:1095A000444818300068204342491831086006E0FA
:1095B000404818300068A0433E491831086070BD2B
:1095C00070B504460D463948204008B904B104E09E
:1095D00040F21F613648F6F7E1FD0DB1012D00D1D3
:1095E00004E04FF4C4613248F6F7D8FD3DB131488C
:1095F0002030006820432F492031086006E02D48C4
:1096000020300068A0432B492031086070BD70B540
:1096100004460D462848204008B904B104E040F251
:1096200047612348F6F7BAFD0DB1012D00D104E0E2
:109630004FF4C9611E48F6F7B1FD3DB11D48243015
:10964000006820431B492431086006E01948243093
:109650000068A04317492431086070BD70B5044606
:109660000D4604F0C00008B904B104E040F2746192
:109670000F48F6F793FD0DB1012D00D104E040F243
:1096800075610B48F6F78AFD3DB10A48333800781A
:10969000204308493339087006E00648333800781B
:1096A000A04304493339087070BD0000003601C979
:1096B0003CE2000840380240CCA0F8FF00EE9FDDFD
:1096C000CCA6F8FF006E98811B48006840F08070BF
:1096D00019490860704770B504460025012C0BD06D
:1096E000022C09D0042C07D0082C05D0102C03D054
:1096F000802C01D0202C00D104E040F2DA610F4828
:10970000F6F74CFD0C4868380068204008B1012588
:1097100000E00025284670BD10B5044604F0400066
:1097200008B904B104E040F2F9610448F6F736FDE7
:1097300001486638047010BD743802403CE20008ED
:1097400010B50446FE48844226D0B4F1804F23D0A1
:10975000FC48844220D0FC4884421DD0FB4884420F
:109760001AD0FB48844217D0FA48844214D0FA48F1
:10977000844211D0F94884420ED0F94884420BD07B
:10978000F848844208D0F848844205D0F74884421B
:1097900002D0F748844200D103E0C521F548F6F72E
:1097A000FDFCE748844208D101210846FFF76CFE22
:1097B00000210120FFF768FE9DE0B4F1804F08D141
:1097C00001210846FFF739FE00210120FFF735FE91
:1097D00091E0DC48844208D101210220FFF72DFEF0
:1097E00000210220FFF729FE85E0D748844208D1F6
:1097F00001210420FFF721FE00210420FFF71DFEB8
:1098000079E0D248844208D101210820FFF715FEF3
:1098100000210820FFF711FE6DE0CD48844208D1F9
:1098200001211020FFF709FE00211020FFF705FE9F
:1098300061E0C848844208D101212020FFF7FDFDE6
:1098400000212020FFF7F9FD55E0C348844208D1EC
:1098500001210220FFF718FE00210220FFF714FE6D
:1098600049E0BE48844209D101210804FFF70CFEFB
:1098700000214FF48030FFF707FE3CE0B8488442F7
:1098800009D101214804FFF7FFFD00214FF400300A
:10989000FFF7FAFD2FE0B348844209D10121880483
:1098A000FFF7F2FD00214FF48020FFF7EDFD22E0ED
:1098B000AD48844208D101214020FFF7BEFD0021C0
:1098C0004020FFF7BAFD16E0A848844208D10121E4
:1098D0008020FFF7B2FD00218020FFF7AEFD0AE0F7
:1098E000A348844207D101218015FFF7A6FD00217E
:1098F000A015FFF7A2FD10BD70B504460D46002669
:109900008F48844226D0B4F1804F23D08D488442C2
:1099100020D08D4884421DD08C4884421AD08C4877
:10992000844217D08B48844214D08B48844211D093
:109930008A4884420ED08A4884420BD089488442A7
:1099400008D08948844205D08848844202D088489B
:10995000844200D104E040F21F118648F6F71EFC55
:10996000688858B16888102808D06888202805D0F1
:109970006888402802D06888602800D104E04FF44D
:1099800090717C48F6F70AFC288938B12889B0F52F
:10999000807F03D02889B0F5007F00D104E040F239
:1099A00021117448F6F7FAFB2688654884420ED0E8
:1099B000694884420BD0B4F1804F08D0614884429A
:1099C00005D06148844202D06048844204D14FF6F9
:1099D0008F700640688806435D48844207D05D4822
:1099E000844204D04FF6FF40064028890643268073
:1099F0006868E062288820855148844202D0564831
:109A0000844201D1A87A20860120A08270BD4FF047
:109A1000FF314160002101800181418081727047E6
:109A200070B504460E4615464548844226D0B4F12A
:109A3000804F23D04348844220D0434884421DD0E5
:109A4000424884421AD04248844217D04148844256
:109A500014D04148844211D0404884420ED040483E
:109A600084420BD03F48844208D03F48844205D00E
:109A70003E48844202D03E48844200D104E040F295
:109A800065113C48F6F78AFB0DB1012D00D104E0C9
:109A90004FF4B3713748F6F781FB2685A58270BD78
:109AA00070B504460D460026254884420ED0B4F118
:109AB000804F0BD02348844208D02348844205D0ED
:109AC0002248844202D02448844200D104E04FF46A
:109AD000BF712848F6F762FB3DB1102D05D0202D4F
:109AE00003D0402D01D0602D00D104E040F27F1161
:109AF0002048F6F753FB26884FF68F7006402E431A
:109B0000268070BD70B504460D460D48844243D092
:109B1000B4F1804F40D00B4884423DD00A48844283
:109B20003AD00A48844237D00948844234D00948A0
:109B3000844231D0084884422ED0084884421BE039
:109B4000000001400004004000080040000C0040FC
:109B5000001000400014004000040140004001409B
:109B6000004401400048014000180040001C004033
:109B70000020004090E200080ED0FC4884420BD048
:109B8000FB48844208D0FB48844205D0FA4884420E
:109B900002D0FA48844200D104E04FF4CB71F84877
:109BA000F6F7FCFA656270BD70B504460D46F548DF
:109BB000844226D0B4F1804F23D0F348844220D091
:109BC000F24884421DD0F24884421AD0F1488442BF
:109BD00017D0F148844214D0F048844211D0F048A4
:109BE00084420ED0E14884420BD0E148844208D040
:109BF000E048844205D0E048844202D0DF488442F5
:109C000000D104E040F2A511DD48F6F7C7FAE5629D
:109C100070BD10B50446DB48844226D0B4F1804FB5
:109C200023D0D948844220D0D84884421DD0D84877
:109C300084421AD0D748844217D0D748844214D0DF
:109C4000D648844211D0D64884420ED0C7488442B8
:109C50000BD0C748844208D0C648844205D0C648C5
:109C6000844202D0C548844200D104E040F2B311DE
:109C7000C348F6F793FA606A10BD10B50446C148B0
:109C8000844226D0B4F1804F23D0BF48844220D0F4
:109C9000BE4884421DD0BE4884421AD0BD4884428A
:109CA00017D0BD48844214D0BC48844211D0BC486F
:109CB00084420ED0AD4884420BD0AD48844208D0D7
:109CC000AC48844205D0AC48844202D0AB488442C0
:109CD00000D104E040F2C111A948F6F75FFA208DE7
:109CE00010BD70B504460D46A648844226D0B4F196
:109CF000804F23D0A448844220D0A44884421DD061
:109D0000A34884421AD0A348844217D0A248844270
:109D100014D0A248844211D0A14884420ED0934866
:109D200084420BD09248844208D09248844205D0A5
:109D30009148844202D09148844200D104E040F22C
:109D4000D1118F48F6F72AFA0DB1012D00D104E0A8
:109D50004FF4E9718A48F6F721FA25B1208840F0DE
:109D60000200208004E020884FF6FD71084020802A
:109D700070BD70B504460D468248844226D0B4F1C9
:109D8000804F23D08048844220D0804884421DD018
:109D90007F4884421AD07F48844217D07E4884424C
:109DA00014D07E48844211D07D4884420ED06F4842
:109DB00084420BD06E48844208D06E48844205D05D
:109DC0006D48844202D06D48844200D104E04FF4D3
:109DD000F7716B48F6F7E2F90DB1012D00D104E0FF
:109DE00040F2EF116648F6F7D9F925B1208840F026
:109DF0000400208004E020884FF6FB71084020809A
:109E000070BD70B504460D465E48844226D0B4F15C
:109E1000804F23D05C48844220D05C4884421DD0CF
:109E20005B4884421AD05B48844217D05A48844227
:109E300014D05A48844211D0594884420ED04B481D
:109E400084420BD04A48844208D04A48844205D014
:109E50004948844202D04948844200D104E040F29B
:109E600007214748F6F79AF90DB1012D00D104E01A
:109E70004FF402714248F6F791F925B1208840F07D
:109E80008000208004E020884FF67F710840208009
:109E900070BD70B504460D463A48844226D0B4F1F0
:109EA000804F23D03848844220D0384884421DD087
:109EB000374884421AD03748844217D03648844203
:109EC00014D03648844211D0354884420ED02748F9
:109ED00084420BD02648844208D02648844205D0CC
:109EE0002548844202D02548844200D104E040F253
:109EF00022212348F6F752F9082D00D005B904E0D5
:109F000040F223211E48F6F749F920884FF6F771F1
:109F10000840208020882843208070BD70B504460A
:109F20000D461848844220D0B4F1804F1DD0164809
:109F300084421AD01548844217D01548844214D060
:109F40001648844211D0164884420ED007488442F5
:109F50000BD00748844208D00648844205D0064802
:109F6000844202D0054884421CD120E000440140D4
:109F70000048014000180040001C00400020004044
:109F800090E200080000014000040040000800408A
:109F9000000C00400010004000140040000401408C
:109FA0000040014040F23921FC48F6F7F7F82DB1A6
:109FB000B5F5807F02D0B5F5007F00D104E040F216
:109FC0003A21F648F6F7EAF820884FF6FF410840B4
:109FD000208020882843208070BD70B504460D463F
:109FE000EF48844226D0B4F1804F23D0ED4884421C
:109FF00020D0ED4884421DD0EC4884421AD0EC4871
:10A00000844217D0EB48844214D0EB48844211D0EC
:10A01000EA4884420ED0EA4884420BD0E9488442A0
:10A0200008D0E948844205D0E848844202D0E84894
:10A03000844200D104E040F24D21D848F6F7AEF852
:10A040000DB1012D00D104E040F24E21D348F6F7C6
:10A05000A5F825B1208840F00100208004E0208888
:10A060004FF6FE710840208070BD2DE9F041054695
:10A070000C464FF0000800260027C948854220D032
:10A08000B5F1804F1DD0C74885421AD0C6488542D9
:10A0900017D0C648854214D0C748854211D0C7485A
:10A0A00085420ED0C64885420BD0C648854208D0AE
:10A0B000C548854205D0C548854202D0C44885427E
:10A0C00000D104E040F29E21B448F6F767F82088FA
:10A0D00070B1208810280BD02088202808D0208834
:10A0E000302805D02088602802D02088702800D130
:10A0F00004E040F29F21A948F6F750F8608810B1BB
:10A100006088012800D104E04FF42871A348F6F7D5
:10A1100045F8A08910B1A089022800D104E040F2DE
:10A12000A1219E48F6F73AF8288C4FF6FE710840B8
:10A1300028842E8CAF88B5F818804FF68F7008EA07
:10A140000008881E08EA0008208840EA0808481E1F
:10A150000640A0890643608806439148854202D0A4
:10A160009548854241D1A08810B1A088042800D12B
:10A1700004E040F2BE218948F6F710F8E08910B1FA
:10A18000E089082800D104E040F2BF218348F6F7B7
:10A1900005F8608AB0F5007F01D0608A00B904E05C
:10A1A0004FF430717D48F5F7F9FF208AB0F5807FD4
:10A1B00001D0208A00B904E040F2C1217748F5F7C8
:10A1C000EDFF4FF6F7700640E08906434FF6FB704F
:10A1D0000640A08806434FF6FF6007404FF6FF5049
:10A1E0000740208A0743608A0743AF80A5F818809C
:10A1F000A06868632E84BDE8F0812DE9F041054632
:10A200000C464FF00008002600276548854214D010
:10A21000B5F1804F11D0634885420ED06248854227
:10A220000BD06248854208D06348854205D0634818
:10A23000854202D06448854200D104E040F2EF211B
:10A240005648F5F7ABFF208870B1208810280BD056
:10A250002088202808D02088302805D02088602831
:10A2600002D02088702800D104E04FF43C714B48A4
:10A27000F5F794FF608810B16088012800D104E0F0
:10A2800040F2F1214548F5F789FFA08910B1A08976
:10A29000022800D104E040F2F2214048F5F77EFFA9
:10A2A000288C4FF6EF71084028842E8CAF88B5F8C3
:10A2B000188048F6FF7008EA00084FF6FF4008EAE9
:10A2C000000820884FF6FF7101EA002040EA0808E4
:10A2D0004FF6DF700640A08901EA0010064360884F
:10A2E00001EA001006432E48854202D032488542DA
:10A2F0004BD1A08810B1A088042800D104E04FF40D
:10A3000044712648F5F74AFFE08910B1E089082832
:10A3100000D104E040F211312048F5F73FFF608A98
:10A32000B0F5007F01D0608A00B904E040F212313C
:10A330001A48F5F733FF208AB0F5807F01D0208AD4
:10A3400000B904E040F213311448F5F727FF4FF647
:10A350007F700640E0894FF6FF7101EA0010064366
:10A360004FF6BF700640A08801EA001006434FF682
:10A37000FF3007404FF2FF700740208A01EA80005B
:10A380000743608A01EA80000743AF80A5F8188080
:10A39000A068A8632E84BDE8F081000090E2000868
:10A3A000000001400004004000080040000C004094
:10A3B0000010004000140040000401400040014033
:10A3C000004401400048014000180040001C0040CB
:10A3D000002000402DE9F04105460C464FF00008F2
:10A3E00000260027FE4885420ED0B5F1804F0BD0E5
:10A3F000FC48854208D0FC48854205D0FB48854290
:10A4000002D0FB48854200D104E04FF45071F94876
:10A41000F5F7C4FE208870B1208810280BD0208862
:10A42000202808D02088302805D02088602802D035
:10A430002088702800D104E040F24131ED48F5F762
:10A44000ADFE608810B16088012800D104E040F2C0
:10A450004231E848F5F7A2FEA08910B1A089022890
:10A4600000D104E040F24331E248F5F797FE288C32
:10A470004FF6FF61084028842E8CAF88B5F81C8009
:10A480004FF68F7008EA00084FF6FC7008EA0008E3
:10A49000208840EA08084FF6FF500640A0894FF692
:10A4A000FF7101EA00200643608801EA00200643AC
:10A4B000CB48854202D0CE4885424BD1A08810B10E
:10A4C000A088042800D104E04FF45871C948F5F77A
:10A4D00065FEE08910B1E089082800D104E040F26F
:10A4E0006131C448F5F75AFE608AB0F5007F01D0AB
:10A4F000608A00B904E040F26231BE48F5F74EFED2
:10A50000208AB0F5807F01D0208A00B904E040F2B3
:10A510006331B848F5F742FE4FF2FF700640E0891C
:10A520004FF6FF7101EA002006434FF6FF30064068
:10A53000A08801EA002006434EF6FF7007404DF662
:10A54000FF700740208A01EA00100743608A01EA91
:10A5500000100743AF80A5F81C80A068E8632E8434
:10A56000BDE8F0812DE9F04104460D4600270026A4
:10A57000B0469B4884420ED0B4F1804F0BD099482E
:10A58000844208D09848844205D09848844202D03A
:10A590009748844200D104E04FF464719548F5F780
:10A5A000FDFD288870B1288810280BD02888202825
:10A5B00008D02888302805D02888602802D028882C
:10A5C000702800D104E040F291318A48F5F7E6FDA9
:10A5D000688810B16888012800D104E040F2923107
:10A5E0008448F5F7DBFDA88910B1A889022800D1BD
:10A5F00004E040F293317F48F5F7D0FD208C4EF611
:10A60000FF7108402084268CB4F80480A78B48F69C
:10A61000FF7007404FF6FF40074028884FF6FF7154
:10A6200001EA002007434DF6FF700640A88901EAC1
:10A6300000300643688801EA0030064368488442D7
:10A6400002D06B48844216D1288AB0F5807F01D0B1
:10A65000288A00B904E040F2B1316648F5F79EFD62
:10A660004BF6FF7008EA0008288A4FF6FF7101EAEE
:10A67000801040EA0808A4F80480A783A868206432
:10A680002684BDE8F08100210180418081808160C5
:10A690008181C1810182418270472DE9F0410446E8
:10A6A0000F4615460026B0464D48844220D0B4F1EE
:10A6B000804F1DD04B4884421AD04B48844217D05B
:10A6C0004A48844214D04A48844211D04A488442BD
:10A6D0000ED04A4884420BD04948844208D04948A9
:10A6E000844205D04848844202D04848844200D180
:10A6F00004E04FF47D713F48F5F750FD2FB1042F72
:10A7000003D0082F01D00C2F00D104E040F2F53126
:10A710003848F5F743FD6DB1102D0BD0202D09D031
:10A72000302D07D0602D05D0702D03D0502D01D0D5
:10A73000402D00D104E040F2F6312E48F5F72EFD11
:10A74000264618360120B8401FFA80F8208C20EAEF
:10A75000080020840FB1082F0AD106EB6706306885
:10A760004FF68F71084030603068284330600FE04A
:10A77000381FC0F34E000644306848F6FF710840A9
:10A78000306030684FF6FF7101EA05210843306000
:10A79000BDE8F08170B504460D461148844239D0B9
:10A7A000B4F1804F36D00F48844233D00E488442F3
:10A7B00030D00E4884422DD00D4884422AD00E4815
:10A7C000844227D00D48844224D00D48844221D0B1
:10A7D0000C4884421ED00C4884421BD00B4817E022
:10A7E000000001400004004000080040000C004050
:10A7F0000004014090E20008004001400044014094
:10A800000048014000180040001C004000200040AB
:10A81000844200D104E040F21F41FB48F5F7BEFC42
:10A82000656370BD70B504460D46F848844214D087
:10A83000B4F1804F11D0F64884420ED0F5488442DE
:10A840000BD0F548844208D0F448844205D0F4483F
:10A85000844202D0F348844200D104E040F22F4108
:10A86000E948F5F79BFCA56370BD70B504460D463D
:10A87000E64884420ED0B4F1804F0BD0E4488442C5
:10A8800008D0E448844205D0E348844202D0E3483B
:10A89000844200D104E040F23E41DB48F5F77EFC03
:10A8A000E56370BD70B504460D46D84884420ED0AD
:10A8B000B4F1804F0BD0D648844208D0D5488442AA
:10A8C00005D0D548844202D0D448844200D104E067
:10A8D00040F24D41CC48F5F761FC256470BD70B580
:10A8E00004460D460026C948844220D0B4F1804F6A
:10A8F0001DD0C74884421AD0C648844217D0C648E3
:10A90000844214D0C548844211D0C54884420ED038
:10A91000C54884420BD0C548844208D0C14884420F
:10A9200005D0C348844202D0C248844200D104E02A
:10A9300040F26141B448F5F731FC502D01D0402D73
:10A9400000D104E040F26241AF48F5F727FC268BC6
:10A950004FF68F7006402E43268370BD70B50446B7
:10A960000D460026A948844214D0B4F1804F11D07E
:10A97000A74884420ED0A74884420BD0A648844200
:10A9800008D0A648844205D0A548844202D0A548F4
:10A99000844200D104E040F27E419B48F5F7FEFB83
:10A9A000502D01D0402D00D104E040F27F41964867
:10A9B000F5F7F4FB268B48F6FF7006404FF6FF7064
:10A9C00000EA05200643268370BD70B504460D4697
:10A9D00000268E4884420ED0B4F1804F0BD08C48B4
:10A9E000844208D08B48844205D08B48844202D0F0
:10A9F0008A48844200D104E040F29A418248F5F747
:10AA0000CDFB502D01D0402D00D104E040F29B4100
:10AA10007D48F5F7C3FBA68B4FF68F7006402E439B
:10AA2000A68370BD70B504460D4600267748844263
:10AA30000ED0B4F1804F0BD07548844208D07548D1
:10AA4000844205D07448844202D07448844200D1C4
:10AA500004E040F2B7416C48F5F7A0FB502D01D05F
:10AA6000402D00D104E04FF497616748F5F796FB5D
:10AA7000A68B48F6FF7006404FF6FF7000EA0520EF
:10AA80000643A68370BD70B504460D4600265F4898
:10AA9000844220D0B4F1804F1DD05D4884421AD04A
:10AAA0005C48844217D05C48844214D05B4884429E
:10AAB00011D05B4884420ED05B4884420BD05B4887
:10AAC000844208D05748844205D05948844202D075
:10AAD0005848844200D104E040F2D3414A48F5F797
:10AAE0005DFB082D00D005B904E040F2D441464892
:10AAF000F5F754FB268B4FF6F77006402E4326835E
:10AB000070BD70B504460D4600264048844214D0FE
:10AB1000B4F1804F11D03E4884420ED03D4884426B
:10AB20000BD03D48844208D03C48844205D03C4884
:10AB3000844202D03B48844200D104E040F2F1411B
:10AB40003148F5F72BFB082D00D005B904E040F2A1
:10AB5000F2412D48F5F722FB268B4FF2FF7006409D
:10AB60004FF6FF7000EA05200643268370BD70B5DE
:10AB700004460D460026254884420ED0B4F1804F8D
:10AB80000BD02348844208D02248844205D0224872
:10AB9000844202D02148844200D104E040F20E51A8
:10ABA0001948F5F7FBFA082D00D005B904E040F28A
:10ABB0000F511548F5F7F2FAA68B4FF6F7700640DD
:10ABC0002E43A68370BD70B504460D4600260F487F
:10ABD00084420ED0B4F1804F0BD00D48844208D08F
:10ABE0000C48844205D00C48844202D00B48844271
:10ABF00000D104E040F22B510348F5F7CFFA082DBD
:10AC000000D0CDB91DE0000090E200080000014036
:10AC10000004004000080040000C00400004014017
:10AC2000004001400018004000440140004801403D
:10AC3000001C00400020004040F22C51FA48F5F77B
:10AC4000ADFAA68B4FF2FF7006404FF6FF7000EA98
:10AC500005200643A68370BD70B504460D46002648
:10AC6000F248844220D0B4F1804F1DD0F048844295
:10AC70001AD0F048844217D0EF48844214D0EF48ED
:10AC8000844211D0EE4884420ED0EE4884420BD06C
:10AC9000ED48844208D0ED48844205D0EC48844217
:10ACA00002D0EC48844200D104E04FF4A961DE48B0
:10ACB000F5F774FA042D00D005B904E040F24951CB
:10ACC000D948F5F76BFA268B4FF6FB7006402E43FA
:10ACD000268370BD70B504460D460026D3488442D5
:10ACE00014D0B4F1804F11D0D14884420ED0D14855
:10ACF00084420BD0D048844208D0D048844205D04A
:10AD0000CF48844202D0D148844200D104E040F2CE
:10AD10006751C548F5F742FA042D00D005B904E0A3
:10AD20004FF4AD61C048F5F739FA268B4FF6FF3086
:10AD300006404FF6FF7000EA05200643268370BDEB
:10AD400070B504460D460026B84884420ED0B4F1D2
:10AD5000804F0BD0B648844208D0B648844205D014
:10AD6000B548844202D0B548844200D104E040F2A4
:10AD70008551AD48F5F712FA042D00D005B904E06D
:10AD800040F28651A848F5F709FAA68B4FF6FB70FA
:10AD900006402E43A68370BD70B504460D460026BE
:10ADA000A24884420ED0B4F1804F0BD0A048844218
:10ADB00008D0A048844205D09F48844202D09F48D2
:10ADC000844200D104E040F2A3519748F5F7E6F938
:10ADD000042D00D005B904E040F2A4519248F5F7E3
:10ADE000DDF9A68B4FF6FF3006404FF6FF7000EA04
:10ADF00005200643A68370BD70B504460D460026A7
:10AE00008A48844220D0B4F1804F1DD088488442C3
:10AE10001AD08848844217D08748844214D0874883
:10AE2000844211D0864884420ED0864884420BD09A
:10AE30008548844208D08548844205D084488442AD
:10AE400002D08448844200D104E040F2C1517648E7
:10AE5000F5F7A4F9802D00D005B904E040F2C25105
:10AE60007148F5F79BF9268B4FF67F7006402E430D
:10AE7000268370BD70B504460D4600266B4884429B
:10AE800014D0B4F1804F11D0694884420ED0694883
:10AE900084420BD06848844208D06848844205D078
:10AEA0006748844202D06948844200D104E040F2FD
:10AEB000DF515D48F5F772F9802D00D005B904E047
:10AEC0004FF4BC615848F5F769F9268BC6F30E06B6
:10AED0004FF6FF7000EA05200643268370BD70B56B
:10AEE00004460D460026514884420ED0B4F1804FEE
:10AEF0000BD04F48844208D04E48844205D04E487B
:10AF0000844202D04D48844200D104E040F2FC511A
:10AF10004548F5F743F9802D00D005B904E040F22B
:10AF2000FD514148F5F73AF9A68B4FF67F70064080
:10AF30002E43A68370BD70B504460D4600263B48DF
:10AF400084420ED0B4F1804F0BD03948844208D0EF
:10AF50003848844205D03848844202D03748844279
:10AF600000D104E040F219612F48F5F717F9802D60
:10AF700000D005B904E040F21A612B48F5F70EF94C
:10AF8000A68BC6F30E064FF6FF7000EA05200643B7
:10AF9000A68370BD70B504460D4600262348844242
:10AFA00020D0B4F1804F1DD0214884421AD02148CE
:10AFB000844217D02048844214D02048844211D0C3
:10AFC0001F4884420ED01F4884420BD01E48844242
:10AFD00008D01E48844205D01D48844202D01D4836
:10AFE000844200D104E040F236610F48F5F7D6F80C
:10AFF0000DB1022D00D104E040F237610A48F5F7A7
:10B00000CDF8268C4FF6FD7006402E43268470BD89
:10B0100070B504460D4600260448844202D0074815
:10B02000844219D11DE0000090E2000800000140B8
:10B030000004004000080040000C004000040140F3
:10B040000040014000440140004801400018004019
:10B05000001C0040002000404FF4CA61FC48F5F796
:10B060009DF80DB1082D00D104E040F25161F8487F
:10B07000F5F794F8268C4FF6F77006402E43268499
:10B0800070BD70B504460D460026F248844214D0C7
:10B09000B4F1804F11D0F04884420ED0EF48844282
:10B0A0000BD0EF48844208D0EE48844205D0EE48E9
:10B0B000844202D0ED48844200D104E040F26C6149
:10B0C000E348F5F76BF80DB1022D00D104E040F232
:10B0D0006D61DF48F5F762F8268C4FF6DF700640A9
:10B0E0004FF6FF7000EA05100643268470BD70B568
:10B0F00004460D460026D748844202D0D9488442EF
:10B1000000D104E040F28761D148F5F747F80DB16E
:10B11000082D00D104E04FF4D161CD48F5F73EF899
:10B12000268C4FF67F7006404FF6FF7000EA051040
:10B130000643268470BD70B504460D460026C548FA
:10B1400084420ED0B4F1804F0BD0C348844208D063
:10B15000C248844205D0C248844202D0C1488442D9
:10B1600000D104E040F2A261B948F5F717F80DB13B
:10B17000022D00D104E040F2A361B548F5F70EF8C6
:10B18000268C4FF6FF5006404FF6FF7000EA052070
:10B190000643268470BD70B504460D460026AD48B2
:10B1A000844202D0AF48844200D104E040F2BD6145
:10B1B000A748F4F7F3FF0DB1082D00D104E040F2E9
:10B1C000BE61A348F4F7EAFF268C4FF2FF700640F9
:10B1D0004FF6FF7000EA05200643268470BD70B567
:10B1E00004460D4600269B4884420ED0B4F1804FA1
:10B1F0000BD09948844208D09848844205D098489A
:10B20000844202D09748844200D104E04FF4DB61CD
:10B210008F48F4F7C3FF0DB1022D00D104E040F2D6
:10B22000D9618B48F4F7BAFF268C4DF6FF700640C3
:10B230004FF6FF7000EA05300643268470BD2DE905
:10B24000F04104460D46164600278248844220D02D
:10B25000B4F1804F1DD0804884421AD07F48844288
:10B2600017D07F48844214D07E48844211D07E4853
:10B2700084420ED07E4884420BD07E48844208D05F
:10B280007A48844205D07C48844202D07B4884427C
:10B2900000D104E040F2F7616D48F4F77FFF2DB173
:10B2A000042D03D0082D01D00C2D00D104E04FF463
:10B2B000DF616748F4F772FF012E00D006B904E0A1
:10B2C00040F2F9616248F4F769FF0120A84087B2B3
:10B2D000208CB8432084208C06FA05F189B20843FB
:10B2E0002084BDE8F0812DE9F04104460D46164664
:10B2F00000275848844202D05A48844200D104E0D2
:10B3000040F215715248F4F749FF1DB1042D01D0E8
:10B31000082D00D104E040F216714D48F4F73EFFCD
:10B32000042E00D006B904E040F217714848F4F743
:10B3300035FF0420A84087B2208CB8432084208C9D
:10B3400006FA05F189B208432084BDE8F08170B5A2
:10B3500004460D463F4884420ED0B4F1804F0BD0D6
:10B360003D48844208D03D48844205D03C48844250
:10B3700002D03C48844200D104E040F671013448D8
:10B38000F4F70CFF2DB1042D03D0082D01D00C2DA6
:10B3900000D104E040F672012D48F4F7FFFEA08BC7
:10B3A0004FF2FF310840A083A08B4FF6FF7101EAF6
:10B3B00005210843A08370BDF0B50C461546002159
:10B3C00000220026078C4EF6FF7C07EA0C07078454
:10B3D000818B028C4FF6FF7707EA043640F6FF4771
:10B3E00039404FF6FF7707EA052739434FF6FF77D5
:10B3F00007EA0337394345F6FF773A4046F480576A
:10B400003A4381830284F0BD70B504460D4611486D
:10B4100084420ED0B4F1804F0BD00F48844208D044
:10B420000E48844205D00E48844202D00D48844222
:10B4300000D104E040F659010548F4F7AFFE2DB104
:10B44000042D03D0082D01D00C2D19D11DE00000D2
:10B4500090E20008000001400004004000080040A5
:10B46000000C004000040140004001400018004072
:10B470000044014000480140001C00400020004002
:10B4800040F65A01FE48F4F789FEA08B4FF6F3719F
:10B490000840A083A08B2843A08370BDF0B50C4664
:10B4A0001546002100220026078C4FF6FF6C07EAA4
:10B4B0000C070784818B028C4FF6FF7707EA04267E
:10B4C0004FF60C7739404FF6FF7707EA03172F4303
:10B4D00039434FF2FF573A4046F480773A4381832D
:10B4E0000284F0BD70B504460D46E648844214D08F
:10B4F000B4F1804F11D0E44884420ED0E348844236
:10B500000BD0E348844208D0E248844205D0E248A8
:10B51000844202D0E148844200D104E040F6410177
:10B52000D748F4F73BFE2DB1042D03D0082D01D0F0
:10B530000C2D00D104E040F64201D148F4F72EFE74
:10B54000208B4FF2FF3108402083208B4FF6FF7194
:10B5500001EA05210843208370BDF0B50C4615466D
:10B56000002100220026078C4FF6EF7C07EA0C072B
:10B570000784018B028C4FF6FF7707EA041640F62A
:10B58000FF4739404FF6FF7707EA033739434FF655
:10B59000FF7707EA052739434FF65F773A4046F0D1
:10B5A00010073A4301830284F0BD70B504460D468E
:10B5B000B448844220D0B4F1804F1DD0B2488442B8
:10B5C0001AD0B248844217D0B148844214D0B1484E
:10B5D000844211D0B04884420ED0B14884420BD08E
:10B5E000B048844208D0AD48844205D0AE48844279
:10B5F00002D0AE48844200D104E040F62801A048C1
:10B60000F4F7CCFD2DB1042D03D0082D01D00C2D65
:10B6100000D104E040F629019948F4F7BFFD208BE2
:10B620004FF6F37108402083208B2843208370BDA0
:10B63000F0B50C46154600210022068C4FF6FE7729
:10B640003E400684018B028C4FF60C7631407E1C06
:10B6500006EA03162E4331434FF6F576324044F0A6
:10B660000106324301830284F0BD70B504460D46E5
:10B670008448844220D0B4F1804F1DD08248844257
:10B680001AD08248844217D08148844214D081481D
:10B69000844211D0804884420ED0814884420BD02D
:10B6A0008048844208D07D48844205D07E48844248
:10B6B00002D07E48844200D104E040F265717048B7
:10B6C000F4F76CFD688828B16888022802D0688881
:10B6D0000A2800D104E040F266716948F4F75EFD83
:10B6E000A888012805D0A888022802D0A8880328A5
:10B6F00000D104E040F267716148F4F74FFDE8883B
:10B7000040B1E888042805D0E888082802D0E888F5
:10B710000C2800D104E04FF4ED615948F4F73EFDE8
:10B7200028890F2800DC04E040F269715448F4F7DE
:10B7300035FD288850B92B89AA8869882046FFF7EB
:10B7400077FFE9882046FFF730FF73E02888042858
:10B7500028D14C48844214D0B4F1804F11D04A48CB
:10B7600084420ED0494884420BD04948844208D0D4
:10B770004848844205D04848844202D04748844221
:10B7800000D104E040F277713D48F4F707FD2B89C2
:10B79000AA8869882046FFF7E0FEE9882046FFF77F
:10B7A000A1FE47E02888082822D1364884420ED0DE
:10B7B000B4F1804F0BD03448844208D033488442DF
:10B7C00005D03348844202D03248844200D104E09C
:10B7D00040F281712A48F4F7E1FC2B89AA88698834
:10B7E0002046FFF75BFEE9882046FFF70DFE21E0CB
:10B7F000244884420ED0B4F1804F0BD022488442BA
:10B8000008D02248844205D02148844202D02148F1
:10B81000844200D104E040F28B711948F4F7BEFC79
:10B820002B89AA8869882046FFF7C6FDE98820464B
:10B83000FFF78DFD70BD00210180418001218180D5
:10B840000021C180018170472DE9F04105460C4679
:10B85000002601270B4885422DD0B5F1804F2AD014
:10B860000948854227D00948854224D008488542A6
:10B8700021D0084885421ED0074885421BD017E0DA
:10B8800090E2000800000140000400400008004071
:10B89000000C00400004014000400140001800403E
:10B8A0000044014000480140001C004000200040CE
:10B8B000F848854200D104E040F2B371F648F4F74D
:10B8C0006DFC608808B9022600E00026A0880128E7
:10B8D00001D1022700E001272088A0B92389A2888E
:10B8E00061882846FFF7A4FEE1882846FFF75DFE41
:10B8F00023893A4631462846FFF72FFEE18828463D
:10B90000FFF7F0FD13E02389A28861882846FFF73E
:10B9100024FEE1882846FFF7E5FD23893A463146B3
:10B920002846FFF785FEE1882846FFF73EFEBDE882
:10B93000F08110B50446D948844220D0B4F1804F3C
:10B940001DD0D74884421AD0D648844217D0D64852
:10B95000844214D0D548844211D0D54884420ED0B8
:10B96000D44884420BD0D448844208D0C948844289
:10B9700005D0D248844202D0D148844200D104E0AC
:10B9800040F2E971C448F4F709FC606B10BD10B5D2
:10B990000446C248844214D0B4F1804F11D0C0484C
:10B9A00084420ED0BF4884420BD0BF48844208D0A6
:10B9B000BE48844205D0BE48844202D0B548844285
:10B9C00000D104E04FF4FF61B348F4F7E7FBA06B4C
:10B9D00010BD10B50446B14884420ED0B4F1804F7A
:10B9E0000BD0AF48844208D0AE48844205D0AE4860
:10B9F000844202D0AD48844200D104E040F6060102
:10BA0000A548F4F7CBFBE06B10BD10B50446A34886
:10BA100084420ED0B4F1804F0BD0A148844208D0AC
:10BA2000A048844205D0A048844202D09F48844266
:10BA300000D104E040F614019748F4F7AFFB206C06
:10BA400010BD70B505460C469448854202D0974813
:10BA5000854200D104E040F6A6018F48F4F79EFB32
:10BA60002088B0F5006F01D0208800B904E040F6CE
:10BA7000A7018948F4F792FB6088B0F5806F01D088
:10BA8000608800B904E040F6A8018348F4F786FB1B
:10BA9000A08858B1A088B0F5807F07D0A088B0F505
:10BAA000007F03D0A088B0F5407F00D104E040F6CD
:10BAB000A9017948F4F772FB2089B0F5805F01D0C5
:10BAC000208900B904E040F6AA017348F4F766FB48
:10BAD000608918B16089B0F5005F00D104E040F6DC
:10BAE000AB016D48F4F75AFBA089B0F5804F01D047
:10BAF000A08900B904E040F6AC016748F4F74EFBBA
:10BB0000208861880843A1880843E1880843218987
:10BB1000084361890843A1890843A5F8440070BD22
:10BB20000021018041808180C1800181418181812A
:10BB3000704770B504460D465848844202D05B48B1
:10BB4000844200D104E040F6D2015348F4F726FBCA
:10BB50000DB1012D00D104E040F6D3014E48F4F7B9
:10BB60001DFB35B1B4F8440040F40040A4F8440093
:10BB700005E0B4F84400C0F30E00A4F8440070BD22
:10BB800070B504460D464548844202D04748844279
:10BB900000D104E040F6EB013F48F4F7FFFA0DB1A5
:10BBA000012D00D104E040F6EC013B48F4F7F6FA31
:10BBB00025B1A08840F00400A08004E0A0884FF6E2
:10BBC000FB710840A08070BD70B504460D46334837
:10BBD000844202D03548844200D104E040F604118A
:10BBE0002D48F4F7DBFA0DB1012D00D104E040F649
:10BBF00005112948F4F7D2FA25B1A08840F00100D8
:10BC0000A08004E0A0884FF6FE710840A08070BDBF
:10BC100070B504460D4616462048844226D0B4F13D
:10BC2000804F23D01E48844220D01E4884421DD01D
:10BC30001D4884421AD02348844217D022488442A7
:10BC400014D01A48844211D0194884420ED01948A1
:10BC500084420BD01848844208D00E48844205D054
:10BC60001648844202D01648844200D104E040F6CF
:10BC70003D110948F4F792FA05F47F4008B905B17F
:10BC800004E040F63E110448F4F788FA0EB1012EA4
:10BC90001CD120E00018004090E2000800000140A4
:10BCA0000004004000080040000C00400004014077
:10BCB000004001400044014000480140001C004099
:10BCC00000200040001000400014004040F63F11EA
:10BCD000F748F4F763FA1EB1A0892843A08102E077
:10BCE000A089A843A08170BD70B504460D46F148F7
:10BCF000844226D0B4F1804F23D0EF48844220D034
:10BD0000EE4884421DD0EE4884421AD0ED48844269
:10BD100017D0ED48844214D0EC48844211D0EC484E
:10BD200084420ED0EB4884420BD0EB48844208D0CA
:10BD3000EA48844205D0EA48844202D0E948844275
:10BD400000D104E040F66311D948F4F727FA05F46E
:10BD50007F4008B905B104E040F66411D448F4F717
:10BD60001DFAA58270BD70B504460D460026D14867
:10BD7000844226D0B4F1804F23D0CF48844220D0D3
:10BD8000CE4884421DD0CE4884421AD0CD48844249
:10BD900017D0CD48844214D0CC48844211D0CC482E
:10BDA00084420ED0CB4884420BD0CB48844208D08A
:10BDB000CA48844205D0CA48844202D0C948844255
:10BDC00000D104E040F68511B948F4F7E7F9012DF8
:10BDD00019D0022D17D0042D15D0082D13D0102DF9
:10BDE00011D0202D0FD0402D0DD0802D0BD0B5F5CA
:10BDF000007F08D0B5F5806F05D0B5F5006F02D093
:10BE0000B5F5805F00D104E040F68611A848F4F74C
:10BE1000C5F9208A284008B1012600E000263046F6
:10BE200070BD70B504460D46A248844226D0B4F1D8
:10BE3000804F23D0A048844220D0A04884421DD007
:10BE40009F4884421AD09F48844217D09E4884421B
:10BE500014D09E48844211D09D4884420ED09D4803
:10BE600084420BD09C48844208D09C48844205D030
:10BE70009B48844202D09B48844200D104E040F6B3
:10BE8000AE118B48F4F78AF9E843208270BD2DE9A2
:10BE9000F04104460D4600260027B04685488442FE
:10BEA00026D0B4F1804F23D08348844220D08348E9
:10BEB00084421DD0824884421AD08248844217D0DE
:10BEC0008148844214D08148844211D08048844201
:10BED0000ED0804884420BD07F48844208D07F48EF
:10BEE000844205D07E48844202D07E48844200D1FC
:10BEF00004E040F6CC116E48F4F750F9012D0DD056
:10BF0000022D0BD0042D09D0082D07D0102D05D0FF
:10BF1000202D03D0402D01D0802D00D104E040F62B
:10BF2000CD116348F4F73AF9208A00EA0507A089A1
:10BF300000EA050827B1B8F1000F01D0012600E0A2
:10BF400000263046BDE8F08170B504460D465948DC
:10BF5000844226D0B4F1804F23D05748844220D069
:10BF6000564884421DD0564884421AD055488442CF
:10BF700017D05548844214D05448844211D05448B4
:10BF800084420ED0534884420BD05348844208D098
:10BF90005248844205D05248844202D051488442DB
:10BFA00000D104E040F6F3114148F4F7F7F8E84314
:10BFB000208270BD70B506460C4615463D48864247
:10BFC0000ED0B6F1804F0BD03B48864208D03B489C
:10BFD000864205D03A48864202D03C48864200D18B
:10BFE00004E040F618213248F4F7D8F82CB3012CBD
:10BFF00023D0022C21D0032C1FD0042C1DD0052CC3
:10C000001BD0062C19D0072C17D0082C15D0092CC2
:10C0100013D00A2C11D00B2C0FD00C2C0DD00D2CC2
:10C020000BD00E2C09D00F2C07D0102C05D0112CC2
:10C0300003D0122C01D0132C00D104E040F61921BA
:10C040001B48F4F7ABF895B3B5F5807F2FD0B5F565
:10C05000007F2CD0B5F5407F29D0B5F5806F26D074
:10C06000B5F5A06F23D0B5F5C06F20D0B5F5E06F62
:10C070001DD0B5F5006F1AD0B5F5106F17D0B5F516
:10C08000206F14D0B5F5306F11D0B5F5406F0ED0DC
:10C09000B5F5506F0BD0B5F5606F08D0B5F5706F82
:10C0A00005D0B5F5805F02D0B5F5885F1CD120E0E2
:10C0B00090E2000800000140000400400008004039
:10C0C000000C00400010004000140040000401403B
:10C0D0000040014000440140004801400018004079
:10C0E000001C00400020004040F61A21FA48F4F7F6
:10C0F00055F844EA0500A6F8480070BD70B504463E
:10C100000D461646F548844214D0B4F1804F11D044
:10C11000F34884420ED0F34884420BD0F248844264
:10C1200008D0F248844205D0F148844202D0F14858
:10C13000844200D104E040F63321E748F4F72EF8BA
:10C1400048F2FF00284008B905B104E040F6342168
:10C15000E148F4F723F80EB1012E00D104E040F6D7
:10C160003521DD48F4F71AF81EB1A0892843A081D3
:10C1700002E0A089A843A08170BD70B504460D46B9
:10C18000D64884420ED0B4F1804F0BD0D4488442BC
:10C1900008D0D448844205D0D348844202D0D54840
:10C1A000844200D104E040F64D21CB48F3F7F6FF7E
:10C1B0000DB1012D00D104E040F64E21C648F3F741
:10C1C000EDFF25B1A08840F00800A08004E0A08821
:10C1D0004FF6F7710840A08070BD10B50446BF4807
:10C1E000844214D0B4F1804F11D0BD4884420ED0A7
:10C1F000BC4884420BD0BC48844208D0BD4884422D
:10C2000005D0BD48844202D0BC48844200D104E03D
:10C2100040F67421B048F3F7C1FF20894FF6F8715A
:10C220000840208110BD70B504460D460026AB487D
:10C23000844220D0B4F1804F1DD0A94884421AD046
:10C24000A848844217D0A848844214D0A948844200
:10C2500011D0A94884420ED0A94884420BD0A948E5
:10C26000844208D0A548844205D0A748844202D021
:10C27000A648844200D104E040F644319648F3F7E2
:10C280008DFF6DB1102D0BD0202D09D0302D07D092
:10C29000402D05D0502D03D0602D01D0702D00D140
:10C2A00004E040F645318C48F3F778FF26894FF6D5
:10C2B0008F7006402E43268170BD70B504460D4632
:10C2C0008648844214D0B4F1804F11D0844884420F
:10C2D0000ED0844884420BD08348844208D08548DD
:10C2E000844205D08448844202D08448844200D1EC
:10C2F00004E040F689217848F3F750FF2DB1102D66
:10C3000003D0202D01D0302D00D104E040F68A2149
:10C310007148F3F743FF29462046FFF784FF208941
:10C3200040F00700208170BD2DE9F04104460E4623
:10C3300015461F466948844220D0B4F1804F1DD075
:10C34000674884421AD06748844217D066488442BE
:10C3500014D06848844211D0674884420ED068489F
:10C3600084420BD06748844208D06448844205D098
:10C370006548844202D06548844200D104E040F61A
:10C38000A8215548F3F70AFF1DB1022D01D00A2D4F
:10C3900000D104E040F6A9214F48F3F7FFFE0F2F2C
:10C3A00000DC04E040F6AA214B48F3F7F7FE602ECC
:10C3B00006D13B46012229462046FFF7CEF805E08C
:10C3C0003B46012229462046FFF732F931462046F6
:10C3D000FFF729FF208940F007002081BDE8F081A8
:10C3E0002DE9F04104460D4616461F464FF0000861
:10C3F0003A4884420ED0B4F1804F0BD03848844282
:10C4000008D03848844205D03748844202D03948A1
:10C41000844200D104E040F6BD312F48F3F7BEFE60
:10C4200045B1B5F5805F05D0B5F5005F02D0B5F533
:10C43000405F00D104E040F6BE312748F3F7AEFE7E
:10C44000B6F5004F00D006B904E040F6BF312248EF
:10C45000F3F7A4FE0F2F00DC04E04FF43C611E480C
:10C46000F3F79CFEB4F8088008F0FF084FF6FF7061
:10C4700000EA07203043284340EA0808A4F808806F
:10C48000BDE8F0812DE9F04104460D461746984677
:10C490000026124884420ED0B4F1804F0BD01048D1
:10C4A000844208D00F48844205D00F48844202D00D
:10C4B0001048844200D104E040F6D2210648F3F748
:10C4C0006DFE45B1B5F5805F05D0B5F5005F02D0D2
:10C4D000B5F5405F1CD120E090E20008000001406B
:10C4E0000004004000080040000C00400010004024
:10C4F00000140040000401400040014000180040CA
:10C500000044014000480140001C00400020004061
:10C5100040F6D321FA48F3F741FEB7F5004F00D0BB
:10C5200007B904E040F6D421F548F3F737FEB8F137
:10C530000F0F00DC04E040F6D521F148F3F72EFEA2
:10C5400043463A4629462046FFF74AFF26894FF6DA
:10C55000F870064046F007064FF68F70064046F02A
:10C5600070062681BDE8F0812DE9F04104460D46B4
:10C5700016461F46E34884420ED0B4F1804F0BD0DC
:10C58000E148844208D0E148844205D0E048844232
:10C5900002D0E048844200D104E040F6FF21D848B0
:10C5A000F3F7FCFD45B1B5F5805F05D0B5F5005F4B
:10C5B00002D0B5F5405F00D104E04FF43061D048BF
:10C5C000F3F7ECFDB6F5004F00D006B904E040F6F5
:10C5D0000131CB48F3F7E2FD0F2F00DC04E040F619
:10C5E0000231C748F3F7DAFD3B463246294620467A
:10C5F000FFF7F6FE208940F480402081BDE8F081FD
:10C6000070B504460D46BF48844214D0B4F1804F43
:10C6100011D0BD4884420ED0BC4884420BD0BC48E7
:10C62000844208D0BC48844205D0BC48844202D031
:10C63000B848844200D104E040F66D31B048F3F7C9
:10C64000ADFD6DB1102D0BD0202D09D0302D07D0B0
:10C65000402D05D0502D03D0602D01D0702D00D17C
:10C6600004E040F66E31A648F3F798FDA0884FF637
:10C670008F710840A080A0882843A08070BD70B54D
:10C6800004460D469F48844214D0B4F1804F11D027
:10C690009D4884420ED09D4884420BD09C488442E1
:10C6A00008D09C48844205D09D48844202D09D48D1
:10C6B000844200D104E040F685319148F3F76EFDE5
:10C6C000042D05D0052D03D0062D01D0072D00D156
:10C6D00004E040F686318A48F3F760FD20894FF682
:10C6E000F8710840208120892843208170BD70B5F1
:10C6F00004460D468348844214D0B4F1804F11D0D3
:10C70000814884420ED0814884420BD080488442C4
:10C7100008D08048844205D08148844202D08148B4
:10C72000844200D104E040F69C317548F3F736FDB1
:10C73000802D00D005B904E040F69D317048F3F734
:10C740002DFD20894FF67F710840208120892843E4
:10C75000208170BD2DE9F04704460D4616461F4660
:10C760004FF00008C146C2466648844214D0B4F176
:10C77000804F11D0644884420ED0644884420BD06C
:10C780006348844208D06348844205D064488442A8
:10C7900002D06448844200D104E040F6F9315848A0
:10C7A000F3F7FCFC012D03D0022D01D0032D00D1A5
:10C7B00004E040F6FA315248F3F7F0FC1EB1022EC5
:10C7C00001D00A2E00D104E040F6FB314C48F3F7CB
:10C7D000E5FC1FB1022F01D00A2F00D104E040F682
:10C7E000FC314748F3F7DAFCB4F80880B4F8189045
:10C7F000B4F820A04FF6F87008EA000848EA0508E7
:10C800004FF6FC4009EA000940F2011049EA00092C
:10C810004FF6DD700AEA000A4FF6FF7000EA0710D3
:10C82000304340EA0A0AA4F80880A4F81890A4F853
:10C8300020A0BDE8F08770B504460D46314884421B
:10C8400014D0B4F1804F11D02F4884420ED02F481D
:10C8500084420BD02E48844208D02E48844205D012
:10C860002F48844202D02F48844200D104E040F691
:10C8700028412348F3F792FC0DB1012D00D104E0CB
:10C8800040F629411E48F3F789FC25B1A08840F005
:10C890008000A08004E0A0884FF67F710840A0804F
:10C8A00070BD70B505460C46B5F1804F05D01848EF
:10C8B000854202D01C48854200D104E040F65B412D
:10C8C0000F48F3F76BFC94B1B4F5806F0FD0B4F55B
:10C8D000006F0CD0B4F5406F09D044B1402C06D0A5
:10C8E000802C04D0C02C02D00CB1022C00D104E06A
:10C8F00040F65C410248F3F751FCA5F8504070BD8A
:10C9000090E20008000001400004004000080040E0
:10C91000000C0040000401400010004000140040E2
:10C9200000400140001800400048014010B5044696
:10C93000F84884420ED0F84884420BD0F74884422D
:10C9400008D0F748844205D0F648844202D0F64821
:10C95000844200D103E0B521F448F3F71FFCED4811
:10C96000844208D101211020FCF78EFD0021102007
:10C97000FCF78AFD3EE0E848844209D101214804E1
:10C98000FCF75BFD00214FF40030FCF756FD31E071
:10C99000E248844209D101218804FCF74EFD0021C0
:10C9A0004FF48020FCF749FD24E0DD48844209D1A2
:10C9B0000121C804FCF741FD00214FF40020FCF7E1
:10C9C0003CFD17E0D748844209D101210805FCF756
:10C9D00034FD00214FF48010FCF72FFD0AE0D2480F
:10C9E000844207D101212020FCF74EFD00212020A8
:10C9F000FCF74AFD10BD2DE9FF4705460C46002611
:10CA0000B14600BFB046C34885420ED0C2488542F9
:10CA10000BD0C248854208D0C148854205D0C148E4
:10CA2000854202D0C048854200D103E0EB21BF48D7
:10CA3000F3F7B4FB206820B1BD492068884200D2DA
:10CA400003E0EC21B948F3F7A9FBA08818B1A0884E
:10CA5000B0F5805F00D103E0ED21B448F3F79EFB11
:10CA6000E08858B1E088B0F5805F07D0E088B0F585
:10CA7000005F03D0E088B0F5405F00D103E0EE2115
:10CA8000AA48F3F78BFB208938B12089B0F5806F75
:10CA900003D02089B0F5C06F00D103E0EF21A34897
:10CAA000F3F77CFB60894FF6F371084010B9608999
:10CAB00000B103E0F0219D48F3F770FBA08958B165
:10CAC000A089B0F5807F07D0A089B0F5007F03D0A2
:10CAD000A089B0F5407F00D103E0F1219348F3F73E
:10CAE0005DFBA08980B18B48854208D08A48854289
:10CAF00005D08A48854202D08B48854200D103E0A8
:10CB0000F6218A48F3F74AFB2E8A26F44056E0883D
:10CB100006432E82AE8941F20C608643A0882189AB
:10CB20000843618908430643AE81AE8A26F4407605
:10CB3000A0890643AE826846FCF7E5F97548854250
:10CB400002D07948854202D1DDF80C9001E0DDF891
:10CB50000890A88900F4004040B109EBC90000EB3F
:10CB6000091021684900B0FBF1F707E009EBC900A3
:10CB700000EB091021688900B0FBF1F76420B7FBD6
:10CB8000F0F006013009642101FB1078A88900F457
:10CB9000004040B1322000EBC800B0FBF1F000F0E3
:10CBA0000700064308E0322000EB08106421B0FBC8
:10CBB000F1F000F00F0006432E81BDE8FF874FF42F
:10CBC0001651016000218180C18001810C214181C9
:10CBD00000218181704770B505460C4600264D48FE
:10CBE000854208D04C48854205D04C48854202D049
:10CBF0004D48854200D104E04FF4B6714B48F3F73D
:10CC0000CDFA208818B12088B0F5006F00D104E07B
:10CC100040F26D114548F3F7C1FA608818B1608899
:10CC2000B0F5806F00D104E04FF4B7713F48F3F7DF
:10CC3000B5FAA08818B1A088B0F5007F00D104E053
:10CC400040F26F113948F3F7A9FAE08818B1E0888B
:10CC5000B0F5807F00D104E04FF4B8713348F3F7AA
:10CC60009DFA2E8A26F47066208861880843A18880
:10CC70000843E188084306432E8270BD00210180ED
:10CC800041808180C180704770B504460D462148BF
:10CC900084420ED0204884420BD02048844208D0E1
:10CCA0001F48844205D01F48844202D01E48844257
:10CCB00000D104E040F29B111C48F3F76FFA0DB16C
:10CCC000012D00D104E04FF4CE711848F3F766FA55
:10CCD00025B1A08940F40050A08104E0A0894DF660
:10CCE000FF710840A08170BD70B504460D4609482B
:10CCF00084420ED0084884420BD00848844208D0B1
:10CD00000748844205D00748844202D0064884423E
:10CD100010D114E0001001400044004000480040E1
:10CD2000004C00400050004000140140E4E20008C4
:10CD3000E170720040F2B511FA48F3F72FFA208B38
:10CD400000F47F402083208B2843208370BD70B582
:10CD500004460D46F44884420ED0F44884420BD079
:10CD6000F348844208D0F348844205D0F248844214
:10CD700002D0F248844200D104E04FF4E571E94862
:10CD8000F3F70CFA0DB1012D00D104E040F2CB1104
:10CD9000E448F3F703FA25B1A08940F40040A081EC
:10CDA00003E0A089C0F30E00A08170BD70B50446F9
:10CDB0000D46DD4884420ED0DC4884420BD0DC486E
:10CDC000844208D0DB48844205D0DB48844202D04C
:10CDD000DA48844200D104E04FF4F271D148F3F70D
:10CDE000DDF90DB1012D00D104E040F2E511CD488F
:10CDF000F3F7D4F925B1A08A40F40060A08204E0E2
:10CE0000A08A4FF2FF710840A08270BD70B5044641
:10CE10000D46C54884420ED0C44884420BD0C44855
:10CE2000844208D0C348844205D0C348844202D01B
:10CE3000C248844200D104E040F21D21B948F3F712
:10CE4000ADF9B5F5007F00DA04E040F21E21B548E7
:10CE5000F3F7A4F9C5F30800A08070BD10B504462F
:10CE6000B14884420ED0B14884420BD0B0488442CD
:10CE700008D0B048844205D0AF48844202D0AF48C1
:10CE8000844200D104E040F22D21A648F3F786F950
:10CE9000A088C0F3080010BD70B504460D46A24836
:10CEA00084420ED0A14884420BD0A148844208D0CD
:10CEB000A048844205D0A048844202D09F488442C2
:10CEC00000D104E04FF418719648F3F767F90F2D7D
:10CED00000DC04E040F261219248F3F75FF9208A18
:10CEE0004FF6F07108402082208A2843208270BDCE
:10CEF00070B504460D468C4884420ED08B4884425F
:10CF00000BD08B48844208D08A48844205D08A4896
:10CF1000844202D08948844200D104E04FF41D715C
:10CF20008048F3F73BF90DB1012D00D104E040F248
:10CF300075217C48F3F732F925B1A08940F0020051
:10CF4000A08104E0A0894FF6FD710840A08170BD6A
:10CF500070B504460D46744884420ED0734884422E
:10CF60000BD07348844208D07248844205D072487E
:10CF7000844202D07148844200D104E040F28F2103
:10CF80006848F3F70BF915B1B5F5006F00D104E06F
:10CF90004FF424716348F3F701F9A0894FF2FF7150
:10CFA0000840A081A0892843A08170BD70B50446C7
:10CFB0000D465D4884420ED05C4884420BD05C48EC
:10CFC000844208D05B48844205D05B48844202D04A
:10CFD0005A48844200D104E04FF435715148F3F7C8
:10CFE000DDF80DB1202D00D104E040F2D5214D48EF
:10CFF000F3F7D4F8208A4FF6DF7108402082208AA8
:10D000002843208270BD70B504460D4646488442D0
:10D010000ED0464884420BD04548844208D045484B
:10D02000844205D04448844202D04448844200D11E
:10D0300004E040F2E6213B48F3F7B0F80DB1012DD2
:10D0400000D104E040F2E7213648F3F7A7F825B114
:10D05000208A40F48040208204E0208A4BF6FF7151
:10D060000840208270BD10B504462F4884420ED07F
:10D070002E4884420BD02E48844208D02D4884424A
:10D0800005D02D48844202D02C48844200D104E0CF
:10D0900040F2FE212348F3F781F8A08940F0010017
:10D0A000A08110BD70B504460D461F4884420ED0C5
:10D0B0001E4884420BD01E48844208D01D4884423A
:10D0C00005D01D48844202D01C48844200D104E0AF
:10D0D00040F233311348F3F761F80DB1012D00D15F
:10D0E00004E04FF44D710F48F3F758F825B1A08ACA
:10D0F00040F00800A08204E0A08A4FF6F7710840D3
:10D10000A08270BD70B504460D460748844208D021
:10D110000648844205D00648844202D0074884422B
:10D120000ED112E0E4E2000800100140004400408B
:10D1300000480040004C00400050004000140140F6
:10D140004FF46271FE48F3F729F8208BC0B22083B8
:10D15000208B40EA0520208370BD70B504460D4643
:10D16000F848844208D0F848844205D0F748844201
:10D1700002D0F748844200D104E040F29B31F048ED
:10D18000F3F70CF80DB1012D00D104E04FF46771F5
:10D19000EB48F3F703F825B1A08A40F02000A08205
:10D1A00004E0A08A4FF6DF710840A08270BD70B520
:10D1B00004460D46E348844208D0E348844205D043
:10D1C000E248844202D0E248844200D104E04FF4B5
:10D1D0006D71DB48F2F7E2FF0DB1012D00D104E0E3
:10D1E00040F2B531D648F2F7D9FF25B1A08A40F018
:10D1F0001000A08204E0A08A4FF6EF710840A082E0
:10D2000070BD70B504460D46CE4884420ED0CE485F
:10D2100084420BD0CD48844208D0CE48844205D009
:10D22000CD48844202D0CA48844200D104E040F292
:10D23000FB31C348F2F7B2FF042D00D005B904E07A
:10D240004FF47F71BE48F2F7A9FFA08A4FF6FB7139
:10D250000840A082A08A2843A08270BD70B5044611
:10D260000D46B84884420ED0B74884420BD0B74828
:10D27000844208D0B748844205D0B748844202D0DF
:10D28000B348844200D104E040F20D41AC48F2F7CB
:10D2900085FF0DB1012D00D104E040F20E41A848F8
:10D2A000F2F77CFF25B1A08A40F00200A08204E0E2
:10D2B000A08A4FF6FD710840A08270BD70B504468B
:10D2C0000D4616469F4884420ED09F4884420BD09C
:10D2D0009E48844208D09F48844205D09E4884429C
:10D2E00002D09B48844200D104E040F23B41944884
:10D2F000F2F754FF4FF63F70284008B905B104E03B
:10D3000040F23C418E48F2F749FF0EB1012E00D1A8
:10D3100004E040F23D418A48F2F740FF1EB1A08A86
:10D320002843A08202E0A08AA843A08270BD2DE914
:10D33000F04704460D4617464FF00008C246C14666
:10D340000026804884420ED07F4884420BD07F481C
:10D35000844208D07F48844205D07F48844202D06E
:10D360007B48844200D104E040F2BD417448F2F7AA
:10D3700015FF282D19D040F22770854215D040F2B4
:10D380002660854211D040F2255085420DD040F2F2
:10D390002440854209D040F64600854205D040F63B
:10D3A0006A10854201D0602D00D104E040F2BE41F8
:10D3B0006348F2F7F3FE0FB1012F00D104E040F211
:10D3C000BF415F48F2F7EAFE40F66A10854211D18C
:10D3D0005C48844208D05C48844205D05B48844263
:10D3E00002D05B48844200D104E040F2C44154487A
:10D3F000F2F7D4FE2646C5F3421805F01F0A0120B5
:10D4000000FA0AF9B8F1010F01D10C3605E0B8F1C4
:10D41000020F01D1103600E0143627B1306840EA1F
:10D420000900306003E0306820EA09003060BDE8A0
:10D43000F08770B505460C460026424885420ED05E
:10D44000414885420BD04148854208D04148854239
:10D4500005D04148854202D03D48854200D104E0D4
:10D4600040F2FC413648F2F799FE012C13D0802C93
:10D4700011D0402C0FD0202C0DD0102C0BD0B4F597
:10D48000807F08D0B4F5007F05D0082C03D0042C91
:10D4900001D0022C00D104E040F2FD412848F2F70F
:10D4A0007DFEB4F5007F11D12648854208D026487C
:10D4B000854205D02548854202D02548854200D1C5
:10D4C00004E040F202511E48F2F768FE288820402E
:10D4D00008B1012600E00026304670BD70B5044654
:10D4E0000D46184884420ED0174884420BD0174886
:10D4F000844208D01748844205D01748844202D09D
:10D500001348844200D104E040F22C510C48F2F759
:10D5100045FE4FF69F40284008B905B104E040F2AF
:10D520002D510748F2F73AFE05F40070B0F5007F80
:10D5300020D10448844217D00348844214D00DE01F
:10D54000E4E20008001001400044004000480040B0
:10D5500000140140004C00400050004075488442D7
:10D5600002D07548844200D104E040F23251734841
:10D57000F2F714FEE843208070BD2DE9F047054620
:10D580000C4600270026B046B1466D4885420ED0B5
:10D590006C4885420BD06748854208D06A4885426E
:10D5A00005D06A48854202D06348854200D104E034
:10D5B0004FF4AA616148F2F7F1FD282C27D040F220
:10D5C0002770844223D040F2266084421FD040F26C
:10D5D000255084421BD040F22440844217D040F6AC
:10D5E0004600844213D040F66A1084420FD0B4F54E
:10D5F000587F0CD040F22530844208D0B4F5587FD3
:10D6000005D0B4F5187F02D0B4F5B07F00D104E0A6
:10D6100040F251514948F2F7C1FD40F66A10844288
:10D6200011D14748854208D04648854205D0414837
:10D63000854202D04048854200D104E040F2565174
:10D640003E48F2F7ABFDC4F3421804F01F06012078
:10D6500000FA06F6B8F1010F02D1A889064007E0EA
:10D66000B8F1020F02D1288A064001E0A88A0640DC
:10D670002712012000FA07F7288807401EB117B1CA
:10D680004FF0010901E04FF000094846BDE8F0877E
:10D690002DE9F04104460D46002600272848844223
:10D6A0000ED0284884420BD02248844208D0264815
:10D6B000844205D02548844202D01F48844200D1CC
:10D6C00004E040F299511D48F2F768FD40F22660EF
:10D6D00085420BD040F22550854207D040F64600E7
:10D6E000854203D040F66A10854200D104E040F242
:10D6F0009A511248F2F752FD40F66A10854211D154
:10D700000F48844208D00F48844205D0094884421B
:10D7100002D00948844200D104E040F29F510748FA
:10D72000F2F73CFD2E120120B04087B2F843208072
:10D73000BDE8F0810048004000140140E4E2000828
:10D740000010014000440040004C004000500040E8
:10D750002DE9FE4F804681EA0300C00F0C46009081
:10D7600021F0004123F00045B8EB0200A94105D2A9
:10D770004046214690461C460B46024623F0004098
:10D78000104347D0270DC7F30A00C3F30A51029094
:10D79000401A019040286BDAC3F3130040F4801B59
:10D7A0000098924620B10023D2EB030A63EB0B0BE7
:10D7B00001985946C0F14002504600F05FF9064614
:10D7C0000D4650465946019A00F077F910EB0800D3
:10D7D0006141002487EA115284EAE7731A4340D07A
:10D7E000009A62B3019A012A4FEA075215DC001B26
:10D7F00061EB02014FF0004202EA0752CDE900421C
:10D80000001C41F5801132462B4600F0AEF903B002
:10D81000BDE8F08F40462146F9E7001B61EB0201AD
:10D82000001C41F5801300185B412018A2F5001779
:10D8300047EB030140EAD570B6196D4111E06D0860
:10D840004FEA360645EAC0754FEA0752001B61EB06
:10D850000201001C41F5801149084FEA300000190F
:10D86000514132462B4603B0BDE8F04F00F06EB98F
:10D870000098012240000023D0EB020263EBE0732A
:10D88000009821464FEAE074B8EB000061EB040118
:10D89000E9E783F000435BE781F0004158E72DE9B9
:10D8A000FE4F81EA030404F0004421F0004100949B
:10D8B0004FF0000B23F0004350EA01045ED052EA1F
:10D8C00003045BD0C3F30A54C1F30A552C44A4F2F9
:10D8D000F3340194A0FB0254C1F3130141F480110D
:10D8E000C3F3130343F4801301FB024400FB034E14
:10D8F000840A970A44EA815447EA8357A4FB0768DD
:10D9000002958D0A05FB07854FEA932C04FB0C5406
:10D910002705029D4FEA065847EA1637B5EB08057A
:10D920006EEB070C870E920E47EA811742EA8312CC
:10D93000A7FB0201B6EB0B0164EB00042B0D43EADD
:10D940000C335E1844EB1C50DA465146E7FB0201EB
:10D95000C5F313044FEA0B3343EA14534FEA04327E
:10D96000019C43EA0603A4F10C040294009CCDE957
:10D9700000B400F0FAF803B0BDE8F08F00200146D3
:10D98000F9E70EB5C10F80EAE0700844CA0700212C
:10D9900040F233438DE80E000A460B4600F0E5F8EE
:10D9A00003B000BD70B5C1F30A5201F00045002478
:10D9B000C1F3130140F2FF3341F480119A4201DABE
:10D9C000002070BD40F233439A42A2F2334203DC9E
:10D9D000524200F062F800E090402C43F1D0404207
:10D9E00070BD000030B5041E71F1000404DB4FF07F
:10D9F0000044404264EB0101141E73F1000405DB96
:10DA00001C464FF00043524263EB04038B4208BFB5
:10DA1000824230BD30B5041E71F1000404DB4FF0CA
:10DA20000044404264EB0101141E73F1000405DB65
:10DA30001C464FF00043524263EB0403994208BF77
:10DA4000904230BD01F0004330B421F0004150EA73
:10DA5000010206D00A0DA2F56072C1F31301002A7B
:10DA600002DC30BC00207047440F44EAC104C1000E
:10DA7000E01830BC00EBC25000F031B8202A04DBC3
:10DA8000203A00FA02F1002070479140C2F12003D1
:10DA900020FA03F3194390407047202A04DB203A10
:10DAA00021FA02F00021704721FA02F3D040C2F1BE
:10DAB00020029140084319467047202A06DBCB1705
:10DAC000203A41FA02F043EAE07306E041FA02F339
:10DAD000D040C2F120029140084319467047002906
:10DAE000A8BF7047401C490008BF20F001007047E4
:10DAF00010B4B0FA80FC00FA0CF050EA010404BF44
:10DB000010BC704749B1CCF1200421FA04F411FA99
:10DB10000CF118BF012121430843A3EB0C01CB1DDD
:10DB20004FEA00614FEA102042BF002010BC70474E
:10DB300000EBC35010440029A4BF10BC7047401C28
:10DB4000490008BF20F0010010BC704710B5141E3A
:10DB500073F1000408DA401C41F1000192185B41A6
:10DB60001A4301D120F0010010BD2DE9F04D92467D
:10DB70009B4611B1B1FA81F202E0B0FA80F2203294
:10DB80009046FFF77BFF04460F4640EA0A0041EA51
:10DB90000B0153465A46084313D0114653EA01007D
:10DBA00019D0C8F140025046FFF777FF05460E46F0
:10DBB000504659464246FFF761FF084305D0012011
:10DBC00004E020463946BDE8F08D0020054346EAD2
:10DBD000E0762C4337430A986305E40AA0EB08007B
:10DBE0000022FD0A44EA47540A3002D500200146CB
:10DBF000E9E7010510196941DDE9084500196941A6
:10DC0000BDE8F04DA2E70000064C074D06E0E068D5
:10DC100040F0010394E8070098471034AC42F6D373
:10DC2000F2F7B6FA38E3000858E3000870B58C182C
:10DC300010F8015B15F0070301D110F8013B2A1120
:10DC400006D110F8012B03E010F8016B01F8016B0D
:10DC50005B1EF9D12B0705D40023521E0DD401F809
:10DC6000013BFAE710F8013BCB1A921C03E013F8D2
:10DC7000015B01F8015B521EF9D5A142D8D3002007
:10DC800070BD02E008C8121F08C1002AFAD170470F
:10DC90007047002001E001C1121F002AFBD170472C
:10DCA000000000005680803BD37F003C77BE403CA4
:10DCB000CF7D803C5B9BA03CA6B7C03C6ED2E03CD5
:10DCC000B775003D3581103D918B203DAB94303DC3
:10DCD000609C403D92A2503D25A7603DF1A9703D5A
:10DCE0006F55803DE354883D4753903D8C50983D9F
:10DCF0009F4CA03D7247A83DF740B03D1B39B83D51
:10DD0000D22FC03D0C25C83DB218D03DC60AD83D23
:10DD10002DFBDF3DD9E9E73DB0D6EF3DBEC1F73D74
:10DD2000DBAAFF3D04C9033E95BB073E20AD0B3E79
:10DD3000979D0F3EF58C133E397B173E56681B3E70
:10DD40003E541F3EF83E233E7728273EB4102B3E1C
:10DD5000A1F72E3E45DD323E93C1363E7DA43A3ECC
:10DD60000A863E3E2766423ED844463E12224A3E3E
:10DD7000C7FD4D3EFED7513EAFB0553EC687593E1A
:10DD80004B5D5D3E3731613E7C03653E1AD4683E93
:10DD90000AA36C3E4770703EC83B743E8805783ECF
:10DDA00086CD7B3EB5937F3E0EAC813E538D833E48
:10DDB000AE6D853E164D873E8D2B893E0F098B3EFD
:10DDC00099E58C3E2BC18E3EC19B903E5475923E90
:10DDD000E94D943E7B25963E07FC973E8BD1993EBC
:10DDE00002A69B3E6F799D3ECD4B9F3E1C1DA13EE2
:10DDF00057EDA23E7FBCA43E8D8AA63E8457A83E26
:10DE00006223AA3E23EEAB3EC2B7AD3E4580AF3E95
:10DE1000A447B13EE20DB33EF9D2B43EE996B63E18
:10DE2000B159B83E4F1BBA3EC2DBBB3E079BBD3E5D
:10DE30001E59BF3E0416C13EBCD1C23E3F8CC43EFB
:10DE40008E45C63EA4FDC73E89B4C93E336ACB3E6B
:10DE5000A41ECD3EDAD1CE3ED583D03E9434D23E00
:10DE600018E4D33E5A92D53E603FD73E21EBD83ED0
:10DE7000A395DA3EE33EDC3EE1E6DD3E9A8DDF3EF1
:10DE80000D33E13E3AD7E23E227AE43EC51BE63E40
:10DE90001BBCE73E2F5BE93EF7F8EA3E7695EC3E89
:10DEA000A930EE3E93CAEF3E3563F13E86FAF23E6C
:10DEB0008F90F43E4925F63EB9B8F73EDA4AF93E6E
:10DEC000AFDBFA3E386BFC3E71F9FD3E5A86FF3EF1
:10DED000FC88003F234E013FA212023F7BD6023F47
:10DEE000AC99033F365C043F171E053F51DF053FE9
:10DEF000E39F063FCE5F073F121F083FADDD083F9F
:10DF0000A29B093FEF580A3F94150B3F93D10B3F5B
:10DF1000E98C0C3F9A470D3FA2010E3F03BB0E3F19
:10DF2000BF730F3FD32B103F41E3103F089A113FBF
:10DF30002A50123FA405133F79BA133FA86E143F2D
:10DF40003322153F18D5153F5787163FF138173F35
:10DF5000E7E9173F389A183FE749193FEFF8193FAB
:10DF600055A71A3F18551B3F37021C3FB3AE1C3F45
:10DF70008E5A1D3FC4051E3F5AB01E3F4E5A1F3FCA
:10DF8000A103203F52AC203F6354213FD3FB213FEC
:10DF9000A4A2223FD548233F67EE233F5A93243F54
:10DFA000AD37253F63DB253F7A7E263FF420273FB0
:10DFB000D2C2273F1364283FB704293FBFA4293F9B
:10DFC0002C442A3FFEE22A3F33812B3FD11E2C3FB7
:10DFD000D2BB2C3F3C582D3F0CF42D3F438F2E3F9E
:10DFE000E1292F3FE9C32F3F595D303F33F6303FE2
:10DFF000758E313F2126323F39BD323FBB53333F0F
:10E00000A9E9333F027F343FC713353FF9A7353FB6
:10E01000993B363FA6CE363F2161373F0BF3373F62
:10E020006484383F2E15393F65A5393F0F353A3F97
:10E030002AC43A3FB4523B3FB3E03B3F226E3C3FE1
:10E0400006FB3C3F5D873D3F26133E3F679E3E3FBC
:10E050001A293F3F44B33F3FE43C403FF9C5403FAE
:10E06000864E413F89D6413F065E423FFAE4423F39
:10E07000676B433F4FF1433FB076443F8CFB443FD7
:10E08000E27F453FB403463F0187463FCB09473F08
:10E09000138C473FD70D483F198F483FDD0F493F4D
:10E0A000DD0F493F2E2E5C447269766572734D63B5
:10E0B000755C53544D3332463430375C4C69627270
:10E0C00061726965735C53544D3332463478785FBE
:10E0D0005374645065726970685F447269766572E2
:10E0E0005C7372635C6D6973632E63002E2E5C44F7
:10E0F0007269766572734D63755C53544D33324665
:10E100003430375C4C69627261726965735C535478
:10E110004D3332463478785F537464506572697059
:10E12000685F4472697665725C7372635C73746D68
:10E130003332663478785F6164632E6300000000D8
:10E140002E2E5C447269766572734D63755C535410
:10E150004D3332463430375C4C69627261726965A6
:10E16000735C53544D3332463478785F5374645043
:10E1700065726970685F4472697665725C73726318
:10E180005C73746D3332663478785F646D612E63CE
:10E19000000000002E2E5C447269766572734D6338
:10E1A000755C53544D3332463430375C4C6962727F
:10E1B00061726965735C53544D3332463478785FCD
:10E1C0005374645065726970685F447269766572F1
:10E1D0005C7372635C73746D3332663478785F6538
:10E1E0007874692E630000002E2E5C447269766597
:10E1F00072734D63755C53544D3332463430375C23
:10E200004C69627261726965735C53544D33324676
:10E210003478785F5374645065726970685F4472D3
:10E22000697665725C7372635C73746D33326634E5
:10E2300078785F6770696F2E630000002E2E5C4453
:10E240007269766572734D63755C53544D33324613
:10E250003430375C4C69627261726965735C535427
:10E260004D3332463478785F537464506572697008
:10E27000685F4472697665725C7372635C73746D17
:10E280003332663478785F7263632E630000000077
:10E290002E2E5C447269766572734D63755C5354BF
:10E2A0004D3332463430375C4C6962726172696555
:10E2B000735C53544D3332463478785F53746450F2
:10E2C00065726970685F4472697665725C737263C7
:10E2D0005C73746D3332663478785F74696D2E6365
:10E2E000000000002E2E5C447269766572734D63E7
:10E2F000755C53544D3332463430375C4C6962722E
:10E3000061726965735C53544D3332463478785F7B
:10E310005374645065726970685F4472697665729F
:10E320005C7372635C73746D3332663478785F75D6
:10E33000736172742E63000058E30008000000202F
:10E34000880200002CDC000880E40008880200201D
:10E35000B819000092DC0008011813B1016408E844
:10E36000031AB30C63F4011AB50C72C81AED0C72DF
:10E37000641AEF0C723213D3027308141AD50C020C
:10E38000370223030A123212C812F510085E015E2A
:10E390000113017D3A7D101AC81021291012C83EC0
:10E3A000E7FF130132163A7D0C327D141801EC1090
:10E3B0000A09015F01BD011701871AEC1A12CA1C74
:10E3C00054017334120A123A1240125E123412507F
:10E3D000124412201216126112245A4634BA04341E
:10E3E0005AC83412BE12EE12F41C1201E82012F8C0
:10E3F0001AD44C140F01D812FA1A011C014016B598
:10E400006206080612641A01024B7A120E3AC80E0E
:10E410001BDE6A0E13071414400D031BA08612198D
:10E420006E6334031BD1CA1C111A14262133D00881
:10E430002AC232498F1BB8421C53090D63FFFF1CCF
:10E44000031DAB151301031301025B0D460B1206EE
:10E450005B114E0B12125B1D660B12215B2C840BA1
:10E4600012045B0F4A0B053C07011351847A030A1F
:10E47000680901020304060708090C69100000007E
:040000050800018965
:00000001FF
