Component: ARM Compiler 5.06 update 6 (build 750) Tool: armlink [4d35ed]

==============================================================================

Section Cross References

    main.o(i.main) refers to drv_bsp.o(i.All_Init) for All_Init
    main.o(i.main) refers to ano_scheduler.o(i.Scheduler_Setup) for Scheduler_Setup
    main.o(i.main) refers to ano_scheduler.o(i.Scheduler_Run) for Scheduler_Run
    ano_scheduler.o(i.Loop_200Hz) refers to ano_scheduler.o(.data) for mission_step
    ano_scheduler.o(i.Loop_200Hz) refers to ano_lx.o(.bss) for fc_att
    ano_scheduler.o(i.Loop_50Hz) refers to user_task.o(i.UserTask_OneKeyCmd) for UserTask_OneKeyCmd
    ano_scheduler.o(i.Loop_50Hz) refers to dflti.o(.text) for __aeabi_i2d
    ano_scheduler.o(i.Loop_50Hz) refers to dmul.o(.text) for __aeabi_dmul
    ano_scheduler.o(i.Loop_50Hz) refers to dadd.o(.text) for __aeabi_dsub
    ano_scheduler.o(i.Loop_50Hz) refers to dfixi.o(.text) for __aeabi_d2iz
    ano_scheduler.o(i.Loop_50Hz) refers to user_task.o(i.frame_send_32) for frame_send_32
    ano_scheduler.o(i.Loop_50Hz) refers to user_task.o(i.frame_send_16) for frame_send_16
    ano_scheduler.o(i.Loop_50Hz) refers to user_task.o(i.frame_send_8) for frame_send_8
    ano_scheduler.o(i.Loop_50Hz) refers to user_task.o(i.Userdata_send_OPENMV) for Userdata_send_OPENMV
    ano_scheduler.o(i.Loop_50Hz) refers to ano_scheduler.o(.data) for start_error_X
    ano_scheduler.o(i.Loop_50Hz) refers to user_task.o(.data) for cal_X
    ano_scheduler.o(i.Scheduler_Run) refers to drv_sys.o(i.GetSysRunTimeMs) for GetSysRunTimeMs
    ano_scheduler.o(i.Scheduler_Run) refers to ano_scheduler.o(.data) for sched_tasks
==============================================================================

Removing Unused input sections from the image.

    Removing main.o(.rev16_text), (4 bytes).
    Removing main.o(.revsh_text), (4 bytes).
    Removing main.o(.rrx_text), (6 bytes).
    Removing ano_scheduler.o(.rev16_text), (4 bytes).
    Removing ano_scheduler.o(.revsh_text), (4 bytes).
    Removing ano_scheduler.o(.rrx_text), (6 bytes).
    Removing user_task.o(.rev16_text), (4 bytes).
    Removing user_task.o(.revsh_text), (4 bytes).
    Removing user_task.o(.rrx_text), (6 bytes).
    Removing ano_dt_lx.o(.rev16_text), (4 bytes).
    Removing ano_dt_lx.o(.revsh_text), (4 bytes).
    Removing ano_dt_lx.o(.rrx_text), (6 bytes).
    Removing ano_lx.o(.rev16_text), (4 bytes).
    Removing ano_lx.o(.revsh_text), (4 bytes).
    Removing ano_lx.o(.rrx_text), (6 bytes).
    Removing lx_fc_ext_sensor.o(.rev16_text), (4 bytes).
    Removing lx_fc_ext_sensor.o(.revsh_text), (4 bytes).
    Removing lx_fc_ext_sensor.o(.rrx_text), (6 bytes).
==============================================================================

Image Symbol Table

    Local Symbols

    Symbol Name                              Value     Ov Type        Size  Object(Section)

    RESET                                    0x00000000   Section      620  startup_tm4c123.o(RESET)
    ../clib/../cmprslib/zerorunl2.c          0x00000000   Number         0  __dczerorl2.o ABSOLUTE
    ../clib/microlib/init/entry.s            0x00000000   Number         0  entry8a.o ABSOLUTE
    ../clib/microlib/init/entry.s            0x00000000   Number         0  entry11a.o ABSOLUTE
    ../clib/microlib/init/entry.s            0x00000000   Number         0  entry8b.o ABSOLUTE
    ../clib/microlib/init/entry.s            0x00000000   Number         0  entry9a.o ABSOLUTE
    ../clib/microlib/init/entry.s            0x00000000   Number         0  entry9b.o ABSOLUTE
    ../clib/microlib/init/entry.s            0x00000000   Number         0  entry11b.o ABSOLUTE
    ../clib/microlib/init/entry.s            0x00000000   Number         0  entry.o ABSOLUTE
    ../clib/microlib/init/entry.s            0x00000000   Number         0  entry2.o ABSOLUTE
    ../clib/microlib/init/entry.s            0x00000000   Number         0  entry5.o ABSOLUTE
    ../clib/microlib/init/entry.s            0x00000000   Number         0  entry10a.o ABSOLUTE
    ../clib/microlib/init/entry.s            0x00000000   Number         0  entry7a.o ABSOLUTE
    ../clib/microlib/init/entry.s            0x00000000   Number         0  entry7b.o ABSOLUTE
    ../clib/microlib/init/entry.s            0x00000000   Number         0  entry10b.o ABSOLUTE
    ../clib/microlib/longlong.c              0x00000000   Number         0  llsshr.o ABSOLUTE
    ../clib/microlib/longlong.c              0x00000000   Number         0  llushr.o ABSOLUTE
    ../clib/microlib/longlong.c              0x00000000   Number         0  llshl.o ABSOLUTE
    ../clib/microlib/stubs.s                 0x00000000   Number         0  iusefp.o ABSOLUTE
    ../fplib/microlib/d2f.c                  0x00000000   Number         0  d2f.o ABSOLUTE
    ../fplib/microlib/fpadd.c                0x00000000   Number         0  dadd.o ABSOLUTE
    ../fplib/microlib/fpdiv.c                0x00000000   Number         0  ddiv.o ABSOLUTE
    ../fplib/microlib/fpepilogue.c           0x00000000   Number         0  fepilogue.o ABSOLUTE
    ../fplib/microlib/fpepilogue.c           0x00000000   Number         0  depilogue.o ABSOLUTE
    ../fplib/microlib/fpfix.c                0x00000000   Number         0  dfixi.o ABSOLUTE
    ../fplib/microlib/fpflt.c                0x00000000   Number         0  dfltui.o ABSOLUTE
    ../fplib/microlib/fpflt.c                0x00000000   Number         0  dflti.o ABSOLUTE
    ../fplib/microlib/fpmul.c                0x00000000   Number         0  dmul.o ABSOLUTE
    ..\DriversBsp\Ano_Math.c                 0x00000000   Number         0  ano_math.o ABSOLUTE
    ..\DriversBsp\Drv_AnoOf.c                0x00000000   Number         0  drv_anoof.o ABSOLUTE
    ..\DriversBsp\Drv_BSP.c                  0x00000000   Number         0  drv_bsp.o ABSOLUTE
    ..\DriversBsp\Drv_MY_OpenMv.c            0x00000000   Number         0  drv_my_openmv.o ABSOLUTE
    ..\DriversBsp\Drv_UbloxGPS.c             0x00000000   Number         0  drv_ubloxgps.o ABSOLUTE
    ..\DriversMcu\TM4C123\Drivers\Drv_Adc.c  0x00000000   Number         0  drv_adc.o ABSOLUTE
    ..\DriversMcu\TM4C123\Drivers\Drv_Led.c  0x00000000   Number         0  drv_led.o ABSOLUTE
    ..\DriversMcu\TM4C123\Drivers\Drv_PwmOut.c 0x00000000   Number         0  drv_pwmout.o ABSOLUTE
    ..\DriversMcu\TM4C123\Drivers\Drv_RcIn.c 0x00000000   Number         0  drv_rcin.o ABSOLUTE
    ..\DriversMcu\TM4C123\Drivers\Drv_Sys.c  0x00000000   Number         0  drv_sys.o ABSOLUTE
    ..\DriversMcu\TM4C123\Drivers\Drv_Timer.c 0x00000000   Number         0  drv_timer.o ABSOLUTE
    ..\DriversMcu\TM4C123\Drivers\Drv_Uart.c 0x00000000   Number         0  drv_uart.o ABSOLUTE
    ..\DriversMcu\TM4C123\Drivers\Drv_Usb.c  0x00000000   Number         0  drv_usb.o ABSOLUTE
    ..\DriversMcu\TM4C123\Libraries\src\startup_TM4C123.s 0x00000000   Number         0  startup_tm4c123.o ABSOLUTE
    ..\DriversMcu\TM4C123\Libraries\src\system_TM4C123.c 0x00000000   Number         0  system_tm4c123.o ABSOLUTE
    ..\DriversMcu\TM4C123\Libraries\src\usb_serial_structs.c 0x00000000   Number         0  usb_serial_structs.o ABSOLUTE
    ..\FcSrc\ANO_DT_LX.c                     0x00000000   Number         0  ano_dt_lx.o ABSOLUTE
    ..\FcSrc\ANO_LX.c                        0x00000000   Number         0  ano_lx.o ABSOLUTE
    ..\FcSrc\Ano_Scheduler.c                 0x00000000   Number         0  ano_scheduler.o ABSOLUTE
    ..\FcSrc\LX_FC_EXT_Sensor.c              0x00000000   Number         0  lx_fc_ext_sensor.o ABSOLUTE
    ..\FcSrc\LX_FC_Fun.c                     0x00000000   Number         0  lx_fc_fun.o ABSOLUTE
    ..\FcSrc\LX_FC_State.c                   0x00000000   Number         0  lx_fc_state.o ABSOLUTE
    ..\FcSrc\User_Task.c                     0x00000000   Number         0  user_task.o ABSOLUTE
    ..\FcSrc\main.c                          0x00000000   Number         0  main.o ABSOLUTE
    ..\\DriversBsp\\Ano_Math.c               0x00000000   Number         0  ano_math.o ABSOLUTE
    ..\\DriversBsp\\Drv_AnoOf.c              0x00000000   Number         0  drv_anoof.o ABSOLUTE
    ..\\DriversBsp\\Drv_BSP.c                0x00000000   Number         0  drv_bsp.o ABSOLUTE
    ..\\DriversBsp\\Drv_MY_OpenMv.c          0x00000000   Number         0  drv_my_openmv.o ABSOLUTE
    ..\\DriversBsp\\Drv_UbloxGPS.c           0x00000000   Number         0  drv_ubloxgps.o ABSOLUTE
    ..\\DriversMcu\\TM4C123\\Drivers\\Drv_Adc.c 0x00000000   Number         0  drv_adc.o ABSOLUTE
    ..\\DriversMcu\\TM4C123\\Drivers\\Drv_Led.c 0x00000000   Number         0  drv_led.o ABSOLUTE
    ..\\DriversMcu\\TM4C123\\Drivers\\Drv_PwmOut.c 0x00000000   Number         0  drv_pwmout.o ABSOLUTE
    ..\\DriversMcu\\TM4C123\\Drivers\\Drv_RcIn.c 0x00000000   Number         0  drv_rcin.o ABSOLUTE
    ..\\DriversMcu\\TM4C123\\Drivers\\Drv_Sys.c 0x00000000   Number         0  drv_sys.o ABSOLUTE
    ..\\DriversMcu\\TM4C123\\Drivers\\Drv_Timer.c 0x00000000   Number         0  drv_timer.o ABSOLUTE
    ..\\DriversMcu\\TM4C123\\Drivers\\Drv_Uart.c 0x00000000   Number         0  drv_uart.o ABSOLUTE
    ..\\DriversMcu\\TM4C123\\Drivers\\Drv_Usb.c 0x00000000   Number         0  drv_usb.o ABSOLUTE
    ..\\DriversMcu\\TM4C123\\Libraries\\src\\system_TM4C123.c 0x00000000   Number         0  system_tm4c123.o ABSOLUTE
    ..\\FcSrc\\ANO_DT_LX.c                   0x00000000   Number         0  ano_dt_lx.o ABSOLUTE
    ..\\FcSrc\\ANO_LX.c                      0x00000000   Number         0  ano_lx.o ABSOLUTE
    ..\\FcSrc\\Ano_Scheduler.c               0x00000000   Number         0  ano_scheduler.o ABSOLUTE
    ..\\FcSrc\\LX_FC_EXT_Sensor.c            0x00000000   Number         0  lx_fc_ext_sensor.o ABSOLUTE
    ..\\FcSrc\\LX_FC_Fun.c                   0x00000000   Number         0  lx_fc_fun.o ABSOLUTE
    ..\\FcSrc\\LX_FC_State.c                 0x00000000   Number         0  lx_fc_state.o ABSOLUTE
    ..\\FcSrc\\User_Task.c                   0x00000000   Number         0  user_task.o ABSOLUTE
    ..\\FcSrc\\main.c                        0x00000000   Number         0  main.o ABSOLUTE
    adc.c                                    0x00000000   Number         0  adc.o ABSOLUTE
    cdcmple.s                                0x00000000   Number         0  cdcmple.o ABSOLUTE
    cdrcmple.s                               0x00000000   Number         0  cdrcmple.o ABSOLUTE
    cpu.c                                    0x00000000   Number         0  cpu.o ABSOLUTE
    cpu.c                                    0x00000000   Number         0  cpu.o ABSOLUTE
    dc.s                                     0x00000000   Number         0  dc.o ABSOLUTE
    device\usbdcdc.c                         0x00000000   Number         0  usbdcdc.o ABSOLUTE
    device\usbdcdesc.c                       0x00000000   Number         0  usbdcdesc.o ABSOLUTE
    device\usbdconfig.c                      0x00000000   Number         0  usbdconfig.o ABSOLUTE
    device\usbdenum.c                        0x00000000   Number         0  usbdenum.o ABSOLUTE
    device\usbdhandler.c                     0x00000000   Number         0  usbdhandler.o ABSOLUTE
    handlers.s                               0x00000000   Number         0  handlers.o ABSOLUTE
    host\usbhhub.c                           0x00000000   Number         0  usbhhub.o ABSOLUTE
    host\usbhostenum.c                       0x00000000   Number         0  usbhostenum.o ABSOLUTE
    init.s                                   0x00000000   Number         0  init.o ABSOLUTE
    interrupt.c                              0x00000000   Number         0  interrupt.o ABSOLUTE
    sysctl.c                                 0x00000000   Number         0  sysctl.o ABSOLUTE
    sysctl.c                                 0x00000000   Number         0  sysctl.o ABSOLUTE
    timer.c                                  0x00000000   Number         0  timer.o ABSOLUTE
    uart.c                                   0x00000000   Number         0  uart.o ABSOLUTE
    udma.c                                   0x00000000   Number         0  udma.o ABSOLUTE
    usb.c                                    0x00000000   Number         0  usb.o ABSOLUTE
    usbbuffer.c                              0x00000000   Number         0  usbbuffer.o ABSOLUTE
    usbdesc.c                                0x00000000   Number         0  usbdesc.o ABSOLUTE
    usbdma.c                                 0x00000000   Number         0  usbdma.o ABSOLUTE
    usbmode.c                                0x00000000   Number         0  usbmode.o ABSOLUTE
    usbringbuf.c                             0x00000000   Number         0  usbringbuf.o ABSOLUTE
    usbtick.c                                0x00000000   Number         0  usbtick.o ABSOLUTE
    usbulpi.c                                0x00000000   Number         0  usbulpi.o ABSOLUTE
    .ARM.Collect$$$$00000000                 0x0000026c   Section        0  entry.o(.ARM.Collect$$$$00000000)
    .ARM.Collect$$$$00000001                 0x0000026c   Section        4  entry2.o(.ARM.Collect$$$$00000001)
    .ARM.Collect$$$$00000004                 0x00000270   Section        4  entry5.o(.ARM.Collect$$$$00000004)
    .ARM.Collect$$$$00000008                 0x00000274   Section        0  entry7b.o(.ARM.Collect$$$$00000008)
    .ARM.Collect$$$$0000000A                 0x00000274   Section        0  entry8b.o(.ARM.Collect$$$$0000000A)
    .ARM.Collect$$$$0000000B                 0x00000274   Section        8  entry9a.o(.ARM.Collect$$$$0000000B)
    .ARM.Collect$$$$0000000D                 0x0000027c   Section        0  entry10a.o(.ARM.Collect$$$$0000000D)
    .ARM.Collect$$$$0000000F                 0x0000027c   Section        0  entry11a.o(.ARM.Collect$$$$0000000F)
    .ARM.Collect$$$$00002712                 0x0000027c   Section        4  entry2.o(.ARM.Collect$$$$00002712)
    __lit__00000000                          0x0000027c   Data           4  entry2.o(.ARM.Collect$$$$00002712)
    .text                                    0x00000280   Section      252  startup_tm4c123.o(.text)
    $v0                                      0x00000280   Number         0  startup_tm4c123.o(.text)
    .text                                    0x0000037c   Section        0  dadd.o(.text)
    .text                                    0x000004ca   Section        0  dmul.o(.text)
    .text                                    0x000005ae   Section        0  ddiv.o(.text)
    .text                                    0x0000068c   Section        0  dflti.o(.text)
    .text                                    0x000006ae   Section        0  dfltui.o(.text)
    .text                                    0x000006c8   Section        0  dfixi.o(.text)
    .text                                    0x00000706   Section        0  d2f.o(.text)
    .text                                    0x0000073e   Section        0  llshl.o(.text)
    .text                                    0x0000075c   Section        0  llushr.o(.text)
    .text                                    0x0000077c   Section        0  llsshr.o(.text)
    .text                                    0x000007a0   Section        0  fepilogue.o(.text)
    .text                                    0x000007a0   Section        0  iusefp.o(.text)
    .text                                    0x0000080e   Section        0  depilogue.o(.text)
    .text                                    0x000008c8   Section       36  init.o(.text)
    .text                                    0x000008ec   Section        0  __dczerorl2.o(.text)
    i.ADC0Handler                            0x00000944   Section        0  drv_adc.o(i.ADC0Handler)
    ADC0Handler                              0x00000945   Thumb Code    34  drv_adc.o(i.ADC0Handler)
    i.ADCIntRegister                         0x00000970   Section        0  adc.o(i.ADCIntRegister)
    i.ANO_DT_Init                            0x000009d8   Section        0  ano_dt_lx.o(i.ANO_DT_Init)
    i.ANO_DT_LX_Data_Receive_Anl             0x00000a84   Section        0  ano_dt_lx.o(i.ANO_DT_LX_Data_Receive_Anl)
    ANO_DT_LX_Data_Receive_Anl               0x00000a85   Thumb Code   678  ano_dt_lx.o(i.ANO_DT_LX_Data_Receive_Anl)
    i.ANO_DT_LX_Data_Receive_Prepare         0x00000d5c   Section        0  ano_dt_lx.o(i.ANO_DT_LX_Data_Receive_Prepare)
    i.ANO_DT_LX_Send_Data                    0x00000e74   Section        0  ano_dt_lx.o(i.ANO_DT_LX_Send_Data)
    ANO_DT_LX_Send_Data                      0x00000e75   Thumb Code    16  ano_dt_lx.o(i.ANO_DT_LX_Send_Data)
    i.ANO_LX_Data_Exchange_Task              0x00000e84   Section        0  ano_dt_lx.o(i.ANO_LX_Data_Exchange_Task)
    i.ANO_LX_Task                            0x00000ec8   Section        0  ano_lx.o(i.ANO_LX_Task)
    i.Add_Send_Data                          0x00000f64   Section        0  ano_dt_lx.o(i.Add_Send_Data)
    Add_Send_Data                            0x00000f65   Thumb Code   390  ano_dt_lx.o(i.Add_Send_Data)
    i.All_Init                               0x00001104   Section        0  drv_bsp.o(i.All_Init)
    i.Angle_cal                              0x00001168   Section        0  user_task.o(i.Angle_cal)
    i.AnoOF_Check_State                      0x000012e8   Section        0  drv_anoof.o(i.AnoOF_Check_State)
    i.AnoOF_DataAnl                          0x000013a8   Section        0  drv_anoof.o(i.AnoOF_DataAnl)
    AnoOF_DataAnl                            0x000013a9   Thumb Code   402  drv_anoof.o(i.AnoOF_DataAnl)
    i.AnoOF_GetOneByte                       0x00001560   Section        0  drv_anoof.o(i.AnoOF_GetOneByte)
    i.Bat_Voltage_Data_Handle                0x0000166c   Section        0  ano_lx.o(i.Bat_Voltage_Data_Handle)
    Bat_Voltage_Data_Handle                  0x0000166d   Thumb Code    28  ano_lx.o(i.Bat_Voltage_Data_Handle)
    i.CK_Back                                0x00001690   Section        0  ano_dt_lx.o(i.CK_Back)
    i.CK_Back_Check                          0x000016a0   Section        0  ano_dt_lx.o(i.CK_Back_Check)
    CK_Back_Check                            0x000016a1   Thumb Code    90  ano_dt_lx.o(i.CK_Back_Check)
    i.CMD_Send                               0x00001708   Section        0  ano_dt_lx.o(i.CMD_Send)
    i.Check_To_Send                          0x00001724   Section        0  ano_dt_lx.o(i.Check_To_Send)
    Check_To_Send                            0x00001725   Thumb Code   138  ano_dt_lx.o(i.Check_To_Send)
    i.DOWN_                                  0x000017b4   Section        0  lx_fc_fun.o(i.DOWN_)
    i.DrvAdcInit                             0x00001808   Section        0  drv_adc.o(i.DrvAdcInit)
    i.DrvLedOnOff                            0x000018c0   Section        0  drv_led.o(i.DrvLedOnOff)
    i.DrvMotorPWMSet                         0x00001974   Section        0  drv_pwmout.o(i.DrvMotorPWMSet)
    i.DrvPpmGetOneCh                         0x00001a60   Section        0  drv_bsp.o(i.DrvPpmGetOneCh)
    i.DrvPwmOutInit                          0x00001ac4   Section        0  drv_pwmout.o(i.DrvPwmOutInit)
    i.DrvRcInputInit                         0x00001d9c   Section        0  drv_bsp.o(i.DrvRcInputInit)
    i.DrvRcInputTask                         0x00001db4   Section        0  drv_bsp.o(i.DrvRcInputTask)
    i.DrvRcPpmInit                           0x00001eac   Section        0  drv_rcin.o(i.DrvRcPpmInit)
    i.DrvRcSbusInit                          0x00001f80   Section        0  drv_rcin.o(i.DrvRcSbusInit)
    i.DrvSbusGetOneByte                      0x00002038   Section        0  drv_bsp.o(i.DrvSbusGetOneByte)
    i.DrvSysInit                             0x00002280   Section        0  drv_sys.o(i.DrvSysInit)
    i.DrvTimerFcInit                         0x000022d0   Section        0  drv_timer.o(i.DrvTimerFcInit)
    i.DrvUart1Init                           0x0000234c   Section        0  drv_uart.o(i.DrvUart1Init)
    i.DrvUart1SendBuf                        0x0000241c   Section        0  drv_uart.o(i.DrvUart1SendBuf)
    i.DrvUart1TxCheck                        0x00002450   Section        0  drv_uart.o(i.DrvUart1TxCheck)
    i.DrvUart2Init                           0x00002494   Section        0  drv_uart.o(i.DrvUart2Init)
    i.DrvUart2TxCheck                        0x0000256c   Section        0  drv_uart.o(i.DrvUart2TxCheck)
    i.DrvUart3Init                           0x000025b0   Section        0  drv_uart.o(i.DrvUart3Init)
    i.DrvUart3TxCheck                        0x00002688   Section        0  drv_uart.o(i.DrvUart3TxCheck)
    i.DrvUart4Init                           0x000026cc   Section        0  drv_uart.o(i.DrvUart4Init)
    i.DrvUart4TxCheck                        0x000027a4   Section        0  drv_uart.o(i.DrvUart4TxCheck)
    i.DrvUart5Init                           0x000027e8   Section        0  drv_uart.o(i.DrvUart5Init)
    i.DrvUart5SendBuf                        0x000028dc   Section        0  drv_uart.o(i.DrvUart5SendBuf)
    i.DrvUart5TxCheck                        0x00002910   Section        0  drv_uart.o(i.DrvUart5TxCheck)
    i.DrvUartDataCheck                       0x00002954   Section        0  drv_uart.o(i.DrvUartDataCheck)
    i.Drv_AdcGetBatVot                       0x0000296c   Section        0  drv_adc.o(i.Drv_AdcGetBatVot)
    i.DvrLedInit                             0x000029dc   Section        0  drv_led.o(i.DvrLedInit)
    i.ESC_Output                             0x00002a60   Section        0  ano_lx.o(i.ESC_Output)
    ESC_Output                               0x00002a61   Thumb Code   364  ano_lx.o(i.ESC_Output)
    i.FC_Lock                                0x00002bdc   Section        0  lx_fc_fun.o(i.FC_Lock)
    i.FC_Unlock                              0x00002c1c   Section        0  lx_fc_fun.o(i.FC_Unlock)
    i.FC_stand                               0x00002c5c   Section        0  lx_fc_fun.o(i.FC_stand)
    i.Frame_Send                             0x00002c94   Section        0  ano_dt_lx.o(i.Frame_Send)
    Frame_Send                               0x00002c95   Thumb Code   190  ano_dt_lx.o(i.Frame_Send)
    i.GPS_Data_Prepare_Task                  0x00002d5c   Section        0  drv_ubloxgps.o(i.GPS_Data_Prepare_Task)
    i.GPS_Rate_H                             0x00002ea8   Section        0  drv_ubloxgps.o(i.GPS_Rate_H)
    i.General_Velocity_Data_Handle           0x00002eb8   Section        0  lx_fc_ext_sensor.o(i.General_Velocity_Data_Handle)
    General_Velocity_Data_Handle             0x00002eb9   Thumb Code   120  lx_fc_ext_sensor.o(i.General_Velocity_Data_Handle)
    i.GetSysRunTimeMs                        0x00002f48   Section        0  drv_sys.o(i.GetSysRunTimeMs)
    i.GetSysRunTimeUs                        0x00002f54   Section        0  drv_sys.o(i.GetSysRunTimeUs)
    i.Horizontal_Calibrate                   0x00002f88   Section        0  lx_fc_fun.o(i.Horizontal_Calibrate)
    i.Horizontal_Move                        0x00002fc0   Section        0  lx_fc_fun.o(i.Horizontal_Move)
    i.Init_GPS                               0x00003028   Section        0  drv_ubloxgps.o(i.Init_GPS)
    i.IntEnable                              0x00003108   Section        0  interrupt.o(i.IntEnable)
    i.IntRegister                            0x0000316c   Section        0  interrupt.o(i.IntRegister)
    i.LED_1ms_DRV                            0x000031a0   Section        0  drv_led.o(i.LED_1ms_DRV)
    i.LEFT_                                  0x000031f8   Section        0  lx_fc_fun.o(i.LEFT_)
    i.LX_Cali_Trig_Check                     0x00003250   Section        0  lx_fc_state.o(i.LX_Cali_Trig_Check)
    i.LX_Change_Mode                         0x000032f4   Section        0  lx_fc_fun.o(i.LX_Change_Mode)
    i.LX_FC_EXT_Sensor_Task                  0x00003350   Section        0  lx_fc_ext_sensor.o(i.LX_FC_EXT_Sensor_Task)
    i.LX_FC_State_Task                       0x000033b0   Section        0  lx_fc_state.o(i.LX_FC_State_Task)
    i.LX_Unlock_Lock_Check                   0x000033d0   Section        0  lx_fc_state.o(i.LX_Unlock_Lock_Check)
    LX_Unlock_Lock_Check                     0x000033d1   Thumb Code   438  lx_fc_state.o(i.LX_Unlock_Lock_Check)
    i.Loop_1000Hz                            0x000035a0   Section        0  ano_scheduler.o(i.Loop_1000Hz)
    Loop_1000Hz                              0x000035a1   Thumb Code     2  ano_scheduler.o(i.Loop_1000Hz)
    i.Loop_100Hz                             0x000035a2   Section        0  ano_scheduler.o(i.Loop_100Hz)
    Loop_100Hz                               0x000035a3   Thumb Code     2  ano_scheduler.o(i.Loop_100Hz)
    i.Loop_200Hz                             0x000035a4   Section        0  ano_scheduler.o(i.Loop_200Hz)
    Loop_200Hz                               0x000035a5   Thumb Code    64  ano_scheduler.o(i.Loop_200Hz)
    i.Loop_20Hz                              0x00003600   Section        0  ano_scheduler.o(i.Loop_20Hz)
    Loop_20Hz                                0x00003601   Thumb Code     2  ano_scheduler.o(i.Loop_20Hz)
    i.Loop_2Hz                               0x00003602   Section        0  ano_scheduler.o(i.Loop_2Hz)
    Loop_2Hz                                 0x00003603   Thumb Code     2  ano_scheduler.o(i.Loop_2Hz)
    i.Loop_500Hz                             0x00003604   Section        0  ano_scheduler.o(i.Loop_500Hz)
    Loop_500Hz                               0x00003605   Thumb Code     2  ano_scheduler.o(i.Loop_500Hz)
    i.Loop_50Hz                              0x00003608   Section        0  ano_scheduler.o(i.Loop_50Hz)
    Loop_50Hz                                0x00003609   Thumb Code   228  ano_scheduler.o(i.Loop_50Hz)
    i.Mag_Calibrate                          0x00003724   Section        0  lx_fc_fun.o(i.Mag_Calibrate)
    i.MyDelayMs                              0x0000375c   Section        0  drv_sys.o(i.MyDelayMs)
    i.NoUse                                  0x00003780   Section        0  drv_uart.o(i.NoUse)
    i.OneKey_Land                            0x00003784   Section        0  lx_fc_fun.o(i.OneKey_Land)
    i.OneKey_Return_Home                     0x000037bc   Section        0  lx_fc_fun.o(i.OneKey_Return_Home)
    i.OneKey_Takeoff                         0x000037f4   Section        0  lx_fc_fun.o(i.OneKey_Takeoff)
    i.PAR_Back                               0x0000383c   Section        0  ano_dt_lx.o(i.PAR_Back)
    i.PPM_Decode                             0x00003850   Section        0  drv_rcin.o(i.PPM_Decode)
    PPM_Decode                               0x00003851   Thumb Code   114  drv_rcin.o(i.PPM_Decode)
    i.Quadrant_anl                           0x000038d4   Section        0  user_task.o(i.Quadrant_anl)
    i.RC_Data_Task                           0x00003a7c   Section        0  ano_lx.o(i.RC_Data_Task)
    RC_Data_Task                             0x00003a7d   Thumb Code   604  ano_lx.o(i.RC_Data_Task)
    i.RIGHT_                                 0x00003d1c   Section        0  lx_fc_fun.o(i.RIGHT_)
    i.Rotate                                 0x00003d74   Section        0  lx_fc_fun.o(i.Rotate)
    i.Sbus_IRQHandler                        0x00003d94   Section        0  drv_rcin.o(i.Sbus_IRQHandler)
    Sbus_IRQHandler                          0x00003d95   Thumb Code    76  drv_rcin.o(i.Sbus_IRQHandler)
    i.Scheduler_Run                          0x00003de4   Section        0  ano_scheduler.o(i.Scheduler_Run)
    i.Scheduler_Setup                        0x00003e34   Section        0  ano_scheduler.o(i.Scheduler_Setup)
    i.SysCtlClockGet                         0x00003e84   Section        0  sysctl.o(i.SysCtlClockGet)
    i.SysTick_Handler                        0x00003fd8   Section        0  drv_sys.o(i.SysTick_Handler)
    i.SysTick_Init                           0x00003ff0   Section        0  drv_sys.o(i.SysTick_Init)
    i.SystemInit                             0x00004028   Section        0  system_tm4c123.o(i.SystemInit)
    i.Timer0Irq                              0x000040c0   Section        0  drv_timer.o(i.Timer0Irq)
    i.TimerIntClear                          0x000040d4   Section        0  timer.o(i.TimerIntClear)
    i.TimerIntRegister                       0x000040d8   Section        0  timer.o(i.TimerIntRegister)
    i.UART1_IRQHandler                       0x00004140   Section        0  drv_uart.o(i.UART1_IRQHandler)
    i.UART2_IRQHandler                       0x00004198   Section        0  drv_uart.o(i.UART2_IRQHandler)
    i.UART3_IRQHandler                       0x000041f0   Section        0  drv_uart.o(i.UART3_IRQHandler)
    i.UART4_IRQHandler                       0x00004248   Section        0  drv_uart.o(i.UART4_IRQHandler)
    i.UART5_IRQHandler                       0x000042a0   Section        0  drv_uart.o(i.UART5_IRQHandler)
    i.UARTIntRegister                        0x000042f8   Section        0  uart.o(i.UARTIntRegister)
    i.UBLOX_M8_GPS_Data_Receive              0x00004350   Section        0  drv_ubloxgps.o(i.UBLOX_M8_GPS_Data_Receive)
    i.UP_                                    0x000044b4   Section        0  lx_fc_fun.o(i.UP_)
    i.UserTask_OneKeyCmd                     0x0000450c   Section        0  user_task.o(i.UserTask_OneKeyCmd)
    i.Userdata_send_OPENMV                   0x000051c4   Section        0  user_task.o(i.Userdata_send_OPENMV)
    i.__scatterload_copy                     0x00005510   Section       14  handlers.o(i.__scatterload_copy)
    i.__scatterload_null                     0x0000551e   Section        2  handlers.o(i.__scatterload_null)
    i.__scatterload_zeroinit                 0x00005520   Section       14  handlers.o(i.__scatterload_zeroinit)
    i.drvAdcTrigger                          0x00005530   Section        0  drv_adc.o(i.drvAdcTrigger)
    i.fast_atan2                             0x00005548   Section        0  ano_math.o(i.fast_atan2)
    i.frame_send_16                          0x000056c4   Section        0  user_task.o(i.frame_send_16)
    i.frame_send_32                          0x0000574c   Section        0  user_task.o(i.frame_send_32)
    i.frame_send_8                           0x000057ee   Section        0  user_task.o(i.frame_send_8)
    i.frame_send_float                       0x0000586a   Section        0  user_task.o(i.frame_send_float)
    i.main                                   0x00005904   Section        0  main.o(i.main)
    i.my_abs                                 0x00005914   Section        0  ano_math.o(i.my_abs)
    i.my_deadzone                            0x0000592e   Section        0  ano_math.o(i.my_deadzone)
    i.my_sqrt                                0x00005964   Section        0  ano_math.o(i.my_sqrt)
    i.my_sqrt_reciprocal                     0x00005978   Section        0  ano_math.o(i.my_sqrt_reciprocal)
    i.offset_error_xy                        0x000059c8   Section        0  user_task.o(i.offset_error_xy)
    i.rcSignalCheck                          0x00005b20   Section        0  drv_bsp.o(i.rcSignalCheck)
    rcSignalCheck                            0x00005b21   Thumb Code   168  drv_bsp.o(i.rcSignalCheck)
    .constdata                               0x00005bd8   Section     1028  ano_math.o(.constdata)
    .constdata                               0x00005fdc   Section      596  sysctl.o(.constdata)
    g_pui32VCOFrequencies                    0x00005fdc   Data           8  sysctl.o(.constdata)
    g_pui32Xtals                             0x00005fe4   Data         108  sysctl.o(.constdata)
    g_pppui32XTALtoVCO                       0x00006050   Data         432  sysctl.o(.constdata)
    g_sXTALtoMEMTIM                          0x00006200   Data          48  sysctl.o(.constdata)
    .constdata                               0x00006230   Section      160  timer.o(.constdata)
    g_ppui32TimerIntMap                      0x00006230   Data          96  timer.o(.constdata)
    g_ppui32TimerIntMapSnowflake             0x00006290   Data          64  timer.o(.constdata)
    .constdata                               0x000062d0   Section      128  uart.o(.constdata)
    g_ppui32UARTIntMap                       0x000062d0   Data          64  uart.o(.constdata)
    g_ppui32UARTIntMapSnowflake              0x00006310   Data          64  uart.o(.constdata)
    .constdata                               0x00006350   Section      268  interrupt.o(.constdata)
    g_pui32Priority                          0x00006350   Data          32  interrupt.o(.constdata)
    g_pui32Regs                              0x00006370   Data         156  interrupt.o(.constdata)
    g_pui32EnRegs                            0x0000640c   Data          20  interrupt.o(.constdata)
    g_pui32Dii16Regs                         0x00006420   Data          20  interrupt.o(.constdata)
    g_pui32PendRegs                          0x00006434   Data          20  interrupt.o(.constdata)
    g_pui32UnpendRegs                        0x00006448   Data          20  interrupt.o(.constdata)
    .data                                    0x20000000   Section      108  ano_scheduler.o(.data)
    start_error_X                            0x20000014   Data           2  ano_scheduler.o(.data)
    start_error_Y                            0x20000016   Data           2  ano_scheduler.o(.data)
    sched_tasks                              0x20000018   Data          84  ano_scheduler.o(.data)
    .data                                    0x2000006c   Section      212  user_task.o(.data)
    one_key_takeoff_f                        0x2000013a   Data           1  user_task.o(.data)
    one_key_land_f                           0x2000013b   Data           1  user_task.o(.data)
    one_key_mission_f                        0x2000013c   Data           1  user_task.o(.data)
    time_dly_cnt_ms                          0x2000013e   Data           2  user_task.o(.data)
    .data                                    0x20000140   Section        6  ano_dt_lx.o(.data)
    DT_data_cnt                              0x20000140   Data           1  ano_dt_lx.o(.data)
    repeat_cnt                               0x20000141   Data           1  ano_dt_lx.o(.data)
    _data_len                                0x20000142   Data           1  ano_dt_lx.o(.data)
    _data_cnt                                0x20000143   Data           1  ano_dt_lx.o(.data)
    rxstate                                  0x20000144   Data           1  ano_dt_lx.o(.data)
    time_dly                                 0x20000145   Data           1  ano_dt_lx.o(.data)
    .data                                    0x20000146   Section       18  ano_lx.o(.data)
    fail_safe_change_mod                     0x2000014a   Data           1  ano_lx.o(.data)
    fail_safe_return_home                    0x2000014b   Data           1  ano_lx.o(.data)
    mod_f                                    0x2000014c   Data           3  ano_lx.o(.data)
    mod_f_time_cnt                           0x20000150   Data           2  ano_lx.o(.data)
    esc_calibrated                           0x20000152   Data           1  ano_lx.o(.data)
    tmp_cnt                                  0x20000154   Data           4  ano_lx.o(.data)
    .data                                    0x20000158   Section        4  lx_fc_ext_sensor.o(.data)
    of_update_cnt                            0x20000158   Data           1  lx_fc_ext_sensor.o(.data)
    of_alt_update_cnt                        0x20000159   Data           1  lx_fc_ext_sensor.o(.data)
    dT_ms                                    0x2000015a   Data           1  lx_fc_ext_sensor.o(.data)
    of_alt_update_cnt                        0x2000015b   Data           1  lx_fc_ext_sensor.o(.data)
    .data                                    0x2000015c   Section        1  lx_fc_fun.o(.data)
    old_mode                                 0x2000015c   Data           1  lx_fc_fun.o(.data)
    .data                                    0x2000015e   Section        6  lx_fc_state.o(.data)
    time_dly_cnt_ms                          0x20000160   Data           2  lx_fc_state.o(.data)
    unlock_lock_flag                         0x20000162   Data           1  lx_fc_state.o(.data)
    cali_f                                   0x20000163   Data           1  lx_fc_state.o(.data)
    .data                                    0x20000164   Section       19  drv_bsp.o(.data)
    ch_sta                                   0x20000164   Data           1  drv_bsp.o(.data)
    sbus_time                                0x20000168   Data           8  drv_bsp.o(.data)
    cnt                                      0x20000170   Data           1  drv_bsp.o(.data)
    frame_cnt                                0x20000171   Data           1  drv_bsp.o(.data)
    cnt_tmp                                  0x20000172   Data           1  drv_bsp.o(.data)
    time_dly                                 0x20000174   Data           2  drv_bsp.o(.data)
    failsafe                                 0x20000176   Data           1  drv_bsp.o(.data)
    .data                                    0x20000177   Section        3  drv_anoof.o(.data)
    _data_len                                0x20000177   Data           1  drv_anoof.o(.data)
    _data_cnt                                0x20000178   Data           1  drv_anoof.o(.data)
    rxstate                                  0x20000179   Data           1  drv_anoof.o(.data)
    .data                                    0x2000017a   Section      182  drv_ubloxgps.o(.data)
    protocol_class                           0x20000229   Data           1  drv_ubloxgps.o(.data)
    protocol_id                              0x2000022a   Data           1  drv_ubloxgps.o(.data)
    protocol_length_t                        0x2000022b   Data           1  drv_ubloxgps.o(.data)
    protocol_length                          0x2000022c   Data           2  drv_ubloxgps.o(.data)
    state                                    0x2000022f   Data           1  drv_ubloxgps.o(.data)
    .data                                    0x20000230   Section        8  drv_sys.o(.data)
    SysRunTimeMs                             0x20000230   Data           8  drv_sys.o(.data)
    .data                                    0x20000238   Section        4  drv_adc.o(.data)
    .data                                    0x2000023c   Section       12  drv_led.o(.data)
    led_cnt                                  0x20000240   Data           8  drv_led.o(.data)
    .data                                    0x20000248   Section       12  drv_rcin.o(.data)
    PeriodVal1                               0x20000248   Data           4  drv_rcin.o(.data)
    PeriodVal2                               0x2000024c   Data           4  drv_rcin.o(.data)
    PulseHigh                                0x20000250   Data           4  drv_rcin.o(.data)
    .data                                    0x20000254   Section       10  drv_uart.o(.data)
    vtable                                   0x20000400   Section      620  interrupt.o(vtable)
    g_pfnRAMVectors                          0x20000400   Data         620  interrupt.o(vtable)
    .bss                                     0x2000066c   Section       20  user_task.o(.bss)
    User_send_buffer                         0x2000066c   Data          20  user_task.o(.bss)
    .bss                                     0x20000680   Section     1872  ano_dt_lx.o(.bss)
    DT_RxBuffer                              0x20000cd0   Data         256  ano_dt_lx.o(.bss)
    .bss                                     0x20000dd0   Section       66  ano_lx.o(.bss)
    pwm                                      0x20000e02   Data          16  ano_lx.o(.bss)
    .bss                                     0x20000e12   Section       48  lx_fc_ext_sensor.o(.bss)
    .bss                                     0x20000e42   Section       11  lx_fc_state.o(.bss)
    .bss                                     0x20000e4e   Section      107  drv_bsp.o(.bss)
    datatmp                                  0x20000ea0   Data          25  drv_bsp.o(.bss)
    .bss                                     0x20000ebc   Section      124  drv_anoof.o(.bss)
    _datatemp                                0x20000ef8   Data          50  drv_anoof.o(.bss)
    check_time_ms                            0x20000f2c   Data          12  drv_anoof.o(.bss)
    .bss                                     0x20000f38   Section      100  drv_ubloxgps.o(.bss)
    .bss                                     0x20000f9c   Section      298  drv_my_openmv.o(.bss)
    _datatemp                                0x20001094   Data          50  drv_my_openmv.o(.bss)
    .bss                                     0x200010c6   Section     1280  drv_uart.o(.bss)
    STACK                                    0x200015c8   Section     2560  startup_tm4c123.o(STACK)

    Global Symbols

    Symbol Name                              Value     Ov Type        Size  Object(Section)

    BuildAttributes$$THM_ISAv4$E$P$D$K$B$S$7EM$VFPi3$EXTD16$VFPS$VFMA$PE$A:L22UL41UL21$X:L11$S22US41US21$IEEE1$IW$USESV6$~STKCKD$USESV7$~SHL$OTIME$ROPI$EBA8$MICROLIB$REQ8$PRES8$EABIv2 0x00000000   Number         0  anon$$obj.o ABSOLUTE
    __ARM_use_no_argv                        0x00000000   Number         0  main.o ABSOLUTE
    __Vectors                                0x00000000   Data           4  startup_tm4c123.o(RESET)
    __cpp_initialize__aeabi_                  - Undefined Weak Reference
    __cxa_finalize                            - Undefined Weak Reference
    _clock_init                               - Undefined Weak Reference
    _microlib_exit                            - Undefined Weak Reference
    __Vectors_End                            0x0000026c   Data           0  startup_tm4c123.o(RESET)
    __Vectors_Size                           0x0000026c   Number         0  startup_tm4c123.o ABSOLUTE
    __main                                   0x0000026d   Thumb Code     0  entry.o(.ARM.Collect$$$$00000000)
    _main_stk                                0x0000026d   Thumb Code     0  entry2.o(.ARM.Collect$$$$00000001)
    _main_scatterload                        0x00000271   Thumb Code     0  entry5.o(.ARM.Collect$$$$00000004)
    __main_after_scatterload                 0x00000275   Thumb Code     0  entry5.o(.ARM.Collect$$$$00000004)
    _main_clock                              0x00000275   Thumb Code     0  entry7b.o(.ARM.Collect$$$$00000008)
    _main_cpp_init                           0x00000275   Thumb Code     0  entry8b.o(.ARM.Collect$$$$0000000A)
    _main_init                               0x00000275   Thumb Code     0  entry9a.o(.ARM.Collect$$$$0000000B)
    __rt_final_cpp                           0x0000027d   Thumb Code     0  entry10a.o(.ARM.Collect$$$$0000000D)
    __rt_final_exit                          0x0000027d   Thumb Code     0  entry11a.o(.ARM.Collect$$$$0000000F)
    Reset_Handler                            0x00000281   Thumb Code     8  startup_tm4c123.o(.text)
    NMI_Handler                              0x00000289   Thumb Code     2  startup_tm4c123.o(.text)
    HardFault_Handler                        0x0000028b   Thumb Code     2  startup_tm4c123.o(.text)
    MemManage_Handler                        0x0000028d   Thumb Code     2  startup_tm4c123.o(.text)
    BusFault_Handler                         0x0000028f   Thumb Code     2  startup_tm4c123.o(.text)
    UsageFault_Handler                       0x00000291   Thumb Code     2  startup_tm4c123.o(.text)
    SVC_Handler                              0x00000293   Thumb Code     2  startup_tm4c123.o(.text)
    DebugMon_Handler                         0x00000295   Thumb Code     2  startup_tm4c123.o(.text)
    PendSV_Handler                           0x00000297   Thumb Code     2  startup_tm4c123.o(.text)
    GPIOA_Handler                            0x0000029b   Thumb Code     2  startup_tm4c123.o(.text)
    GPIOB_Handler                            0x0000029d   Thumb Code     2  startup_tm4c123.o(.text)
    GPIOC_Handler                            0x0000029f   Thumb Code     2  startup_tm4c123.o(.text)
    GPIOD_Handler                            0x000002a1   Thumb Code     2  startup_tm4c123.o(.text)
    GPIOE_Handler                            0x000002a3   Thumb Code     2  startup_tm4c123.o(.text)
    UART0_Handler                            0x000002a5   Thumb Code     2  startup_tm4c123.o(.text)
    UART1_Handler                            0x000002a7   Thumb Code     2  startup_tm4c123.o(.text)
    SSI0_Handler                             0x000002a9   Thumb Code     2  startup_tm4c123.o(.text)
    I2C0_Handler                             0x000002ab   Thumb Code     2  startup_tm4c123.o(.text)
    PMW0_FAULT_Handler                       0x000002ad   Thumb Code     2  startup_tm4c123.o(.text)
    PWM0_0_Handler                           0x000002af   Thumb Code     2  startup_tm4c123.o(.text)
    PWM0_1_Handler                           0x000002b1   Thumb Code     2  startup_tm4c123.o(.text)
    PWM0_2_Handler                           0x000002b3   Thumb Code     2  startup_tm4c123.o(.text)
    QEI0_Handler                             0x000002b5   Thumb Code     2  startup_tm4c123.o(.text)
    ADC0SS0_Handler                          0x000002b7   Thumb Code     2  startup_tm4c123.o(.text)
    ADC0SS1_Handler                          0x000002b9   Thumb Code     2  startup_tm4c123.o(.text)
    ADC0SS2_Handler                          0x000002bb   Thumb Code     2  startup_tm4c123.o(.text)
    ADC0SS3_Handler                          0x000002bd   Thumb Code     2  startup_tm4c123.o(.text)
    WDT0_Handler                             0x000002bf   Thumb Code     2  startup_tm4c123.o(.text)
    TIMER0A_Handler                          0x000002c1   Thumb Code     2  startup_tm4c123.o(.text)
    TIMER0B_Handler                          0x000002c3   Thumb Code     2  startup_tm4c123.o(.text)
    TIMER1A_Handler                          0x000002c5   Thumb Code     2  startup_tm4c123.o(.text)
    TIMER1B_Handler                          0x000002c7   Thumb Code     2  startup_tm4c123.o(.text)
    TIMER2A_Handler                          0x000002c9   Thumb Code     2  startup_tm4c123.o(.text)
    TIMER2B_Handler                          0x000002cb   Thumb Code     2  startup_tm4c123.o(.text)
    COMP0_Handler                            0x000002cd   Thumb Code     2  startup_tm4c123.o(.text)
    COMP1_Handler                            0x000002cf   Thumb Code     2  startup_tm4c123.o(.text)
    COMP2_Handler                            0x000002d1   Thumb Code     2  startup_tm4c123.o(.text)
    SYSCTL_Handler                           0x000002d3   Thumb Code     2  startup_tm4c123.o(.text)
    FLASH_Handler                            0x000002d5   Thumb Code     2  startup_tm4c123.o(.text)
    GPIOF_Handler                            0x000002d7   Thumb Code     2  startup_tm4c123.o(.text)
    GPIOG_Handler                            0x000002d9   Thumb Code     2  startup_tm4c123.o(.text)
    GPIOH_Handler                            0x000002db   Thumb Code     2  startup_tm4c123.o(.text)
    UART2_Handler                            0x000002dd   Thumb Code     2  startup_tm4c123.o(.text)
    SSI1_Handler                             0x000002df   Thumb Code     2  startup_tm4c123.o(.text)
    TIMER3A_Handler                          0x000002e1   Thumb Code     2  startup_tm4c123.o(.text)
    TIMER3B_Handler                          0x000002e3   Thumb Code     2  startup_tm4c123.o(.text)
    I2C1_Handler                             0x000002e5   Thumb Code     2  startup_tm4c123.o(.text)
    QEI1_Handler                             0x000002e7   Thumb Code     2  startup_tm4c123.o(.text)
    CAN0_Handler                             0x000002e9   Thumb Code     2  startup_tm4c123.o(.text)
    CAN1_Handler                             0x000002eb   Thumb Code     2  startup_tm4c123.o(.text)
    CAN2_Handler                             0x000002ed   Thumb Code     2  startup_tm4c123.o(.text)
    HIB_Handler                              0x000002ef   Thumb Code     2  startup_tm4c123.o(.text)
    USB0_Handler                             0x000002f1   Thumb Code     2  startup_tm4c123.o(.text)
    PWM0_3_Handler                           0x000002f3   Thumb Code     2  startup_tm4c123.o(.text)
    UDMA_Handler                             0x000002f5   Thumb Code     2  startup_tm4c123.o(.text)
    UDMAERR_Handler                          0x000002f7   Thumb Code     2  startup_tm4c123.o(.text)
    ADC1SS0_Handler                          0x000002f9   Thumb Code     2  startup_tm4c123.o(.text)
    ADC1SS1_Handler                          0x000002fb   Thumb Code     2  startup_tm4c123.o(.text)
    ADC1SS2_Handler                          0x000002fd   Thumb Code     2  startup_tm4c123.o(.text)
    ADC1SS3_Handler                          0x000002ff   Thumb Code     2  startup_tm4c123.o(.text)
    GPIOJ_Handler                            0x00000301   Thumb Code     2  startup_tm4c123.o(.text)
    GPIOK_Handler                            0x00000303   Thumb Code     2  startup_tm4c123.o(.text)
    GPIOL_Handler                            0x00000305   Thumb Code     2  startup_tm4c123.o(.text)
    SSI2_Handler                             0x00000307   Thumb Code     2  startup_tm4c123.o(.text)
    SSI3_Handler                             0x00000309   Thumb Code     2  startup_tm4c123.o(.text)
    UART3_Handler                            0x0000030b   Thumb Code     2  startup_tm4c123.o(.text)
    UART4_Handler                            0x0000030d   Thumb Code     2  startup_tm4c123.o(.text)
    UART5_Handler                            0x0000030f   Thumb Code     2  startup_tm4c123.o(.text)
    UART6_Handler                            0x00000311   Thumb Code     2  startup_tm4c123.o(.text)
    UART7_Handler                            0x00000313   Thumb Code     2  startup_tm4c123.o(.text)
    I2C2_Handler                             0x00000315   Thumb Code     2  startup_tm4c123.o(.text)
    I2C3_Handler                             0x00000317   Thumb Code     2  startup_tm4c123.o(.text)
    TIMER4A_Handler                          0x00000319   Thumb Code     2  startup_tm4c123.o(.text)
    TIMER4B_Handler                          0x0000031b   Thumb Code     2  startup_tm4c123.o(.text)
    TIMER5A_Handler                          0x0000031d   Thumb Code     2  startup_tm4c123.o(.text)
    TIMER5B_Handler                          0x0000031f   Thumb Code     2  startup_tm4c123.o(.text)
    WTIMER0A_Handler                         0x00000321   Thumb Code     2  startup_tm4c123.o(.text)
    WTIMER0B_Handler                         0x00000323   Thumb Code     2  startup_tm4c123.o(.text)
    WTIMER1A_Handler                         0x00000325   Thumb Code     2  startup_tm4c123.o(.text)
    WTIMER1B_Handler                         0x00000327   Thumb Code     2  startup_tm4c123.o(.text)
    WTIMER2A_Handler                         0x00000329   Thumb Code     2  startup_tm4c123.o(.text)
    WTIMER2B_Handler                         0x0000032b   Thumb Code     2  startup_tm4c123.o(.text)
    WTIMER3A_Handler                         0x0000032d   Thumb Code     2  startup_tm4c123.o(.text)
    WTIMER3B_Handler                         0x0000032f   Thumb Code     2  startup_tm4c123.o(.text)
    WTIMER4A_Handler                         0x00000331   Thumb Code     2  startup_tm4c123.o(.text)
    WTIMER4B_Handler                         0x00000333   Thumb Code     2  startup_tm4c123.o(.text)
    WTIMER5A_Handler                         0x00000335   Thumb Code     2  startup_tm4c123.o(.text)
    WTIMER5B_Handler                         0x00000337   Thumb Code     2  startup_tm4c123.o(.text)
    FPU_Handler                              0x00000339   Thumb Code     2  startup_tm4c123.o(.text)
    I2C4_Handler                             0x0000033b   Thumb Code     2  startup_tm4c123.o(.text)
    I2C5_Handler                             0x0000033d   Thumb Code     2  startup_tm4c123.o(.text)
    GPIOM_Handler                            0x0000033f   Thumb Code     2  startup_tm4c123.o(.text)
    GPION_Handler                            0x00000341   Thumb Code     2  startup_tm4c123.o(.text)
    QEI2_Handler                             0x00000343   Thumb Code     2  startup_tm4c123.o(.text)
    GPIOP0_Handler                           0x00000345   Thumb Code     2  startup_tm4c123.o(.text)
    GPIOP1_Handler                           0x00000347   Thumb Code     2  startup_tm4c123.o(.text)
    GPIOP2_Handler                           0x00000349   Thumb Code     2  startup_tm4c123.o(.text)
    GPIOP3_Handler                           0x0000034b   Thumb Code     2  startup_tm4c123.o(.text)
    GPIOP4_Handler                           0x0000034d   Thumb Code     2  startup_tm4c123.o(.text)
    GPIOP5_Handler                           0x0000034f   Thumb Code     2  startup_tm4c123.o(.text)
    GPIOP6_Handler                           0x00000351   Thumb Code     2  startup_tm4c123.o(.text)
    GPIOP7_Handler                           0x00000353   Thumb Code     2  startup_tm4c123.o(.text)
    GPIOQ0_Handler                           0x00000355   Thumb Code     2  startup_tm4c123.o(.text)
    GPIOQ1_Handler                           0x00000357   Thumb Code     2  startup_tm4c123.o(.text)
    GPIOQ2_Handler                           0x00000359   Thumb Code     2  startup_tm4c123.o(.text)
    GPIOQ3_Handler                           0x0000035b   Thumb Code     2  startup_tm4c123.o(.text)
    GPIOQ4_Handler                           0x0000035d   Thumb Code     2  startup_tm4c123.o(.text)
    GPIOQ5_Handler                           0x0000035f   Thumb Code     2  startup_tm4c123.o(.text)
    GPIOQ6_Handler                           0x00000361   Thumb Code     2  startup_tm4c123.o(.text)
    GPIOQ7_Handler                           0x00000363   Thumb Code     2  startup_tm4c123.o(.text)
    GPIOR_Handler                            0x00000365   Thumb Code     2  startup_tm4c123.o(.text)
    GPIOS_Handler                            0x00000367   Thumb Code     2  startup_tm4c123.o(.text)
    PMW1_0_Handler                           0x00000369   Thumb Code     2  startup_tm4c123.o(.text)
    PWM1_1_Handler                           0x0000036b   Thumb Code     2  startup_tm4c123.o(.text)
    PWM1_2_Handler                           0x0000036d   Thumb Code     2  startup_tm4c123.o(.text)
    PWM1_3_Handler                           0x0000036f   Thumb Code     2  startup_tm4c123.o(.text)
    PWM1_FAULT_Handler                       0x00000371   Thumb Code     2  startup_tm4c123.o(.text)
    __aeabi_dadd                             0x0000037d   Thumb Code   322  dadd.o(.text)
    __aeabi_dsub                             0x000004bf   Thumb Code     6  dadd.o(.text)
    __aeabi_drsub                            0x000004c5   Thumb Code     6  dadd.o(.text)
    __aeabi_dmul                             0x000004cb   Thumb Code   228  dmul.o(.text)
    __aeabi_ddiv                             0x000005af   Thumb Code   222  ddiv.o(.text)
    __aeabi_i2d                              0x0000068d   Thumb Code    34  dflti.o(.text)
    __aeabi_ui2d                             0x000006af   Thumb Code    26  dfltui.o(.text)
    __aeabi_d2iz                             0x000006c9   Thumb Code    62  dfixi.o(.text)
    __aeabi_d2f                              0x00000707   Thumb Code    56  d2f.o(.text)
    __aeabi_llsl                             0x0000073f   Thumb Code    30  llshl.o(.text)
    _ll_shift_l                              0x0000073f   Thumb Code     0  llshl.o(.text)
    __aeabi_llsr                             0x0000075d   Thumb Code    32  llushr.o(.text)
    _ll_ushift_r                             0x0000075d   Thumb Code     0  llushr.o(.text)
    __aeabi_lasr                             0x0000077d   Thumb Code    36  llsshr.o(.text)
    _ll_sshift_r                             0x0000077d   Thumb Code     0  llsshr.o(.text)
    __I$use$fp                               0x000007a1   Thumb Code     0  iusefp.o(.text)
    _float_round                             0x000007a1   Thumb Code    18  fepilogue.o(.text)
    _float_epilogue                          0x000007b3   Thumb Code    92  fepilogue.o(.text)
    _double_round                            0x0000080f   Thumb Code    30  depilogue.o(.text)
    _double_epilogue                         0x0000082d   Thumb Code   156  depilogue.o(.text)
    __scatterload                            0x000008c9   Thumb Code    28  init.o(.text)
    __scatterload_rt2                        0x000008c9   Thumb Code     0  init.o(.text)
    __decompress                             0x000008ed   Thumb Code     0  __dczerorl2.o(.text)
    __decompress1                            0x000008ed   Thumb Code    86  __dczerorl2.o(.text)
    ADCIntRegister                           0x00000971   Thumb Code    92  adc.o(i.ADCIntRegister)
    ANO_DT_Init                              0x000009d9   Thumb Code   166  ano_dt_lx.o(i.ANO_DT_Init)
    ANO_DT_LX_Data_Receive_Prepare           0x00000d5d   Thumb Code   258  ano_dt_lx.o(i.ANO_DT_LX_Data_Receive_Prepare)
    ANO_LX_Data_Exchange_Task                0x00000e85   Thumb Code    68  ano_dt_lx.o(i.ANO_LX_Data_Exchange_Task)
    ANO_LX_Task                              0x00000ec9   Thumb Code   144  ano_lx.o(i.ANO_LX_Task)
    All_Init                                 0x00001105   Thumb Code    94  drv_bsp.o(i.All_Init)
    Angle_cal                                0x00001169   Thumb Code   360  user_task.o(i.Angle_cal)
    AnoOF_Check_State                        0x000012e9   Thumb Code   180  drv_anoof.o(i.AnoOF_Check_State)
    AnoOF_GetOneByte                         0x00001561   Thumb Code   252  drv_anoof.o(i.AnoOF_GetOneByte)
    CK_Back                                  0x00001691   Thumb Code    12  ano_dt_lx.o(i.CK_Back)
    CMD_Send                                 0x00001709   Thumb Code    22  ano_dt_lx.o(i.CMD_Send)
    DOWN_                                    0x000017b5   Thumb Code    80  lx_fc_fun.o(i.DOWN_)
    DrvAdcInit                               0x00001809   Thumb Code   164  drv_adc.o(i.DrvAdcInit)
    DrvLedOnOff                              0x000018c1   Thumb Code   170  drv_led.o(i.DrvLedOnOff)
    DrvMotorPWMSet                           0x00001975   Thumb Code   222  drv_pwmout.o(i.DrvMotorPWMSet)
    DrvPpmGetOneCh                           0x00001a61   Thumb Code    92  drv_bsp.o(i.DrvPpmGetOneCh)
    DrvPwmOutInit                            0x00001ac5   Thumb Code   666  drv_pwmout.o(i.DrvPwmOutInit)
    DrvRcInputInit                           0x00001d9d   Thumb Code    20  drv_bsp.o(i.DrvRcInputInit)
    DrvRcInputTask                           0x00001db5   Thumb Code   232  drv_bsp.o(i.DrvRcInputTask)
    DrvRcPpmInit                             0x00001ead   Thumb Code   182  drv_rcin.o(i.DrvRcPpmInit)
    DrvRcSbusInit                            0x00001f81   Thumb Code   156  drv_rcin.o(i.DrvRcSbusInit)
    DrvSbusGetOneByte                        0x00002039   Thumb Code   560  drv_bsp.o(i.DrvSbusGetOneByte)
    DrvSysInit                               0x00002281   Thumb Code    68  drv_sys.o(i.DrvSysInit)
    DrvTimerFcInit                           0x000022d1   Thumb Code   110  drv_timer.o(i.DrvTimerFcInit)
    DrvUart1Init                             0x0000234d   Thumb Code   192  drv_uart.o(i.DrvUart1Init)
    DrvUart1SendBuf                          0x0000241d   Thumb Code    42  drv_uart.o(i.DrvUart1SendBuf)
    DrvUart1TxCheck                          0x00002451   Thumb Code    52  drv_uart.o(i.DrvUart1TxCheck)
    DrvUart2Init                             0x00002495   Thumb Code   188  drv_uart.o(i.DrvUart2Init)
    DrvUart2TxCheck                          0x0000256d   Thumb Code    52  drv_uart.o(i.DrvUart2TxCheck)
    DrvUart3Init                             0x000025b1   Thumb Code   188  drv_uart.o(i.DrvUart3Init)
    DrvUart3TxCheck                          0x00002689   Thumb Code    52  drv_uart.o(i.DrvUart3TxCheck)
    DrvUart4Init                             0x000026cd   Thumb Code   188  drv_uart.o(i.DrvUart4Init)
    DrvUart4TxCheck                          0x000027a5   Thumb Code    52  drv_uart.o(i.DrvUart4TxCheck)
    DrvUart5Init                             0x000027e9   Thumb Code   206  drv_uart.o(i.DrvUart5Init)
    DrvUart5SendBuf                          0x000028dd   Thumb Code    42  drv_uart.o(i.DrvUart5SendBuf)
    DrvUart5TxCheck                          0x00002911   Thumb Code    52  drv_uart.o(i.DrvUart5TxCheck)
    DrvUartDataCheck                         0x00002955   Thumb Code    24  drv_uart.o(i.DrvUartDataCheck)
    Drv_AdcGetBatVot                         0x0000296d   Thumb Code    84  drv_adc.o(i.Drv_AdcGetBatVot)
    DvrLedInit                               0x000029dd   Thumb Code   120  drv_led.o(i.DvrLedInit)
    FC_Lock                                  0x00002bdd   Thumb Code    56  lx_fc_fun.o(i.FC_Lock)
    FC_Unlock                                0x00002c1d   Thumb Code    56  lx_fc_fun.o(i.FC_Unlock)
    FC_stand                                 0x00002c5d   Thumb Code    50  lx_fc_fun.o(i.FC_stand)
    GPS_Data_Prepare_Task                    0x00002d5d   Thumb Code   306  drv_ubloxgps.o(i.GPS_Data_Prepare_Task)
    GPS_Rate_H                               0x00002ea9   Thumb Code    12  drv_ubloxgps.o(i.GPS_Rate_H)
    GetSysRunTimeMs                          0x00002f49   Thumb Code     6  drv_sys.o(i.GetSysRunTimeMs)
    GetSysRunTimeUs                          0x00002f55   Thumb Code    46  drv_sys.o(i.GetSysRunTimeUs)
    Horizontal_Calibrate                     0x00002f89   Thumb Code    50  lx_fc_fun.o(i.Horizontal_Calibrate)
    Horizontal_Move                          0x00002fc1   Thumb Code    98  lx_fc_fun.o(i.Horizontal_Move)
    Init_GPS                                 0x00003029   Thumb Code   196  drv_ubloxgps.o(i.Init_GPS)
    IntEnable                                0x00003109   Thumb Code    92  interrupt.o(i.IntEnable)
    IntRegister                              0x0000316d   Thumb Code    44  interrupt.o(i.IntRegister)
    LED_1ms_DRV                              0x000031a1   Thumb Code    78  drv_led.o(i.LED_1ms_DRV)
    LEFT_                                    0x000031f9   Thumb Code    82  lx_fc_fun.o(i.LEFT_)
    LX_Cali_Trig_Check                       0x00003251   Thumb Code   150  lx_fc_state.o(i.LX_Cali_Trig_Check)
    LX_Change_Mode                           0x000032f5   Thumb Code    80  lx_fc_fun.o(i.LX_Change_Mode)
    LX_FC_EXT_Sensor_Task                    0x00003351   Thumb Code    78  lx_fc_ext_sensor.o(i.LX_FC_EXT_Sensor_Task)
    LX_FC_State_Task                         0x000033b1   Thumb Code    26  lx_fc_state.o(i.LX_FC_State_Task)
    Mag_Calibrate                            0x00003725   Thumb Code    50  lx_fc_fun.o(i.Mag_Calibrate)
    MyDelayMs                                0x0000375d   Thumb Code    30  drv_sys.o(i.MyDelayMs)
    NoUse                                    0x00003781   Thumb Code     2  drv_uart.o(i.NoUse)
    OneKey_Land                              0x00003785   Thumb Code    50  lx_fc_fun.o(i.OneKey_Land)
    OneKey_Return_Home                       0x000037bd   Thumb Code    50  lx_fc_fun.o(i.OneKey_Return_Home)
    OneKey_Takeoff                           0x000037f5   Thumb Code    66  lx_fc_fun.o(i.OneKey_Takeoff)
    PAR_Back                                 0x0000383d   Thumb Code    14  ano_dt_lx.o(i.PAR_Back)
    Quadrant_anl                             0x000038d5   Thumb Code   408  user_task.o(i.Quadrant_anl)
    RIGHT_                                   0x00003d1d   Thumb Code    82  lx_fc_fun.o(i.RIGHT_)
    Rotate                                   0x00003d75   Thumb Code    32  lx_fc_fun.o(i.Rotate)
    Scheduler_Run                            0x00003de5   Thumb Code    76  ano_scheduler.o(i.Scheduler_Run)
    Scheduler_Setup                          0x00003e35   Thumb Code    76  ano_scheduler.o(i.Scheduler_Setup)
    SysCtlClockGet                           0x00003e85   Thumb Code   304  sysctl.o(i.SysCtlClockGet)
    SysTick_Handler                          0x00003fd9   Thumb Code    20  drv_sys.o(i.SysTick_Handler)
    SysTick_Init                             0x00003ff1   Thumb Code    54  drv_sys.o(i.SysTick_Init)
    SystemInit                               0x00004029   Thumb Code   112  system_tm4c123.o(i.SystemInit)
    Timer0Irq                                0x000040c1   Thumb Code    16  drv_timer.o(i.Timer0Irq)
    TimerIntClear                            0x000040d5   Thumb Code     4  timer.o(i.TimerIntClear)
    TimerIntRegister                         0x000040d9   Thumb Code    88  timer.o(i.TimerIntRegister)
    UART1_IRQHandler                         0x00004141   Thumb Code    82  drv_uart.o(i.UART1_IRQHandler)
    UART2_IRQHandler                         0x00004199   Thumb Code    82  drv_uart.o(i.UART2_IRQHandler)
    UART3_IRQHandler                         0x000041f1   Thumb Code    82  drv_uart.o(i.UART3_IRQHandler)
    UART4_IRQHandler                         0x00004249   Thumb Code    82  drv_uart.o(i.UART4_IRQHandler)
    UART5_IRQHandler                         0x000042a1   Thumb Code    82  drv_uart.o(i.UART5_IRQHandler)
    UARTIntRegister                          0x000042f9   Thumb Code    70  uart.o(i.UARTIntRegister)
    UBLOX_M8_GPS_Data_Receive                0x00004351   Thumb Code   328  drv_ubloxgps.o(i.UBLOX_M8_GPS_Data_Receive)
    UP_                                      0x000044b5   Thumb Code    82  lx_fc_fun.o(i.UP_)
    UserTask_OneKeyCmd                       0x0000450d   Thumb Code  3168  user_task.o(i.UserTask_OneKeyCmd)
    Userdata_send_OPENMV                     0x000051c5   Thumb Code   828  user_task.o(i.Userdata_send_OPENMV)
    __scatterload_copy                       0x00005511   Thumb Code    14  handlers.o(i.__scatterload_copy)
    __scatterload_null                       0x0000551f   Thumb Code     2  handlers.o(i.__scatterload_null)
    __scatterload_zeroinit                   0x00005521   Thumb Code    14  handlers.o(i.__scatterload_zeroinit)
    drvAdcTrigger                            0x00005531   Thumb Code    18  drv_adc.o(i.drvAdcTrigger)
    fast_atan2                               0x00005549   Thumb Code   350  ano_math.o(i.fast_atan2)
    frame_send_16                            0x000056c5   Thumb Code   136  user_task.o(i.frame_send_16)
    frame_send_32                            0x0000574d   Thumb Code   162  user_task.o(i.frame_send_32)
    frame_send_8                             0x000057ef   Thumb Code   124  user_task.o(i.frame_send_8)
    frame_send_float                         0x0000586b   Thumb Code   154  user_task.o(i.frame_send_float)
    main                                     0x00005905   Thumb Code    16  main.o(i.main)
    my_abs                                   0x00005915   Thumb Code    26  ano_math.o(i.my_abs)
    my_deadzone                              0x0000592f   Thumb Code    54  ano_math.o(i.my_deadzone)
    my_sqrt                                  0x00005965   Thumb Code    20  ano_math.o(i.my_sqrt)
    my_sqrt_reciprocal                       0x00005979   Thumb Code    76  ano_math.o(i.my_sqrt_reciprocal)
    offset_error_xy                          0x000059c9   Thumb Code   326  user_task.o(i.offset_error_xy)
    fast_atan_table                          0x00005bd8   Data        1028  ano_math.o(.constdata)
    Region$$Table$$Base                      0x0000645c   Number         0  anon$$obj.o(Region$$Table)
    Region$$Table$$Limit                     0x0000647c   Number         0  anon$$obj.o(Region$$Table)
    mission_step                             0x20000000   Data           1  ano_scheduler.o(.data)
    start_yaw                                0x20000004   Data           4  ano_scheduler.o(.data)
    offset_Angle                             0x20000008   Data           4  ano_scheduler.o(.data)
    Of2_Fix_X                                0x2000000c   Data           2  ano_scheduler.o(.data)
    Of2_Fix_Y                                0x2000000e   Data           2  ano_scheduler.o(.data)
    JF_X                                     0x20000010   Data           2  ano_scheduler.o(.data)
    JF_Y                                     0x20000012   Data           2  ano_scheduler.o(.data)
    cal_X                                    0x2000006c   Data           2  user_task.o(.data)
    cal_Y                                    0x2000006e   Data           2  user_task.o(.data)
    cal_X_2                                  0x20000070   Data           2  user_task.o(.data)
    cal_Y_2                                  0x20000072   Data           2  user_task.o(.data)
    cal_X_3                                  0x20000074   Data           2  user_task.o(.data)
    cal_Y_3                                  0x20000076   Data           2  user_task.o(.data)
    offset_Distance                          0x20000078   Data           1  user_task.o(.data)
    Second_Distance                          0x2000007a   Data           2  user_task.o(.data)
    Second_angle                             0x2000007c   Data           2  user_task.o(.data)
    PLANE_YAW                                0x2000007e   Data           2  user_task.o(.data)
    Ano_Alt                                  0x20000080   Data           4  user_task.o(.data)
    POS_X                                    0x20000084   Data           4  user_task.o(.data)
    POS_Y                                    0x20000088   Data           4  user_task.o(.data)
    angle_bis                                0x2000008c   Data           2  user_task.o(.data)
    Dcx                                      0x2000008e   Data           2  user_task.o(.data)
    Dcy                                      0x20000090   Data           2  user_task.o(.data)
    Dcx_A                                    0x20000092   Data           2  user_task.o(.data)
    Dcy_A                                    0x20000094   Data           2  user_task.o(.data)
    rate                                     0x20000098   Data           4  user_task.o(.data)
    Num_1                                    0x2000009c   Data           1  user_task.o(.data)
    Num_2                                    0x2000009d   Data           1  user_task.o(.data)
    position_X                               0x2000009e   Data          26  user_task.o(.data)
    position_Y                               0x200000b8   Data          26  user_task.o(.data)
    position_dis                             0x200000d2   Data          26  user_task.o(.data)
    position_ang                             0x200000ec   Data          26  user_task.o(.data)
    position_dis_GoHome                      0x20000106   Data          26  user_task.o(.data)
    position_ang_GoHome                      0x20000120   Data          26  user_task.o(.data)
    fc_bat                                   0x20000146   Data           4  ano_lx.o(.data)
    sti_fun                                  0x2000015e   Data           2  lx_fc_state.o(.data)
    pvt_receive_updata                       0x2000017a   Data           1  drv_ubloxgps.o(.data)
    fre_test_cnt                             0x2000017c   Data           2  drv_ubloxgps.o(.data)
    Period_Out_H                             0x2000017e   Data          14  drv_ubloxgps.o(.data)
    Period_Out_L                             0x2000018c   Data          14  drv_ubloxgps.o(.data)
    Pulse_Period                             0x2000019a   Data          28  drv_ubloxgps.o(.data)
    Baud115200                               0x200001b6   Data          28  drv_ubloxgps.o(.data)
    Save_Con                                 0x200001d2   Data          21  drv_ubloxgps.o(.data)
    POLLSH_SET                               0x200001e7   Data          11  drv_ubloxgps.o(.data)
    SOL_SET                                  0x200001f2   Data          11  drv_ubloxgps.o(.data)
    VELNED_SET                               0x200001fd   Data          11  drv_ubloxgps.o(.data)
    TIMEUTC_SET                              0x20000208   Data          11  drv_ubloxgps.o(.data)
    DOP_SET                                  0x20000213   Data          11  drv_ubloxgps.o(.data)
    PVT_SET                                  0x2000021e   Data          11  drv_ubloxgps.o(.data)
    pvt_recerve_ok_cnt                       0x2000022e   Data           1  drv_ubloxgps.o(.data)
    AdcTemp                                  0x20000238   Data           4  drv_adc.o(.data)
    led                                      0x2000023c   Data           4  drv_led.o(.data)
    U1TxInCnt                                0x20000254   Data           1  drv_uart.o(.data)
    U1TxOutCnt                               0x20000255   Data           1  drv_uart.o(.data)
    U2TxInCnt                                0x20000256   Data           1  drv_uart.o(.data)
    U2TxOutCnt                               0x20000257   Data           1  drv_uart.o(.data)
    U3TxInCnt                                0x20000258   Data           1  drv_uart.o(.data)
    U3TxOutCnt                               0x20000259   Data           1  drv_uart.o(.data)
    U4TxInCnt                                0x2000025a   Data           1  drv_uart.o(.data)
    U4TxOutCnt                               0x2000025b   Data           1  drv_uart.o(.data)
    U5TxInCnt                                0x2000025c   Data           1  drv_uart.o(.data)
    U5TxOutCnt                               0x2000025d   Data           1  drv_uart.o(.data)
    send_buffer                              0x20000680   Data          50  ano_dt_lx.o(.bss)
    dt                                       0x200006b4   Data        1564  ano_dt_lx.o(.bss)
    rt_tar                                   0x20000dd0   Data          14  ano_lx.o(.bss)
    pwm_to_esc                               0x20000dde   Data          16  ano_lx.o(.bss)
    fc_att                                   0x20000dee   Data          19  ano_lx.o(.bss)
    ext_sens                                 0x20000e12   Data          48  lx_fc_ext_sensor.o(.bss)
    fc_sta                                   0x20000e42   Data          11  lx_fc_state.o(.bss)
    rc_in                                    0x20000e4e   Data          82  drv_bsp.o(.bss)
    ano_of                                   0x20000ebc   Data          60  drv_anoof.o(.bss)
    ubx                                      0x20000f38   Data         100  drv_ubloxgps.o(.bss)
    openmv                                   0x20000f9c   Data         248  drv_my_openmv.o(.bss)
    U1TxDataTemp                             0x200010c6   Data         256  drv_uart.o(.bss)
    U2TxDataTemp                             0x200011c6   Data         256  drv_uart.o(.bss)
    U3TxDataTemp                             0x200012c6   Data         256  drv_uart.o(.bss)
    U4TxDataTemp                             0x200013c6   Data         256  drv_uart.o(.bss)
    U5TxDataTemp                             0x200014c6   Data         256  drv_uart.o(.bss)
    __initial_sp                             0x20001fc8   Data           0  startup_tm4c123.o(STACK)



==============================================================================

Memory Map of the image

  Image Entry point : 0x00000281

  Load Region LR_1 (Base: 0x00000000, Size: 0x00006ae8, Max: 0xffffffff, ABSOLUTE, COMPRESSED[0x00006594])

    Execution Region ER_RO (Exec base: 0x00000000, Load base: 0x00000000, Size: 0x0000647c, Max: 0xffffffff, ABSOLUTE)

    Exec Addr    Load Addr    Size         Type   Attr      Idx    E Section Name        Object

    0x00000000   0x00000000   0x0000026c   Data   RO         1506    RESET               startup_tm4c123.o
    0x0000026c   0x0000026c   0x00000000   Code   RO         5079  * .ARM.Collect$$$$00000000  mc_w.l(entry.o)
    0x0000026c   0x0000026c   0x00000004   Code   RO         5100    .ARM.Collect$$$$00000001  mc_w.l(entry2.o)
    0x00000270   0x00000270   0x00000004   Code   RO         5103    .ARM.Collect$$$$00000004  mc_w.l(entry5.o)
    0x00000274   0x00000274   0x00000000   Code   RO         5105    .ARM.Collect$$$$00000008  mc_w.l(entry7b.o)
    0x00000274   0x00000274   0x00000000   Code   RO         5107    .ARM.Collect$$$$0000000A  mc_w.l(entry8b.o)
    0x00000274   0x00000274   0x00000008   Code   RO         5108    .ARM.Collect$$$$0000000B  mc_w.l(entry9a.o)
    0x0000027c   0x0000027c   0x00000000   Code   RO         5110    .ARM.Collect$$$$0000000D  mc_w.l(entry10a.o)
    0x0000027c   0x0000027c   0x00000000   Code   RO         5112    .ARM.Collect$$$$0000000F  mc_w.l(entry11a.o)
    0x0000027c   0x0000027c   0x00000004   Code   RO         5101    .ARM.Collect$$$$00002712  mc_w.l(entry2.o)
    0x00000280   0x00000280   0x000000fc   Code   RO         1507  * .text               startup_tm4c123.o
    0x0000037c   0x0000037c   0x0000014e   Code   RO         5082    .text               mf_w.l(dadd.o)
    0x000004ca   0x000004ca   0x000000e4   Code   RO         5084    .text               mf_w.l(dmul.o)
    0x000005ae   0x000005ae   0x000000de   Code   RO         5086    .text               mf_w.l(ddiv.o)
    0x0000068c   0x0000068c   0x00000022   Code   RO         5088    .text               mf_w.l(dflti.o)
    0x000006ae   0x000006ae   0x0000001a   Code   RO         5090    .text               mf_w.l(dfltui.o)
    0x000006c8   0x000006c8   0x0000003e   Code   RO         5092    .text               mf_w.l(dfixi.o)
    0x00000706   0x00000706   0x00000038   Code   RO         5098    .text               mf_w.l(d2f.o)
    0x0000073e   0x0000073e   0x0000001e   Code   RO         5114    .text               mc_w.l(llshl.o)
    0x0000075c   0x0000075c   0x00000020   Code   RO         5116    .text               mc_w.l(llushr.o)
    0x0000077c   0x0000077c   0x00000024   Code   RO         5118    .text               mc_w.l(llsshr.o)
    0x000007a0   0x000007a0   0x00000000   Code   RO         5120    .text               mc_w.l(iusefp.o)
    0x000007a0   0x000007a0   0x0000006e   Code   RO         5121    .text               mf_w.l(fepilogue.o)
    0x0000080e   0x0000080e   0x000000ba   Code   RO         5123    .text               mf_w.l(depilogue.o)
    0x000008c8   0x000008c8   0x00000024   Code   RO         5125    .text               mc_w.l(init.o)
    0x000008ec   0x000008ec   0x00000056   Code   RO         5135    .text               mc_w.l(__dczerorl2.o)
    0x00000942   0x00000942   0x00000002   PAD
    0x00000944   0x00000944   0x0000002c   Code   RO         1040    i.ADC0Handler       drv_adc.o
    0x00000970   0x00000970   0x00000068   Code   RO         1627    i.ADCIntRegister    driverlib.lib(adc.o)
    0x000009d8   0x000009d8   0x000000ac   Code   RO          272    i.ANO_DT_Init       ano_dt_lx.o
    0x00000a84   0x00000a84   0x000002d8   Code   RO          273    i.ANO_DT_LX_Data_Receive_Anl  ano_dt_lx.o
    0x00000d5c   0x00000d5c   0x00000118   Code   RO          274    i.ANO_DT_LX_Data_Receive_Prepare  ano_dt_lx.o
    0x00000e74   0x00000e74   0x00000010   Code   RO          275    i.ANO_DT_LX_Send_Data  ano_dt_lx.o
    0x00000e84   0x00000e84   0x00000044   Code   RO          276    i.ANO_LX_Data_Exchange_Task  ano_dt_lx.o
    0x00000ec8   0x00000ec8   0x0000009c   Code   RO          383    i.ANO_LX_Task       ano_lx.o
    0x00000f64   0x00000f64   0x000001a0   Code   RO          277    i.Add_Send_Data     ano_dt_lx.o
    0x00001104   0x00001104   0x00000064   Code   RO          651    i.All_Init          drv_bsp.o
    0x00001168   0x00001168   0x00000180   Code   RO          172    i.Angle_cal         user_task.o
    0x000012e8   0x000012e8   0x000000c0   Code   RO          849    i.AnoOF_Check_State  drv_anoof.o
    0x000013a8   0x000013a8   0x000001b8   Code   RO          850    i.AnoOF_DataAnl     drv_anoof.o
    0x00001560   0x00001560   0x0000010c   Code   RO          851    i.AnoOF_GetOneByte  drv_anoof.o
    0x0000166c   0x0000166c   0x00000024   Code   RO          384    i.Bat_Voltage_Data_Handle  ano_lx.o
    0x00001690   0x00001690   0x00000010   Code   RO          278    i.CK_Back           ano_dt_lx.o
    0x000016a0   0x000016a0   0x00000068   Code   RO          279    i.CK_Back_Check     ano_dt_lx.o
    0x00001708   0x00001708   0x0000001c   Code   RO          280    i.CMD_Send          ano_dt_lx.o
    0x00001724   0x00001724   0x00000090   Code   RO          281    i.Check_To_Send     ano_dt_lx.o
    0x000017b4   0x000017b4   0x00000054   Code   RO          489    i.DOWN_             lx_fc_fun.o
    0x00001808   0x00001808   0x000000b8   Code   RO         1041    i.DrvAdcInit        drv_adc.o
    0x000018c0   0x000018c0   0x000000b4   Code   RO         1096    i.DrvLedOnOff       drv_led.o
    0x00001974   0x00001974   0x000000ec   Code   RO         1139    i.DrvMotorPWMSet    drv_pwmout.o
    0x00001a60   0x00001a60   0x00000064   Code   RO          652    i.DrvPpmGetOneCh    drv_bsp.o
    0x00001ac4   0x00001ac4   0x000002d8   Code   RO         1140    i.DrvPwmOutInit     drv_pwmout.o
    0x00001d9c   0x00001d9c   0x00000018   Code   RO          653    i.DrvRcInputInit    drv_bsp.o
    0x00001db4   0x00001db4   0x000000f8   Code   RO          654    i.DrvRcInputTask    drv_bsp.o
    0x00001eac   0x00001eac   0x000000d4   Code   RO         1183    i.DrvRcPpmInit      drv_rcin.o
    0x00001f80   0x00001f80   0x000000b8   Code   RO         1184    i.DrvRcSbusInit     drv_rcin.o
    0x00002038   0x00002038   0x00000248   Code   RO          655    i.DrvSbusGetOneByte  drv_bsp.o
    0x00002280   0x00002280   0x00000050   Code   RO          980    i.DrvSysInit        drv_sys.o
    0x000022d0   0x000022d0   0x0000007c   Code   RO         1474    i.DrvTimerFcInit    drv_timer.o
    0x0000234c   0x0000234c   0x000000d0   Code   RO         1230    i.DrvUart1Init      drv_uart.o
    0x0000241c   0x0000241c   0x00000034   Code   RO         1231    i.DrvUart1SendBuf   drv_uart.o
    0x00002450   0x00002450   0x00000044   Code   RO         1232    i.DrvUart1TxCheck   drv_uart.o
    0x00002494   0x00002494   0x000000d8   Code   RO         1233    i.DrvUart2Init      drv_uart.o
    0x0000256c   0x0000256c   0x00000044   Code   RO         1235    i.DrvUart2TxCheck   drv_uart.o
    0x000025b0   0x000025b0   0x000000d8   Code   RO         1236    i.DrvUart3Init      drv_uart.o
    0x00002688   0x00002688   0x00000044   Code   RO         1238    i.DrvUart3TxCheck   drv_uart.o
    0x000026cc   0x000026cc   0x000000d8   Code   RO         1239    i.DrvUart4Init      drv_uart.o
    0x000027a4   0x000027a4   0x00000044   Code   RO         1241    i.DrvUart4TxCheck   drv_uart.o
    0x000027e8   0x000027e8   0x000000f4   Code   RO         1242    i.DrvUart5Init      drv_uart.o
    0x000028dc   0x000028dc   0x00000034   Code   RO         1243    i.DrvUart5SendBuf   drv_uart.o
    0x00002910   0x00002910   0x00000044   Code   RO         1244    i.DrvUart5TxCheck   drv_uart.o
    0x00002954   0x00002954   0x00000018   Code   RO         1245    i.DrvUartDataCheck  drv_uart.o
    0x0000296c   0x0000296c   0x00000070   Code   RO         1042    i.Drv_AdcGetBatVot  drv_adc.o
    0x000029dc   0x000029dc   0x00000084   Code   RO         1097    i.DvrLedInit        drv_led.o
    0x00002a60   0x00002a60   0x0000017c   Code   RO          385    i.ESC_Output        ano_lx.o
    0x00002bdc   0x00002bdc   0x00000040   Code   RO          490    i.FC_Lock           lx_fc_fun.o
    0x00002c1c   0x00002c1c   0x00000040   Code   RO          491    i.FC_Unlock         lx_fc_fun.o
    0x00002c5c   0x00002c5c   0x00000038   Code   RO          492    i.FC_stand          lx_fc_fun.o
    0x00002c94   0x00002c94   0x000000c8   Code   RO          282    i.Frame_Send        ano_dt_lx.o
    0x00002d5c   0x00002d5c   0x0000014c   Code   RO          892    i.GPS_Data_Prepare_Task  drv_ubloxgps.o
    0x00002ea8   0x00002ea8   0x00000010   Code   RO          893    i.GPS_Rate_H        drv_ubloxgps.o
    0x00002eb8   0x00002eb8   0x00000090   Code   RO          452    i.General_Velocity_Data_Handle  lx_fc_ext_sensor.o
    0x00002f48   0x00002f48   0x0000000c   Code   RO          981    i.GetSysRunTimeMs   drv_sys.o
    0x00002f54   0x00002f54   0x00000034   Code   RO          982    i.GetSysRunTimeUs   drv_sys.o
    0x00002f88   0x00002f88   0x00000038   Code   RO          494    i.Horizontal_Calibrate  lx_fc_fun.o
    0x00002fc0   0x00002fc0   0x00000068   Code   RO          495    i.Horizontal_Move   lx_fc_fun.o
    0x00003028   0x00003028   0x000000e0   Code   RO          895    i.Init_GPS          drv_ubloxgps.o
    0x00003108   0x00003108   0x00000064   Code   RO         3828    i.IntEnable         driverlib.lib(interrupt.o)
    0x0000316c   0x0000316c   0x00000034   Code   RO         3840    i.IntRegister       driverlib.lib(interrupt.o)
    0x000031a0   0x000031a0   0x00000058   Code   RO         1098    i.LED_1ms_DRV       drv_led.o
    0x000031f8   0x000031f8   0x00000058   Code   RO          496    i.LEFT_             lx_fc_fun.o
    0x00003250   0x00003250   0x000000a4   Code   RO          609    i.LX_Cali_Trig_Check  lx_fc_state.o
    0x000032f4   0x000032f4   0x0000005c   Code   RO          497    i.LX_Change_Mode    lx_fc_fun.o
    0x00003350   0x00003350   0x00000060   Code   RO          453    i.LX_FC_EXT_Sensor_Task  lx_fc_ext_sensor.o
    0x000033b0   0x000033b0   0x00000020   Code   RO          610    i.LX_FC_State_Task  lx_fc_state.o
    0x000033d0   0x000033d0   0x000001d0   Code   RO          611    i.LX_Unlock_Lock_Check  lx_fc_state.o
    0x000035a0   0x000035a0   0x00000002   Code   RO           95    i.Loop_1000Hz       ano_scheduler.o
    0x000035a2   0x000035a2   0x00000002   Code   RO           96    i.Loop_100Hz        ano_scheduler.o
    0x000035a4   0x000035a4   0x0000005c   Code   RO           97    i.Loop_200Hz        ano_scheduler.o
    0x00003600   0x00003600   0x00000002   Code   RO           98    i.Loop_20Hz         ano_scheduler.o
    0x00003602   0x00003602   0x00000002   Code   RO           99    i.Loop_2Hz          ano_scheduler.o
    0x00003604   0x00003604   0x00000002   Code   RO          100    i.Loop_500Hz        ano_scheduler.o
    0x00003606   0x00003606   0x00000002   PAD
    0x00003608   0x00003608   0x0000011c   Code   RO          101    i.Loop_50Hz         ano_scheduler.o
    0x00003724   0x00003724   0x00000038   Code   RO          498    i.Mag_Calibrate     lx_fc_fun.o
    0x0000375c   0x0000375c   0x00000024   Code   RO          983    i.MyDelayMs         drv_sys.o
    0x00003780   0x00003780   0x00000002   Code   RO         1246    i.NoUse             drv_uart.o
    0x00003782   0x00003782   0x00000002   PAD
    0x00003784   0x00003784   0x00000038   Code   RO          499    i.OneKey_Land       lx_fc_fun.o
    0x000037bc   0x000037bc   0x00000038   Code   RO          500    i.OneKey_Return_Home  lx_fc_fun.o
    0x000037f4   0x000037f4   0x00000048   Code   RO          501    i.OneKey_Takeoff    lx_fc_fun.o
    0x0000383c   0x0000383c   0x00000014   Code   RO          283    i.PAR_Back          ano_dt_lx.o
    0x00003850   0x00003850   0x00000084   Code   RO         1185    i.PPM_Decode        drv_rcin.o
    0x000038d4   0x000038d4   0x000001a8   Code   RO          173    i.Quadrant_anl      user_task.o
    0x00003a7c   0x00003a7c   0x000002a0   Code   RO          386    i.RC_Data_Task      ano_lx.o
    0x00003d1c   0x00003d1c   0x00000058   Code   RO          502    i.RIGHT_            lx_fc_fun.o
    0x00003d74   0x00003d74   0x00000020   Code   RO          503    i.Rotate            lx_fc_fun.o
    0x00003d94   0x00003d94   0x00000050   Code   RO         1186    i.Sbus_IRQHandler   drv_rcin.o
    0x00003de4   0x00003de4   0x00000050   Code   RO          102    i.Scheduler_Run     ano_scheduler.o
    0x00003e34   0x00003e34   0x00000050   Code   RO          103    i.Scheduler_Setup   ano_scheduler.o
    0x00003e84   0x00003e84   0x00000154   Code   RO         1891    i.SysCtlClockGet    driverlib.lib(sysctl.o)
    0x00003fd8   0x00003fd8   0x00000018   Code   RO          984    i.SysTick_Handler   drv_sys.o
    0x00003ff0   0x00003ff0   0x00000036   Code   RO          985    i.SysTick_Init      drv_sys.o
    0x00004026   0x00004026   0x00000002   PAD
    0x00004028   0x00004028   0x00000098   Code   RO         1515    i.SystemInit        system_tm4c123.o
    0x000040c0   0x000040c0   0x00000014   Code   RO         1475    i.Timer0Irq         drv_timer.o
    0x000040d4   0x000040d4   0x00000004   Code   RO         2256    i.TimerIntClear     driverlib.lib(timer.o)
    0x000040d8   0x000040d8   0x00000068   Code   RO         2259    i.TimerIntRegister  driverlib.lib(timer.o)
    0x00004140   0x00004140   0x00000058   Code   RO         1247    i.UART1_IRQHandler  drv_uart.o
    0x00004198   0x00004198   0x00000058   Code   RO         1248    i.UART2_IRQHandler  drv_uart.o
    0x000041f0   0x000041f0   0x00000058   Code   RO         1249    i.UART3_IRQHandler  drv_uart.o
    0x00004248   0x00004248   0x00000058   Code   RO         1250    i.UART4_IRQHandler  drv_uart.o
    0x000042a0   0x000042a0   0x00000058   Code   RO         1251    i.UART5_IRQHandler  drv_uart.o
    0x000042f8   0x000042f8   0x00000058   Code   RO         2514    i.UARTIntRegister   driverlib.lib(uart.o)
    0x00004350   0x00004350   0x00000164   Code   RO          896    i.UBLOX_M8_GPS_Data_Receive  drv_ubloxgps.o
    0x000044b4   0x000044b4   0x00000058   Code   RO          504    i.UP_               lx_fc_fun.o
    0x0000450c   0x0000450c   0x00000cb8   Code   RO          174    i.UserTask_OneKeyCmd  user_task.o
    0x000051c4   0x000051c4   0x0000034c   Code   RO          175    i.Userdata_send_OPENMV  user_task.o
    0x00005510   0x00005510   0x0000000e   Code   RO         5129    i.__scatterload_copy  mc_w.l(handlers.o)
    0x0000551e   0x0000551e   0x00000002   Code   RO         5130    i.__scatterload_null  mc_w.l(handlers.o)
    0x00005520   0x00005520   0x0000000e   Code   RO         5131    i.__scatterload_zeroinit  mc_w.l(handlers.o)
    0x0000552e   0x0000552e   0x00000002   PAD
    0x00005530   0x00005530   0x00000018   Code   RO         1043    i.drvAdcTrigger     drv_adc.o
    0x00005548   0x00005548   0x0000017c   Code   RO          715    i.fast_atan2        ano_math.o
    0x000056c4   0x000056c4   0x00000088   Code   RO          176    i.frame_send_16     user_task.o
    0x0000574c   0x0000574c   0x000000a2   Code   RO          177    i.frame_send_32     user_task.o
    0x000057ee   0x000057ee   0x0000007c   Code   RO          178    i.frame_send_8      user_task.o
    0x0000586a   0x0000586a   0x0000009a   Code   RO          179    i.frame_send_float  user_task.o
    0x00005904   0x00005904   0x00000010   Code   RO            4    i.main              main.o
    0x00005914   0x00005914   0x0000001a   Code   RO          720    i.my_abs            ano_math.o
    0x0000592e   0x0000592e   0x00000036   Code   RO          723    i.my_deadzone       ano_math.o
    0x00005964   0x00005964   0x00000014   Code   RO          726    i.my_sqrt           ano_math.o
    0x00005978   0x00005978   0x00000050   Code   RO          727    i.my_sqrt_reciprocal  ano_math.o
    0x000059c8   0x000059c8   0x00000158   Code   RO          180    i.offset_error_xy   user_task.o
    0x00005b20   0x00005b20   0x000000b8   Code   RO          656    i.rcSignalCheck     drv_bsp.o
    0x00005bd8   0x00005bd8   0x00000404   Data   RO          733    .constdata          ano_math.o
    0x00005fdc   0x00005fdc   0x00000254   Data   RO         1944    .constdata          driverlib.lib(sysctl.o)
    0x00006230   0x00006230   0x000000a0   Data   RO         2280    .constdata          driverlib.lib(timer.o)
    0x000062d0   0x000062d0   0x00000080   Data   RO         2531    .constdata          driverlib.lib(uart.o)
    0x00006350   0x00006350   0x0000010c   Data   RO         3844    .constdata          driverlib.lib(interrupt.o)
    0x0000645c   0x0000645c   0x00000020   Data   RO         5127    Region$$Table       anon$$obj.o


    Execution Region ER_RW (Exec base: 0x20000000, Load base: 0x0000647c, Size: 0x0000066c, Max: 0xffffffff, ABSOLUTE, COMPRESSED[0x00000118])

    Exec Addr    Load Addr    Size         Type   Attr      Idx    E Section Name        Object

    0x20000000   COMPRESSED   0x0000006c   Data   RW          104    .data               ano_scheduler.o
    0x2000006c   COMPRESSED   0x000000d4   Data   RW          182    .data               user_task.o
    0x20000140   COMPRESSED   0x00000006   Data   RW          285    .data               ano_dt_lx.o
    0x20000146   COMPRESSED   0x00000012   Data   RW          388    .data               ano_lx.o
    0x20000158   COMPRESSED   0x00000004   Data   RW          455    .data               lx_fc_ext_sensor.o
    0x2000015c   COMPRESSED   0x00000001   Data   RW          505    .data               lx_fc_fun.o
    0x2000015d   COMPRESSED   0x00000001   PAD
    0x2000015e   COMPRESSED   0x00000006   Data   RW          613    .data               lx_fc_state.o
    0x20000164   COMPRESSED   0x00000013   Data   RW          658    .data               drv_bsp.o
    0x20000177   COMPRESSED   0x00000003   Data   RW          853    .data               drv_anoof.o
    0x2000017a   COMPRESSED   0x000000b6   Data   RW          898    .data               drv_ubloxgps.o
    0x20000230   COMPRESSED   0x00000008   Data   RW          986    .data               drv_sys.o
    0x20000238   COMPRESSED   0x00000004   Data   RW         1044    .data               drv_adc.o
    0x2000023c   COMPRESSED   0x0000000c   Data   RW         1099    .data               drv_led.o
    0x20000248   COMPRESSED   0x0000000c   Data   RW         1187    .data               drv_rcin.o
    0x20000254   COMPRESSED   0x0000000a   Data   RW         1253    .data               drv_uart.o
    0x2000025e   COMPRESSED   0x000001a2   PAD
    0x20000400   COMPRESSED   0x0000026c   Data   RW         3845    vtable              driverlib.lib(interrupt.o)


    Execution Region ER_ZI (Exec base: 0x2000066c, Load base: 0x00006594, Size: 0x0000195c, Max: 0xffffffff, ABSOLUTE)

    Exec Addr    Load Addr    Size         Type   Attr      Idx    E Section Name        Object

    0x2000066c        -       0x00000014   Zero   RW          181    .bss                user_task.o
    0x20000680        -       0x00000750   Zero   RW          284    .bss                ano_dt_lx.o
    0x20000dd0        -       0x00000042   Zero   RW          387    .bss                ano_lx.o
    0x20000e12        -       0x00000030   Zero   RW          454    .bss                lx_fc_ext_sensor.o
    0x20000e42        -       0x0000000b   Zero   RW          612    .bss                lx_fc_state.o
    0x20000e4d   0x00006594   0x00000001   PAD
    0x20000e4e        -       0x0000006b   Zero   RW          657    .bss                drv_bsp.o
    0x20000eb9   0x00006594   0x00000003   PAD
    0x20000ebc        -       0x0000007c   Zero   RW          852    .bss                drv_anoof.o
    0x20000f38        -       0x00000064   Zero   RW          897    .bss                drv_ubloxgps.o
    0x20000f9c        -       0x0000012a   Zero   RW          946    .bss                drv_my_openmv.o
    0x200010c6        -       0x00000500   Zero   RW         1252    .bss                drv_uart.o
    0x200015c6   0x00006594   0x00000002   PAD
    0x200015c8        -       0x00000a00   Zero   RW         1504    STACK               startup_tm4c123.o


==============================================================================

Image component sizes


      Code (inc. data)   RO Data    RW Data    ZI Data      Debug   Object Name

      2192        150          0          6       1872      10152   ano_dt_lx.o
      1244        104          0         18         66       6200   ano_lx.o
       560         34       1028          0          0       4301   ano_math.o
       546         92          0        108          0       5596   ano_scheduler.o
       364         64          0          4          0       2534   drv_adc.o
       900         66          0          3        124       4004   drv_anoof.o
      1240         74          0         19        107       5478   drv_bsp.o
       400         32          0         12          0       2567   drv_led.o
         0          0          0          0        298       1685   drv_my_openmv.o
       964         76          0          0          0       1997   drv_pwmout.o
       608         80          0         12          0       2359   drv_rcin.o
       258         34          0          8          0      33801   drv_sys.o
       144         18          0          0          0       1121   drv_timer.o
      2010        268          0         10       1280      13547   drv_uart.o
       928         86          0        182        100       4370   drv_ubloxgps.o
       240         42          0          4         48       3075   lx_fc_ext_sensor.o
      1056         92          0          1          0       9095   lx_fc_fun.o
       660         46          0          6         11       2869   lx_fc_state.o
        16          0          0          0          0      32073   main.o
       252         10        620          0       2560       5500   startup_tm4c123.o
       152         40          0          0          0        677   system_tm4c123.o
      5828        336          0        212         20      11439   user_task.o

    ----------------------------------------------------------------------
     20568       1744       1680       1024       6492     164440   Object Totals
         0          0         32          0          0          0   (incl. Generated)
         6          0          0        419          6          0   (incl. Padding)

    ----------------------------------------------------------------------

      Code (inc. data)   RO Data    RW Data    ZI Data      Debug   Library Member Name

       104         12          0          0          0       4777   adc.o
       152         16        268        620          0       2150   interrupt.o
       340         36        596          0          0       2653   sysctl.o
       108         16        160          0          0       2255   timer.o
        88         18        128          0          0       1795   uart.o
        86          0          0          0          0          0   __dczerorl2.o
         0          0          0          0          0          0   entry.o
         0          0          0          0          0          0   entry10a.o
         0          0          0          0          0          0   entry11a.o
         8          4          0          0          0          0   entry2.o
         4          0          0          0          0          0   entry5.o
         0          0          0          0          0          0   entry7b.o
         0          0          0          0          0          0   entry8b.o
         8          4          0          0          0          0   entry9a.o
        30          0          0          0          0          0   handlers.o
        36          8          0          0          0         68   init.o
         0          0          0          0          0          0   iusefp.o
        30          0          0          0          0         68   llshl.o
        36          0          0          0          0         68   llsshr.o
        32          0          0          0          0         68   llushr.o
        56          0          0          0          0         88   d2f.o
       334          0          0          0          0        148   dadd.o
       222          0          0          0          0        100   ddiv.o
       186          0          0          0          0        176   depilogue.o
        62          0          0          0          0         80   dfixi.o
        34          0          0          0          0         76   dflti.o
        26          0          0          0          0         76   dfltui.o
       228          0          0          0          0         96   dmul.o
       110          0          0          0          0        168   fepilogue.o

    ----------------------------------------------------------------------
      2324        114       1152        620          0      14910   Library Totals
         4          0          0          0          0          0   (incl. Padding)

    ----------------------------------------------------------------------

      Code (inc. data)   RO Data    RW Data    ZI Data      Debug   Library Name

       792         98       1152        620          0      13630   driverlib.lib
       270         16          0          0          0        272   mc_w.l
      1258          0          0          0          0       1008   mf_w.l

    ----------------------------------------------------------------------
      2324        114       1152        620          0      14910   Library Totals

    ----------------------------------------------------------------------

==============================================================================


      Code (inc. data)   RO Data    RW Data    ZI Data      Debug   

     22892       1858       2832       1644       6492     168262   Grand Totals
     22892       1858       2832        280       6492     168262   ELF Image Totals (compressed)
     22892       1858       2832        280          0          0   ROM Totals

==============================================================================

    Total RO  Size (Code + RO Data)                25724 (  25.12kB)
    Total RW  Size (RW Data + ZI Data)              8136 (   7.95kB)
    Total ROM Size (Code + RO Data + RW Data)      26004 (  25.39kB)

==============================================================================

